:020000040800F2
:10000000781F0020B9020008154300089F3F000830
:1000100011430008C9210008294B00080000000016
:10002000000000000000000000000000CB440008B9
:10003000CD21000800000000A94300082345000866
:10004000D3020008D3020008D3020008D30200083C
:10005000D3020008D3020008D3020008D30200082C
:10006000D3020008D3020008D3020008D30200081C
:10007000D3020008D3020008D3020008D30200080C
:10008000D3020008D3020008D3020008D3020008FC
:10009000D3020008D3020008D3020008CF210008D1
:1000A000D3020008D3020008D3020008D3020008DC
:1000B0008545000895450008A5450008D3020008BD
:1000C000D3020008D3020008D3020008D3020008BC
:1000D000D3020008A94A0008E94A0008D302000830
:1000E000D3020008D3020008D3020008D30200089C
:1000F000D3020008D3020008D3020008D30200088C
:10010000D3020008D3020008D3020008D30200087B
:10011000D3020008D3020008D3020008E945000812
:10012000D3020008D3020008D3020008D30200085B
:1001300000F002F800F0B0F80AA090E8000C824449
:100140008344AAF10107DA4501D100F0A5F8AFF226
:10015000090EBAE80F0013F0010F18BFFB1A43F0A5
:1001600001031847A07E0000C07E00000A444FF043
:10017000000C10F8013B13F0070408BF10F8014B06
:100180001D1108BF10F8015B641E05D010F8016B4B
:10019000641E01F8016BF9D113F0080F1EBF10F8AF
:1001A000014BAD1C0C1B09D16D1E58BF01F801CBD2
:1001B000FAD505E014F8016B01F8016B6D1EF9D555
:1001C0009142D6D37047000000230024002500266A
:1001D000103A28BF78C1FBD8520728BF30C148BFAA
:1001E0000B6070476E2900F03C84702900F0778125
:1001F000662907F0C185652907F0BE85672907F0E4
:10020000BB856129AFF3008003681B0A28BF41F05A
:100210008001692900F0E880642900F0E5807529F3
:1002200000F0E2806F2900F03C85782900F04381DE
:10023000E92900F0D784E42900F0D484F52900F0FE
:10024000D184EF2900F03985F82900F04281036854
:10025000DB0928BF41F08001632900F0468473293F
:1002600000F04B84E32901F03680F32901F03B8054
:10027000002070471FB501F0ABFA040000200021F8
:1002800007F04EFD401C60600020002107F05EFD7D
:10029000E0601FBD10B510BD01F075FA1146FFF703
:1002A000E9FF05F0C3FE01F057FB03B4FFF7F2FFCF
:1002B00003BC04F072FC000009488047094800476D
:1002C000FEE7FEE7FEE7FEE7FEE7FEE7FEE7FEE706
:1002D000FEE7FEE704480549054A064B7047000063
:1002E0002D4500083101000878190020781F0020F2
:1002F000781B0020781B0020704700007CB51D464D
:1003000016460C00009001D02044401E074B7B4451
:100310002A4669460190304600F0BDFB05461CB1F7
:100320000020694600F0CAFB28467CBDB5070000E6
:100330000FB4044910B503AA029800F0E3FB10BC07
:100340005DF814FB5800002070B50446856900680C
:10035000C10601D5302600E02026C00707D070BDB9
:10036000D4E9012130469047206A401C20626D1E6E
:10037000F6D570BD70B5044685690078C00707D111
:1003800070BDD4E9012120209047206A401C2062E2
:100390006D1EF6D570BD70B50C460546012A05D018
:1003A0002878800600D5EA69002302E0012305E0F1
:1003B0005B1C934202D2E05C0028F9D1A869E618E0
:1003C000C01AA861286A184428622846FFF7BCFFB3
:1003D00004E0D5E9012114F8010B9047B442F8D3A9
:1003E0002846FFF7C7FF70BD2DE9F04106460024FF
:1003F00010687529314616A510D000F0C7FA0028FC
:1004000002DA404213A507E031688A0701D512A538
:1004100002E0490704D511A5012401E000F0BFFA6C
:1004200000210A2206F1240709E0B0FBF2FCB0FB30
:10043000F2F302FB1C00303078541846491C0028A7
:10044000F3D123462A463046BDE8F04100F0B0BA69
:10045000000000002D0000002B0000002000000024
:10046000F0B40D460188090502D5214C7C4402E018
:100470001F4C7C440E34002100F1240608E002F0F9
:100480000F071209E75D42EA03721B097754491C02
:1004900052EA0307F3D102780023120704D5702D26
:1004A00006D009B1022311342246F0BC00F080BA14
:1004B00001231034F8E770B504460D462146106854
:1004C00000F06DFA024629462046BDE87040002340
:1004D000C6E7D21D22F00703D3E90023C0E7036873
:1004E000126843F0200303600823C3610023B7E7C9
:1004F000247900002DE9F05F894604464FF0000A98
:10050000DFF874B1FB44C0F820A02046E1688847BA
:10051000002874D0252806D0D4E901219047206A0C
:10052000401C2062F1E700265F462046E1688847CC
:100530002028054607DB312D05D2781910F8200C4C
:1005400008B10643F1E7B00701D526F00406C4F868
:100550001CA00027C4F818A02A2D09D0284604F0B2
:1005600015FB38B304EB8708303DC8F8185019E084
:1005700059F8041B204604EB87029161E168884723
:10058000012F054618D1E069002820DA26F0200660
:100590001DE0D8F8180000EB800005EB4000303873
:1005A000C8F818002046E1688847054604F0EEFACE
:1005B0000028EED1012F0AD02E2D08D12046E16867
:1005C00088477F1C0546022F46F02006C4DBA06941
:1005D000002803DA404246F00106A061F00701D08E
:1005E00026F010066C2D0BD0682D09D04C2D39D07B
:1005F0006A2D35D0742D35D07A2D33D016E038E001
:10060000E1682F4620468847B842054609D16C2F3D
:1006100026D04FF48060E1680643204688470546AF
:1006200004E06C2F1AD04FF4807006430DB3A5F18F
:100630004100192802D8203546F400664A4629466A
:10064000204626604E46FFF7CDFD80B101280BD035
:10065000F61D26F0070000F1080956E74020E4E700
:100660008020D8E70020D6E706F104094DE72846A8
:1006700052E7206ABDE8F09FB47800000FB400B5DF
:100680008DB010A9099000910B904FF0FF300A90A7
:1006900000200C90064878440690064878446A4644
:1006A00007900F9909A800F019FB0DB05DF814FB35
:1006B000630600007B0600002DE9FF5F4FF0000895
:1006C0009946144646469169D2E901A7DDF838B04B
:1006D00001988847054659EA0B0005D009E0A16951
:1006E0000198761C88470546216A284688470028D5
:1006F000F5D1681C03D05FEACA7005D015E04FF051
:10070000FF3004B0BDE8F09F2068011D2160D0F8E3
:1007100000800AE05FEACA7001D108F8015BA169B4
:10072000761C01987F1E88470546002F1ADD681C3D
:1007300018D0B9F1000F0DD0E81705EBD0604211C9
:1007400020F01F0059F822102A1A0120904001427F
:10075000E0D107E0BBF1000FDCD12846216A8847D1
:100760000028D7D0E16901988847BBF1000F07D175
:10077000002E05DD5FEACA7002D1002188F8001062
:10078000A068B84203DDBBF1000F03D017B16FF0D2
:100790000100B6E73046B4E770B5064600F0F2F85F
:1007A0000468054630460A22002100F0C7FA2C6092
:1007B00070BD0000014A00F0F9BA000010020020EC
:1007C000401ECAB210F8011F8A4202D00029F9D196
:1007D0000020704710B5431C02E010F8011B71B1F6
:1007E0008107FAD14FF0013202C88C1A8C4314EA07
:1007F000C211F9D0C01A0A0603D0C01E10BDC01A1B
:1008000010BD0A0401D0801E10BD0902FCD0401E9C
:1008100010BD4FF000020429C0F0128010F0030C4C
:1008200000F01B80CCF1040CBCF1020F18BF00F8E3
:10083000012BA8BF20F8022BA1EB0C0100F00DB892
:100840005FEAC17C24BF00F8012B00F8012B48BFF0
:1008500000F8012B70474FF0000200B51346944694
:100860009646203922BFA0E80C50A0E80C50B1F108
:100870002001BFF4F7AF090728BFA0E80C5048BF1C
:100880000CC05DF804EB890028BF40F8042B08BFBA
:10089000704748BF20F8022B11F0804F18BF00F8B6
:1008A000012B704710B5044610F0030F08BF11F07C
:1008B000030F40F015804FF0013E121FC0F20E8072
:1008C00051F8043BA3EB0E0C2CEA030C1CEACE1CE3
:1008D00008BF40F8043BF0D0A1F1040102F104028A
:1008E000521E08DB11F8013B002B00F8013BF7D149
:1008F0001146FFF78EFF204610BD00004FF0013C6F
:1009000050F8042B51F8043B9A4221D1A2EB0C037E
:10091000934313EACC1317D150F8042B51F8043B3E
:100920009A4215D1A2EB0C03934313EACC130BD1DB
:1009300050F8042B51F8043B9A4209D1A2EB0C0366
:10094000934313EACC13DBD04FF00000704700BF95
:10095000D01A01BAB1FA81F101F0180122FA01F0BE
:10096000CB40C1F12001DBB2C0B2C01A2CFA01F3B6
:10097000D11A914311EAC311E6D17047704770470D
:1009800070477047004870471419002009684A05ED
:1009900001D540B27047C905FCD500B2704709685F
:1009A0004A0501D5C0B27047C905FCD580B2704771
:1009B0002DE9F0470D4699469246044600F1240879
:1009C0000168880604D5E06921F01001216000E08B
:1009D0000120A84201DD471B00E00027A1697A1928
:1009E00002EB0900081AA0612078C00602D4204654
:1009F000FFF7AAFC002608E0D4E901211AF8060056
:100A00009047206A401C761C20624E45F4DB20781B
:100A1000C0060AD52046FFF797FC06E0D4E901217D
:100A200030209047206A401C2062381EA7F1010741
:100A3000F4DC07E0D4E9012118F805009047206AAA
:100A4000401C2062281EA5F10105F3DC2046FFF7BB
:100A500091FC2078000602D50220BDE8F087012035
:100A6000FBE711680268006A530501D508700AE0C7
:100A7000D30501D5088006E0130603D5C217C1E9E6
:100A8000000200E0086001207047000001694A1C74
:100A900002610878704700B58FB0CDE901310021BF
:100AA000059105497944CDE9031011466846FFF7E1
:100AB00021FD0FB000BD0000E5FFFFFF0A6802F84E
:100AC000010B0A607047D1E900239A4202D2531CFD
:100AD0000B601070704710B5436913B1AFF300801D
:100AE00001E0FFF758FC012010BD127800F124014D
:100AF0000A7000224A700122EDE711684FF0FF32C0
:100B0000E9E70000074B70B50D467B44FFF7C3FFD4
:100B10000446284600F0F5FD10B14FF0FF3070BDDF
:100B2000204670BD875300002DE9FF5F15468A46B9
:100B30000446DFF8AC80F8440027D8E900103E46B0
:100B4000CDE9001010E03AF816106A4602A800F04D
:100B5000DCFD411C07D02178890603D5E2693918EC
:100B600091420DD80744761C2078800602D5E069B2
:100B7000B84205DDAE42E6DB3AF816000028E2D1C5
:100B8000A069C01BA0612046FFF7DEFBD8E900107A
:100B9000CDE90010002017E03AF818106A4602A8C4
:100BA00000F0B3FDB0F1FF3F81460BD000250DF101
:100BB000080B05E0D4E901211BF8050090476D1CE6
:100BC0004D45F7D308F10100B0428046E4DB206ACE
:100BD000384420622046FFF7CDFBBDE8FF9F0000B0
:100BE000967200002DE9F0418046D21D22F00702E6
:100BF0000025D2E90002F52915A614D0011E72F1D4
:100C0000000106DA0023D0EB030063EB020211A619
:100C100008E0D8F800108B0701D50FA602E04907BD
:100C200001D50EA601251146002408F1240704E091
:100C300000F0EAF830323A55641C50EA0102F7D16C
:100C40002B46324621464046BDE8F041FFF7B0BE94
:100C5000000000002D0000002B000000200000001C
:100C600030B4002100F1240408E002F00705D208A6
:100C7000303542EA4372DB086554491C52EA0305E9
:100C8000F3D10468002310A2250707D5A40600D4D9
:100C900021B1C46901230DA2641EC46130BCFFF7F9
:100CA00087BE10B5044621461068FFF778FE02465D
:100CB0002046BDE810400023D2E7D21D22F00701F4
:100CC000D1E90023CCE70000000000003000000064
:100CD000026811441378016018467047D1600549D5
:100CE000794451610449794411620021116111462E
:100CF00000F0FEBAEDFFFFFFA9010000426842B11B
:100D0000016811F8013B23B1521EC0E900121846D8
:100D100070470121C160881E704742685AB1C3689C
:100D2000016843B983688B4205D0491E521CC0E953
:100D30000012002070474FF0FF3070472DE9F04758
:100D400091460F4680460446002614F8015B2DB1FB
:100D500000F052F80068405DC007F6D12B2D02D09C
:100D60002D2D18D0641E4A463946204600F07AFCE4
:100D700027B13968A14201D1C7F800804FF00204C1
:100D800071050BD54042002803DDFFF7FBFD046031
:100D9000A007BDE8F08746F48066E4E70028F8DAAB
:100DA000FFF7F0FD04606FF00040F2E72DE9F0413D
:100DB00015460E46040002D12C6804B90BA4204647
:100DC00000F0D3FC0444207870B127463146384601
:100DD00000F0BBFC0444207810B1002004F8010BA3
:100DE00038462C60BDE8F0810027F9E700000000DC
:100DF000004870471419002010B500F0E9FC001DF0
:100E000010BD00BF1D6F000030B5B0F10A024FEAFF
:100E1000900E71F100034EEA817EB0EB0E0061EBA3
:100E200091014FEA101E4EEA017E10EB0E0041EBDD
:100E300011114FEA102E4EEA016E10EB0E0041EB3D
:100E400011214FEA104E4EEA014E10EB0E0041EB1D
:100E50001141401841F100014FEAD00040EA4170D1
:100E60004FEAD10110EB80054FEA810444EA907407
:100E700044EB01046D1944EB0404521BA3414FF0F1
:100E8000000348BF0A3200D530BD401C41F10001CB
:100E900030BD10B50446FFF7AFFF0068005D00F0FD
:100EA000010010BD70472DE9FF4F0C461E464FF064
:100EB000FF378BB0D2E90001DDF860800A908A46E6
:100EC000C1F30A5505B93D46002108464FF0000020
:100ED000BAF1000F00F4400005DA00EB80004FF497
:100EE000400101EA50004FEA9059B9F1010F00DDCD
:100EF000B9460A9850EA4A000ED044F61050A5F2BE
:100F0000FF3545432F14B8F1000F1ED07542291E3E
:100F10001EDDC9F100021CE0B8F1010F4FF0000026
:100F200001D0302103E0F24305E02154401CB042DF
:100F3000FBDB30460022002121540B99C1F80880C8
:100F4000C1E900200FB0BDE8F08FBD1B6D1CDEE7CE
:100F50004A4600DA694206A800F08CFC06AB93E82A
:100F6000070003AB83E8070050460A9900F0FDFC38
:100F70008DE80700A0F500501F3800900398002D61
:100F80000ADD42F21F014A460844002303A90390E8
:100F9000684600F066FF09E0A0F500504A461F3899
:100FA000002303A90390684600F070FF8DE8070056
:100FB0000004000C03D04FF0FF30410800E0104661
:100FC000B8F1000F03D00022009215461EE0751EF6
:100FD00005D4FFF719FF303262556D1EF9D5B346BF
:100FE0000122084302D000227F1C04E02078302830
:100FF00001D100227F1E002A099784D01DE0112D07
:1010000007DAFFF701FF303262556D1C50EA01022A
:10101000F5D1084302D00098C8B10EE00021681E47
:1010200005E0235C625C63542254401E491C8142EB
:10103000F7DBAB46A81B401E0990002004F80B000C
:101040000B98099AC0F80880C0E9002B7AE71126AE
:101050004FF0000857E72DE9F04F88460446D21DAF
:1010600022F0070191B0D1E90001CDE90A0103F0B6
:101070005DFD02460B98C00F01D02D2007E02068CF
:10108000810701D52B2002E0202101EAC000032ABC
:10109000099001D0072A05DB03464146204600F0AF
:1010A0009BFB0BE12078800601D5E06900E006207B
:1010B000B8F1650F814606D0B8F1660F18D0B8F1C7
:1010C000670F70D131E00020B9F1110F009001DB02
:1010D000112301E009F101030AAA01A90CA8FFF7F5
:1010E000E2FEDDE90C70002609F10105834647E0C8
:1010F00001204B4600904FF000470AAA01A90CA816
:10110000FFF7D1FEDDE90DB00C995D46002610B960
:1011100009F101000D18B9EB050003D4C0F1FF3649
:1011200009F10105A5EB09002BE0B9F1010F01DA86
:101130004FF001090020B9F1110F0090484601DD80
:10114000112300E003460AAA01A90CA8FFF7ABFE91
:10115000DDE90C704D4600268346207800070AD44E
:10116000AB4500DA5D4601A8012D04DD411911F8F7
:10117000011C302907D04F4502DA17F1040F04DAB9
:10118000012082460FE06D1EEEE7002F02DCED1B12
:101190003E4403E0781CA84200DD7D1CB81B00F132
:1011A000010A4FF000472078000703D4AA4501DB6D
:1011B0004FF0FF3A0021B7F1004F0DF143088DF8D1
:1011C000431024D002202B23002F01DA7F422D234D
:1011D0000A21021EA0F1010000DC5FB197FBF1FCC7
:1011E00097FBF1F201FB1C7C17460CF1300C08F860
:1011F00001CDEEE7A8F1010003702188090501D5B2
:10120000452100E06521A0F1010800F8011C0998C2
:101210000FA9A1EB0807FF1D00B10120411901EB47
:10122000EA70A1693844081A401EA0612078C006FF
:1012300002D42046FFF788F8099828B1D4E90121A3
:101240009047206A401C20622078C00622D52046A4
:10125000FFF77AF81EE0002E04DBB34502DD01A89B
:10126000805D00E03020D4E901219047206A401CD5
:101270002062761CAAF101005FEA000A0AD100F0A0
:10128000A7FAC0680168405CD4E901219047206A50
:10129000401C2062281EA5F10105DCDC07E0D4E932
:1012A000012118F8010B9047206A401C2062381E6B
:1012B000A7F10107F3DC2046FFF75CF8032011B02B
:1012C00041E610B5436913B1AFF3008001E0FFF7C9
:1012D0002BFC012010BD128800F124018284002221
:1012E000C2840122EDE711684FF0FF32E9E7000008
:1012F0002DE9F34F4FF0000A0C4656468DB0012001
:101300000C9001F10C000B9062690B980121904741
:10131000051E2DD0252D2CD0216A8847C0B16269C9
:101320000B9801219047216A88470028F7D162690C
:10133000411E0B98904700E0761CA1690D988847E4
:10134000216A88470028F7D1E1690D988847DBE7D3
:10135000A1690D988847A842074601D1761CD3E7BA
:10136000E1690D9888477F1C02D1BAF1000F6FD058
:101370006BE162690B9800273D46394690472A2861
:1013800004D162690B98012190470125DFF8D082D2
:1013900062690B9801219047A0F130010A290AD215
:1013A0004745E5DC07EB870100EB4107303FDFD421
:1013B00045F01005ECE7E90601D46FF000476C2812
:1013C0000AD04C2814D0682815D06A280DD074286B
:1013D0001CD07A281AD01DE062690B980121904731
:1013E0006C2802D045F0040514E045F002050DE03C
:1013F00045F020050AE062690B98012190476828B2
:1014000002D045F0080505E045F4006562690B98D7
:1014100001219047C4E9015765283DD019DC5828BF
:101420007AD00CDC452837D004DC252826D041288A
:101430009ED131E046282FD0472899D12CE05B2857
:1014400077D0612828D063287CD0642823D15AE043
:10145000F6E06F2848D008DC66281DD067281BD02E
:10146000692821D06E2816D127E0702845D073282E
:1014700068D0752847D078280DD14DE0A1690D9826
:101480008847252805463FF469AFE1690D988847EC
:101490006D1C3FF46AAFD8E00D9923466A466FF0A1
:1014A0000100AFF30080C5E045F0400023464FF057
:1014B00000026060A80736D43EE0E8077FF447AF3B
:1014C0002068011D21600068290501D506701BE711
:1014D000290701D5068017E7A90703D5F117C0E949
:1014E000006111E706600FE745F0400023464FF02A
:1014F00008026060A80716D41EE040F60E0125EA37
:101500000100606016E045F0400023464FF00A02FB
:101510006060A80707D40FE045F040006060A807AE
:1015200008D5234610220D996FF00100AFF300801B
:1015300080E007E0102223460D996FF00100AFF321
:10154000008077E04FF0000963284F46C8464B46BD
:10155000CB4602D05B2806D038E0E80601D4012053
:10156000A060012732E06269D4F80CB00B98012129
:1015700090475E2807D14FF0010949466269D4F8C7
:101580000CB00B989047216939B900210A4603AB8A
:1015900043F82120491C0829FADBD8B3216949B353
:1015A00008F1010862690B98012190475D28F4D188
:1015B000B9F1000F09D0002003A951F82020D2432F
:1015C00041F82020401C0828F7DB03AB20690028E5
:1015D00020794FEA40701ED05B462246CDF800804D
:1015E000CDE901970D9900286FF0010020DAAFF3E3
:1015F00000801FE0C11703AA00EBD1614B1121F05D
:101600001F0102EB8302411A136801208840034343
:101610001360C7E719E00D99224600286FF001001A
:10162000009702DAAFF3008004E0FFF745F801E02D
:10163000AFF3008000280ADA401C06D10C9820B1D4
:101640004FF0FF300FB0BDE8F08F5046FAE7E907E2
:1016500001D10AF1010A064400200C9054E6000072
:10166000CCCCCC0C2DE9F05F824615468B4600278A
:101670000AF10104B9460078302801D09DB113E089
:1016800014F8010B0127782803D0582801D045B160
:101690000AE00DB1102D07D1002714F8010B102519
:1016A00002E0082500E00A250026B0460EE005FB12
:1016B000080005FB06F101271FFA80F801EB104630
:1016C000B6F5803F00D3B94614F8010B294600F067
:1016D000C3F80028EBDABBF1000F05D00FB1641E90
:1016E00000E05446CBF80040B9F1000F06D0FFF7F8
:1016F00049F902210160C81EBDE8F09F48EA064092
:10170000FAE7007B00F08000704770B516460C4683
:101710000546FFF771FB036893F80101012806D025
:10172000FF2C0FD8185D68B101202C7070BDD3F864
:1017300007013246214603F2071303442846BDE859
:10174000704018474FF0FF3070BD30B503461D782C
:101750001DB10A4603E0AC4201D1181A30BD12F89F
:10176000014B002CF7D15B1CF1E730B503461D7827
:101770003DB10A4612F8014B1CB1AC42FAD15B1CD8
:10178000F5E7181A30BD7546FFF732FBAE46050087
:101790006946534620F00700854618B020B5FEF78D
:1017A00099FDBDE820404FF000064FF000074FF0D4
:1017B00000084FF0000B21F00701AC46ACE8C0096F
:1017C000ACE8C009ACE8C009ACE8C0098D46704778
:1017D00000487047341900202DE9F0411F460446A7
:1017E00003260168072A01F4006004DB08B116A58E
:1017F00005E016A503E008B115A500E015A521F048
:1018000010002060A069C01EA0610FB1401EA06141
:101810002046FEF799FD4FB1D4E9012138469047A3
:10182000206A401C2062C01C206206E0206AFAE7A1
:10183000D4E9012115F8010B9047761EF8D2204615
:10184000FEF798FDBDE8F0814E414E006E616E00DE
:10185000494E4600696E66003A2800D2303820F0C2
:101860002002412A01D3A2F13700884201D34FF070
:10187000FF3070472DE9F047814616468AB035485B
:1018800078440DC88DE80D0032487844801C03ACC4
:101890000DC884E80D0041F69B300844372190FBC9
:1018A000F1F290FBF1F5A5F1800501FB12041B3C60
:1018B00002D56442012000E00020DFF898A08046B5
:1018C0000027FA44AAF1BE0A0EE0E0070AD0324629
:1018D000684607EB470101230AEB810100F0D6FAC5
:1018E0008DE8070064107F1C002CEED1194F7F4457
:1018F000AE3F19E0E80715D007EB04100DF1180A08
:1019000090E80E008AE80E00C068F04201D19819F4
:1019100008903246012306A903A800F0B7FA03ABEA
:1019200083E807006D10641C002DE3D14FF0010324
:1019300032466946B8F1000F03A802D000F091FAD0
:1019400001E000F0A3FAC9E90001C9F808200AB0D3
:10195000BDE8F087D065000010B50446AFF3008005
:101960002046BDE81040FEF7A0BC5FEA400C08BF6F
:1019700091F0000F4FEA8C234FEAC12243EA515104
:101980004FEA1C5018BF00F5F0404FEA300018BF76
:1019900041F000415FEA6C5C00F02980BCF1FF3F40
:1019A00008BF40F080407047130C06BF12044FF090
:1019B000100C4FF0000C130E04BF12020CF1080CB7
:1019C000130F04BF12010CF1040C930F04BF92001B
:1019D0000CF1020CD30F04BF52000CF1010C1146A4
:1019E0004FF00002A0F11F00A0EB0C00704711F0B7
:1019F000004F08BF704731F000413FF4D5AF0B0CEA
:101A000006BF09044FF0100C4FF0000C0B0E04BF82
:101A100009020CF1080C0B0F04BF09010CF1040CB6
:101A20008B0F04BF89000CF1020CCB0F04BF4900DF
:101A30000CF1010CCCF12003A0EB0C0022FA03F313
:101A400002FA0CF241EA030100F10100704720F0B4
:101A50007F4C80EA030023F07F47ACEB070303F5DC
:101A60007C5300F0004003F1FF032DE980494FEA69
:101A7000154B09B44FEA144325EA0B4E24EA0348F8
:101A80000FF2042606EB132749083E785FEA32027C
:101A900003FB0667C7F5000707FB06F64FEA543756
:101AA0004FEAD64606F1020607FB066CCCF1005C55
:101AB0004FEA1C472CEA074C07FB06F40CFB06F523
:101AC00004EB15464FEA961634BF00204FF0004055
:101AD0004FEAD13706FB07FC4FEA1C4C0CFB0BF717
:101AE000D21B03FB0CF761EB07010CFB0EF7B0EB0D
:101AF000074072EB17420CFB08F734BFA2EB07421A
:101B0000B2EB074261EB17414FEA0C444FEA9107F1
:101B100006FB07FC4FEA1C4C0CFB0BF7B0EBC74075
:101B200072EB573203FB0CF734BFA2EBC742B2EBA8
:101B3000C74261EB57310CFB0EF7B0EBC70072EBFD
:101B400057720CFB08F734BFA2EBC702B2EBC70217
:101B500061EB5771039F4FEA816141EA921104EBF7
:101B6000CC044FEAD1374FEA826206FB07FC42EA17
:101B700090124FEA80604FEA1C4C0CFB0BF7D21B13
:101B800003FB0CF761EB07010CFB0EF7B0EB074012
:101B900072EB17420CFB08F734BFA2EB0742B2EB23
:101BA000074261EB17414FEA8C554FEA910704EB6E
:101BB0009C2406FB07FC4FEA1C4C0CFB0BF7B0EB1C
:101BC000C74072EB573203FB0CF734BFA2EBC7429E
:101BD000B2EBC74261EB57310CFB0EF7B0EBC7001D
:101BE00072EB57720CFB08F734BFA2EBC702B2EBE3
:101BF000C70261EB577115EB4C254FEA816141EA51
:101C000092114FEA82624FEAD13742EA901206FB04
:101C100007FC44F100044FEA80604FEA1C4C0CFBC7
:101C20000BF7D21B03FB0CF761EB07010CFB0EF764
:101C3000B0EB074072EB17420CFB08F734BFA2EB86
:101C40000742B2EB074261EB174115EB1C154FEA57
:101C5000813141EA92414FEA823242EA90424FEAB0
:101C600080304FEA0C7644F1000448EA03434EEA20
:101C70000B484FF0000EB2EB080C71EB030724BFCA
:101C8000624639464EEB0E0E4FF0000B00185241E3
:101C900049414BEB0B0BB2EB080C71EB03077BF1EB
:101CA000000B24BF624639464EEB0E0E4FF0000B80
:101CB0000018524149414BEB0B0BB2EB080C71EB96
:101CC00003077BF1000B24BF624639464EEB0E0E34
:101CD00051EA020718BF46F0010616EB0E7655F1E1
:101CE000000254F1000103D5BDE88901BDE8008878
:101CF000BDE88901BDE80048B619524141EB010138
:101D0000A3F10103704780807F7E7D7C7B7A7978A8
:101D1000777676757473727171706F6E6E6D6C6CB0
:101D20006B6A6A6968686766666564646363626152
:101D30006160605F5F5E5E5D5D5C5C5B5B5A5A59D3
:101D4000595858575756565555555454535352523F
:101D50005251515050504F4F4F4E4E4D4D4D4C4C97
:101D60004C4B4B4B4A4A4A494949484848474747E0
:101D7000474646464545454444444443434343421D
:101D8000424242414141002B9C4630D477002BD047
:101D90001CB54FEA370703B44FF010004FF01001A5
:101DA000BAF1000F06D0BCF1000FDCBF40F0080014
:101DB00040F008014FF000000FBCBDE810400BF1EF
:101DC000010BBBF1010F08BF5FEA170722BF12F139
:101DD000010211F101014FF0004143F1000300F055
:101DE000004043EA00007047F9D35708D0E746EABD
:101DF000064613F1400F4FEA16461FDD13F1200F80
:101E0000DFBF16430A46002120335B42BED0C3F138
:101E1000200746EA064602FA07F74FEA164646EA60
:101E20000706C3F1200722FA03F201FA07F721FAA5
:101E300003F14FF0000342EA0702A7E746EA020671
:101E400046EA06464FEA164646EA0106BCBF46EA9F
:101E50000646360C4FF000034FF000024FF0000131
:101E600094E72DE9804C9A46934670B491E8380087
:101E700007C831EA400C48BF34EA430C03D5FFF7EA
:101E8000E6FDFFF780FFF0BCBDE8008C2DE9804C3B
:101E90009A46934670B491E8380007C810F0804F16
:101EA00008BF13F0804F03D100F005F8FFF76BFF78
:101EB000F0BCBDE8008C20F07F4780EA030023F0EF
:101EC0007F4C07EB0C03A3F57C5300F00040A3F11B
:101ED000FE0392F0000F00F0B38095F0000F00F0C9
:101EE00077802DE901494FEA11404FEA144621EA73
:101EF000004800FB06FC24EA064708FB06F607FB41
:101F000008F800FB07F718EB06484CEB164C4FEAB5
:101F1000124B18EB07484FEA15464CEB174022EAE4
:101F20000B4E0BFB06FC25EA06470EFB06F607FBED
:101F30000EFE0BFB07F71EEB064E4CEB164C4FF05C
:101F400000061EEB074E4CEB174B18EB0B0840F14D
:101F5000000018EB0E0B58EB000840F100008F1A40
:101F60004FF000013CBFC943661B14BFB5EB040C26
:101F700000213CBFC943F61B4FEA17444EEA8E0EC0
:101F800027EA04454FEA1C4704FB07622CEA074C8A
:101F900005FB07F70CFB05F604FB0CFC16EB0746EC
:101FA00042EB174216EB0C4642EB1C421BEB0606BB
:101FB00058EB0202414146EA9E0601D5BDE801897F
:101FC000B619524141EB0101A3F10103BDE80189BA
:101FD0004FEA14454FEA114724EA054621EA074C27
:101FE00005FB07F406FB07F70CFB06F105FB0CFCF1
:101FF00011EB074144EB17444FEA124711EB0C4138
:1020000044EB1C4422EA074C05FB07F206FB07F7EA
:102010000CFB06F605FB0CFC16EB074642EB1742E1
:1020200016EB0C4642EB1C456A1854F1000148BF00
:102030007047B619524141EB0101A3F1010370470A
:1020400095F0000F37D04FEA11424FEA144721EACA
:10205000024624EA074C02FB07F106FB07F70CFBDC
:1020600006F402FB0CFC14EB074441EB17414FEA6A
:10207000154714EB0C4441EB1C4125EA074C02FBCD
:1020800007F506FB07F70CFB06F602FB0CFC16EB4C
:10209000074645EB174516EB0C4645EB1C4212195B
:1020A00051F1000148BF7047B619524141EB01019F
:1020B000A3F1010370474FEA14454FEA114724EAA0
:1020C000054621EA074C05FB07F106FB07F70CFB69
:1020D00006F24FF0000605FB0CFC12EB074241EB49
:1020E000174112EB0C4251EB1C4148BF704792184C
:1020F00041EB0101A3F10103704710B5FF2000F08F
:1021000013F80446552C01D1002010BD5521FF20A5
:1021100000F034F8FF2000F007F80446552C01D1F8
:102120000020F2E70120F0E770B50446002602F037
:1021300003F8A02001F0C2FF02F052F8201201F0D3
:10214000BDFF02F04DF82546E11704EB11610912BD
:10215000A4EB0121C8B201F0B1FF02F041F801F097
:10216000EBFFA12001F0AAFF02F03AF8002001F0F5
:102170006DFF064602F00AF8304670BD70B50446A1
:102180000E4601F0D9FFA02001F098FF02F028F8D8
:10219000201201F093FF02F023F82546E11704EB2B
:1021A00011610912A4EB0121C8B201F087FF02F00E
:1021B00017F8304601F082FF02F012F801F0E6FF56
:1021C0000A2003F06BFD70BD00BFFEE7704710B53D
:1021D0004FF4807000F0F4F810BD000070B50446B4
:1021E000002594F82100022803D00420A0630125D3
:1021F000C1E02068006820F00E00216808602068B7
:10220000006820F00100216808605C49206888426D
:1022100052D95A4978392068884201D1012047E0D3
:10222000564964392068884201D1102040E0534962
:1022300050392068884201D1801539E04F493C3936
:102240002068884201D1801432E04C492839206846
:10225000884202D14FF480302AE04849143920687E
:10226000884202D14FF4801022E04449206888421D
:1022700001D140041CE042492068884201D101207C
:1022800016E03F4914312068884201D110200FE048
:102290003B4928312068884201D1801508E038493F
:1022A0003C312068884201D1801401E04FF4803035
:1022B0003349091F086051E0304978392068884265
:1022C00001D1012047E02D4964392068884201D1BD
:1022D000102040E0294950392068884201D18015FA
:1022E00039E026493C392068884201D1801432E027
:1022F000224928392068884202D14FF480302AE0F0
:102300001E4914392068884202D14FF4801022E01F
:102310001A492068884201D140041CE0184920680D
:10232000884201D1012016E0154914312068884205
:1023300001D110200FE0124928312068884201D1D4
:10234000801508E00E493C312068884201D1801494
:1023500001E04FF48030094980394860012084F859
:10236000210000BF002084F8200000BF606B10B186
:102370002046616B8847284670BD000080000240FF
:1023800008040240B0F5807F13D10A49096821F49E
:102390008071084A11600021074A1180074A1268BB
:1023A000516206490968096841F00101034A12684F
:1023B0001160704700040140540000209402002086
:1023C00010B5044604480068204020B1024804606B
:1023D0002046FFF7D7FF10BD140401402DE9F84750
:1023E000024600239C467BE14FF0010808FA03F403
:1023F000D1F8008008EA0400A0427DD1DFF8F4A201
:10240000D1F80480A8EB0A09D0453AD014DCB8F121
:10241000030F50D009DCB8F1000F31D0B8F1010F33
:102420001CD0B8F1020F49D120E0B8F1110F18D03B
:10243000B8F1120F42D11EE0B9F5881F25D006DC95
:10244000B9F5803F20D0B9F5801F37D11AE0B9F532
:10245000001F18D0B9F5041F30D117E0D1F80CC017
:102460002DE0D1F80C8008F1040C28E0D1F80C80A4
:1024700008F1080C23E0D1F80C8008F10C0C1EE0E8
:1024800000BF00BF00BF00BF00BF00BFD1F8088081
:10249000B8F1000F02D14FF0040C0BE0D1F8088026
:1024A000B8F1010F03D14FF0080C146102E04FF0B6
:1024B000080C546103E04FF0000C00E000BF00BFC7
:1024C000FF2801D8904601E002F104084646FF28A3
:1024D00002D84FEA830803E0A3F108084FEA88080E
:1024E0004746D6F800804FF00F0909FA07F928EAA5
:1024F00009080CFA07F900E07AE048EA0908C6F88A
:102500000080D1F8048008F08058B8F1805F6FD166
:1025100000BFDFF8E481D8F8188048F00108DFF840
:10252000D891C9F81880C846D8F8188008F0010872
:10253000CDF8008000BF00BF4FEAB9384FEA9309D9
:1025400058F829504FEA83784FEA18794FF00F086E
:1025500008FA09F825EA0805DFF8A081424502D10A
:102560004FF0000824E0DFF89881424502D14FF097
:1025700001081DE0DFF88C81424502D14FF00208CE
:1025800016E0DFF88481424502D14FF003080FE0E6
:10259000DFF87881424502D14FF0040808E0DFF807
:1025A0007081424502D14FF0050801E04FF0060866
:1025B0004FEA83794FEA197908FA09F848EA0505DC
:1025C000DFF850814FEA930948F82950D1F8048088
:1025D00008F48038B8F5803F0BD1DFF83C81D8F89B
:1025E000008048EA0008DFF83091C9F800800AE06E
:1025F00075E0DFF82481D8F8008028EA0008DFF8C9
:102600001891C9F80080D1F8048008F40038B8F5B2
:10261000003F0ED1DFF8008108F10408D8F80080EF
:1026200048EA0008DFF8F09009F10409C9F80080D1
:102630000DE0DFF8E48008F10408D8F8008028EA0B
:102640000008DFF8D49009F10409C9F80080D1F836
:10265000048008F48018B8F5801F0ED1DFF8B88028
:1026600008F10808D8F8008048EA0008DFF8A890C8
:1026700009F10809C9F800800DE0DFF89C8008F135
:102680000808D8F8008028EA0008DFF88C9009F1E3
:102690000809C9F80080D1F8048008F40018B8F5DA
:1026A000001F0ED1DFF8708008F10C08D8F8008008
:1026B00048EA0008DFF8609009F10C09C9F80080C9
:1026C0000DE0DFF8548008F10C08D8F8008028EA03
:1026D0000008DFF8449009F10C09C9F800805B1C80
:1026E000D1F8008028FA03F8B8F1000F7FF47CAE2F
:1026F000BDE8F887000011100010024000080140FA
:10270000000C01400010014000140140001801407D
:10271000001C01400800014000040140024693688B
:102720000B400BB1012000E0002070470AB10161AD
:1027300001E00B0403617047014800687047000026
:102740000002002070B504460CB9012070BD4CF6A3
:10275000CC402168086045F2555021680860D4E9F2
:10276000001048602168A0688860FFF7E5FF054613
:1027700006E0FFF7E1FF401B302801D90320E5E721
:102780002068C0680028F4D14AF6AA2021680860B1
:102790000020DBE701464AF6AA200A681060002004
:1027A000704700000348006803490978084401495C
:1027B00008607047000200200802002010B5084899
:1027C000006840F0100006490860052000F080F81D
:1027D0000F2000F007F800F02BF8002010BD0000DB
:1027E0000020024070B504460E4800784FF47A711C
:1027F000B1FBF0F00C490968B1FBF0F5284600F098
:102800003AFE08B1012070BD102C07D200222146EB
:10281000501E00F01EF80548046001E00120F2E7B8
:102820000020F0E708020020000000200402002041
:10283000704701460846002809DB00F01F0301220B
:102840009A4043099B0003F1E023C3F8002100BF35
:1028500070472DE9F05F80460D461646002702F0CE
:1028600079F9074639462A46334601F00700C0F198
:10287000070ABAF1040F02D94FF0040A01E0C0F1CF
:10288000070AD14600F1040ABAF1070F02D24FF04D
:10289000000A01E0A0F1030AD4464FF0010A0AFA47
:1028A00009FAAAF1010A0AEA020A0AFA0CFA4FF036
:1028B000010B0BFA0CFBABF1010B0BEA030B4AEA21
:1028C0000B042146404602F04DF9BDE8F09F0000A0
:1028D00000BF00F00702064B19684FF6FF031940CE
:1028E000044B0B4343EA0221014B196000BF7047C0
:1028F0000CED00E00000FA0570B504460D460CB979
:10290000012070BD5A48006800F00700A8420ED2AE
:102910005748006820F007002843554908600846DA
:10292000006800F00700A84201D00120E9E7207804
:1029300000F0020002281DD1207800F004000428D5
:1029400005D14C48406840F4E0604A49486020782E
:1029500000F00800082805D14648406840F460505F
:10296000444948604348406820F0F000A1680843AB
:1029700040494860207800F0010078B36068012881
:1029800006D13C48006800F4003090B90120B8E757
:102990006068022806D13748006800F0007040B92E
:1029A0000120AEE73348006800F0020008B90120BA
:1029B000A7E73048406820F00300616808432D49CC
:1029C0004860FFF7B9FE064609E0FFF7B5FE801B39
:1029D00041F28831884202D9032092E707E0254876
:1029E000406800F00C006168B0EB810FEDD1204829
:1029F000006800F00700A8420ED91D48006820F0CA
:102A0000070028431A4908600846006800F00700DC
:102A1000A84201D0012074E7207800F004000428C7
:102A200007D11448406820F4E060E1680843114988
:102A30004860207800F00800082808D10D48406858
:102A400020F46050216940EAC1000A49486000F062
:102A50003FF808494968C1F30311074A515CC8406F
:102A60000649086006480068FFF7BCFE002048E7FA
:102A700000200240001002407C7D00080000002081
:102A80000402002001480068704700000000002098
:102A900000B5FFF7F7FF04494968C1F30221034A73
:102AA000515CC84000BD0000001002408C7D000851
:102AB00000B5FFF7E7FF04494968C1F3C221034AA3
:102AC000515CC84000BD0000001002408C7D000831
:102AD000F0B585B00FF26C0C9CE8E01001A8A0E8FE
:102AE000E0101CA52D680095002100220023002481
:102AF0000020194D696801F00C05F5B1042D02D0D4
:102B0000082D19D101E0154819E001ADC1F3834644
:102B1000AC5D01F4803555B10F4D6D68C5F340458E
:102B20001DF805200D4D6543B5FBF2F302E00C4D99
:102B300004FB05F3184602E000BF084800BF00BFD1
:102B400005B0F0BD02030405060708090A0B0C0DC9
:102B50000E0F1010010200000010024000127A0057
:102B600000093D00F8B504460CB90120F8BD2078F5
:102B700000F00100002878D0F848406800F00C0010
:102B800004280CD0F548406800F00C00082811D14A
:102B9000F248406800F48030B0F5803F0AD1EF4839
:102BA000006800F4003000285FD0606800285CD125
:102BB0000120DBE700BF6068B0F5803F06D1E74841
:102BC000006840F48030E549086028E0606858B942
:102BD000E248006820F48030E04908600846006858
:102BE00020F4802008601AE06068B0F5A02F0BD1B7
:102BF000DA48006840F48020D84908600846006838
:102C000040F4803008600AE0D448006820F4803046
:102C1000D24908600846006820F48020086000BFA0
:102C2000606888B1FFF788FD054606E0FFF784FD80
:102C3000401B642801D9032098E7C848006800F4C5
:102C400000300028F2D010E0FFF776FD054606E0E0
:102C5000FFF772FD401B642801D9032086E7BF48B7
:102C6000006800F400300028F2D1207800F0020063
:102C7000022857D1B948406800F00C0050B1B7485D
:102C8000406800F00C00082818D1B448406800F4EF
:102C9000803098B9B148006800F0020020B1206986
:102CA000012801D0012061E7AC48006820F0F8005D
:102CB000616940EAC100A949086033E02069E8B1D0
:102CC0000120A7490860FFF737FD054606E0FFF73A
:102CD00033FD401B022801D9032047E79F480068C5
:102CE00000F002000028F2D09C48006820F0F800B4
:102CF000616940EAC1009949086013E000209849E1
:102D00000860FFF719FD054606E0FFF715FD401BBB
:102D1000022801D9032029E79048006800F002004A
:102D20000028F2D1207800F0080008282DD1A069F1
:102D3000B8B101208B490860FFF7FEFC054606E0AC
:102D4000FFF7FAFC401B022801D903200EE7834855
:102D5000406A00F002000028F2D0012001F026FBBA
:102D600013E000207F490860FFF7E6FC054606E017
:102D7000FFF7E2FC401B022801D90320F6E6774862
:102D8000406A00F002000028F2D1207800F0040030
:102D9000042873D100277148C06900F0805070B9D1
:102DA00000BF6E48C06940F080506C49C861084659
:102DB000C06900F08050009000BF00BF01276A4842
:102DC000006800F48070B0B96748006840F4807013
:102DD00065490860FFF7B0FC054606E0FFF7ACFC6C
:102DE000401B642801D90320C0E65F48006800F456
:102DF00080700028F2D000BFE068012806D1574853
:102E0000006A40F001005549086227E0E06858B9BF
:102E10005248006A20F00100504908620846006AE2
:102E200020F00400086219E0E06805280BD14B4847
:102E3000006A40F00400494908620846006A40F010
:102E4000010008620AE04548006A20F00100434999
:102E500008620846006A20F00400086200BFE068CB
:102E6000A0B1FFF769FC054609E0FFF765FC401BD0
:102E700041F28831884202D9032077E622E03748C0
:102E8000006A00F002000028EFD012E0FFF754FCC7
:102E9000054608E0FFF750FC401B41F288318842AC
:102EA00001D9032062E62D48006A00F002000028E4
:102EB000F0D1012F05D12948C06920F08050274961
:102EC000C86100BFE069C8B32448406800F00C0046
:102ED000082860D0E069022848D10020204908660F
:102EE000FFF72AFC054606E0FFF726FC401B0228F8
:102EF00001D903203AE61948006800F00070002864
:102F0000F2D1206AB0F5803F07D11448406820F420
:102F10000030A168084311494860D4E9080108431A
:102F20000E49496821F4741108430C494860012096
:102F30000B490866FFF700FC054607E03DE0FFF798
:102F4000FBFB401B022801D903200FE60348006861
:102F500000F000700028F2D02FE0000000100240C6
:102F600000004242800442420070004000201449A8
:102F70000866FFF7E1FB054606E0FFF7DDFB401BB7
:102F8000022801D90320F1E50E48006800F0007026
:102F90000028F2D111E0E069012800D1E6E50948F6
:102FA000466806F48031206A814204D106F470112B
:102FB000606A814201D00120D8E50020D6E50000FA
:102FC000000042420010024010B504460CB9012036
:102FD00010BD606A00B900BFA06AB0F5005F00D103
:102FE00000BF94F8510028B9002084F85000204612
:102FF00000F038F8022084F851002068006820F0C2
:10300000400021680860D4E901010843E1680843F1
:103010002169084361690843218B01F40071084369
:10302000E1690843216A0843A16A084321680860EE
:103030000421A06901EA104021684860A06AB0F547
:10304000005F02D12168E06A08612068C06920F44D
:1030500000602168C86100206065012084F851008B
:103060000020B5E710B586B004463849206888428C
:1030700032D100BF3648806940F00400344988618D
:103080000846806900F00400019000BF00BF00BF47
:103090000846806940F4805088610846806900F4E1
:1030A0008050019000BF00BFE020029002200390FA
:1030B000012004900320059002A92648FFF78EF90D
:1030C000102002900120039004900320059002A993
:1030D0002048FFF783F937E01F492068884233D141
:1030E00000BF1B48806940F0080019498861084604
:1030F000806900F00800019000BF00BF00BF0846D3
:10310000C06940F48040C8610846C06900F480404E
:10311000019000BF00BF4FF4604002900220039076
:10312000012004900320059002A90C48FFF756F9EE
:103130004FF48050029001200390049003200590EA
:1031400002A90648FFF74AF906B010BD0030014059
:10315000001002400008014000380040000C01400F
:103160002DE9FF5F0446884691461D460E9E0120CC
:1031700002900020019000BF94F85000012803D174
:10318000022004B0BDE8F09F012084F8500000BF89
:10319000FFF7D2FA074694F851B060680390AA4648
:1031A000BBF1010F0BD00398B0F5827F04D1A0686A
:1031B00010B9BBF1040F02D0022001903DE1B8F13B
:1031C000000F03D0B9F1000F00D015B90120019014
:1031D00033E194F85100042802D0052084F851000E
:1031E00000206065C4F83890E587A587C4F8308072
:1031F000E586A58620646064A06AB0F5005F0DD105
:1032000000BF2068006820F4005021680860206832
:10321000006840F400502168086000BF2068006822
:1032200000F04000402805D02068006840F04000D1
:1032300021680860E068B0F5006F56D1606810B191
:10324000BAF1010F09D1206B00882168C860206B9A
:10325000801C2063E08E401EE0863FE0206880688E
:1032600000F0020002281CD1E08ED0B102980128A3
:1032700017D1206B00882168C860206B801C2063F8
:10328000E08E401EE08600200290E08E48B9A06AE1
:10329000B0F5005F05D12068006840F480502168D7
:1032A00008602068806800F0010068B1E08F58B1C4
:1032B0002068C068A16B0880A06B801CA063E08FB1
:1032C000401EE08701200290FFF736FAC01BB04293
:1032D00004D3701C10B103200190AEE0E08E0028F2
:1032E000BCD1E08F0028B9D156E0606810B1BAF1C6
:1032F000010F09D1206B007821680873206B401CF6
:103300002063E08E401EE08640E02068806800F088
:10331000020002281CD1E08ED0B10298012817D1FA
:10332000206B007821680873206B401C2063E08EBE
:10333000401EE08600200290E08E48B9A06AB0F5F9
:10334000005F05D12068006840F480502168086063
:103350002068806800F0010068B1E08F58B12068F3
:10336000C068A16B0870A06B401CA063E08F401E7A
:10337000E08701200290FFF7DFF9C01BB04201D3C4
:10338000701C00B916B90320019056E0E08E0028A9
:10339000BBD1E08F0028B8D1A06AB0F5005F10D192
:1033A0003346012211462046009701F03AF830B129
:1033B000606D40F002006065032001903DE02068F0
:1033C000C06820688068C0F30010E8B1204601F0B2
:1033D00025F8012814D1606D40F00200606500BF3F
:1033E0002068006820F400502168086020680068A8
:1033F00040F400502168086000BF0120019003E004
:103400004FF6EF70216888603A463146204600F05A
:10341000F1FF20B101200190202060650DE0A0683F
:1034200050B900BF002000902068C068009020685C
:103430008068009000BF00BF00BF012084F85100E9
:1034400000BF002084F8500000BF019899E60428CE
:1034500008D14FF0E021096941F004014FF0E0226A
:10346000116107E04FF0E021096921F004014FF0FC
:10347000E0221161704770B504462546681EB0F120
:10348000807F01D301200FE0681E4FF0E0214861EA
:103490000F214FF0FF3001F065FB00204FF0E021DD
:1034A000886107200861002070BD7047704710B523
:1034B00004460CB9012010BD94F83D0028B9002045
:1034C00084F83C00204600F00DF8022084F83D000E
:1034D000211D206801F090F8012084F83D000020B3
:1034E000E9E7000038B504462068B0F1804F15D1F7
:1034F00000BF2548C06940F001002349C861084663
:10350000C06900F00100009000BF00BF002201214F
:103510001C20FFF79EF91C20FFF78BF91B49206840
:10352000884215D100BF1848C06940F00200164912
:10353000C8610846C06900F00200009000BF00BFEB
:10354000012211461D20FFF784F91D20FFF771F9B4
:103550000F492068884215D100BF0B48C06940F070
:1035600020000949C8610846C06900F020000090A9
:1035700000BF00BF022201213720FFF76AF9372080
:10358000FFF757F938BD000000100240000400406A
:103590000014004001460868C06840F001000B6854
:1035A000D8600868806800F00702062A05D008681D
:1035B000006840F001000B68186000207047014669
:1035C0000868C06820F001000A68D06000BF086881
:1035D000006A41F21112104050B90868006A921056
:1035E000104028B90868006820F001000A681060DF
:1035F00000BF00207047704710B50446206800697E
:10360000C0F34000D8B12068C068C0F34000B0B13A
:103610006FF002002168086101202077206880692E
:1036200000F0030018B12046FFF7E5FF05E0204653
:1036300000F0AEF8204600F085F9002020772068E1
:103640000069C0F38000D8B12068C068C0F3800072
:10365000B0B16FF004002168086102202077206873
:10366000806900F4407018B12046FFF7C4FF05E000
:10367000204600F08DF8204600F064F90020207705
:1036800020680069C0F3C000D8B12068C068C0F3EA
:10369000C000B0B16FF008002168086104202077F5
:1036A0002068C06900F0030018B12046FFF7A3FFAF
:1036B00005E0204600F06CF8204600F043F90020B9
:1036C000207720680069C0F30010D8B12068C06876
:1036D000C0F30010B0B16FF010002168086108203D
:1036E00020772068C06900F4407018B12046FFF7C9
:1036F00082FF05E0204600F04BF8204600F022F95A
:10370000002020772068006900F0010058B120688F
:10371000C06800F0010030B16FF00100216808615D
:10372000204600F011F920680069C0F3C01058B1BC
:103730002068C068C0F3C01030B16FF0800021680D
:1037400008612046FFF7B1FE20680069C0F38010D1
:1037500058B12068C068C0F3801030B16FF04000ED
:1037600021680861204600F099F920680069C0F3DB
:10377000401058B12068C068C0F3401030B16FF0FD
:103780002000216808612046FFF790FE10BD000070
:103790003249884261D1017F012937D13049097806
:1037A00059B930490988304A128811444FF0804293
:1037B000516301212A4A117028E029490978012919
:1037C00008D12A4909884FF0804251630221244AD6
:1037D00011701BE02249097802290BD1234909887D
:1037E000214A128811444FF08042516303211C4A40
:1037F00011700BE01A490978032907D11949098882
:103800004FF0804251630021154A1170017F042955
:1038100023D11749097871B914490988124A1288C5
:103820001144144A128811444FF08042D16301219F
:103830000F4A117011E00E49097801290DD109498B
:103840000988094A128811440A4A128811444FF023
:103850008042D1630021064A117070479402002013
:10386000050000201200002010000020140000209D
:10387000070000200E00002030B504460D4635B18B
:10388000042D0BD0082D10D00C2D1CD114E0206875
:10389000C06820F002002168C86015E02068C06898
:1038A00020F004002168C8600EE02068C06820F0A5
:1038B00008002168C86007E02068C06820F0100098
:1038C0002168C86000E000BF00BF002229462068D0
:1038D00000F0E0FE19492068884203D018492068AA
:1038E000884201D1012000E0002090B100BF206893
:1038F000006A41F21111084050B92068006A89102D
:10390000084028B92068406C20F4004021684864D1
:1039100000BF00BF2068006A41F21111084050B991
:103920002068006A8910084028B92068006820F0E3
:1039300001002168086000BF002030BD002C01405C
:10394000003401407047000010B5044648488442E6
:103950001AD100F0C9FE47480088401C454908803C
:1039600008460088B0F5FA7F0EDB0020088000F0E2
:10397000A5FC4148008838B94048006808B90120D2
:1039800000E000203D4908603D48844239D13A4872
:103990000088401C384908804FF08040006820F0C3
:1039A00001004FF0804108603648006840F48070A4
:1039B000344908603048008833490988884220DB50
:1039C0003048006820F480702E49086000212C489F
:1039D000FFF752FF08212A48FFF74EFF28480068EA
:1039E000C06820F0010026490968C8604FF0804097
:1039F000006820F001004FF0804108602048FFF788
:103A0000DEFD2248844231D12148007870B321483C
:103A10000088401C1F49088008460088042825DBD0
:103A20000020088002201C4908701648006820F415
:103A300080701449086000211148FFF71DFF08211C
:103A40000F48FFF719FF0E480068C06820F001001A
:103A50000B490968C8604FF08040006820F0010001
:103A60004FF0804108600948FFF7A9FD10BD000034
:103A7000D4020020520000200C000020A0012142AE
:103A800094020020000401401800002014030020CC
:103A900009000020540000200A00002070477047F1
:103AA00001460022002391F8392091F83A3042EA89
:103AB000030070472DE9F047044620680568206838
:103AC000C668206847694FF00008C14605F00F0836
:103AD000B8F1000F0AD105F0200038B106F020003F
:103AE00020B1204600F088FEBDE8F087B8F1000F55
:103AF0006DD007F0010018B906F49070002866D068
:103B000005F0010030B106F4807018B1E06B40F0B0
:103B10000100E06305F0040030B107F0010018B1C6
:103B2000E06B40F00200E06305F0020030B107F006
:103B3000010018B1E06B40F00400E06305F00800FC
:103B400030B107F0010018B1E06B40F00800E0630D
:103B5000E06B68B305F0200028B106F0200010B13A
:103B6000204600F049FE20684069C0F38019E06BF0
:103B700000F0080010B9B9F1000F22D0204600F083
:103B80001BFE2068406900F04000B0B12068406929
:103B900020F0400021684861606B50B11748616BAC
:103BA0004863606BFEF71AFB10B1606B416B88478E
:103BB0000CE02046FFF773FF08E02046FFF76FFF99
:103BC00004E02046FFF76BFF0020E0638CE705F080
:103BD000800030B106F0800018B1204600F030FFC0
:103BE00082E705F0400030B106F0400018B12046F1
:103BF00000F0F2FD78E700BF76E70000A547000877
:103C000010B504460CB9012010BDA06900B100E058
:103C100000BF94F8390028B9002084F83800204605
:103C200000F028F8242084F839002068C06820F4C7
:103C300000502168C860204600F032FE206800690C
:103C400020F49040216808612068406920F02A0033
:103C5000216848612068C06840F400502168C8604D
:103C60000020E063202084F8390084F83A00002026
:103C7000CAE7000010B586B004464A492068884269
:103C800045D100BF4848806940F00400464988613A
:103C90000846806900F00400019000BF00BF00BF2B
:103CA0000846806940F4804088610846806900F4D5
:103CB0008040019000BF00BF00BF0846806940F00F
:103CC000010088610846806900F00100019000BF92
:103CD00000BF4815029002200390012004900320A9
:103CE000059002A93148FEF779FB4FF480600290FD
:103CF0000020039002A92D48FEF770FB2520FEF757
:103D000098FD032211462520FEF7A3FD47E0284930
:103D10002068884243D100BF2348806940F00400F6
:103D2000214988610846806900F00400019000BFC5
:103D300000BF00BF0846C06940F40030C8610846B3
:103D4000C06900F40030019000BF00BF00BF08460A
:103D5000806940F0010088610846806900F0010038
:103D6000019000BF00BF04200290022003900120B8
:103D700004900320059002A90C48FEF72FFB0820B1
:103D800002900020039002A90848FEF727FB262096
:103D9000FEF74FFD012203212620FEF75AFD06B053
:103DA00010BD000000380140001002400008014032
:103DB0000044004010B5034693F83A0020282FD164
:103DC00001B10AB9012010BD00BF93F838000128E5
:103DD00001D10220F7E7012083F8380000BF996283
:103DE0009A85DA850020D863222083F83A0000BF44
:103DF000002083F8380000BF1868C06840F4807065
:103E00001C68E0601868406940F001001C6860614F
:103E10001868C06840F020001C68E0600020D2E70D
:103E20000220D0E7554A0168914251D1544909888E
:103E300001F4004100290BD15149098801F4804166
:103E4000D1B1504909780A2903D000214C4A118088
:103E500093E04C4909784A4A1288C2F30D024A4B52
:103E6000995447490988491C454A118011460988D7
:103E700041F40041118080E0424909780D2912D1B6
:103E8000404909783E4A1288C2F30D023E4B9954CC
:103E90003B490988491C3A4A11801146098841F476
:103EA0008041118069E037490978354A1288C2F3A8
:103EB0000D02354B995432490988491C304A11800A
:103EC00011460988B1F5FA7F57DB0021118054E0D3
:103ED0002E4A0168914250D12D49098801F40041D0
:103EE00000294AD12A49098801F48041D1B12949E0
:103EF00009780A2903D00021254A11803DE025498F
:103F00000978234A1288C2F30D02234B99542049A1
:103F10000988491C1E4A11801146098841F4004154
:103F200011802AE01B4909780D2912D11949097815
:103F3000174A1288C2F30D02174B99541449098885
:103F4000491C134A11801146098841F480411180AF
:103F500013E0104909780E4A1288C2F30D020E4B85
:103F600099540B490988491C094A1180114609884E
:103F7000B1F5FA7F01DB0021118070470038014064
:103F80005C0000206000002070030020004400401E
:103F90005E0000206100002064050020704700BF23
:103FA000FEE7000010B5002240211248FEF7BEFBDC
:103FB0001048006820F070400E490860084600680C
:103FC00040F040500860002280210A48FEF7AEFB16
:103FD000022001F06FFE012240210648FEF7A6FBF9
:103FE000022001F067FE002240210248FEF79EFBFE
:103FF00010BD0000000C014010B500224021124805
:10400000FEF794FB1048006820F070400E490860ED
:104010000846006840F040500860012280210A48AC
:10402000FEF784FB022001F045FE012240210648F4
:10403000FEF77CFB022001F03DFE002240210248F9
:10404000FEF774FB10BD0000000C014070B5054682
:1040500000241948006820F070401749086008469D
:10406000006840F00040086000261AE0002240216D
:104070001148FEF75BFB022001F01CFE01224021EB
:104080000D48FEF753FB6006040E80210A48FEF738
:1040900045FB08B1601CC4B2012001F00BFE701C8E
:1040A000C6B2082EE2DB15B9FFF7A6FF01E0FFF765
:1040B00079FF204670BD0000000C014070B5044639
:1040C0001C48006820F070401A49086008460068E3
:1040D00040F040500860002240211648FEF726FBC1
:1040E000002523E0E00928B1012280211148FEF7D4
:1040F0001DFB04E0002280210E48FEF717FB60063E
:10410000040E022001F0D6FD012240210948FEF7ED
:104110000DFB022001F0CEFD002240210548FEF7F4
:1041200005FB022001F0C6FD681CC5B2082DD9DBD5
:1041300070BD0000000C014010B51348006820F06D
:104140007040114908600846006840F0405008601F
:10415000012280210C48FEF7E9FA012240210A4899
:10416000FEF7E4FA042001F0A5FD002280210648B4
:10417000FEF7DCFA042001F09DFD002240210248F8
:10418000FEF7D4FA10BD0000000C014010B5134832
:10419000006820F07040114908600846006840F04F
:1041A00040500860002240210C48FEF7BFFA002270
:1041B00080210A48FEF7BAFA042001F07BFD0122B3
:1041C00040210648FEF7B2FA012280210348FEF79B
:1041D000ADFA042001F06EFD10BD0000000C01409E
:1041E00010B500241848006820F070401649086097
:1041F0000846006840F00040086001228021124813
:10420000FEF794FA012001F055FD012240210E48ED
:10421000FEF78CFA012001F04DFD07E0601CC4B2EE
:10422000FA2C03DDFFF7B2FF012010BD8021064804
:10423000FEF774FA0028F1D1002240210248FEF76F
:1042400075FA0020F1E70000000C014070B504464B
:10425000002501F0C4FEC4F3074000F010F8C4F3D9
:10426000072000F00CF804F0F80000F008F8002037
:1042700000F005F8054601F0B6FE284670BD10B501
:104280000446204600F0A6F810BD70B504460D4661
:1042900001F0A5FEC4F30740FFF7F1FFC4F30720C8
:1042A000FFF7EDFF04F0F801091DC8B2FFF7E7FFC3
:1042B0002846FFF7E4FF01F096FE70BD10B50248F6
:1042C000FEF768FA10BD0000D807002010B50446BC
:1042D00000224FF480710D48FEF728FA01221102E6
:1042E0000A48FEF723FA204601F0D8FC0122110209
:1042F0000648FEF71BFA00224FF480710348FEF7D0
:1043000015FA204601F0CAFC10BD0000000801406B
:1043100000BFFEE77047000010B5002401F0D8FD93
:1043200000F00104002C1DD10FA0FCF701F800BF24
:1043300000BF2046621CD4B200F064FE042CF8DBFF
:1043400000240AE001F0C4FD00F0010414A0FBF712
:10435000EFFF4FF4FA7001F0A1FC002CF2D011A095
:10436000FBF7E6FF10BD0000506C656173652063CC
:104370006865636B2077686574686572207468652A
:10438000206E6574776F726B206361626C65206963
:104390007320636F6E6E6563746564203F0D0A0061
:1043A000202E0000200D0A007047000008B50849C3
:1043B0000968C9084FF47A72B1FBF2F141430091E8
:1043C00000BF00BF00994A1E00920029F9D108BD24
:1043D0000000002001B582B04FF47A70012301AAD9
:1043E00002A900900248FEF7BBFE9DF804000EBD36
:1043F000E4070020F8B504460D4616462B46002279
:1044000080212046009600F00CF828B1606D40F045
:10441000200060650320F8BD0020FCE70146012074
:1044200070472DE9F04104460E4617461D46DDF85B
:1044300018803EE0681CD8B3FEF77EF9A0EB0800B8
:10444000A84200D2A5BB2068406820F0E0002168A7
:1044500048606068B0F5827F0DD1A068B0F5004F6C
:1044600003D0A068B0F5806F05D12068006820F007
:10447000400021680860A06AB0F5005F0DD100BF60
:104480002068006820F400502168086020680068F7
:1044900040F400502168086000BF012084F85100FA
:1044A00000BF002084F8500000BF0320BDE8F08169
:1044B000FFE7206880683040B04201D1012000E071
:1044C0000020B842B6D10020F0E7704730B58FB079
:1044D0000546002401200590000406900020079066
:1044E00002200C90C1030D910E9505A8FEF73AFB32
:1044F00004460CB100BFFEE70F200090022001909F
:10450000002002904FF4806003900020049002216C
:104510006846FEF7F1F904460CB100BFFEE70FB0A4
:1045200030BD10B5FEF73EF910BD0000114800681F
:1045300040F001000F490860084640680E490840F5
:104540000C494860084600680C4908400949086061
:104550000846006820F4802008600846406820F47F
:10456000FE0048604FF41F008860C80304490860DB
:1045700070470000001002400000FFF8FFFFF6FE49
:1045800008ED00E010B50248FFF736F810BD000056
:104590009402002010B50248FFF72EF810BD00006D
:1045A000D402002010B50E480068C06800F0010079
:1045B00078B10C49086980470020094909684862B8
:1045C00000BF642006490968C86264210448C160CC
:1045D00000BF6FF0010002490968086110BD0000CA
:1045E000D41800200C01002010B50248FFF704F891
:1045F00010BD00001403002010B50268204B984243
:104600000ED0204B98420BD0B0F1804F08D01E4BFB
:10461000984205D01D4B984202D01D4B984203D1C1
:1046200022F070024B681A43154B98420ED0154B7E
:1046300098420BD0B0F1804F08D0134B984205D070
:10464000124B984202D0124B984203D122F440728E
:10465000CB681A4322F080034C6943EA04020260EB
:104660008B68C3620B688362054B984202D0054B8E
:10467000984201D10B6903630123436110BD00001F
:10468000002C0140003401400004004000080040BC
:10469000000C004030B501F01F05012404FA05F3B9
:1046A000046A9C430462046A01F01F0502FA05F5DE
:1046B0002C43046230BD000010B500240EE0094810
:1046C00010F8340040B1074901EBC4014868804745
:1046D0000020044901F83400601CC4B2022CEEDB57
:1046E00010BD0000A8000020002020E0114901EBCF
:1046F000C0014978C9B10F4901EBC0014978491E91
:104700000C4A02EBC00251700A4901EBC001497822
:1047100059B9084901EBC0018978064A02EBC00289
:1047200051700121034A02F83010411CC8B202281E
:10473000DCDB7047A800002010B501F0F3FA10BDD3
:1047400010B502F07BF910BD38B504460D4600BF28
:104750001148C06940F004000F49C8610846C069AB
:1047600000F00400009000BF00BF032211461E208D
:10477000FEF76FF81E20FEF75CF80848084908604D
:104780000846456000218160C4600161FEF78FFE2C
:104790000348FEF7FFFE38BD00100240000800404D
:1047A000D418002070B505466C6A0020E085E084CE
:1047B0002046FFF774F970BD0168C96821F4907153
:1047C0000268D1600168496921F001010268516104
:1047D000202180F83A10704710B504462068C06860
:1047E00020F040002168C860202084F8390020466D
:1047F000FFF7D4FB002010BD70B5044694F83A00D2
:1048000022284AD1A068B0F5805F13D1A56A20693B
:1048100040B920684068C0F308002880A06A801C66
:10482000A06219E020684068C0B22880A06A401CDD
:10483000A06211E0206938B920684068C1B2A26A5C
:10484000501CA062117007E02068406800F07F01F2
:10485000A26A501CA0621170E08D401E80B2E085FB
:10486000C8B92068C06820F020002168C8602068AE
:10487000C06820F480702168C8602068406920F01A
:10488000010021684861202084F83A002046FFF7A3
:10489000C9FA002070BD0020FCE70220FAE7000002
:1048A00070B504462168096921F44051E26811435A
:1048B000226811612269A1681143626941EA020517
:1048C0002168C96841F20C62914329432268D16092
:1048D0002168496921F44071A2691143226851613C
:1048E000564A2168914254D1FEF7E2F800EBC0012C
:1048F00001EB001162689200B1FBF2F100EBC00223
:1049000002EB001263689B00B2FBF3F26423B2FB7C
:10491000F3F202EBC20303EB0212A1EB820132229B
:1049200002EB01116422B1FBF2F101F0F00100EBA6
:10493000C00202EB001263689B00B2FBF3F2642337
:10494000B2FBF3F201EB021200EBC00101EB00112C
:1049500063689B00B1FBF3F100EBC00303EB0013B2
:104960006668B600B3FBF6F36426B3FBF6F303EB1D
:10497000C30606EB0313A1EB8301322303EB011102
:104980006423B1FBF3F101F00F011144226891603F
:1049900053E0FEF77DF800EBC00101EB0011626807
:1049A0009200B1FBF2F100EBC00202EB001263686F
:1049B0009B00B2FBF3F26423B2FBF3F202EBC203FF
:1049C00003EB0212A1EB8201322202EB01116422FD
:1049D000B1FBF2F101F0F00100EBC00202EB0012BA
:1049E00063689B00B2FBF3F26423B2FBF3F201EBCA
:1049F000021200EBC00101EB001163689B00B1FBE8
:104A0000F3F100EBC00303EB00136668B600B3FBE1
:104A1000F6F36426B3FBF6F303EBC30606EB0313CE
:104A2000A1EB8301322303EB01116423B1FBF3F10A
:104A300001F00F0111442268916070BD00380140FF
:104A4000014691F8390021282CD18868B0F5805FA3
:104A50000FD10A6A1088C0F308000B685860086913
:104A600018B9086A801C086209E0086A401C0862DC
:104A700005E00B6A581C086218780B685860C88CEF
:104A8000401E80B2C88458B90868C06820F0800011
:104A90000B68D8600868C06840F040000B68D860B8
:104AA000002070470220FCE710B500240C48FFF7F7
:104AB00001F800BF01E0641C00BF0948FEF7F0FFE9
:104AC0002028F8D100BF002401E0641C00BF0122AF
:104AD00004490348FFF76EF90028F6D100BF10BD66
:104AE000580700206000002010B500240C48FEF795
:104AF000E1FF00BF01E0641C00BF0948FEF7D0FFE2
:104B00002028F8D100BF002401E0641C00BF01226E
:104B100004490348FFF74EF90028F6D100BF10BD45
:104B2000980700206100002000BFFEE7490050EA1E
:104B3000C12018BF04204A0D18BF40F0010040F208
:104B4000FF72B2EB515F08BF40F00200012808BFBE
:104B50000520704702480068C0F30220704700003B
:104B60000CED00E010B5002804DB0A07130E054A1F
:104B7000135406E00A07140E034A00F00F031B1F2C
:104B8000D45410BD00E400E018ED00E030380A28ED
:104B900001D2012070470020704700BF704710B558
:104BA00000F06AF810BD000010B54FF4E010FFF7F8
:104BB0008DFC482001F068F84FF4E1311A4800F00C
:104BC00093F900F0BDF800F047F900F091F84821A2
:104BD0004FF47A7000F06CF9FFF7E1FFFDF78DFA02
:104BE00010B112A0FBF7A4FB1748406A00F0005078
:104BF00060B116A0FBF79CFB00224FF480711C48AB
:104C0000FDF794FD01201B49086004E00122110218
:104C10001748FDF78BFD4FF4FA71042000F058F8A7
:104C200000F09EF910BD00000038014041543234BC
:104C30004333322049494320496E697420466169F3
:104C40006C2E0D0A000000000010024053797374AE
:104C5000656D207265736574206265636175736547
:104C6000206E6F206665656420646F672E0D0A00F4
:104C700000080140E004424200B585B000BF124880
:104C8000806940F00800104988610846806900F09A
:104C90000800009000BF00BFC020019001200290DA
:104CA00003900320049001A90848FDF797FB012217
:104CB00080210648FDF73AFD012240210348FDF717
:104CC00035FD05B000BD000000100240000C0140A1
:104CD00070B504460D46044804490860084644601F
:104CE0008560FDF72FFD70BD00300040D807002023
:104CF00000B585B000BF1048806940F004000E493F
:104D000088610846806900F00400009000BF00BF81
:104D10008815019001200290002003900320049048
:104D200001A90648FDF75AFB012211020348FDF7CD
:104D3000FDFC05B000BD000000100240000801406D
:104D400000B585B000BF3F48806940F001003D4993
:104D500088610846806900F00100009000BF00BF34
:104D600000BF3949486820F0E06040F000704860BA
:104D700000BF00BF3348806940F0040031498861BA
:104D80000846806900F00400009000BF00BF4FF4A7
:104D90000040019001200290002003900320049025
:104DA00001A92A48FDF71AFB00BF2648806940F098
:104DB0000800244988610846806900F008000090D6
:104DC00000BF00BF40F63B7001900120029002201E
:104DD00003900320049001A91D48FDF7FFFA00BFCE
:104DE0001848806940F010001649886108468069BB
:104DF00000F01000009000BF00BF40F6FF7001906F
:104E00000120029003900320049001A91148FDF7AE
:104E1000E5FA002240F63B710D48FDF787FC0122C0
:104E200040F6FF710B48FDF781FC00224FF4004172
:104E30000648FDF77BFC0122D1020548FDF776FC10
:104E400005B000BD00100240000001400008014014
:104E5000000C01400010014010B5134813490860D0
:104E60004FF482704860002110488160C1600221C7
:104E7000016101214161490281610821C161002173
:104E80000162416281620721C162FEF79DF8074815
:104E90000068006840F04000044909680860FF208D
:104EA000FFF798FA10BD000000380040E40700202A
:104EB00070B504460D460A480A490860681E4860F5
:104EC000002108488160601E0649C860002105482D
:104ED0000161FEF7ECFA0348FEF75CFB70BD0000D1
:104EE00000040040D402002070B504460D46164868
:104EF000844212D11549086008464560002181604E
:104F0000C160016181610C214161FEF779FE0122DE
:104F10000F490E48FEF74EFF14E00E48844211D1AF
:104F20000D4908600846456000218160C16001614B
:104F300081610C214161FEF763FE012207490648A9
:104F4000FEF738FF70BD0000003801405807002010
:104F5000600000200044004098070020610000200D
:104F600008B501F0D9F801F003F9FFF7D5F901F020
:104F700079FB01F0B7FB1049104801F0C1FC4FF478
:104F8000FA6001F03BFB032001F030FB002001F050
:104F90004BFC0B48FBF7CCF90A48C0780090094855
:104FA00083784278017808A0FBF7C2F90E4801889F
:104FB0000EA0FBF7BDF908BD6A00002062000020CA
:104FC000007F00088E000020544350205365727605
:104FD00065722049503A25642E25642E25642E25BD
:104FE00064A1A30D0A000000920000205443502049
:104FF00053657276657220506F72743A2564A1A36E
:105000000D0A000010B504464FF4847101EB441002
:105010001021FFF73AF900BF4FF4847101EB4410FF
:10502000FFF714F90028F7D14FF4027101EB441097
:10503000FF21FFF72AF910BD11A001F0A5FC10A077
:10504000FBF776F900BF00BF00BF00BF00BFBFF392
:105050004F8F00BF00BF00BF1448006800F4E0603D
:1050600013490843001D1149086000BF00BF00BF7D
:10507000BFF34F8F00BF00BF00BF00BF00BFFDE701
:105080002A2A2A2A2A2A2A2A2A2A2A2A2A526562E5
:105090006F6F742053797374656D2A2A2A2A2A2A1D
:1050A0002A2A2A2A2A2A2A2A0D0A00000CED00E0C0
:1050B0000000FA0510B586B004466B4603AAF7A1B6
:1050C0002046FBF7DBFA03A8FBF766FBFA490880EA
:1050D0006846FBF761FBF949088008460288F648F4
:1050E0000188F7A001F050FCF4480288F2480188DA
:1050F000FAA0FBF71DF9F0480088172878D2DFE8FE
:1051000000F00C1E364D647C93AAC1D9FEEEEDEC86
:10511000EBEAE9E8E7E6E5E4E300002240F63B716C
:10512000F548FDF703FB012240F6FF71F348FDF758
:10513000FDFA0122D102F048FDF7F8FAFFE2DF485C
:10514000008830B900224FF40061EB48FDF7EEFA19
:105150000CE0DA480088012805D10122C102E648A6
:10516000FDF7E4FA02E0E6A001F00EFCE7E2D34826
:10517000008828B90122D103E648FDF7D7FA0CE0F0
:10518000CE480088012805D10022C103E148FDF77F
:10519000CDFA02E0E0A001F0F7FBD0E2C7480088BA
:1051A00028B900220121D448FDF7C0FA0CE0C34819
:1051B0000088012805D101221146CF48FDF7B6FA33
:1051C00002E0DAA001F0E0FBB9E2BC48008828B9AF
:1051D00000220221C848FDF7A9FA0DE0B74800886F
:1051E000012806D101220221C348FDF79FFA03E0FE
:1051F00095E2D3A001F0C8FBA1E2B048008828B92D
:1052000000220821BC48FDF791FA0CE0AB48008869
:10521000012805D101220821B748FDF787FA02E0ED
:10522000CCA001F0B1FB8AE2A448008828B9002292
:105230001021B148FDF77AFA0CE0A0480088012857
:1052400005D101221021AC48FDF770FA02E0C6A09A
:1052500001F09AFB73E29948008828B900222021C6
:10526000A548FDF763FA0CE094480088012805D1B1
:1052700001222021A048FDF759FA02E0BFA001F069
:1052800083FB5CE28D48008830B900224FF48071C6
:105290009948FDF74BFA0CE088480088012805D1B1
:1052A000012201029448FDF741FA02E0B8A001F0A2
:1052B0006BFB44E28148008898B900224FF40071EA
:1052C0008D48FDF733FA19E011E2F8E1DFE1C7E1BB
:1052D000CEE0B6E09EE086E06EE056E03EE026E0FE
:1052E0000DE076480088012805D10122410282485C
:1052F000FDF71CFA02E0ABA001F046FB1FE26F488D
:10530000008830B900224FF480617B48FDF70EFA27
:105310000CE06A480088012805D101228102764804
:10532000FDF704FA02E0A4A001F02EFB07E26348B7
:10533000008828B9002201217048FDF7F7F90CE038
:105340005E480088012805D1012211466B48FDF70F
:10535000EDF902E09DA001F017FBF0E1574800884D
:1053600028B9002204216548FDF7E0F90CE0534814
:105370000088012805D1012204216048FDF7D6F9F3
:1053800002E097A001F000FBD9E14C48008828B961
:10539000002202215948FDF7C9F90CE0474800886E
:1053A000012805D1012202215448FDF7BFF902E08E
:1053B00090A001F0E9FAC2E14048008828B9002233
:1053C00008214E48FDF7B2F90CE03C48008801285E
:1053D00005D1012208214848FDF7A8F902E08AA07A
:1053E00001F0D2FAABE13548008828B9002220212B
:1053F0004248FDF79BF90CE030480088012805D1B0
:10540000012220213D48FDF791F902E083A001F03F
:10541000BBFA94E12948008828B9002210213748B6
:10542000FDF784F90CE025480088012805D1012208
:1054300010213248FDF77AF902E07DA001F0A4FACC
:105440007DE11E48008828B9002240212B48FDF745
:105450006DF90CE019480088012805D1012240218E
:105460002648FDF763F902E076A001F08DFA66E1C7
:105470001248008830B900224FF480711F48FDF7B0
:1054800055F9ECE00D480088012805D10122010200
:105490001A48FDF74BF9E2E0DEE00000252A5B5EEA
:1054A0003D5D3D255B5E2C5D252A5B5E3D5D3D25BA
:1054B0005B5E295D000000001A0000201C00002037
:1054C0007365745F494F28494F3D25642C7374619F
:1054D00074653D256429204F4B0D0A007365745F88
:1054E000494F28494F3D25642C73746174653D25EF
:1054F00064292C4F4B0D0A00000C014000100140A4
:1055000073657420494F2031204552524F520D0A85
:10551000000000000008014073657420494F2032EC
:10552000204552524F520D0A00000000736574204E
:10553000494F2033204552524F520D0A00000000BF
:1055400073657420494F2034204552524F520D0A42
:105550000000000073657420494F203520455252E9
:105560004F520D0A0000000073657420494F203629
:10557000204552524F520D0A0000000073657420FE
:10558000494F2037204552524F520D0A000000006B
:1055900073657420494F2038204552524F520D0AEE
:1055A0000000000073657420494F20392045525295
:1055B0004F520D0A0000000073657420494F2031DE
:1055C00030204552524F520D0A000000736574207E
:1055D000494F203131204552524F520D0A000000F0
:1055E00073657420494F203132204552524F520D7D
:1055F0000A00000073657420494F20313320455262
:10560000524F520D0A00000073657420494F20313B
:1056100034204552524F520D0A0000007365742029
:10562000494F203135204552524F520D0A0000009B
:1056300073657420494F203136204552524F520D28
:105640000A00000073657420494F2031372045520D
:10565000524F520D0A0000003AA001F095F96EE099
:105660003D48008828B9002280213C48FDF75EF8BB
:105670000CE039480088012805D1012280213748F3
:10568000FDF754F802E036A001F07EF957E0324809
:10569000008830B900224FF400713048FDF746F819
:1056A0000CE02D480088012805D1012241022B4839
:1056B000FDF73CF802E02FA001F066F93FE0264834
:1056C000008830B900224FF400612448FDF72EF81D
:1056D0000CE021480088012805D10122C1021F48A1
:1056E000FDF724F802E028A001F04EF927E01A485F
:1056F000008830B900224FF480611848FDF716F891
:105700000CE015480088012805D1012281021348C8
:10571000FDF70CF802E021A001F036F90FE00022BD
:1057200040F63B712248FDF701F8012240F6FF7177
:105730000A48FCF7FBFF1FA001F026F900BF00BFDD
:1057400006B010BD73657420494F20313820455292
:10575000524F520D0A0000001C00002000100140B2
:1057600073657420494F203139204552524F520DF4
:105770000A00000073657420494F203230204552E2
:10578000524F520D0A00000073657420494F2032B9
:1057900031204552524F520D0A00000073657420AB
:1057A000494F203232204552524F520D0A0000001C
:1057B000000C014073657420494F204552524F52EE
:1057C0000D0A000010B58EB0044602A805A908AB6A
:1057D0000BAACDE900102EA12046FAF74FFF0BA827
:1057E000FAF7DAFF3749088008A8FAF7D5FF3649F3
:1057F000088005A8FAF7D0FF3449088002A8FAF714
:10580000CBFF334908802F4800882F490988484337
:105810002E49098848432E4909884843182822D12F
:105820002B4800880090294803882748028825488B
:10583000018828A001F0A8F8254800880090234896
:105840000388214802881F48018822A0FAF770FDCA
:105850001F4803881D4802881B4801881948008892
:1058600000F060FD11E026A001F08EF824A0FAF708
:105870005FFD002240F63B712648FCF757FF0122EE
:1058800040F6FF712448FCF751FF0EB010BD000038
:10589000252A5B5E3D5D3D255B5E2C5D252A5B5EBA
:1058A0003D5D3D255B5E2C5D252A5B5E3D5D3D25B6
:1058B0005B5E2C5D252A5B5E3D5D3D255B5E295D63
:1058C000000000001E000020200000202200002018
:1058D000240000207365745F6368616E6E656C5FA1
:1058E0007061726D28413D25642C423D25642C4336
:1058F0003D25642C443D2564292C4F4B210D0A0085
:10590000736574206368616E6E656C206572726F7A
:10591000720D0A00000C01400010014070B50546F0
:1059200008A001F031F8002406E0124951F82400E3
:1059300001F02AF8601CC4B2052CF6D30EA001F0C9
:1059400023F870BD2A2A2A2A2A2A2A2A2A2A2A2A17
:105950002A5573657220436F6D6D616E64204C69CA
:1059600073742A2A2A2A2A2A2A2A2A2A2A2A2A2A04
:105970000D0A00003C0000202A2A2A2A2A2A2A2A64
:105980002A2A2A2A2A2A2A2A2A4C69737420456E2E
:10599000642A2A2A2A2A2A2A2A2A2A2A2A2A2A2A2D
:1059A0002A2A2A2A0D0A00003EB5054600246A4626
:1059B00019A12846FAF762FE6846FAF7EDFEC4B26E
:1059C000012C03D118A000F0DFFF23E0022C03D14B
:1059D0001BA000F0D9FF1DE0032C03D11EA000F096
:1059E000D3FF17E0042C03D123A000F0CDFF11E07A
:1059F000052C03D124A000F0C7FF0BE010A000F09D
:105A0000C3FF21A000F0C0FF07A000F0BDFF12A05F
:105A100000F0BAFF3EBD0000252A5B5E285D282508
:105A20005B5E295D00000000465720566572736971
:105A30006F6E3A2056312E322E300D0A00000000D3
:105A4000435947363939204D6F2049514320507210
:105A50006F6A6563740D0A00485720566572736952
:105A60006F6E3A204359473639395F5357425F5674
:105A7000312E300D0A000000417574686F723A20B3
:105A800043594749410D0A005570646174653A20D5
:105A9000323032312D30382D32380D0A00000000FE
:105AA00070B5054609A0FAF743FC002407E0134847
:105AB00050F8241012A0FAF73BFC601CC4B2052C6D
:105AC000F5DB10A0FAF734FC70BD00002A2A2A2A60
:105AD0002A2A2A2A2A2A2A2A2A5573657220436FDB
:105AE0006D6D616E64204C6973742A2A2A2A2A2AF1
:105AF0002A2A2A2A2A2A2A2A0D0A00003C000020E3
:105B0000257300002A2A2A2A2A2A2A2A2A2A2A2A05
:105B10002A2A2A2A2A4C69737420456E642A2A2A62
:105B20002A2A2A2A2A2A2A2A2A2A2A2A2A2A2A2AD5
:105B30000D0A000010B5012211030248FCF7F6FD22
:105B400010BD0000000C014010B500224FF4805140
:105B50000148FCF7EBFD10BD000C01402DE9F043BE
:105B600099B0054664216846FAF775FE2846FAF7AB
:105B700031FE801E285C0D2806D12846FAF72AFE41
:105B8000401E285C0A2809D033A000F0FDFE32A098
:105B9000FAF7CEFB002019B0BDE8F0833748017852
:105BA0002846FAF70DFED0B92846FAF713FE074645
:105BB0003A4629466846FAF775FE31A16846FAF773
:105BC000F9FD0646002404E0305D0DF80400601C79
:105BD00084B23046FAF7FEFDA042F5D812E028461E
:105BE000FAF7F8FD8146254801782846FAF7E8FDDE
:105BF0008046FAF7EFFDA9EB00073A4629466846CA
:105C0000FAF750FE1F4908686946FAF777FE08B9A7
:105C10000120C0E71B4948686946FAF76FFE08B9DA
:105C20000220B8E7174988686946FAF767FE08B99D
:105C30000320B0E71349C8686946FAF75FFE08B960
:105C40000420A8E70F4908696946FAF757FE08B922
:105C50000520A0E700209EE754686520636F6D6D06
:105C6000616E64206D6179206265206D697373696E
:105C70006E675C725C6E2E0D0A0000005000002002
:105C80000D0000002800002010B504460420FDF798
:105C9000DEFB0148046010BD0C02002030B5044654
:105CA000002504E04FF47A7000F004F86D1CA54262
:105CB000F8D330BD70B5034600224FF0E026756979
:105CC0000D4E366803FB06F44FF0E026B16910E094
:105CD0004FF0E026B06988420BD0884202D20E1AFB
:105CE000324402E02E1A0E4432440146A24200D34E
:105CF00000E0EDE700BF70BD0C02002010B50446C7
:105D00004FF4847101EB44100821FEF7BEFA00BF86
:105D10004FF4847101EB4410FEF798FA0028F7D194
:105D200010BD000010B5002400203F49086076E057
:105D30003D49087800F020F916281BD003DC38B163
:105D4000132866D10DE0172815D01C2861D14DE02D
:105D500035490878202335490A88012100F06EFD75
:105D600057E04FF4FA70FFF799FF2F49087800F0D9
:105D70003EF94EE04DE02E482B490968405C48B999
:105D8000294801682BA0FAF7D3FA01202849264AAE
:105D9000126888542449087800F0BBF800F001002C
:105DA00020B121490878012100F050FC1E490878F3
:105DB00000F0B8F80446002C17DD1B48007828498D
:105DC0000870194908782246264900F03AF900205F
:105DD000244908552146234800F0EAFD00202049C7
:105DE000087021461F48FAF714FD12E00E480168BA
:105DF0001DA0FAF79DFA00200D490B4A126888543D
:105E000009490878FFF77AFF07490878FFF7FAF899
:105E100000BF00BF04480068401C034908600248F6
:105E20000068072884DD10BDC40000208C0000201D
:105E3000B800002054686520544350207365727682
:105E4000657220736F636B6574202564206973200D
:105E5000636F6E6E65637465642E0D0A000000004A
:105E6000C0000020D4100020546865205443502006
:105E700073657276657220736F636B657420256439
:105E800020697320646973636F6E6E656374656403
:105E90002E0D0A0000BF054A126802F04002002AD7
:105EA000F9D0C2B2014B1B1D1A6070470038014087
:105EB00010B5044604222146900101F0C7FE10BD32
:105EC0000146024830F81100704700009408002095
:105ED00010B54FF43850FEF7B9F910BD10B50446AF
:105EE000062221464FF4106001F0B0FE10BD10B53F
:105EF0000446042221464FF4706001F0A7FE10BD55
:105F000010B50446042221464FF4A06001F09EFE25
:105F100010BD10B504464FF4027101EB4410FEF7BA
:105F200095F910BD70B504460025002600BF42F269
:105F3000086101EB4410FEF789F9064642F2087148
:105F400001EB4410FEF782F900EB062086B27EB129
:105F500042F2086101EB4410FEF778F9054642F27F
:105F6000087101EB4410FEF771F900EB052085B2D2
:105F7000B542DCD1284670BD10B504464FF44271DD
:105F800001EB4410FEF762F910BD70B50446002520
:105F9000002600BF42F2080101EB4410FEF756F95B
:105FA000064642F2081101EB4410FEF74FF900EBF0
:105FB000062086B27EB142F2080101EB4410FEF7E2
:105FC00045F9054642F2081101EB4410FEF73EF98F
:105FD00000EB052085B2B542DCD1284670BD10B576
:105FE000FFF7B2FD10BD10B5FFF7A4FD10BD70B5F1
:105FF00004464FF4427101EB4410FEF727F91328D1
:1060000011D14FF4847101EB44100221FEF73DF9E8
:1060100000BF4FF4847101EB4410FEF717F900281C
:10602000F7D1012500E00025284670BDFCF7C6FB2E
:10603000FEF7BAFD01E0FEF73FFBFCE7014608680A
:1060400070472DE9F04104460E4615460027002D05
:1060500015DD2A463146204600F014F84FF48471CD
:1060600001EB44104021FEF710F900BF4FF484719A
:1060700001EB4410FEF7EAF80028F7D12F46384626
:10608000BDE8F0812DE9F04104460F461646002593
:10609000A8462EB9214618A0FAF74AF9BDE8F081C2
:1060A00042F6080101EB4410FEF7D0F8054642F62F
:1060B000081101EB4410FEF7C9F800EB052085B28A
:1060C000280200EB441000F11808324639464046D9
:1060D00001F0BCFDA81985B2290A42F6080202EBBC
:1060E0004410FEF7D2F8E9B242F6081202EB44106F
:1060F000FEF7CBF800BFD1E72043483A20256420C3
:10610000556E657870656374656432206C656E6782
:10611000746820300D0A000000B585B000BF124839
:10612000806940F00400104988610846806900F0E9
:106130000400009000BF00BF88140190012002906D
:1061400003900320049001A90848FCF747F94FF495
:1061500000600190002002900120039001A90348F3
:10616000FCF73CF905B000BD0010024000080140FA
:1061700010B500224FF480510848FCF7D7FA4FF4CD
:10618000FA70FFF78BFD012211030448FCF7CEFAE9
:1061900040F2DC50FFF782FD10BD00000008014016
:1061A0002DE9F04704468846164600250027A946F3
:1061B0002046FFF785FEB04204DA2046FFF780FE56
:1061C000074600E0374600BF2046FFF7DEFE814667
:1061D0004FF4427101EB4410FEF738F80546172DD5
:1061E00003D01C2D01D0002701E0B945ECDB00BF36
:1061F0003A464146204600F04BF84FF4847101EBDB
:1062000044102021FEF741F800BF4FF4847101EBE8
:106210004410FEF71BF80028F7D113E04FF4427149
:1062200001EB4410FEF712F80546172D0AD01C2D7D
:1062300008D011A0FAF77CF82046FEF7E3FE002014
:10624000BDE8F0874FF4027101EB4410FDF7FEFF4B
:1062500000F010001028E1D14FF4027101EB44105E
:106260001021FEF712F84FF4027101EB44101021D7
:10627000FEF70BF83846E3E72053454E445F4F4B9B
:106280002050726F626C656D21210D0A00000000C4
:106290002DE9F04104460F4616460025A8462EB9C2
:1062A000214618A0FAF744F8BDE8F08142F208410F
:1062B00001EB4410FDF7CAFF054642F2085101EB1D
:1062C0004410FDF7C3FF00EB052085B2280200EB68
:1062D000441000F1100832463946404601F0EAFC0D
:1062E000A81985B2290A42F2084202EB4410FDF7D0
:1062F000CCFFE9B242F2085202EB4410FDF7C5FFB1
:1063000000BFD1E72043483A20256420556E6578C8
:1063100070656374656431206C656E6774682030E5
:106320000D0A00002DE9F04104460D4616461F46B1
:10633000012C06D0022C14D0032C18D0042C2CD104
:1063400025E0002201218B48FCF7F0F9002204210E
:106350008848FCF7EBF9012202218648FCF7E6F9B0
:106360002BE0012211468448FCF7E0F925E00022E9
:1063700001218048FCF7DAF9002204217D48FCF76E
:10638000D5F9002202217B48FCF7D0F915E0012263
:1063900002217948FCF7CAF90FE0002240F63B7170
:1063A0007548FCF7C3F9012240F6FF717148FCF70C
:1063B000BDF972A000F0E8FA00BF00BF012D06D0C1
:1063C000022D14D0032D18D0042D2CD125E000224D
:1063D00008216848FCF7AAF9002220216548FCF74B
:1063E000A5F9012210216348FCF7A0F92BE0012256
:1063F00008216148FCF79AF925E0002208215D4850
:10640000FCF794F9002220215A48FCF78FF900226A
:1064100010215848FCF78AF915E00122102156484E
:10642000FCF784F90FE0002240F63B715248FCF77C
:106430007DF9012240F6FF714E48FCF777F955A02F
:1064400000F0A2FA00BF00BF012E06D0022E15D028
:10645000032E19D0042E2ED127E0002240214548DA
:10646000FCF764F900224FF480714248FCF75EF9B2
:10647000012280213F48FCF759F92CE0012220211C
:106480003D48FCF753F926E0002240213948FCF74B
:106490004DF900224FF480713648FCF747F900228D
:1064A00080213448FCF742F915E0012211023248FC
:1064B000FCF73CF90FE0002240F63B712E48FCF758
:1064C00035F9012240F6FF712A48FCF72FF937A071
:1064D00000F05AFA00BF00BF012F06D0022F16D0DD
:1064E000032F1AD0042F31D12AE000224FF400717B
:1064F0002048FCF71BF900224FF400611D48FCF70F
:1065000015F9012291021B48FCF710F92EE0012237
:1065100051021948FCF70AF928E000224FF40071F3
:106520001448FCF703F900224FF400611148FCF70E
:10653000FDF800224FF480610E48FCF7F7F815E0F3
:10654000012291020C48FCF7F1F80FE0002240F61E
:106550003B710948FCF7EAF8012240F6FF71054853
:10656000FCF7E4F817A000F00FFA00BF00BFBDE889
:10657000F081000000100140000C014073657420A0
:106580006368616E6E656C2041206572726F720D7A
:106590000A000000736574206368616E6E656C208C
:1065A00042206572726F720D0A00000073657420DC
:1065B0006368616E6E656C2043206572726F720D48
:1065C0000A000000736574206368616E6E656C205C
:1065D00044206572726F720D0A00000010B5044607
:1065E00004222146900101F065FB10BD10B5044660
:1065F00021464FF4D850FDF748FE10BD10B50446B3
:10660000210A4FF4C850FDF740FEE1B24FF4D050DC
:10661000FDF73BFE10BD10B50446062221464FF49F
:10662000106001F047FB10BD10B50446042221465E
:106630004FF4706001F03EFB10BD10B5044604221B
:1066400021464FF4A06001F035FB10BD70B5044643
:106650000D464FF4027101EB44102946FDF715FE7B
:1066600070BD00000EB501200F49887600210E484C
:10667000C1760E490A68026089888180FFF7CBFFE6
:106680000A48FFF72BFC0948407908490979074A6D
:10669000D278CDE9002102900448837842780178CD
:1066A00003A0F9F745FE0EBDB408002076000020D7
:1066B0005735353030204D4143B5D8D6B720203A34
:1066C00020253032782E253032782E253032782E23
:1066D000253032782E253032782E253032780D0A4A
:1066E0000000000008B5294829490A680260898825
:1066F000818028490968C0F8061027490968C0F850
:106700000A1026490968C0F80E1025490968C0F822
:1067100012102448007818B923A0F9F709FE00BF29
:1067200000BF1A480A30FFF788FF18480E30FFF7FD
:1067300055FF1648801DFFF777FF1648FFF7D7FB78
:106740001448C078009013488378427801781EA0DE
:10675000F9F7EEFD1048FFF7D3FB0F48C078009023
:106760000D488378427801781FA0F9F7E1FD0B48C6
:10677000FFF79EFB0948C07800900848837842786C
:10678000017821A0F9F7D4FD08BD0000B40800206D
:10679000760000207C000020800000208400002083
:1067A0008800002094000020CAB9D3C3B6A8D2E55F
:1067B000B5C44950D0C5CFA2C5E4D6C3573535308E
:1067C00030A3BA0D0A00000057353530302049504B
:1067D000B5D8D6B72020203A2025642E25642E2552
:1067E000642E25640D0A0000573535303020D7D38C
:1067F000CDF8D1DAC2EB203A2025642E25642E256F
:10680000642E25640D0A0000573535303020CDF850
:10681000B9D820202020203A2025642E25642E255A
:10682000642E25640D0A000010B5044642F6087176
:1068300001EB44100221FDF728FD10BD2DE9F041C8
:1068400004460D461646984605F00F0001280FD065
:1068500005F00F0002280BD005F00F00032807D029
:1068600005F00F00042803D005F00F00052841D1E2
:106870002046FEF7C7FB45EA0801082202EB441058
:10688000FDF703FD76B1310A4FF4816202EB44104B
:10689000FDF7FBFCF1B24FF4A16202EB4410FDF7EF
:1068A000F4FC15E015480088401C144908800A468D
:1068B0001288110A4FF4816202EB4410FDF7E5FCE7
:1068C0000E4A11784FF4A16202EB4410FDF7DDFC93
:1068D0004FF4847101EB44100121FDF7D6FC00BF99
:1068E0004FF4847101EB4410FDF7B0FC0028F7D1A0
:1068F000012700E000273846BDE8F0818C00002029
:106900002DE9F04105460E460027B846002433E045
:10691000295D41F6087202EB4410FDF7B6FC315DCB
:1069200041F6086202EB4410FDF7AFFC0020144969
:1069300021F81400134921F81400B7F5804F07DC43
:10694000285D4FF6FF7101EA80200D4921F81400FF
:10695000B8F5804F07DC305D4FF6FF7101EA80200B
:10696000084921F81400064830F814000744054887
:1069700030F814008044641C082CC9DBBDE8F081A9
:1069800094080020A40800200FB400B59BB01DA8F7
:106990000190652102A8019B1C9AF9F7AFFC02A89F
:1069A00000F03CF8002001901BB05DF814FB0000E3
:1069B00070B504460D462046FFF7D0F8062818D2D9
:1069C000DFE800F01707030B0F132046FEF7ECFF7C
:1069D00013E02046FEF7A2FF0FE02046FEF76AFB19
:1069E0000BE02046FEF7EEFE07E02046FEF724FB14
:1069F00003E003A0FFF7C8FF00BF00BF70BD0000A9
:106A0000496E76616C6964205573657220436F6DC1
:106A10006D616E642121210D0A00000070B50446ED
:106A20002046F9F7D7FE85B22A462146024800786B
:106A3000FFF7B6FB70BD0000C000002010B5234872
:106A4000008800F4004000283ED020480088C0F3B1
:106A50000D001F49088000201E4908700CE01E48E8
:106A60001C490978405C1D491A4A12788854194813
:106A70000078401C174908701648007814490988A6
:106A80008842ECDB00201149088011480188124837
:106A9000F9F7BFFE1148FFF761F8012802D0052879
:106AA00008D103E00D48FEF7FBFF07E00B48FEF7B7
:106AB000C3FA03E00AA0F9F73BFC00BF00BF04489B
:106AC00001880648F9F7A5FE10BD00005C00002013
:106AD000A00000209E00002070030020EC0C00208D
:106AE000496E76616C6964205573657220436F6DE1
:106AF0006D616E642121210D0A00000030B595B052
:106B0000054613AB12AA09A9284600F03FFA04462D
:106B100014B1204615B030BD0020149026E0224963
:106B200009689DF8502001EBC20113AB11AA486817
:106B300001A900F02BFA04460CB12046EAE709A9A6
:106B400001A800F0E1FC60B99DF844009DF84810F0
:106B5000884201DD0220DDE79DF85000124988756A
:106B60000AE09DF85000401CC0B214900E48007D11
:106B70009DF850108842D2DC00BF0B48007D9DF884
:106B80005010884201D10420C4E714A9284600F01F
:106B9000DDFA04460CB12046BCE79DF850000249DE
:106BA00048750020B6E700000C0100202DE9F041F7
:106BB0009AB09C48847D007DA04202DC1AB0BDE8FA
:106BC000F0819849096801EBC40106AB07AA48683F
:106BD00008A900F0DBF908A993A0F9F7A9FB0026A2
:106BE00044E09048008B0121B1400840D8B12221F7
:106BF0008FA0F9F79DFB304600F02EFB8949243128
:106C0000471839468BA0F9F793FB222188A0F9F7A2
:106C10008FFB304600F020FB82492431084410A944
:106C200041F8260018E0304600F016FB7D4924317B
:106C3000085810A941F826007A48C07D30B910A83C
:106C400050F826107CA0F9F773FB05E010A850F867
:106C500026107AA0F9F76CFB9DF81C00401EB0428C
:106C600002D078A0F9F764FB701CC6B29DF81C0036
:106C70008642B6DB74A0F9F75BFB00F03FFB694886
:106C8000407D0B280DD2DFE800F0060D151E2732DF
:106C90003F4E5F7287006349096851F834008047AE
:106CA000054690E05F4A126852F834101098884701
:106CB000054688E05B4B1B6853F83420DDE9100182
:106CC000904705467FE0574F3F6857F8343010A88B
:106CD00007C89847054676E0DFF848C1DCF800C0F1
:106CE0005CF8347010A80FC8B84705466BE01498DC
:106CF000DFF830C10090DCF800C05CF8347010A8F8
:106D00000FC8B84705465EE0DDE91401DFF814C19D
:106D1000CDE90001DCF800C05CF8347010A80FC8A1
:106D2000B84705464FE0DDE914121698DFF8F4C0C5
:106D3000CDE900120290DCF800C05CF8347010A8B5
:106D40000FC8B84705463EE0DDE91423DDE916101B
:106D5000DFF8D0C0CDE90023CDE90210DCF800C097
:106D60005CF8347010A80FC8B84705462BE0DDE981
:106D70001523DDE91710CDE90123CDE9031014989F
:106D8000DFF8A0C00090DCF800C05CF8347010A8F8
:106D90000FC8B847054616E0DDE91623DDE91810EF
:106DA000CDE90223CDE90410DDE91401DFF874C058
:106DB000CDE90001DCF800C05CF8347010A80FC801
:106DC000B847054600BF00BF00F056FA9DF818000E
:106DD00001280CD11348C07D20B929461BA0F9F722
:106DE000A7FA07E029461BA0F9F7A2FA02E018A0CB
:106DF000F9F79EFA0B4890F8EC0088B10948D0F8F2
:106E0000F0000A21B0FBF1F201FB12070548D0F8AF
:106E1000F000B0FBF1F83A46414611A0F9F788FAC4
:106E200000BFCBE60C0100200D0A257328000000EE
:106E30002563000025730000256C64003058255838
:106E4000000000002C000000290000003D256C75AA
:106E50003B0D0A003D305825583B0D0A000000004C
:106E600046756E6374696F6E2052756E2054696D3D
:106E7000653A25642E2531646D730D0A000000000B
:106E8000F0B50346154600200022002600245BE0F2
:106E90001F782C2F01D104B901221F78292F01D08E
:106EA0001F780FB904B950E0002E3AD11F78302F67
:106EB00002DB1F78392F17DD1F782D2F14D01F7894
:106EC0002B2F11D01F78612F02DB1F78662F0BDD6F
:106ED0001F78412F02DB1F78462F05DD1F78582FC2
:106EE00002D01F78782F0CD102B12EE01F78612FCD
:106EF00003DB1F78203F0F7001E01F780F70491CE3
:106F00001FE01F78222F04D102B11EE001260124C8
:106F100017E01F78202F14D01F782C2F11D0FF26B8
:106F200013E01F78222F00D1002402B10DE044B1FC
:106F30001F785C2F02D15B1C471CF8B21F780F70C2
:106F4000491C471CF8B25B1CA2E700BF00270F706A
:106F50002E70F0BD10B50446002010700BE02078B4
:106F60000870641C491C1078401C107010789842FE
:106F700001DB012010BD2078202802D020780028D5
:106F8000EDD10020087000BFF4E700002DE9FF4FAD
:106F900085B0804689460027002004900390012098
:106FA00002904FF0000B002544461DE02078202879
:106FB00016D005F07F00052812DA0DB945F08005DE
:106FC00005F07F00042803D120782A2800D00EE0A5
:106FD000207805F07F010DF80100681CC5B202E0C1
:106FE000852D00D103E0641C20780028DED100BF8D
:106FF0008DB1002005F07F010DF8010051A1684618
:1070000000F082FA18B900210898017002E001210D
:107010000898017000254FF0000A444614E0641CF3
:107020000AF1010000F0FF0A2078202802D0207821
:107030002A2809D1204600F0D9F90646282E03D087
:107040002A2E01D0CDF810A02078282802D0207850
:107050000028E4D14446049810B10498401C04442C
:107060004FF0000A002654E0207810B94FF0010AD2
:1070700050E02078282803D116B9781CC7B213E055
:107080002078292808D13EB917B1781EC7B201E08F
:107090004FF0010A47B93DE02078222804D10EB90B
:1070A000012000E00020064647B9207820282FD094
:1070B000207889F8000009F1010929E020782C28BE
:1070C00004D101200290681CC5B214E02078202869
:1070D00011D0207828280ED04DB9BBF1050F06DA63
:1070E00020780DF80B000BF1010000F0FF0B029867
:1070F000401CC0B20290012F0AD10298022807D189
:107100000298401CC0B202900398401CC0B2039089
:10711000641CA9E700BF0398012809D100200DF8DD
:107120000B0008A1684600F0EFF908B900200390B1
:10713000079903980870002089F80000504609B0AC
:10714000BDE8F08F766F6964000000002DE9F04320
:10715000B5B005460F460024002604E000213D4856
:107160008155701CC6B20A2EF8DB06E06D1C28782B
:1071700018B9012035B0BDE8F08328782828F5D16A
:107180006D1C61E034AA69462846FFF779FE064681
:1071900035449DF8D00020B1012827D0FF284CD1DC
:1071A00049E09DF8000000B333A9684600F029F9D2
:1071B00006460EB10220DDE7204600F04DF82549D5
:1071C0000A31339A0A50A1F12400008B0121A14019
:1071D000884320491A39088304211E480155601C40
:1071E000C4B20A2C01DD0320C4E726E0684600F0A3
:1071F000A7F9401C00F0FF08204600F02DF81549C3
:107200000A3100EB01094946684600F08EF9114841
:107210001A38018B0120A040014388B20D491A3968
:1072200008830C4800F80480601CC4B20A2C01DDFD
:1072300003209FE701E002209CE700BF287829286F
:1072400001D0287800B900E09CE700BF3C70002026
:1072500090E700002601002002460020002105E002
:10726000044B5B5C0344D8B24B1CD9B29142F7DBB0
:1072700070470000260100200E480068006900F0F9
:10728000010040B10C48D0F8F0004FF6FF710844FF
:107290000949C1F8F0000848D0F8F000054909682C
:1072A000496A08440449C1F8F0000846D0F8F000E3
:1072B00070470000D41800200C01002010B50446CF
:1072C00004EBC40000EB04100122C2EB800081B289
:1072D0004FF47A70FDF738FA01200149C87510BDE6
:1072E0000C01002010B50246012000E050430B1EA7
:1072F000A1F10104E1B2F9D110BD00006FF001006D
:1073000009490968086100BF000C07490968C8629B
:1073100001460548C16000BF002003490968486272
:107320000249C1F8F0007047D41800200C01002079
:1073300070B51D48008800F40040002833D01A487A
:107340000578002019494855194881681748884729
:1073500004461CB91649C868804721E0134800F06C
:10736000FBF80546012D00D02C46CCB1012C06D0EF
:10737000022C08D0032C0AD0042C10D10BE00DA055
:10738000F8F7D6FF0BE00EA0F8F7D2FF07E00FA04A
:10739000F8F7CEFF03E010A0F8F7CAFF00BF00BF68
:1073A00000200149088070BD5C00002070030020AF
:1073B0000C010020BAAFCAFDB4EDCEF3210D0A00D6
:1073C000B2CECAFDB4EDCEF3210D0A00B2CECAFD95
:1073D000CCABB6E0210D0A00CEB4D5D2B5BDC6A562
:1073E000C5E4B5C4BAAFCAFD210D0A000146491C67
:1073F00000E0491C0878202801D10029F9D108783B
:1074000070472DE9F04F05460F4600264FF00A0958
:10741000B3462C460020386034E02078392802DC5E
:107420002078302811DA28782D2802D028782B28C7
:1074300000D156B12078462802DC2078412804DAB1
:107440002078582817D1012E15D12078412801DB4A
:107450004FF0100928782D2803D14FF0020B6D1C36
:107460000FE028782B2803D14FF0010B6D1C08E0AA
:10747000701CC6B205E0207800B904E00120BDE828
:10748000F08F641CC9E700BF2C46B9F1100F0FD173
:10749000032E01DA0220F2E72078302806D1607846
:1074A000582803D1A41CB01EC6B204E00320E6E7AE
:1074B0000EB90420E3E71BE00EB1701EC6B22078BF
:1074C000392806DC2078302803DB2078A0F1300A48
:1074D00002E02078A0F1370A31464846FFF702FF64
:1074E00039680AFB00103860641C207800B900E09D
:1074F000E2E700BFBBF1020F04D13868C0F1000819
:10750000C7F800800020BAE702460AE010780B783E
:10751000984201D001207047107800B902E0521C57
:10752000491CF3E700BF0020F5E706E002780A7087
:10753000027802B902E0401C491CF7E700BF70471F
:107540000146002005E00A7802B903E0421CD0B2EF
:10755000491CF8E700BF704710B58CB004461E23E5
:107560000BAA03A92046FFF7F5FC0090009810B184
:1075700001200CB010BD9DF82C00044400200B909D
:107580000EE040489DF82C2050F8221003A8FFF789
:10759000BBFF00B908E09DF82C00401CC0B20B9066
:1075A0009DF82C000728ECD300BF9DF82C0007287D
:1075B00063D2DFE800F004053C5E6564630000BF51
:1075C00031A0F8F7B5FE31A0F8F7B2FE3FA0F8F70A
:1075D000AFFE4EA0F8F7ACFE5CA0F8F7A9FE6BA0DA
:1075E000F8F7A6FE79A0F8F7A3FE87A0F8F7A0FEAB
:1075F0008CA0F8F79DFE94A0F8F79AFE98A0F8F7F3
:1076000097FE9DA0F8F794FEA2A0F8F791FEA8A01F
:10761000F8F78EFEB4A0F8F78BFEC1A0F8F788FE4D
:10762000CCA0F8F785FED8A0F8F782FEA2E216A05B
:10763000F8F77EFEE4A0F8F77BFE00200B900EE04A
:10764000F14800689DF82C2000EBC2004168EFA0D3
:10765000F8F76EFE9DF82C00401CC0B20B90EA4873
:10766000007D9DF82C108842EADC07A0F8F760FE48
:1076700080E205A0F8F75CFECCE179E24DE221E280
:10768000F4E10000C80000200D0A00002D2D2D2D72
:107690002D2D2D2D2D2D2D2D2D2D2D2D2D2D2D2D1A
:1076A0002D2D2D2D55534D4152542056332E332D13
:1076B0002D2D2D2D2D2D2D2D2D2D2D2D2D2D2D2DFA
:1076C0002D2D2D2D2D2D2D200D0A000020202020C8
:1076D00055534D415254CAC7D3C9414C49454E54E4
:1076E000454BBFAAB7A2B5C4D2BBB8F6C1E9C7C95A
:1076F000B5C4B4AEBFDAB5F7CAD4BBA5BDBBD7E934
:10770000BCFE2CCDA8B9FD200D0A0000CBFC2CC47A
:10771000E3BFC9D2D4CDA8B9FDB4AEBFDAD6FACA98
:10772000D6B5F7D3C3B3CCD0F2C0EFC3E6B5C4C867
:10773000CEBACEBAAFCAFD2CB2A2D6B4D0D02ED219
:10774000F2B4CB2CC4E3BFC90D0A0000D2D4CBE6FF
:10775000D2E2B8FCB8C4BAAFCAFDB5C4CAE4C8EB3B
:10776000B2CECAFD28D6A7B3D6CAFDD7D6283130A7
:107770002F3136BDF8D6C62CD6A7B3D6B8BACAFDB7
:1077800029A1A2D7D6B7FBB4AE0D0A00A1A2BAAF09
:10779000CAFDC8EBBFDAB5D8D6B7B5C8D7F7CEAAF9
:1077A000B2CECAFD292CB5A5B8F6BAAFCAFDD7EE40
:1077B000B6E0D6A7B3D63130B8F6CAE4C8EBB2CE3D
:1077C000CAFD2CB2A2D6A7B3D60D0A00BAAFCAFD25
:1077D000B7B5BBD8D6B5CFD4CABE2ED6A7B3D6B20E
:1077E000CECAFDCFD4CABEBDF8D6C6C9E8D6C3B985
:1077F000A6C4DC2CD6A7B3D6BDF8D6C6D7AABBBBC9
:10780000B9A6C4DC2E0D0A00BCBCCAF5D6A7B3D6F7
:107810003A7777772E6F70656E6564762E636F6D3D
:107820000D0A000055534D415254D3D037B8F6CF0E
:10783000B5CDB3C3FCC1EE28B1D8D0EBD0A1D0B444
:10784000293A0D0A000000003F3A20202020202085
:10785000BBF1C8A1B0EFD6FAD0C5CFA20D0A000087
:1078600068656C703A202020BBF1C8A1B0EFD6FA51
:10787000D0C5CFA20D0A00006C6973743A20202095
:10788000BFC9D3C3B5C4BAAFCAFDC1D0B1ED0D0AEB
:107890000A00000069643A2020202020BFC9D3C319
:1078A000BAAFCAFDB5C44944C1D0B1ED0D0A0A0052
:1078B0006865783A20202020B2CECAFD3136BDF866
:1078C000D6C6CFD4CABE2CBAF3B8FABFD5B8F12BFE
:1078D000CAFDD7D6BCB4D6B4D0D0BDF8D6C6D7AAC8
:1078E000BBBB0D0A0A0000006465633A202020201B
:1078F000B2CECAFD3130BDF8D6C6CFD4CABE2CBA7E
:10790000F3B8FABFD5B8F12BCAFDD7D6BCB4D6B4FC
:10791000D0D0BDF8D6C6D7AABBBB0D0A0A0000005E
:1079200072756E74696D653A312CBFAAC6F4BAAF30
:10793000CAFDD4CBD0D0BCC6CAB13B302CB9D8B16B
:10794000D5BAAFCAFDD4CBD0D0BCC6CAB13B0D0AA4
:107950000A000000C7EBB0B4D5D5B3CCD0F2B1E08B
:10796000D0B4B8F1CABDCAE4C8EBBAAFCAFDC3FB14
:10797000BCB0B2CECAFDB2A2D2D4BBD8B3B5BCFCA7
:10798000BDE1CAF82E0D0A002D2D2D2D2D2D2D2DEA
:107990002D2D2D2D2D2D2D2D2D2D2D2D2D2D2D2D17
:1079A0002D2D414C49454E54454B2D2D2D2D2D2D22
:1079B0002D2D2D2D2D2D2D2D2D2D2D2D2D2D2D2DF7
:1079C0002D2D2D200D0A00002D2D2D2D2D2D2D2D91
:1079D0002D2D2D2D2D2D2D2D2D2D2D2D2D2D2D2DD7
:1079E0002DBAAFCAFDC7E5B5A52D2D2D2D2D2D2DF9
:1079F0002D2D2D2D2D2D2D2D2D2D2D2D2D2D2D2DB7
:107A00002D2D2D2D200D0A000C01002025730D0AAF
:107A10000000000059A0F8F78BFC00200B901AE042
:107A2000664909689DF82C2001EBC20101AB02AA4E
:107A3000486803A9FFF7AAFA604800689DF82C106F
:107A400050F8312003A95EA0F8F772FC9DF82C00D5
:107A5000401CC0B20B905948007D9DF82C10884204
:107A6000DEDCAFF2DC30F8F763FC83E0AFF2E83045
:107A7000F8F75EFC0BAA03A92046FFF701FA9DF870
:107A80002C00C8B9694603A8FFF7BBFC0B909DF812
:107A90002C0020B94FA00099F8F74AFC0EE09DF8A1
:107AA0002C00042801D0022063E54DA0F8F740FC2B
:107AB00001204249C87501E002205AE547A0F8F7C5
:107AC00037FC57E045A0F8F733FC0BAA03A9204682
:107AD000FFF7D6F99DF82C00C8B9694603A8FFF74F
:107AE00090FC0B909DF82C0020B942A00099F8F76B
:107AF0001FFC0EE09DF82C00042801D0022038E580
:107B00003FA0F8F715FC00202C49C87501E00220C1
:107B10002FE532A0F8F70CFC2CE030A0F8F708FCB9
:107B20000BAA03A92046FFF7ABF99DF82C00C8B9B2
:107B3000694603A8FFF765FC0B909DF82C0078B907
:107B40001E49009881F8EC00084690F8EC0018B146
:107B500030A0F8F7EDFB07E035A0F8F7E9FB03E00C
:107B6000022006E5022004E51CA0F8F7E1FB01E095
:107B70000120FEE400BF0020FBE400002D2D2D2D90
:107B80002D2D2D2D2D2D2D2D2D2D2D2D2D2D2D2D25
:107B90002D2D2D2D2DBAAFCAFD204944202D2D2D80
:107BA0002D2D2D2D2D2D2D2D2D2D2D2D2D2D2D2D05
:107BB0002D2D2D2D2D2D2D2D200D0A000C010020F9
:107BC00025732069642069733A0D0A3058253038CE
:107BD000580D0A004845583A305825580D0A0000FB
:107BE0003136BDF8D6C6B2CECAFDCFD4CABE210D3D
:107BF0000A0000004445433A256C750D0A00000058
:107C00003130BDF8D6C6B2CECAFDCFD4CABE210D22
:107C10000A00000052756E2054696D652043616C46
:107C200063756C6174696F6E204F4E0D0A00000021
:107C300052756E2054696D652043616C63756C618B
:107C400074696F6E204F46460D0A00002DE9F04121
:107C500004460F461546002615B910A0F8F768FB34
:107C6000FEF7BDF9C4F30740FCF709FBC4F3072096
:107C7000FCF705FB04F0F800FCF701FB002605E02B
:107C80000020FCF7FCFAB855701C86B2AE42F7DB58
:107C9000FEF7A9F92846BDE8F081000020556E6581
:107CA0007870656374656432206C656E67746820F3
:107CB000300D0A002DE9F04104460F461546002616
:107CC00015B910A0F8F734FBFEF789F9C4F30740A3
:107CD000FCF7D5FAC4F30720FCF7D1FA04F0F80159
:107CE000091DC8B2FCF7CBFA002604E0B85DFCF72A
:107CF000C6FA701C86B2AE42F8DBFEF774F928466D
:107D0000BDE8F08120556E657870656374656432F6
:107D1000206C656E67746820300D0A000160704742
:107D200010B500290AD00878002807D00548784403
:107D3000F8F7E4FD002801D0002010BD0248784487
:107D400010BD0000F6020000EE02000010B5002990
:107D50000AD00878002807D005487844F8F7CEFD07
:107D6000002801D0002010BD0248784410BD00005A
:107D7000DA030000D2030000F9F76DB9000000003B
:107D800000000000010203040607080900000000CB
:107D90000102030430313233343536373839414249
:107DA000434445464030580030313233343536375D
:107DB0003839616263646566403078000400000809
:107DC00000000000000000020001000010000000A0
:107DD000000000000000000002400000000000A0C1
:107DE0000000000005400000000000C80000000086
:107DF0000C4000000000409C000000001940000002
:107E00000020BCBE0000000034400000BFC91B8E33
:107E100000000004B5400000504BCFD06607E2CF11
:107E2000010000006C4100003E8251AADFEEA73441
:107E300001000000D9420000DCB5A0E23A301F97F3
:107E4000FFFFFFFFB4450000FD25A0C8E9A3C14F17
:107E5000FFFFFFFFFF3F0000000000800000000068
:107E6000FF3F000000000080000000007665727394
:107E7000696F6E2878290D0A000000007365745F31
:107E80006368616E6E656C5F7061726D28413D78EC
:107E90002C423D782C433D782C443D78290D0A0036
:107EA0007365745F494F28494F3D782C7374617432
:107EB000653D78290D0A000068656C700D0A0000A8
:107EC0007265626F6F740D0A000000007365745F65
:107ED000494F00007365745F6368616E6E656C5F27
:107EE0007061726D0000000076657273696F6E00DC
:107EF00068656C70000000007265626F6F7400004E
:107F00000D0A5735353030206173205443502053CB
:107F100065727665722C5761697420666F72207481
:107F2000686520504320746F2065737461626C69CA
:107F30007368206120636F6E6E656374696F6E2075
:107F40006173207468652054435020436C69656EEA
:107F5000742E0D0A000000003F00000064656300FD
:107F60006964000072756E74696D65006C69737484
:107F70000000000068657800766F69642077726998
:107F800074655F6164647228753332206164647261
:107F90002C7533322076616C290000007533322055
:107FA000726561645F616464722875333220616454
:107FB00064722900766F6964204C45445F546F6792
:107FC000676C652875696E7431365F74206D73292E
:107FD00000000000766F69642064656C61795F6DF4
:107FE0007328753136206E6D73290000766F6964D1
:107FF0002064656C61795F757328753332206E7506
:1080000073290000508100080000002014020000C5
:108010006C010008FC81000814020020641D0000AF
:10802000C80100081001000043000000F8FFFFFF36
:10803000004040404040404040404141414141407B
:108040004040404040404040404040404040404030
:1080500040050202020202020202020202020202BF
:1080600002202020202020202020200202020202C4
:10807000020290909090909010101010101010101C
:108080001010101010101010101010100202020228
:10809000020288888888888808080808080808086C
:1080A0000808080808080808080808080202020268
:1080B0004000000000000000000000000000000080
:1080C00000000000000000000000000000000000B0
:1080D00000000000000000000000000000000000A0
:1080E0000000000000000000000000000000000090
:1080F0000000000000000000000000000000000080
:10810000000000000000000000000000000000006F
:10811000000000000000000000000000000000005F
:10812000000000000000000000000000000000004F
:10813000000000001C00000043000000F8FFFFFFEB
:108140000C0000000E0000000F0000002E000000D8
:1081500011032524F413F07E1B08E8041ACC041A3A
:10816000D4041AF8041AB8041A6C041AA0041A7C6D
:10817000041AC004021128DA020151100D08DC11A2
:108180001111C0A8041EFFFFFF19081B0172011B7B
:10819000B01D0A041568B01D130A0A1339471208E6
:1081A0001314142A4108F113587F2A08A41A6C08E2
:1081B0001A60041A74041A5C041A6404133D601BE8
:1081C000089C08131D7D1B0878081B9D5CC41908BA
:1081D0001AB5081AEC0813CD421B08B40822E4149F
:1081E00020BD721408FD6A1408AD6B1408317323A6
:0C81F000080502E0013210A9E5000000C3
:0400000508000131BD
:00000001FF
