:020000040800F2
:10000000B87D032435040008556E00084B670008CE
:100010002D6D00082D250008A5AB0008000000008C
:1000200000000000000000000000000021A1000806
:100030004D27000800000000D1240008CDA10008D1
:100040006F0400086F0400086F0400083D9F00085B
:100050006F0400086F0400086F0400086F040008B4
:100060006F0400086F0400086F0400086F040008A4
:100070006F0400086F0400086F0400086F04000894
:100080006F0400086F0400086F0400086F04000884
:100090006F0400086F0400086F0400086F04000874
:1000A0006F0400086F0400086F0400086F04000864
:1000B00075A2000881A200086F0400086F04000800
:1000C0006F0400086F0400086F0400086F04000844
:1000D0006F040008F1AA00086F04000841AB000893
:1000E0006F0400084D9E0008000000006F04000827
:1000F0006F0400086F0400086F0400086F04000814
:100100006F0400086F0400086F0400086F04000803
:100110006F0400086F0400086F0400088DA2000837
:100120006F0400086F0400086F0400086F040008E3
:100130006F040008512700086F0400086F040008CE
:1001400000000000000000000000000000000000AF
:100150006F0400086F0400086F0400086F040008B3
:100160006F0400086F0400086F0400086F040008A3
:100170006F0400086F0400086F040008000000000E
:100180006F0400086F0400086F0400086F04000883
:100190006F0400086F0400086F0400086F04000873
:1001A0006F0400086F0400086F0400086F04000863
:1001B0006F0400086F0400086F0400086F04000853
:1001C0006F0400086F0400086F0400086F04000843
:1001D0006F0400086F0400086F0400086F04000833
:1001E0006F0400086F0400086F0400086F04000823
:1001F0006F0400086F0400086F0400086F04000813
:100200006F0400086F0400086F0400086F04000802
:100210006F0400086F0400086F0400086F040008F2
:100220006F0400086F0400086F040008000000005D
:100230006F0400086F040008000000006F0400084D
:100240006F0400086F0400086F0400086F040008C2
:100250006F0400086F0400086F0400086F040008B2
:100260006F0400086F0400086F0400086F040008A2
:100270006F0400086F0400086F040008000000000D
:100280006F040008000000006F0400080000000078
:10029000000000006F04000800F002F800F0B2F85F
:1002A0000AA090E8000C82448344AAF10107DA45D1
:1002B00001D100F0A7F8AFF2090EBAE80F0013F071
:1002C000010F18BFFB1A43F00103184708BB0100D8
:1002D00028BB01000A444FF0000C10F8013B13F05A
:1002E000070408BF10F8014B1D1108BF10F8015B8F
:1002F000641E05D010F8016B641E01F8016BF9D182
:1003000013F0080F1EBF10F8014BAD1C0C1B09D1D8
:100310006D1E58BF01F801CBFAD505E014F8016B4A
:1003200001F8016B6D1EF9D59142D6D370470000DC
:100330000023002400250026103A28BF78C1FBD8EE
:10034000520728BF30C148BF0B6070476E2900F0CC
:100350006B85702900F0DD86662911F0CE8665294F
:1003600011F0CB86672911F0C8866129AFF30080B0
:1003700003681B0A28BF41F08001692900F0A081B1
:10038000642900F09D81752900F09A816F2900F0A1
:100390006A86782900F0A986E92900F00586E42913
:1003A00000F00286F52900F0FF85EF2900F067864E
:1003B000F82900F0A8860368DB0928BF41F0800116
:1003C000632900F07485732900F07985E32901F031
:1003D0006E81F32901F07381002070471FB511F081
:1003E00087FE00F08BFC04000020002111F054FE79
:1003F000401C60600020002111F064FEE0601FBD21
:1004000010B510BD01F05CFB1146FFF7E7FF0DF0E2
:100410008DFB01F02DFC03B4FFF7F2FF03BC0AF0E3
:10042000F1FB000030BF72B6704762B6704780F3D0
:100430000888704711488047DFF84400016841F49C
:1004400070010160BFF34F8FDFF83800016821F0C1
:1004500040410160BFF36F8F0B480047FEE7FEE7A6
:10046000FEE7FEE7FEE7FEE7FEE7FEE7FEE7FEE764
:1004700006480749074A084B70470000F1A10008E9
:1004800088ED00E034EF00E099020008B87703241B
:10049000B87D0324B8790324B879032472B6704771
:1004A00062B67047EFF3108072B6704780F3108821
:1004B000704730BF704720BF7047B0FA80F0704778
:1004C00090FAA0F0B0FA80F0704790FAA0F0704770
:1004D00010B500F013FC001D10BD00BFBD1B0100D6
:1004E00053EA020C00F069802DE9F04B4FF0000652
:1004F000002B1FBFB3FA83F503FA05F424FA05F6BF
:100500005E4012BF1643B2FA82F502FA05F4C5F155
:1005100020051EBF22FA05FC44EA0C04203556EAE9
:10052000044C4FEA144418BF641C4FF000084FF00D
:100530000009904271EB030C39D3002919BFB1FABD
:1005400081F701FA07F6B0FA80F700FA07F6C7F16B
:1005500020071EBF20FA07FC46EA0C062037B6FB30
:10056000F4FCA7EB0507103F07F01F0BCBF12006AB
:100570000CFA0BFB2CFA06F644BFB3460026202FDC
:10058000A4BF5E464FF0000B5BEA060C08BF4FF0BD
:10059000010B19EB0B09ABFB027C48EB0608C01BF7
:1005A00006FB02CC0BFB03CC71EB0C01C1E70B4645
:1005B000024641464846BDE8F08B13B54FF00000B7
:1005C0004FF00001AFF30080BDE81C407047000011
:1005D0001CB50C46064B7B4469460090204600F053
:1005E0003CFC04460020694600F04AFC20461CBD45
:1005F000A70800007CB51D4616460C00009001D0EF
:100600002044401E074B7B442A46694601903046F1
:1006100000F023FC05461CB10020694600F030FCC8
:1006200028467CBD810800000FB4044910B503AA18
:10063000029800F049FC10BC5DF814FB1C0000247B
:100640000FB41CB5084B06AA7B4469460090059878
:1006500000F003FC04460020694600F011FC20462F
:100660001CBC5DF814FB00003508000070B50C469A
:100670000546012A05D02878800600D5EA690023BE
:1006800002E0012305E05B1C934202D2E05C0028FB
:10069000F9D1A869E618C01AA861286A1844286226
:1006A000284600F02FFB04E0D5E9012114F8010BE6
:1006B0009047B442F8D3284600F03AFB70BD0000E2
:1006C0002DE9F0410646002410687529314616A52B
:1006D00010D000F03EFB002802DA404213A507E0EC
:1006E00031688A0701D512A502E0490704D511A592
:1006F000012401E000F036FB00210A2206F1240764
:1007000009E0B0FBF2FCB0FBF2F302FB1C0030305E
:1007100078541846491C0028F3D123462A4630460F
:10072000BDE8F04100F027BB000000002D000000F4
:100730002B000000200000002DE9F05F89460446F0
:100740004FF0000ADFF874B1FB44C0F820A0204647
:10075000E1688847002874D0252806D0D4E9012113
:100760009047206A401C2062F1E700265F46204641
:10077000E16888472028054607DB312D05D2781926
:1007800010F8200C08B10643F1E7B00701D526F0B8
:100790000406C4F81CA00027C4F818A02A2D09D00C
:1007A00028460AF028FA38B304EB8708303DC8F829
:1007B000185019E059F8041B204604EB8702916198
:1007C000E1688847012F054618D1E069002820DA42
:1007D00026F020061DE0D8F8180000EB800005EB9D
:1007E00040003038C8F818002046E16888470546C0
:1007F0000AF001FA0028EED1012F0AD02E2D08D1DF
:100800002046E16888477F1C0546022F46F02006F7
:10081000C4DBA069002803DA404246F00106A0616B
:10082000F00701D026F010066C2D0BD0682D09D0F2
:100830004C2D39D06A2D35D0742D35D07A2D33D04A
:1008400016E038E0E1682F4620468847B842054662
:1008500009D16C2F26D04FF48060E1680643204612
:100860008847054604E06C2F1AD04FF48070064389
:100870000DB3A5F14100192802D8203546F40066D1
:100880004A462946204626604E46FFF75FFD80B166
:1008900001280BD0F61D26F0070000F1080956E7E5
:1008A0004020E4E78020D8E70020D6E706F10409DD
:1008B0004DE7284652E7206ABDE8F09FE0B401000A
:1008C0000FB400B58DB010A9099000910B904FF0B6
:1008D000FF300A9000200C900648784406900648A5
:1008E00078446A4607900F9909A800F023FC0DB0E0
:1008F0005DF814FB770800008F0800002DE9FF5F0A
:100900004FF000089946144646469169D2E901A77E
:10091000DDF838B001988847054659EA0B0005D044
:1009200009E0A1690198761C88470546216A284696
:1009300088470028F5D1681C03D05FEACA7005D04B
:1009400015E04FF0FF3004B0BDE8F09F2068011DB6
:100950002160D0F800800AE05FEACA7001D108F88F
:10096000015BA169761C01987F1E88470546002F10
:100970001ADD681C18D0B9F1000F0DD0E81705EB8F
:10098000D060421120F01F0059F822102A1A0120CD
:1009900090400142E0D107E0BBF1000FDCD12846D6
:1009A000216A88470028D7D0E16901988847BBF1C0
:1009B000000F07D1002E05DD5FEACA7002D10021C9
:1009C00088F80010A068B84203DDBBF1000F03D027
:1009D00017B16FF00100B6E73046B4E7014A00F006
:1009E000D9BB000010020024401ECAB210F8011F3B
:1009F0008A4202D00029F9D10020704730B505465F
:100A00000B462A4613F8014B12F8010B08B1A0421D
:100A1000F8D01CB1002802D06D1CF1E7284630BD8B
:100A200040EA010310B59B070FD1042A0DD310C86B
:100A300008C9121F9C42F8D020BA19BA884201D9BD
:100A4000012010BD4FF0FF3010BD1AB1D30703D005
:100A5000521C07E0002010BD10F8013B11F8014BBB
:100A60001B1B07D110F8013B11F8014B1B1B01D1D7
:100A7000921EF1D1184610BD10B5431C02E010F8CB
:100A8000011B71B18107FAD14FF0013202C88C1AF3
:100A90008C4314EAC211F9D0C01A0A0603D0C01E52
:100AA00010BDC01A10BD0A0401D0801E10BD09027D
:100AB000FCD0401E10BD032A40F2308010F0030C21
:100AC00000F0158011F8013BBCF1020F624498BFA1
:100AD00011F801CB00F8013B38BF11F8013BA2F13E
:100AE000040298BF00F801CB38BF00F8013B11F0B9
:100AF000030300F02580083AC0F0088051F8043B59
:100B0000083A51F804CBA0E80810F5E7121D5CBFC5
:100B100051F8043B40F8043BAFF30080D20724BFF8
:100B200011F8013B11F801CB48BF11F8012B24BF8C
:100B300000F8013B00F801CB48BF00F8012B7047DB
:100B400010B5203AC0F00B80B1E81850203AA0E868
:100B50001850B1E81850A0E81850BFF4F5AF5FEA9C
:100B6000027C24BFB1E81850A0E8185044BF18C94F
:100B700018C0BDE810405FEA827C24BF51F8043BF6
:100B800040F8043B08BF7047D20728BF31F8023B4A
:100B900048BF11F8012B28BF20F8023B48BF00F8DE
:100BA000012B70474FF000020429C0F0128010F0B2
:100BB000030C00F01B80CCF1040CBCF1020F18BF39
:100BC00000F8012BA8BF20F8022BA1EB0C0100F0CC
:100BD0000DB85FEAC17C24BF00F8012B00F8012B9F
:100BE00048BF00F8012B70474FF0000200B51346D4
:100BF00094469646203922BFA0E80C50A0E80C503D
:100C0000B1F12001BFF4F7AF090728BFA0E80C50ED
:100C100048BF0CC05DF804EB890028BF40F8042BE6
:100C200008BF704748BF20F8022B11F0804F18BF53
:100C300000F8012B704710B5044610F0030F08BFF1
:100C400011F0030F40F015804FF0013E121FC0F26B
:100C50000E8051F8043BA3EB0E0C2CEA030C1CEAAB
:100C6000CE1C08BF40F8043BF0D0A1F1040102F112
:100C70000402521E08DB11F8013B002B00F8013B77
:100C8000F7D11146FFF78EFF204610BD4FF0013C13
:100C900050F8042B51F8043B9A4215D1A2EB0C03F7
:100CA000934313EACC130BD150F8042B51F8043BB7
:100CB0009A4209D1A2EB0C03934313EACC13E7D079
:100CC0004FF00000704700BFD01A01BAB1FA81F1AD
:100CD00001F0180122FA01F0CB40C1F12001DBB292
:100CE000C0B2C01A2CFA01F3D11A914311EAC31110
:100CF000E6D1704770477047704700000048704762
:100D00007877032470B5044685690068C10601D56B
:100D1000302600E02026C00707D070BDD4E90121AD
:100D200030469047206A401C20626D1EF6D570BD8B
:100D300070B5044685690078C00707D170BDD4E955
:100D4000012120209047206A401C20626D1EF6D5AC
:100D500070BD09684A0501D540B27047C905FCD588
:100D600000B2704709684A0501D5C0B27047C9058D
:100D7000FCD580B270472DE9F0470D469946924662
:100D8000044600F124080168880604D5E06921F0D2
:100D90001001216000E00120A84201DD471B00E0B6
:100DA0000027A1697A1902EB0900081AA0612078CE
:100DB000C00602D42046FFF7A5FF002608E0D4E9CC
:100DC00001211AF806009047206A401C761C206218
:100DD0004E45F4DB2078C0060AD52046FFF792FF87
:100DE00006E0D4E9012130209047206A401C2062AF
:100DF000381EA7F10107F4DC07E0D4E9012118F857
:100E000005009047206A401C2062281EA5F10105BC
:100E1000F3DC2046FFF78CFF2078000602D5022085
:100E2000BDE8F0870120FBE711680268006A5305FE
:100E300001D508700AE0D30501D5088006E0130645
:100E400003D5C217C1E9000200E008600120704725
:100E500001694A1C02610878704700B58FB0CDE97E
:100E600001310021059105497944CDE9031011466E
:100E70006846FFF761FC0FB000BD0000E5FFFFFF13
:100E80000A6802F8010B0A607047D1E900239A4210
:100E900002D2531C0B601070704710B5436913B138
:100EA000AFF3008001E0FFF7E1FB012010BD1278F5
:100EB00000F124010A7000224A700122EDE7116856
:100EC0004FF0FF32E9E70000074B70B50D467B4459
:100ED000FFF7C3FF0446284600F0B0FD10B14FF005
:100EE000FF3070BD204670BD6BB700002DE9FF5F7D
:100EF00015468A460446DFF8AC80F8440027D8E956
:100F000000103E46CDE9001010E03AF816106A468F
:100F100002A800F097FD411C07D02178890603D56F
:100F2000E269391891420DD80744761C2078800672
:100F300002D5E069B84205DDAE42E6DB3AF81600BC
:100F40000028E2D1A069C01BA0612046FFF7DAFEAD
:100F5000D8E90010CDE90010002017E03AF8181089
:100F60006A4602A800F06EFDB0F1FF3F81460BD04B
:100F700000250DF1080B05E0D4E901211BF805005F
:100F800090476D1C4D45F7D308F10100B0428046F3
:100F9000E4DB206A384420622046FFF7C9FEBDE842
:100FA000FF9F000042AD01002DE9F0418046D21DB7
:100FB00022F007020025D2E90002F52915A614D077
:100FC000011E72F1000106DA0023D0EB030063EB8F
:100FD000020211A608E0D8F800108B0701D50FA671
:100FE00002E0490701D50EA601251146002408F1AB
:100FF000240704E000F0F4F830323A55641C50EA5B
:101000000102F7D12B46324621464046BDE8F04169
:10101000FFF7B1BE000000002D0000002B00000013
:101020002000000030B4002100F1240408E002F0A8
:101030000705D208303542EA4372DB086554491C83
:1010400052EA0305F3D10468002310A2250707D54F
:10105000A40600D421B1C46901230DA2641EC46199
:1010600030BCFFF788BE10B5044621461068FFF774
:1010700079FE02462046BDE810400023D2E7D21D8B
:1010800022F00701D1E90023CCE7000000000000B6
:1010900030000000F0B40D460188090502D5214C4E
:1010A0007C4402E01F4C7C440E34002100F12406F5
:1010B00008E002F00F071209E75D42EA03721B091C
:1010C0007754491C52EA0307F3D102780023120730
:1010D00004D5702D06D009B1022311342246F0BC8C
:1010E000FFF749BE01231034F8E770B504460D46FA
:1010F00021461068FFF736FE024629462046BDE825
:1011000070400023C6E7D21D22F00703D3E9002375
:10111000C0E70368126843F0200303600823C3613B
:101120000023B7E7A4AB0100026811441378016003
:1011300018467047D16005497944516104497944A2
:10114000116200211161114600F0BEBAEDFFFFFFF0
:1011500029010000426842B1016811F8013B23B146
:10116000521EC0E90012184670470121C160881E56
:10117000704742685AB1C368016843B983688B42BB
:1011800005D0491E521CC0E90012002070474FF0E4
:10119000FF3070472DE9F04115460E46040002D19C
:1011A0002C6804B90BA4204600F07CFC0444207891
:1011B00070B127463146384600F064FC044420787C
:1011C00010B1002004F8010B38462C60BDE8F08116
:1011D0000027F9E700000000004870475877032413
:1011E00030B5B0F10A024FEA900E71F100034EEAF9
:1011F000817EB0EB0E0061EB91014FEA101E4EEACA
:10120000017E10EB0E0041EB11114FEA102E4EEA59
:10121000016E10EB0E0041EB11214FEA104E4EEA29
:10122000014E10EB0E0041EB1141401841F100015D
:101230004FEAD00040EA41704FEAD10110EB80053F
:101240004FEA810444EA907444EB01046D1944EBC5
:101250000404521BA3414FF0000348BF0A3200D5DB
:1012600030BD401C41F1000130BD10B50446FFF710
:101270002FF90068005D00F0010010BD70472DE9F6
:10128000FF4F0C461E464FF0FF378BB0D2E90001EE
:10129000DDF860800A908A46C1F30A5505B93D46DB
:1012A000002108464FF00000BAF1000F00F44000A2
:1012B00005DA00EB80004FF4400101EA50004FEAEC
:1012C0009059B9F1010F00DDB9460A9850EA4A0079
:1012D0000ED044F61050A5F2FF3545432F14B8F157
:1012E000000F1ED07542291E1EDDC9F100021CE050
:1012F000B8F1010F4FF0000001D0302103E0F243BC
:1013000005E02154401CB042FBDB304600220021A6
:1013100021540B99C1F80880C1E900200FB0BDE845
:10132000F08FBD1B6D1CDEE74A4600DA694206A855
:1013300000F02CFC06AB93E8070003AB83E8070042
:1013400050460A9900F09DFC8DE80700A0F500507A
:101350001F3800900398002D0ADD42F21F014A4613
:101360000844002303A90390684600F006FF09E043
:10137000A0F500504A461F38002303A90390684691
:1013800000F010FF8DE807000004000C03D04FF0C0
:10139000FF30410800E01046B8F1000F03D00022F2
:1013A000009215461EE0751E05D4FFF719FF303276
:1013B00062556D1EF9D5B3460122084302D00022C2
:1013C0007F1C04E02078302801D100227F1E002AF3
:1013D000099784D01DE0112D07DAFFF701FF3032A5
:1013E00062556D1C50EA0102F5D1084302D0009805
:1013F000C8B10EE00021681E05E0235C625C635406
:101400002254401E491C8142F7DBAB46A81B401EFC
:101410000990002004F80B000B98099AC0F8088086
:10142000C0E9002B7AE711264FF0000857E72DE9B5
:10143000F04F88460446D21D22F0070191B0D1E951
:101440000001CDE90A0109F0AEFB02460B98C00F7E
:1014500001D02D2007E02068810701D52B2002E074
:10146000202101EAC000032A099001D0072A05DBE8
:1014700003464146204600F049FB0BE120788006F8
:1014800001D5E06900E00620B8F1650F814606D07D
:10149000B8F1660F18D0B8F1670F70D131E00020B5
:1014A000B9F1110F009001DB112301E009F10103F3
:1014B0000AAA01A90CA8FFF7E2FEDDE90C700026DC
:1014C00009F10105834647E001204B4600904FF0AB
:1014D00000470AAA01A90CA8FFF7D1FEDDE90DB06B
:1014E0000C995D46002610B909F101000D18B9EB01
:1014F000050003D4C0F1FF3609F10105A5EB090091
:101500002BE0B9F1010F01DA4FF001090020B9F128
:10151000110F0090484601DD112300E003460AAA9E
:1015200001A90CA8FFF7ABFEDDE90C704D460026C3
:101530008346207800070AD4AB4500DA5D4601A84F
:10154000012D04DD411911F8011C302907D04F4548
:1015500002DA17F1040F04DA012082460FE06D1E53
:10156000EEE7002F02DCED1B3E4403E0781CA842AE
:1015700000DD7D1CB81B00F1010A4FF00047207808
:10158000000703D4AA4501DB4FF0FF3A0021B7F171
:10159000004F0DF143088DF8431024D002202B2377
:1015A000002F01DA7F422D230A21021EA0F1010043
:1015B00000DC5FB197FBF1FC97FBF1F201FB1C7CB7
:1015C00017460CF1300C08F801CDEEE7A8F1010048
:1015D00003702188090501D5452100E06521A0F1AE
:1015E000010800F8011C09980FA9A1EB0807FF1DCD
:1015F00000B10120411901EBEA70A1693844081AD1
:10160000401EA0612078C00602D42046FFF77AFB76
:10161000099828B1D4E901219047206A401C206232
:101620002078C00622D52046FFF76CFB1EE0002E76
:1016300004DBB34502DD01A8805D00E03020D4E981
:1016400001219047206A401C2062761CAAF101000B
:101650005FEA000A0AD1FFF751FBC0680168405CED
:10166000D4E901219047206A401C2062281EA5F180
:101670000105DCDC07E0D4E9012118F8010B9047F3
:10168000206A401C2062381EA7F10107F3DC2046C7
:10169000FFF74EFB032011B041E610B5436913B1CB
:1016A000AFF3008001E0FFF721FC012010BD12889C
:1016B00000F1240182840022C2840122EDE7116836
:1016C0004FF0FF32E9E700002DE9F34F4FF0000A39
:1016D0000C4656468DB001200C9001F10C000B9089
:1016E00062690B9801219047051E2DD0252D2CD025
:1016F000216A8847C0B162690B9801219047216A2D
:1017000088470028F7D16269411E0B98904700E096
:10171000761CA1690D988847216A88470028F7D16F
:10172000E1690D988847DBE7A1690D988847A842D1
:10173000074601D1761CD3E7E1690D9888477F1CE5
:1017400002D1BAF1000F6FD06CE162690B980027EB
:101750003D46394690472A2804D162690B980121F9
:1017600090470125DFF8D08262690B9801219047EC
:10177000A0F130010A290AD24745E5DC07EB8701D1
:1017800000EB4107303FDFD445F01005ECE7E906F8
:1017900001D46FF000476C280AD04C2814D0682878
:1017A00015D06A280DD074281CD07A281AD01DE0D4
:1017B00062690B98012190476C2802D045F004051E
:1017C00014E045F002050DE045F020050AE06269ED
:1017D0000B9801219047682802D045F0080505E0E4
:1017E00045F4006562690B9801219047C4E90157EF
:1017F00065283DD019DC58287AD00CDC452837D034
:1018000004DC252826D041289ED131E046282FD05F
:10181000472899D12CE05B2877D0612828D063280D
:101820007CD0642823D15AE0F7E06F2848D008DC48
:1018300066281DD067281BD0692821D06E2816D1B4
:1018400027E0702845D0732868D0752847D07828BD
:101850000DD14DE0A1690D988847252805463FF434
:1018600069AFE1690D9888476D1C3FF46AAFD9E014
:101870000D9923466A466FF00100AFF30080C6E081
:1018800045F0400023464FF000026060A80736D4C0
:101890003EE0E8077FF447AF2068011D2160006843
:1018A000290501D506701BE7290701D5068017E732
:1018B000A90703D5F117C0E9006111E706600FE73A
:1018C00045F0400023464FF008026060A80716D498
:1018D0001EE040F60E0125EA0100606016E045F0CA
:1018E000400023464FF00A026060A80707D40FE0CB
:1018F00045F040006060A80708D5234610220D99E6
:101900006FF00100AFF3008081E007E01022234672
:101910000D996FF00100AFF3008078E04FF00009FF
:1019200063284F46C8464B46CB4602D05B2807D0BB
:1019300039E02079C00601D40120A060012732E0FF
:101940006269D4F80CB00B98012190475E2807D14A
:101950004FF0010949466269D4F80CB00B989047E2
:10196000216939B900210A4603AB43F82120491CFB
:101970000829FADBD8B3216949B308F10108626983
:101980000B98012190475D28F4D1B9F1000F09D0DF
:10199000002003A951F82020D24341F82020401C08
:1019A0000828F7DB03AB2069002820794FEA407054
:1019B0001ED05B462246CDF80080CDE901970D99F7
:1019C00000286FF0010020DAAFF300801FE0C1179C
:1019D00003AA00EBD1614B1121F01F0102EB83023E
:1019E000411A13680120884003431360C7E719E0D8
:1019F0000D99224600286FF00100009702DAAFF33C
:101A0000008004E0FEF77AFF01E0AFF300800028D9
:101A10000ADA401C06D10C9820B14FF0FF300FB00D
:101A2000BDE8F08F5046FAE7E90701D10AF1010A53
:101A3000064400200C9053E6CCCCCC0C007B00F08C
:101A40008000704770B516460C460546FEF740FD0F
:101A5000036893F80101012806D0FF2C0FD8185D08
:101A600068B101202C7070BDD3F8070132462146C1
:101A700003F2071303442846BDE8704018474FF0AF
:101A8000FF3070BD30B503461D781DB10A4603E036
:101A9000AC4201D1181A30BD12F8014B002CF7D11D
:101AA0005B1CF1E730B503461D783DB10A4612F8DC
:101AB000014B1CB1AC42FAD15B1CF5E7181A30BDE2
:101AC0007546FFF789FBAE4605006946534620F090
:101AD0000700854618B020B5FEF7CAFCBDE82040D7
:101AE0004FF000064FF000074FF000084FF0000BDA
:101AF00021F00701AC46ACE8C009ACE8C009ACE88D
:101B0000C009ACE8C0098D46704700002DE9F041DE
:101B10001F46044603260168072A01F4006004DB1F
:101B200008B116A505E016A503E008B115A500E06B
:101B300015A521F010002060A069C01EA0610FB1A2
:101B4000401EA0612046FFF7DDF84FB1D4E9012126
:101B500038469047206A401C2062C01C206206E084
:101B6000206AFAE7D4E9012115F8010B9047761EA7
:101B7000F8D22046FFF7DCF8BDE8F0814E414E0078
:101B80006E616E00494E4600696E66002DE9F047B1
:101B9000814616468AB0354878440DC88DE80D0058
:101BA00032487844801C03AC0DC884E80D0041F62F
:101BB0009B300844372190FBF1F290FBF1F5A5F141
:101BC000800501FB12041B3C02D56442012000E0A9
:101BD0000020DFF898A080460027FA44AAF1BE0A48
:101BE0000EE0E0070AD03246684607EB47010123C2
:101BF0000AEB810100F0D6FA8DE8070064107F1C23
:101C0000002CEED1194F7F44AE3F19E0E80715D004
:101C100007EB04100DF1180A90E80E008AE80E0098
:101C2000C068F04201D1981908903246012306A9F4
:101C300003A800F0B7FA03AB83E807006D10641C3B
:101C4000002DE3D14FF0010332466946B8F1000F91
:101C500003A802D000F091FA01E000F0A3FAC9E96C
:101C60000001C9F808200AB0BDE8F08750A10100C2
:101C700010B50446AFF300802046BDE81040FEF7E3
:101C8000CABB5FEA400C08BF91F0000F4FEA8C23FB
:101C90004FEAC12243EA51514FEA1C5018BF00F5E8
:101CA000F0404FEA300018BF41F000415FEA6C5C41
:101CB00000F02980BCF1FF3F08BF40F08040704732
:101CC000130C06BF12044FF0100C4FF0000C130E53
:101CD00004BF12020CF1080C130F04BF12010CF127
:101CE000040C930F04BF92000CF1020CD30F04BF3D
:101CF00052000CF1010C11464FF00002A0F11F0040
:101D0000A0EB0C00704711F0004F08BF704731F096
:101D100000413FF4D5AF0B0C06BF09044FF0100C87
:101D20004FF0000C0B0E04BF09020CF1080C0B0F56
:101D300004BF09010CF1040C8B0F04BF89000CF1E6
:101D4000020CCB0F04BF49000CF1010CCCF12003B5
:101D5000A0EB0C0022FA03F302FA0CF241EA0301B1
:101D600000F10100704720F07F4C80EA030023F06F
:101D70007F47ACEB070303F57C5300F0004003F111
:101D8000FF032DE980494FEA154B09B44FEA14438C
:101D900025EA0B4E24EA03480FF2042606EB13272C
:101DA00049083E785FEA320203FB0667C7F5000781
:101DB00007FB06F64FEA54374FEAD64606F102060D
:101DC00007FB066CCCF1005C4FEA1C472CEA074C81
:101DD00007FB06F40CFB06F504EB15464FEA9616D6
:101DE00034BF00204FF000404FEAD13706FB07FC1C
:101DF0004FEA1C4C0CFB0BF7D21B03FB0CF761EBFF
:101E000007010CFB0EF7B0EB074072EB17420CFB1F
:101E100008F734BFA2EB0742B2EB074261EB174170
:101E20004FEA0C444FEA910706FB07FC4FEA1C4CB3
:101E30000CFB0BF7B0EBC74072EB573203FB0CF710
:101E400034BFA2EBC742B2EBC74261EB57310CFB88
:101E50000EF7B0EBC70072EB57720CFB08F734BFFC
:101E6000A2EBC702B2EBC70261EB5771039F4FEAC7
:101E7000816141EA921104EBCC044FEAD1374FEA79
:101E8000826206FB07FC42EA90124FEA80604FEA4A
:101E90001C4C0CFB0BF7D21B03FB0CF761EB07018F
:101EA0000CFB0EF7B0EB074072EB17420CFB08F788
:101EB00034BFA2EB0742B2EB074261EB17414FEA96
:101EC0008C554FEA910704EB9C2406FB07FC4FEA74
:101ED0001C4C0CFB0BF7B0EBC74072EB573203FB0B
:101EE0000CF734BFA2EBC742B2EBC74261EB5731EC
:101EF0000CFB0EF7B0EBC70072EB57720CFB08F748
:101F000034BFA2EBC702B2EBC70261EB577115EB0E
:101F10004C254FEA816141EA92114FEA82624FEA11
:101F2000D13742EA901206FB07FC44F100044FEA65
:101F300080604FEA1C4C0CFB0BF7D21B03FB0CF729
:101F400061EB07010CFB0EF7B0EB074072EB174299
:101F50000CFB08F734BFA2EB0742B2EB074261EB80
:101F6000174115EB1C154FEA813141EA92414FEAC6
:101F7000823242EA90424FEA80304FEA0C7644F1D6
:101F8000000448EA03434EEA0B484FF0000EB2EB60
:101F9000080C71EB030724BF624639464EEB0E0E68
:101FA0004FF0000B0018524149414BEB0B0BB2EBC9
:101FB000080C71EB03077BF1000B24BF6246394626
:101FC0004EEB0E0E4FF0000B0018524149414BEB07
:101FD0000B0BB2EB080C71EB03077BF1000B24BF7A
:101FE000624639464EEB0E0E51EA020718BF46F024
:101FF000010616EB0E7655F1000254F1000103D5EF
:10200000BDE88901BDE80088BDE88901BDE8004858
:10201000B619524141EB0101A3F1010370478080E1
:102020007F7E7D7C7B7A7978777676757473727132
:1020300071706F6E6E6D6C6C6B6A6A6968686766EA
:1020400066656464636362616160605F5F5E5E5D7C
:102050005D5C5C5B5B5A5A595958585757565655F0
:1020600055555454535352525251515050504F4F52
:102070004F4E4E4D4D4D4C4C4C4B4B4B4A4A4A49A2
:1020800049494848484747474746464645454544E5
:102090004444444343434342424242414141002B72
:1020A0009C4630D477002BD01CB54FEA370703B4D9
:1020B0004FF010004FF01001BAF1000F06D0BCF144
:1020C000000FDCBF40F0080040F008014FF00000B6
:1020D0000FBCBDE810400BF1010BBBF1010F08BFB5
:1020E0005FEA170722BF12F1010211F101014FF05F
:1020F000004143F1000300F0004043EA0000704754
:10210000F9D35708D0E746EA064613F1400F4FEAE5
:1021100016461FDD13F1200FDFBF16430A460021CC
:1021200020335B42BED0C3F1200746EA064602FADE
:1021300007F74FEA164646EA0706C3F1200722FAD8
:1021400003F201FA07F721FA03F14FF0000342EA24
:102150000702A7E746EA020646EA06464FEA16469F
:1021600046EA0106BCBF46EA0646360C4FF00003BD
:102170004FF000024FF0000194E72DE9804C9A46A1
:10218000934670B491E8380007C831EA400C48BF64
:1021900034EA430C03D5FFF7E6FDFFF780FFF0BC00
:1021A000BDE8008C2DE9804C9A46934670B491E8C6
:1021B000380007C810F0804F08BF13F0804F03D1DC
:1021C00000F005F8FFF76BFFF0BCBDE8008C20F0D5
:1021D0007F4780EA030023F07F4C07EB0C03A3F555
:1021E0007C5300F00040A3F1FE0392F0000F00F0DA
:1021F000B38095F0000F00F077802DE901494FEA98
:1022000011404FEA144621EA004800FB06FC24EA8C
:10221000064708FB06F607FB08F800FB07F718EB74
:1022200006484CEB164C4FEA124B18EB07484FEAA6
:1022300015464CEB174022EA0B4E0BFB06FC25EA39
:1022400006470EFB06F607FB0EFE0BFB07F71EEB21
:10225000064E4CEB164C4FF000061EEB074E4CEBB7
:10226000174B18EB0B0840F1000018EB0E0B58EB66
:10227000000840F100008F1A4FF000013CBFC94335
:10228000661B14BFB5EB040C00213CBFC943F61B11
:102290004FEA17444EEA8E0E27EA04454FEA1C47E0
:1022A00004FB07622CEA074C05FB07F70CFB05F65D
:1022B00004FB0CFC16EB074642EB174216EB0C46F0
:1022C00042EB1C421BEB060658EB0202414146EA78
:1022D0009E0601D5BDE80189B619524141EB0101C5
:1022E000A3F10103BDE801894FEA14454FEA114704
:1022F00024EA054621EA074C05FB07F406FB07F72D
:102300000CFB06F105FB0CFC11EB074144EB1744F9
:102310004FEA124711EB0C4144EB1C4422EA074CF4
:1023200005FB07F206FB07F70CFB06F605FB0CFCAA
:1023300016EB074642EB174216EB0C4642EB1C45E8
:102340006A1854F1000148BF7047B619524141EB79
:102350000101A3F10103704795F0000F37D04FEA58
:1023600011424FEA144721EA024624EA074C02FBD5
:1023700007F106FB07F70CFB06F402FB0CFC14EB61
:10238000074441EB17414FEA154714EB0C4441EB6E
:102390001C4125EA074C02FB07F506FB07F70CFB7F
:1023A00006F602FB0CFC16EB074645EB174516EB51
:1023B0000C4645EB1C42121951F1000148BF704711
:1023C000B619524141EB0101A3F1010370474FEAF5
:1023D00014454FEA114724EA054621EA074C05FB5C
:1023E00007F106FB07F70CFB06F24FF0000605FBB2
:1023F0000CFC12EB074241EB174112EB0C4251EB84
:102400001C4148BF7047921841EB0101A3F1010341
:1024100070470000EFF3098141B1F1EE101A40F866
:10242000041D20ED200A3E490A6810607047B0EC98
:10243000200A02C8E1EE101A3A490A681060704793
:1024400072B64EF62250CEF2000040F2FF01C0F20A
:10245000000101704FF0000080F3098805F02AFFA9
:1024600040F26C10C2F20040016881F3088840F22B
:10247000EE00C2F2004040F2EF01C2F200410A78E1
:10248000027040F26415C2F2004540F26811C2F2D7
:1024900000410A682A60106880F30988EFF314800D
:1024A00040F0020080F31488BFF36F8FBDE8F00F97
:1024B0000FBCBDE8005006BC62B608471A484FF092
:1024C00080510160704718484FF08051016070479B
:1024D00072B6EFF3098020E9F00F40F26415C2F202
:1024E00000452E683060744605F0E4FE40F2EE00D0
:1024F000C2F2004040F2EF01C2F200410A780270DD
:1025000040F26811C2F200410A682A6044F0F40EF9
:102510001068B0E8F00F80F3098862B670470000D9
:10252000640100246801002404ED00E0FEE70000DF
:102530000549002010B5486000F0A6F800F006F844
:10254000BDE8104000F086B88C0000242DE9F04171
:10255000104F002635463E807E80BE60FE607E6164
:10256000BE613E61FDF79EFF002480467E6100F063
:1025700049F800F057F8641C786924040544240CD9
:10258000F4D0C7E904564046BE61BDE8F041FDF70E
:102590008DBF00008C00002403490969884201D9DD
:1025A000401A7047002070478C00002410B5FDF7DA
:1025B00079FF04494C69FDF779FF2046BDE81040DA
:1025C000FFF7EABF8C00002410B5FFF7EFFF0446C9
:1025D000FDF768FF034A00215161FDF767FF2046C0
:1025E00010BD00008C00002410B5FDF75BFF04490E
:1025F0008C69FDF75BFF2046BDE81040FFF7CCBFBC
:102600008C00002410B5064C2088401C2080608877
:1026100010B900F051F8A0606088401C608010BDC7
:102620008C00002410B50A4C6088401E0004000C89
:1026300060800CD100F040F8E060A168401A616948
:10264000814200D26061A169814200D2A06110BDC7
:102650008C00002410B5FDF725FF0446FFF7D2FFDC
:102660000548102104F09EFBFFF7DCFF2046BDE883
:102670001040FDF71BBF000080E1022401494860C3
:10268000704700008C00002410B502F063FC08497C
:102690000A6842F080720A60064900224A600A68AD
:1026A00042F001020A60BDE81040FFF7E7BF0000FA
:1026B000FCED00E0001000E00148406870470000B9
:1026C000001000E0F0B5BFF34F8FBFF36F8F1D49CF
:1026D00000200860BFF34F8FBFF36F8F1A4C216843
:1026E00041F400312160BFF34F8FBFF36F8F164964
:1026F00070310860BFF34F8F081F006843F6FF7505
:10270000104E1036C0F34E31C0F3C90305EA411232
:10271000184642EA80773760401EFAD2491EF5D249
:10272000BFF34F8F206840F480302060BFF34F8F9D
:10273000BFF36F8F03484C30016841F00401016022
:10274000F0BD000050EF00E014ED00E07047000025
:1027500010B50BF097F906484FF40041006800F5FA
:102760008B500160402101600121016010BD00001B
:10277000DC26002470B5A2B0064600246946012577
:102780008DF80450680306908DF80F504FF4C36025
:102790008DF80E500D9020208DF81D408DF80C40C6
:1027A00009948DF81F4012948DF832508DF828400E
:1027B0008DF8605017904FF040508DF838400F94CE
:1027C00002948DF861408DF81C4014948DF862409D
:1027D0000B948DF81E500090A8038DF811508DF8C1
:1027E00040408DF83140059002208DF812408DF860
:1027F0005640169030468DF820508DF854408DF894
:1028000030408DF810508DF80D408DF855401194E2
:102810008DF84C5000F0CEF91B9569058DF871408C
:102820004FF406708DF8685019948DF880408DF83B
:1028300070401F918DF878401D9119A98DF8814045
:102840002190304600F066F922B070BD2DE9F047C6
:10285000846A00F1180692468B680027254656F8D0
:102860002420D2F80CC0BCF1000F63DB91F800808B
:102870005FEA487837D5D1F824806FF30F0C4CEA23
:10288000080C4CF4803CC2F80CC0D0F800C0DCF856
:10289000608048F48018CCF8608091F800C05FEA4E
:1028A0000C7C20D5B1F82CC0A2F80AC0D2F80CC01C
:1028B0004CF4003CC2F80CC0D1F830802CF4402C11
:1028C0004CEA080CC2F80CC0D0F800C0DCF86480F8
:1028D00048F48018CCF864800068D0F850C04CF000
:1028E000806CC0F850C00878C0060BD59068D1F84D
:1028F00018C06FF30D0040EA0C009060D06840F003
:102900008060D060087810F0140F14D0D068641C78
:10291000042C40F04040D06000D3241F012756F81B
:102920002420D068002806DA56F82500C16821F076
:102930000041C1608DE018687F1C10604FF00009F5
:102940009068D3F804C06FF30D0040EA0C0090606B
:10295000D3F80880DFF8B8C1B8F1000F0BD04346B8
:10296000D8F80080C2F8048000EA0C00B3F80480B4
:1029700040EA084003E000EA0C00C2F804909060CE
:102980000878C006D0680FD5B1F8208020F4F00098
:1029900040EAC840D060D1F81C806FF3110040EAD3
:1029A000080040F480201CE0D1F804806FF30E0092
:1029B00040EA0800D06091F800805FEAC87806D04D
:1029C000D1F8148020F4403040EA0800D060087844
:1029D000800607D5D068D1F8108020F0406040EA2A
:1029E0000800D0600878400707D59068D1F82880A3
:1029F00020F4404040EA08009060D06820F0804019
:102A000040F02040D06091F800805FEA887869D576
:102A1000D1F80C8020F0607040EA080061E0641C8E
:102A2000042C00D3241F56F82420D068002813DA81
:102A300056F8251000200AE0CA686D1C042D22F00B
:102A40000042CA6000D32D1F401C56F82510B84222
:102A5000F2D30220BDE8F08718687F1C10609068F0
:102A6000D3F804806FF30D0040EA08009060D3F8BB
:102A70000880B8F1000F0BD04346D8F80080C2F8A8
:102A8000048000EA0C00B3F8048040EA084003E048
:102A900000EA0C00C2F8049090600878C006D06884
:102AA00008D5D1F81C806FF3110040EA080040F40B
:102AB000802011E0D1F804806FF30E0040EA080096
:102AC000D06091F800805FEAC87815D0D1F8148002
:102AD00020F4403040EA0800D06020F0804040F010
:102AE0000040D0609B68002B99D19068BAF1000F2C
:102AF00004D040F0004003E0D068EEE720F0004052
:102B00009060D06840F08050D06000203461A1E730
:102B1000FFFF00C030B5026802F58052136847F627
:102B20000204A3430C68234313600A790B7B12034E
:102B300042EAC3338A681343026802F5805254683C
:102B40004DF20105AC431C4354604B7B0A6A42EAD8
:102B50000343026802F58052D2F80041124D2C4026
:102B60001C43C2F800410A7D4B7F120142EA033345
:102B70000A691343026802F58052D2F804410B4DF2
:102B80002C401C43C2F8044100688A69097F00F5A3
:102B9000805042EAC171D0F80821054B1A400A431F
:102BA000C0F8082130BD000000C0FEFFEFEFC0FFFD
:102BB000FFFFC07F30B50B688A680C7B1A430B7926
:102BC000DB0643EAC4531A434B7B42EA83528B7BB6
:102BD00042EA4352CB7B42EA03530A7C002A7CD070
:102BE000002243EAC2434A7C002A78D0002243EA0A
:102BF00042428B7C42EA03424B691A438B691A4377
:102C00000B7F42EA03324B7F42EAC3238A7F002ACA
:102C100066D0002243EA8222CB7F42EA432391F826
:102C20002020002A7ED0002243EA02224B6A1A4367
:102C300091F8283042EA0313CA6A13430268146801
:102C4000434D2C401C43146091F83C2091F83830DF
:102C5000520642EA036291F8303042EA834291F828
:102C6000313042EA434391F83220BAB3002243EABA
:102C700002434A6B134302685468364D2C401C4390
:102C8000546091F840304A6C42EA03230268D468E9
:102C900040F20F15AC431C43D46091F854300A6DD8
:102CA00042EA430391F84C20EAB30022B1F84840CD
:102CB000D20142EA044213430268146F4FF60D75C5
:102CC0002C401C43146791F8553091F8562042EA85
:102CD00043030268D2F8904003E02BE032E02BE09F
:102CE0002CE024F003041C43C2F890400268D2F8A0
:102CF000003D8C6D23F072032343C2F8003D91F830
:102D00006020CB6D12B30022006843EA821291F872
:102D1000613091F862101B0143EAC1010A43D0F807
:102D2000301D01E00CE00FE021F07B011143C0F801
:102D3000301D30BD012254E7012258E7012269E726
:102D4000012271E7012292E70122AFE70122DBE7CE
:102D5000838004000080F8C030B5D1E901230D68FC
:102D60001A43D1E9033423431A434B691A438B694D
:102D70001A43D1E90734496A012D056807D01A437F
:102D800022430A436FF30E052A4302600AE025F44A
:102D9000F845234329430B43416803606FF30E0159
:102DA0000A434260002030BD426942EA410141616C
:102DB0000020704718B5D1E900236FF01F041A43B3
:102DC0008B68C96804EB431343EA41210A4300922C
:102DD0000261002018BD0000F0B5D1E900346FF0A9
:102DE0000F055B1E2E0105EB041423438C682F0393
:102DF0004FEA054C0D8A06EB04248E8A2343CC68E7
:102E0000097E4FF07F4E012A07EB05450CEB065675
:102E10000EEB01610CD082683F1107EB04342343B1
:102E20002B4333430B4302F07042134383600FE0A4
:102E30008768084A17402203C468A2F580523243CB
:102E40003A4382602B430B4304F070442343C36036
:102E50000020F0BDFF0F0FFF10B528B190F835101E
:102E6000022903D080214165012010BD1F4A4FF483
:102E7000956301688C189C4207D8042280F835209D
:102E8000086820F0010008602DE00C6824F00E04B2
:102E90000C6001680A440A6822F001020A60016EAF
:102EA0000A6822F480720A6090F85C100122104BCC
:102EB00002FA01F11960416E4B68846E23434B6046
:102EC000C16E41B10B6823F480730B60016F4B68D6
:102ED000446F23434B60002180F8341080F8352084
:102EE000016D01B18847002010BD0000F0FFFDBF5B
:102EF0000454025870B5026C00F12C03456C53F871
:102F0000221025B1DC6904B16D1C002423E00120EE
:102F100070BD0E690E604FF08076CE604E692EB1A6
:102F20004E698E60CE6846F00076CE60CE6846F080
:102F30000046CE601E6A1EB1CE6846F08046CE6066
:102F40009E69761EA64205D9521C042A00D3121F80
:102F500053F82210641CAC42DBD3006800F58050AB
:102F6000C0F828110020986170BD10B500EB8104F5
:102F7000E46A0AB1042903D301214165084610BD62
:102F800022602261E06840F08070E0604BB1A36095
:102F900040F000706361E06040F00040E0600020BD
:102FA00010BDE068F8E700297DD00268126802F0E1
:102FB0000C02CA6202681268C2F3001281F828206B
:102FC0000268126802F060024A620268126842F304
:102FD0000022521C81F8202002681268C2F34022AD
:102FE000CA770268126842F38022521C8A7702680C
:102FF0001268C2F3C0224A7702681268C2F3003234
:103000000A770268126802F400528A610268126844
:1030100002F480424A6102681268C2F300428A7474
:103020000268126842F34042521C4A7402681268F5
:1030300042F3C042521C0A7402681268C2F3005282
:10304000CA7302681268C2F340528A730268126837
:10305000C2F380524A7302681268C2F3C0520A7304
:103060000268126802F0E0628A6002681268C2F3C5
:10307000C0620A710268126802F0E0420A600268E7
:103080005268C2F30D024A630268526842F300427A
:10309000521C81F8322002685268C2F3404281F823
:1030A0003120026800E062E05268C2F3804281F899
:1030B000302002685268C2F3006281F8382002684A
:1030C0005268C2F34462CA630268D268C2F3002243
:1030D00081F840200268D26802F00F024A64026858
:1030E000126FC2F3400281F854200268126F42F35B
:1030F000C012521C81F84C200268126F02F070025C
:103100000A650268126F120C8A640268D2F8902075
:1031100002F0010281F856200268D2F89020C2F332
:10312000400281F855200268D2F8002D02F07202A8
:103130008A650268D2F8302D02F02302CA6502685F
:10314000D2F8302DC2F3C00281F862200268D2F8B2
:10315000302DC2F3001281F861200068D0F8300DE4
:1031600040F38010401C81F860000020704701206F
:1031700070472DE9F043066C00F12C080746406CBF
:103180000C464FF0000958F8265018B9384600F0A0
:1031900065F9E8B3002017E0696939B3C4B3296958
:1031A000216079696160A46894B369692160796973
:1031B0006160E968761C042EC1F30E0900D3361F46
:1031C000A468401C58F82650D8F81810491E8142AF
:1031D000E2D8ECB1E868C0F30E01A1EB090079690F
:1031E000814205D32969C4E900100EE02969DDE7B1
:1031F000696969B12969216079696160A16839B13A
:103200006A690A607A69801A48600020BDE8F08324
:10321000FFE70120FAE770B500F12C040D46D4E970
:10322000056111B900F01AF968B1A069761E304441
:10323000042800D3001F54F82000C068C0F30E001B
:103240002860002070BD012070BD0000F8B50400AA
:1032500003D094F8510010B104E00120F8BD2046DD
:1032600000F060F9232084F851007248016841F0B1
:1032700002010160006800F002000090207A08B1AD
:103280004FF4000002F0F4FE206800F58050016861
:1032900041F00101016000F019FCE02605464FF401
:1032A000FA7706E000F012FC401BB84201D9042076
:1032B00049E0206800F580500068C007F2D120681E
:1032C000D0F8000220F4706501F044FE5A495B4AD0
:1032D0000144914202D245F4007516E05849594A1A
:1032E0000144914202D245F440750EE05649574AD6
:1032F0000144914209D3564908445649884202D2B2
:1033000045F4807501E045F480652068C0F80052FE
:1033100001F020FE5049B0FBF1F02168401EC1F8D9
:10332000DC002046FFF726FA206800F58050D0F830
:10333000001121F4E01141F40021C0F8001161698D
:10334000880704D00120606584F8516085E7206813
:1033500000F58050D0F8082147F6FE739A4342EA00
:103360004101C0F8081100210A46E06801EB410361
:1033700000EBC30004EB8103491C02600429426096
:103380008260C2609861F0D3A2620323206800F5D6
:103390008050C0F82C312068E16800F58050C0F8FA
:1033A00014112068E16800F58050C0F82011002158
:1033B000206901EB410500EBC50004EB8105491CC8
:1033C0000260042942608260C26002614261E86278
:1033D000EED3E26322646264E264A264216801F5D0
:1033E0008051C1F830312168236901F58051C1F85D
:1033F0001C31216801F58051C1F8280160682168FD
:103400008088C1F800036068C378017841EA0361ED
:10341000837840781B0443EA002001432068C0F809
:1034200004136265102084F8510084F852000020D3
:10343000F8BD0000F444025800D3CEFEC0E1E40021
:1034400040F1E9FD40787D0100796CFC005A620290
:10345000001F0AFA80F0FA0240420F00F0B5C16B7B
:103460002C3000252C462B46866950F8212036B397
:103470000020F0BD6D1CD60019D5641C012C00D1B4
:103480000B46491C042900D3091F50F82120D2689B
:10349000002A07DB520005D50122C261491C04291C
:1034A00000D3091F103080E81A000120F0BD9200FF
:1034B00013D501240B46491C11E050F82120D26895
:1034C000002A01DB042DD5D34CB350F82320002172
:1034D0004FF080764FF040771FE0491C641C0429B0
:1034E000EBD3091FE9E715691560D66055690DB181
:1034F0009560D760D56845F00045D560D0F820C00C
:10350000BCF1000F02D045F08045D5605B1C042B58
:1035100000D31B1F491C50F82320A142E3D30021F4
:103520008161A5E7334800B587B0016841F001012A
:103530000160016801F001010591016841F002019B
:103540000160016801F002010591016841F0040188
:103550000160016801F004010591016841F040013A
:103560000160006800F040000590224808380168BA
:1035700041F400410160016801F4004105910168D6
:1035800041F480310160016801F4803105910168E6
:1035900041F4003101600068002100F40030059022
:1035A000862000900220CDE9010103900B200490B9
:1035B0006946114800F09CF94FF4006000900F48F4
:1035C000694600F095F9322000900D48694600F0F8
:1035D0008FF94FF4C04000900A48694600F088F91E
:1035E000002201213D2000F0F3FA3D2000F0E3FA33
:1035F00007B000BDE0440258000002580004025821
:1036000000080258001802582DE9F04104460068ED
:103610001F46D0F80032DB0718D1D0F8003223F073
:10362000787343EA415121F4F81141EA024141F033
:103630000D01C0F8001200F049FA4FF47A76054601
:1036400007E000F043FA401BB04202D90120BDE878
:10365000F0812068D0F80002C007F2D12068D0F8CD
:10366000040280B238600020F1E710B519B190F87B
:103670005220102A01D0012010BDFFF79BFA002034
:1036800010BD000070B505460068D0F8000220F4B7
:10369000706401F05FFC1149114A0144914202D269
:1036A00044F4007416E00F490F4A0144914202D2DB
:1036B00044F440740EE00D490D4A0144914209D38F
:1036C0000C4908440C49884202D244F4807401E059
:1036D00044F480642868C0F8004270BD00D3CEFE78
:1036E000C0E1E40040F1E9FD40787D0100796CFC27
:1036F000005A6202001F0AFA80F0FA0210B590F830
:1037000051300021C26A102B01D0012010BD2323AB
:1037100080F851300023D468491C042944F08044C7
:10372000D46000D3091F5B1C00EB8102042BD26A1A
:10373000F1D30121C16401680A6842F002020A6003
:1037400001680A6842F001020A600168D1F8002DA0
:1037500042F00102C1F8002D016801F58051D1F855
:10376000042142F00102C1F80421016801F58051F1
:10377000D1F8082142F00102C1F80821016801F5E1
:103780008051D1F8602142F48172C1F8602110218A
:1037900080F85110222180F85210006800F5805006
:1037A000D0F834114DF241021143C0F83411002019
:1037B00010BD2DE9F04100F118061546044641B14F
:1037C00094F85100102808D094F85100212804D012
:1037D00049E0606D40F001000AE0212084F85100CA
:1037E00000222046FFF732F820B1606D40F0020061
:1037F000606538E0A06A56F82060401C0428A0628A
:1038000001D3001FA06204EB80008169206800F5ED
:103810008050C0F8201100F059F907464FF0100809
:1038200024E0206800F58050D0F86001C0040BD57A
:10383000606D40F008006065206800F58050D0F8A9
:103840006001A065E0200CE0681C0FD025B100F0FD
:103850003DF9C01BA84209D9606D40F004006065C5
:10386000404684F851000120BDE8F081F06800284E
:10387000D7DB84F851800020F6E7000070B50546DC
:103880000068D0F80042E4071FD1D0F8000220F011
:10389000787040EA4150114920F4F81040EA0240A3
:1038A00020F00C00001D9AB2C1F8042240F0010083
:1038B000C1F8000200F00AF94FF47A76044606E0F7
:1038C00000F004F9001BB04201D9012070BD286846
:1038D000D0F80002C007F3D170BD000000800240A4
:1038E0000248016841F0010101607047200400585E
:1038F0002DE9F84F00224FF0010A4FF0B0494FF088
:10390000030B4FF00F080B680AFA02F63340B3427C
:1039100071D14C68022C01D0122C11D1D40800EBCB
:1039200084073D6A5407E40E08FA04FC25EA0C05F6
:10393000D1F810C00CFA04FC4CEA050CC7F820C002
:103940000768540091F804C00BFA04F50CF0030C5E
:10395000AF430CFA04FC4CEA070CC0F800C04F68F7
:10396000012F05D0022F03D0112F01D0122F11D11A
:103970008768D1F80CC0AF430CFA04FC4CEA070C82
:10398000C0F808C04768B7430E79C6F300169640E2
:103990003E434660C668AE438D68A5403543C5606A
:1039A0004C68E4006CD5394C256845F0020525606B
:1039B000246822F0030505F1B04504F002040094E8
:1039C000D5F808749407260F08FA06F4A743304C7C
:1039D000A04201D100242EE02E4CA04201D10124AE
:1039E00029E02D4CA04201D1022424E02B4CA0421E
:1039F00002D103241FE043E0294CA04201D104245A
:103A000019E0284CA04201D1052414E0264CA04224
:103A100001D106240FE0254CA04201D107240AE081
:103A2000234CA04201D1082405E0224CA04201D140
:103A3000092400E00A24B4403C43C5F80844D9F8FE
:103A400080404D464E689C43F60300D51C43C5F8A4
:103A50008040D5F884404E689C43B60300D51C4393
:103A6000C5F884402C684E689C43F60200D51C4380
:103A70002C606C684E689C43B60200D51C436C6099
:103A8000521C102AFFF43FAFBDE8F88FF4440258EF
:103A9000000002580004025800080258000C0258A6
:103AA000001002580014025800180258001C025856
:103AB000002002580024025842694A40426170477F
:103AC0000AB10183704741837047000001480068D4
:103AD000704700002000002402480168491C016072
:103AE0007047000020000024032010B500F090F87B
:103AF0000F2000F005F800F05DF8002010BD000078
:103B000010B5044607484FF47A710068B0FBF1F035
:103B100002F0C4FA00222146501E00F059F800209D
:103B200010BD000000000024134A41781160111DEF
:103B300003780A1DE3B143680B60017BC37A090770
:103B400041EA0361837A41EAC341437B41EA83410D
:103B5000837B41EA4341C37B41EA0341437A41EA23
:103B60000321037A007841EA430101431160704761
:103B7000002008601060704798ED00E0054801687B
:103B800021F48031016003487030016821F00101A7
:103B90000160704724ED00E0054940F00100086035
:103BA00003487038016841F48031016070470000BB
:103BB00094ED00E07047002809DB012100F01F02AE
:103BC00091404009800000F1E020C0F800117047EA
:103BD0000E4BF0B41B68C3F30223C3F10704042C9B
:103BE00000D904241D1D072D01D2002300E0DB1E97
:103BF000012606FA04F56D1E0D409D409E40761E7E
:103C0000164045EA0601F0BC06F0E5BF0CED00E009
:103C1000064A00F0070110684FF6FF03184040EA1B
:103C20000120034908431060704700000CED00E0DC
:103C30000000FA050248016841F480710160704794
:103C40000048025810B501F0CBF9084909684FF453
:103C5000807292FAA2F201F47061B2FA82F2D1405B
:103C6000034A515CC8400349086010BD184402581B
:103C7000FE2001080000002410B501F06BF907498F
:103C80000968102292FAA2F201F07001B2FA82F2EF
:103C9000D140034A515CC84010BD00002044025886
:103CA000FE200108374930B50A68096812F003029E
:103CB000354BC1F305311B68344C03F01003246805
:103CC000DFED330AB7EE001AC4F3CC0414FB03F3A0
:103CD00000EE103A2F4BB8EE400A07D02E4C012AC6
:103CE00001D0022A4CD0B4FBF1F10BE0254C283C6A
:103CF00022689506294A03D52468C4F3C104E2402A
:103D0000B2FBF1F180EE202A01EE901A1968F8EE6C
:103D1000611AC1F3080100EE101A1968B8EE400AE2
:103D200032EE000A30EE010A21EE800AC1F346218C
:103D3000491C00EE901AF8EE600A80EE201AFCEEA4
:103D4000C10AC0ED000A1968C1F30641491C00EE22
:103D5000901AF8EE600A80EE201AFCEEC10AC0ED5F
:103D6000010A1968C1F30661491C00EE901AF8EEC9
:103D7000600A80EE201ABCEEC10A80ED020A30BD56
:103D8000074ABDE7284402582C4402583C440258D4
:103D900000F8FF453844025800093D000090D00368
:103DA00040787D01374930B50A68096812F003028E
:103DB000354BC1F305511B68344C03F48073246800
:103DC000DFED330AB7EE001AC4F3CC0414FB03F39F
:103DD00000EE103A2F4BB8EE400A07D02E4C012AC5
:103DE00001D0022A4CD0B4FBF1F10BE0254C283C69
:103DF00022689506294A03D52468C4F3C104E24029
:103E0000B2FBF1F180EE202A01EE901A1968F8EE6B
:103E1000611AC1F3080100EE101A1968B8EE400AE1
:103E200032EE000A30EE010A21EE800AC1F346218B
:103E3000491C00EE901AF8EE600A80EE201AFCEEA3
:103E4000C10AC0ED000A1968C1F30641491C00EE21
:103E5000901AF8EE600A80EE201AFCEEC10AC0ED5E
:103E6000010A1968C1F30661491C00EE901AF8EEC8
:103E7000600A80EE201ABCEEC10A80ED020A30BD55
:103E8000074ABDE7284402582C44025844440258CB
:103E900000F8FF454044025800093D000090D0035F
:103EA00040787D012DE9F84F0446FB4A50F8241B69
:103EB000DFF8E8930025F94F914209F124092E46D5
:103EC000009023D1606F50B1B0F5801F0CD0B0F5D9
:103ED000001F11D0B0F5401F1DD0012515E0386836
:103EE00040F40030386016E0386840F40010386064
:103EF000201D05F0E3FE06E0386840F08070386071
:103F0000009805F03FFF050005D02E462068B0F56B
:103F1000006F09D029E0D9F80010626F21F4401138
:103F20001143C9F80010F1E7606D05281BD2DFE8E6
:103F300000F0030810181800386840F400303860AA
:103F40000FE0386840F400203860201D05F0B6FE10
:103F500006E0386840F480003860009805F012FFF1
:103F600005463DB100E001252E462068B0F5805F92
:103F700009D02EE0D9F80010626D21F0070111433D
:103F8000C9F80010F1E7A06D802818D003DC48B113
:103F9000402805D10BE0C02819D0B0F5807F16D09D
:103FA000012515E0386840F4003038600FE03868CB
:103FB00040F400203860201D05F080FE06E03868DF
:103FC00040F480003860009805F0DCFE05466DB1D5
:103FD0002E4620684FF0806840452ED1E06D802845
:103FE00021D00CDC90B140280ED114E0D9F800109B
:103FF000A26D21F4E0711143C9F80010E9E7C0286F
:1040000019D0B0F5807F16D0012515E0386840F44E
:10401000003038600FE0386840F400203860201D20
:1040200005F04CFE06E0386840F4800038600098E7
:1040300005F0A8FE05464DB12E46DFF860A22068C7
:104040000AF12C0AB0F1006F09D032E0D9F8001063
:10405000E26D21F4E0711143C9F80010EDE7D4F8E6
:10406000DC00B0F5800F1AD004DC58B1B0F5001FA9
:1040700006D10CE0B0F5C00F19D0B0F5000F16D086
:10408000012515E0386840F4003038600FE03868EA
:1040900040F400203860201D05F010FE06E038686E
:1040A00040F480003860009805F06CFE05462DB1A4
:1040B0002E462068B0F1805F0AD032E0DAF80010B6
:1040C000D4F8DC2021F460011143CAF80010F0E7B5
:1040D000D4F8E000B0F1007F19D004DC50B1B0F1A9
:1040E000807F05D10BE0B0F1407F18D0404516D05D
:1040F000012515E0386840F4003038600FE038687A
:1041000040F400203860201D05F0D8FD06E0386836
:1041100040F480003860009805F034FE05462DB16B
:104120002E462068B0F1804F0AD022E0DAF8001065
:10413000D4F8E02021F0E0611143CAF80010F0E764
:10414000A06CA0B1102805D0202808D030280ED0AF
:1041500001250DE0386840F40030386007E0386829
:1041600040F400103860201D05F0A8FD054695B10B
:104170002E46494920684FF44058891D88424FF423
:10418000005B2FD1206E584522D00DDC98B1B0F5E0
:10419000805F0ED114E0414820300168A26C21F00C
:1041A000300111430160E4E7404519D0B0F5804F7C
:1041B00016D0012515E0386840F4003038600FE073
:1041C000386840F400203860201D05F077FD06E0D7
:1041D000386840F480003860009805F0D3FD05464B
:1041E000ADB12E462C4920680E31884226D1606E32
:1041F000404521D014DCD8B1584517D1386840F477
:1042000080003860009805F0BDFD054614E0D9F83F
:104210000010226E21F4E0411143C9F80010E1E7DB
:10422000B0F5804F08D0B0F5E04F1CD0012504E078
:10423000386840F400303860EDB12E4616492068E9
:104240001E31884233D1A06E40452ED01CDC38B3DD
:1042500058451FD1386840F480003860009805F058
:1042600091FD054621E0386840F400203860201DAB
:1042700005F024FDC9E7D9F80010626E21F4E04191
:104280001143C9F80010D9E7B0F5804F0DD0B0F553
:10429000E04F1ED0012509E0020000802C440258A6
:1042A000FFE7386840F400303860D5B12E46F84852
:1042B00021684FF44038814236D1E06E404531D01C
:1042C00018DC78B3B0F5803F1CD0B0F5003F17D1B3
:1042D00020E0386840F400203860201D05F0EEFC36
:1042E000BFE7D9F80010A26E21F4E0411143C9F8EC
:1042F0000010DCE7B0F5802F14D0B0F5A02F11D05E
:10430000012510E0386840F480103860201D05F069
:10431000D5FC06E0386840F400003860009805F0ED
:1043200031FD05468DB12E46D94821684030814285
:104330002ED1206F404529D010DC38B3B0F5803F36
:1043400014D0B0F5003F0FD118E0D9F80010E26E9C
:1043500021F4E0211143C9F80010E5E7B0F5802F02
:1043600014D0B0F5A02F11D0012510E0386840F42A
:1043700080103860201D05F0A1FC06E0386840F48C
:1043800000003860009805F0FDFC0546E5B12E46BA
:10439000BF4920684FF00058C03188422FD1D4F86F
:1043A000E400B0F1405F28D017DC30B3B0F1805F9B
:1043B0001BD0404517D1386840F4000038600098A1
:1043C00005F0E0FC054618E0D9F80010226F21F452
:1043D000E0211143C9F80010DAE7B0F1804F0CD0AA
:1043E000B0F1A04F09D0012508E0386840F48010F2
:1043F0003860201D05F062FCE4E7ADB12E46A4480C
:1044000021683C38814221D1E06FD8B1B0F1805FA2
:1044100014D0404518D1386840F480103860201D11
:1044200005F04CFC05460DE0DAF80010D4F8E42065
:1044300021F0E0411143CAF80010E0E7386840F489
:10444000003038603DB100E001252E462068B0F113
:10445000005F09D021E0D9F80010E26F21F040514F
:104460001143C9F80010F1E7606CA0B1012805D034
:10447000022808D003280ED001250DE0386840F44A
:104480000030386007E0386840F400103860201DC4
:1044900005F014FC05462DB12E462068B0F5003F0E
:1044A00008D04EE07B480168626C21F003011143A3
:1044B0000160F2E77848016841F480710160FFF71C
:1044C00005FB804605E0FFF701FBA0EB0800642830
:1044D0002ED871480068C005F5D555BB6D4824300D
:1044E0000068B4F8E81000F4407001F440718842AC
:1044F0000DD0684824300168026821F4407142F40C
:1045000080320260026822F4803202600160D4F8D6
:10451000E800B0F5807F1CD1FFF7D8FA804609E0AB
:10452000FFF7D4FAA0EB080141F28830814201D9AB
:10453000032505E05748243000688007F0D545B1D1
:104540002E46DFF85081206808F10808012821D0A4
:1045500043E0D4F8E800C0F3012103290FD04D480F
:104560003C38016821F47C5101604A4824300168DC
:10457000B4F8E820C2F30B0211430160E1E74549BA
:104580003C390A68454B22F47C5203EA101002437E
:104590000A60EAE7D4F89C0018281CD005DCD0B1EA
:1045A000082808D0102804D10DE0202813D028288E
:1045B00011D0012510E0386840F480103860201DCB
:1045C00005F07CFB06E0386840F400003860009895
:1045D00005F0D8FB054625B12E46206802280AD0F2
:1045E00026E0D8F80010D4F89C2021F038011143BF
:1045F000C8F80010F1E7D4F88400062816D2DFE8E6
:1046000000F013030B131313386840F48010386064
:10461000201D05F053FB06E0386840F400003860C8
:10462000009805F0AFFB054635B100E001252E46A8
:10463000206804280AD026E0D8F80010D4F8842096
:1046400021F007011143C8F80010F1E7D4F8880001
:10465000062816D2DFE800F013030B131313386893
:1046600040F480103860201D05F028FB06E0386813
:1046700040F400003860009805F084FB05467DB1E9
:1046800000E001252E462068082813D02FE0000006
:10469000400000804C44025800480258CFFFFF0001
:1046A000D8F80010D4F8882021F007011143C8F889
:1046B0000010E8E7D4F88C00062816D2DFE800F0F6
:1046C00013030B131313386840F480103860201D57
:1046D00005F0F4FA06E0386840F40000386000980D
:1046E00005F050FB054635B100E001252E46206857
:1046F00010280AD026E0D8F80010D4F88C2021F039
:1047000007011143C8F80010F1E7D4F8900006281B
:1047100016D2DFE800F013030B131313386840F4CC
:1047200080103860201D05F0C9FA06E0386840F4B2
:1047300000003860009805F025FB05463DB100E01B
:1047400001252E462068B0F5002F0AD02CE0D8F8BD
:104750000010D4F8902021F007011143C8F8001090
:10476000F0E7D4F8A00018281CD005DCD0B1082848
:1047700008D0102804D10DE0202813D0282811D00B
:10478000012510E0386840F480103860201D05F0E5
:1047900095FA06E0386840F400003860009805F0AB
:1047A000F1FA05462DB12E462068B0F5801F0AD0DB
:1047B00026E0D8F80010D4F8A02021F038011143E9
:1047C000C8F80010F0E7D4F89400062816D2DFE805
:1047D00000F013030B131313386840F48010386093
:1047E000201D05F06BFA06E0386840F400003860E0
:1047F000009805F0C7FA05463DB100E001252E46B8
:104800002068B0F5001F0AD026E0D8F80010D4F8D0
:10481000942021F007011143C8F80010F0E7D4F804
:104820009800062816D2DFE800F013030B131313C9
:10483000386840F480103860201D05F03FFA06E02B
:10484000386840F400003860009805F09BFA05468F
:1048500035B100E001252E46206820280AD026E048
:10486000D8F80010D4F8982021F007011143C8F8B7
:104870000010F1E7D4F8C000062816D2DFE800F0F7
:1048800013030B131313386840F480103860201D95
:1048900005F014FA06E0386840F40000386000982B
:1048A00005F070FA05463DB100E001252E4620686E
:1048B000B0F5007F0AD031E0DAF80010D4F8C0205B
:1048C00021F007011143CAF80010F0E7D4F8BC004A
:1048D000B0F1405F20D007DCF0B1B0F1805F0BD0C9
:1048E000B0F1005F06D10FE0B0F1804F14D0B0F10D
:1048F000A04F11D0012510E0386840F40020386046
:10490000201D05F0DBF906E0386840F08070386063
:10491000009805F037FA054695B12E4620684FF409
:104920008061884230D1D4F8C800B0F5406F29D0FA
:1049300010DC38B3884215D0B0F5006F10D119E003
:10494000D8F80010D4F8BC2021F0E0411143C8F899
:104950000010E3E7B0F5805F14D0B0F5A05F11D090
:10496000012510E0386840F400203860201D05F073
:10497000A5F906E0386840F080703860009805F0CE
:1049800001FA05462DB12E462068B0F5000F0AD079
:1049900030E0DAF80010D4F8C82021F4E0511143D7
:1049A000CAF80010F0E7D4F8CC00B0F5C04F1FD023
:1049B00006DCE8B158450BD0B0F5804F06D10FE0CA
:1049C000B0F5004F14D0B0F5204F11D0012510E004
:1049D000386840F400203860201D05F06FF906E0CB
:1049E000386840F080703860009805F0CBF90546D3
:1049F0002DB12E462068B0F1807F0AD030E0DAF881
:104A00000010D4F8CC2021F460411143CAF8001002
:104A1000F0E7D4F8D000B0F5C04F1FD006DCE8B105
:104A200058450BD0B0F5804F06D10FE0B0F5004FE0
:104A300014D0B0F5204F11D0012510E0386840F4B3
:104A400000203860201D05F039F906E0386840F094
:104A500080703860009805F095F905462DB12E4616
:104A60002068B0F1007F0AD030E0DAF80010D4F806
:104A7000D02021F460411143CAF80010F0E7D4F8C7
:104A8000D400B0F5C04F1FD006DCE8B158450BD0BC
:104A9000B0F5804F06D10FE0B0F5004F14D0B0F55F
:104AA000204F11D0012510E0386840F40020386014
:104AB000201D05F003F906E0386840F0807038608A
:104AC000009805F05FF9054625B12E46206840287C
:104AD0000AD015E0DAF80010D4F8D42021F46041AF
:104AE0001143CAF80010F1E7D4F8A800B0F5805FD0
:104AF0000AD0D8F8002022F440520243C8F800201F
:104B00002068802808D013E0009805F03BF9386849
:104B100040F080703860F3E7D4F8AC00B0F5805F07
:104B20000BD0D8F8002022F440520243C8F80020ED
:104B30002068B0F5807F08D013E0009805F022F9D6
:104B4000386840F080703860F2E7D4F8B000B0F513
:104B5000805F0BD0D8F8002022F440520243C8F8FE
:104B600000202068B0F5800F08D013E0009805F011
:104B700009F9386840F080703860F2E7D4F8C40072
:104B8000B0F5807F0BD0DAF8002022F440720243A7
:104B9000CAF800202068B0F5804F08D024E00098C3
:104BA00005F0F0F8386840F080703860F2E7D4F82B
:104BB000D80038B1B0F5803F0CD0B0F5003F11D02F
:104BC000012510E0386840F400203860201D05F011
:104BD00075F806E0386840F080703860009805F09D
:104BE000D1F8054685B12E462068584525D1D4F820
:104BF000B400B0F5801F11D0B0F5001F13D0B0F590
:104C0000401F18D0012517E0DAF80010D4F8D8209A
:104C100021F440311143CAF80010E5E7386840F448
:104C20000030386007E0386840F4000038600098D1
:104C300005F0A8F805465DB12E464A49206888422D
:104C40001FD1E06C70B1B0F5803F10D0012517E0A6
:104C5000D8F80010D4F8B42021F440111143C8F85A
:104C60000010EAE7386840F40030386007E0386840
:104C700040F400103860201D05F020F8054605B30B
:104C80002E4639492068884207D1386840F0807044
:104C90003860009805F076F8064634492068884266
:104CA0001DD1D4F8A400B0F5807F12D0B0F5007FFC
:104CB00013D0B0F5407F10D0B0F5401F0DD00125C6
:104CC0000CE02B480168E26C21F480311143016053
:104CD000D7E7386840F4003038602DB12E462068A0
:104CE000B0F5004F0AD012E0D8F80010D4F8A42094
:104CF00021F440711143C8F80010F0E7D9F8001012
:104D0000D4F8802021F000411143C9F8001019495E
:104D10002068884208D116483C380168D4F8EC2055
:104D200021F48041114301602068B0F5803F07D134
:104D3000D9F80010A26F21F080711143C9F800105A
:104D40000D49206888420AD109483C38016821F49D
:104D5000004101600168D4F8F02011430160304641
:104D6000BDE8F88F00020080000400800008008089
:104D70004C44025800100080002000802DE9F047CC
:104D8000DFF8BC9104460E46D9F8000000F0070099
:104D9000B0420CD2D9F8001021F007013143C9F814
:104DA0000010D9F8000000F00700B0427ED1207852
:104DB000DFF89081800707D5D8F80010E26821F06D
:104DC0000F011143C8F800102078C00762D0D8F84E
:104DD0000010A26821F470611143C8F8001059490D
:104DE0006068183902281CD003281DD009680128E2
:104DF0001DD04907002960DA524F083F396821F079
:104E0000070101433960FEF761FE0546606841F223
:104E10008831022813D003281ED001288A4627D0C3
:104E200034E009688903E5E709688901E2E7C90513
:104E3000E0E7FEF74BFE411B514501D923E08A46CE
:104E40003868C0F3C2000228F3D123E0FEF73EFE2B
:104E5000411B514501D916E08A463868C0F3C200AB
:104E60000328F3D116E0FEF731FE411B51450AD865
:104E70003868C0F3C2000128F5D10BE0FEF726FE2A
:104E8000411B514502D90320BDE8F087386810F076
:104E9000380FF3D1D9F80010484601F00701B142AC
:104EA0000DD9016821F00701314300E005E0016000
:104EB000006800F00700B04201D00120E4E720784C
:104EC000400707D5D8F80010226921F0700111437E
:104ED000C8F80010207801071B4805D501686269F1
:104EE00021F07001114301602178C90605D50168E0
:104EF000A26921F4E061114301602078800607D5A2
:104F00001149091D0868E26920F07000104308602B
:104F100000F066F8D8F800104FF4807292FAA2F20E
:104F200001F47061B2FA82F2D140084A515CC84083
:104F3000074908600F20FEF7E3FD0020A4E700000A
:104F400000200052184402581C440258FE20010858
:104F50000000002410B5FEF775FE0849096801221B
:104F600092FAA2F201F00F01B2FA82F2D140044AA1
:104F7000515CC8400349086010BD00001844025845
:104F8000FE2001080400002410B5FFF7E3FF0749E5
:104F90000968102292FAA2F201F07001B2FA82F2CC
:104FA000D140034A515CC84010BD00001C44025867
:104FB000FE20010810B5FFF7CDFF074909684FF43F
:104FC000807292FAA2F201F4E061B2FA82F2D14068
:104FD000024A515CC84010BD1C440258FE20010822
:104FE0003648F0B50068374D10F03801344809D024
:104FF0000411082904D0344E10290BD018290BD0E5
:105000002046F0BD29688906FBD52968C1F3C10196
:10501000C840F0BD3046F0BD284918310A6809681B
:1050200012F00302294BC1F305111B68284F03F04E
:1050300001033F68DFED270AB7EE001AC7F3CC077C
:1050400017FB03F300EE103A234BB8EE400A06D0EC
:10505000012A01D0022A2DD0B4FBF1F008E02A6821
:10506000920603D52A68C2F3C102D040B0FBF1F02A
:1050700080EE202A01EE900A1868F8EE611AC0F35B
:10508000080000EE100A1868B8EE400A32EE000A76
:1050900030EE010A21EE800AC0F34620401C00EEEB
:1050A000900AF8EE600A80EE201ABCEEC10A10EEFB
:1050B000100AF0BDB6FBF1F0DAE700001044025828
:1050C0000090D0030044025840787D012C440258DF
:1050D0003444025800F8FF45304402582DE9F05F8F
:1050E00004460078DFF8FC8341F28839DFF8F8A342
:1050F000FE4DC0074ED0D8F800104046C1F3C201A3
:1051000002291AD00068C0F3C200032805D1DAF8DA
:10511000000000F0030002280FD06068B0F5803F67
:1051200012D010B1B0F5A02F19D0286820F480302B
:105130002860286820F4802009E02868800329D5A9
:105140006068002874D025E0286840F4803028602A
:10515000606890B1FEF7BAFC06464F4609E0286841
:1051600040F480202860EFE7FEF7B0FC801BB842D7
:105170007DD828688003F7D50CE0FEF7A7FC06462B
:105180004F4604E0FEF7A2FC801BB842F0D8286826
:105190008003F7D42078D64F80075AD5D8F800106E
:1051A00040464FF47C3B11F0380F13D00068C0F339
:1051B000C200032803D1DAF8000080070AD0E068B3
:1051C000A8B3296821F0190101432960FEF77EFC8C
:1051D00006461DE02868400702D5E0680028B1D0E7
:1051E0002868E16820F0190008432860FEF76EFC8B
:1051F000064604E0FEF76AFC801B0228B8D828683F
:105200004007F7D507E0FEF761FC801B0228AFD806
:1052100028684007F7D538689BFAABF220F47C3158
:105220002069B2FA82F290400143396011E000E057
:10523000AEE0286820F001002860FEF747FC064633
:1052400004E0FEF743FC801B022891D82868400741
:10525000F7D42078C00655D5D8F8001040464FF056
:10526000F84BC1F3C201012917D0006800E0ECE05F
:10527000C0F3C200032805D1DAF8000000F00300F3
:1052800001280AD0E069002828682CD040F080006E
:105290002860FEF71BFC064616E02868C00502D50C
:1052A000E069802874D138689BFAABF220F0F841AD
:1052B000206AB2FA82F290400143396022E0FEF7A0
:1052C00005FC801B022899D82868C005F7D53868E6
:1052D0009BFAABF2216AB2FA82F220F0F8409140D8
:1052E000084338600EE020F080002860FEF7EEFBF7
:1052F000064604E0FEF7EAFB801B022887D82868F0
:10530000C005F7D42078000724D5774F60694C3763
:10531000002838680FD040F001003860FEF7D6FB57
:10532000064604E0FEF7D2FB801B02288DD83868C1
:105330008007F7D50EE020F001003860FEF7C6FBCD
:10534000064604E0FEF7C2FB801B02287DD83868C1
:105350008007F7D42078800623D5A0690028286824
:105360000FD040F480502860FEF7B0FB064604E002
:10537000FEF7ACFB801B022867D828688004F7D5AD
:105380000FE020F480502860FEF7A0FB064605E001
:10539000D5E0FEF79BFB801B022856D828688004C6
:1053A000F7D42078400745D5524F386840F48070D4
:1053B0003860FEF78BFB064604E0FEF787FB801B98
:1053C000642842D83868C005F7D5474FA0684837E9
:1053D00001280AD008B1052812D0386820F0010051
:1053E0003860386820F0040002E0386840F00100BE
:1053F0003860A068012808D0FEF768FB064616E072
:10540000386840F004003860EFE7FEF75FFB0646BF
:1054100004E0FEF75BFB811B494516D8386880071E
:10542000F7D507E0FEF752FB811B49450DD83868D8
:105430008007F7D4606AE0B3D8F80010C1F3C20166
:1054400003297CD00228286800E079E020F08070F1
:10545000286003D0FEF73AFB044687E0FEF736FBF0
:10546000064604E0FEF732FB801B02287BD8286842
:105470008001F7D4DAF8001040F2F3329143E26A87
:1054800041EA0211A26A1143CAF8001094F83400EC
:105490004FF4FE02218E4002491EA0F5007080B23A
:1054A000C1F308010843218F491E02EA0141084364
:1054B00000E05EE094F83C101202491E02EA01612D
:1054C00008430949083108600B1D19684FF6F87246
:1054D000A06C914392FAA2F2B2FA82F29040014398
:1054E000196009E010440258284402580044025848
:1054F00004440258004802582048001D0168226CEC
:1055000021F00C01114301600168626C21F002017D
:1055100011430160016841F480310160016841F488
:1055200000310160016841F480210160016841F0AF
:1055300001010160286840F08070286001E01AE0F5
:1055400011E0FEF7C3FA044604E0FEF7BFFA001BC1
:10555000022808D828688001F7D50AE0FEF7B6FAD5
:10556000001B022802D90320BDE8F09F28688001B3
:10557000F4D40020F8E70120F6E7000028440258A0
:1055800070470068503050F8210070470068503074
:1055900040F8212070472DE9F74F044690F820008D
:1055A0008B4601281CD04FF0010884F8208002208F
:1055B00084F821002168CA2048625320216848628B
:1055C000206880684FF47A794FF000064FF0FF07AB
:1055D0004FF0030A40050FD5FEF778FA054607E0BD
:1055E0000220BDE8FE8FFEF771FA401B484518D82F
:1055F0002068C0684007F6D42068816821F4806183
:1056000081602068C16801F0800161F49061C1602F
:10561000FEF75CFA05460CE0FEF758FA401B4845D9
:1056200007D92068476284F821A0032084F820600D
:10563000D7E72068C0684007EED52168C1F814B0EC
:105640002068816821F00701816020688168029AE2
:10565000114381604FF0B040D0F8801041F4002138
:10566000C0F88010016841F4002101602068816861
:1056700041F4804181602068816841F480618160EB
:105680002068476284F82180002084F82060A8E721
:1056900001480221FEF710BA000402584FF0B04151
:1056A00010B504464FF40020C1F888002168C8688E
:1056B000400508D5C86800F0800060F49060C860BC
:1056C0002046FFF7E5FF012084F8210010BD00000F
:1056D00001A0FAF7A9BF0000414C41524D204121E1
:1056E0000D0A00004FF0B04110B504464FF40030F1
:1056F000C1F8880021688868C0040BD5C868C00557
:1057000008D5C86800F0800060F4C070C86020460A
:10571000FFF7DEFF2168886880040BD5C868800524
:1057200008D5C86800F0800060F42070C86020468A
:10573000FFF726FF012084F8210010BD10B5006896
:105740000B4641680D480140080CD870C1F3042491
:105750005C7001F03F049C70C1F34231197052B982
:1057600004F07AFBD870587804F076FB587098787B
:1057700004F072FB9870002010BD00003FFFFF0096
:1057800010B50B460168896A596001680969C1F35F
:105790000E019960006801680E480140C1F30540A0
:1057A0001870C1F306245C7001F07F049C704024E3
:1057B00004EA1141D97052B904F04EFB18705878C0
:1057C00004F04AFB5870987804F046FB987000206B
:1057D00010BD00007F7F7F0070B5040003D094F8F7
:1057E000210010B107E0012070BD002084F82000E6
:1057F000204600F045F8022084F821002168CA20E4
:105800004862532021684862204604F039FBFF219A
:105810000028206804D04162042084F82100E2E7D7
:105820008268164B1A408260206882686368A569A6
:105830001A4323692B431A4382602268E06810618F
:1058400020680269238942EA034202612068C26833
:1058500022F08002C2602068C26C22F00302C2649F
:10586000E269606902432068C36C1A43C26420681D
:105870004162012084F82100002070BDBFFF8FFF2E
:1058800000B5D1B0FEF7D6F904203D900020469037
:1058900001203F903DA8FFF721FC4FF4003000901D
:1058A00040123A906846FEF7FDFA0348016841F459
:1058B0000041016051B000BD704402582DE9F0472D
:1058C000044690F820000B46012826D04FF001092D
:1058D00084F82090022084F82100587802B304F064
:1058E000BBFA987804F0B8FAD978987840EA01457C
:1058F00058781978000240EA413005432168CA20EF
:105900004862532021684862204604F0B9FA002614
:105910004FF00408FF2758BB19E00220BDE8F087CC
:10592000C10603D500F0EF000A305870D87804F0B3
:105930009CFA0204587804F098FA42EA0022987817
:1059400004F093FA0243187842EA4035D6E710484B
:105950000540206845602068C16821F08001C16071
:105960002068806880060BD4204600F08FF838B19C
:105970002068476284F82180012084F82060CDE708
:105980002068476284F82190002084F82060C5E7F1
:105990003FFFFF002DE9F047044690F820000D4638
:1059A000012812D04FF0010A84F820A0022084F8C8
:1059B00021002068002680684FEA406042B100283C
:1059C0001ADA287804F048FA17E00220BDE8F087D8
:1059D000002800DBEE70287804F047FA02046878AB
:1059E00004F043FA42EA0022A87804F03EFA0243A7
:1059F000E87842EA00470AE0EE702978A87840EAA1
:105A000001476878E978000240EA014007432168CD
:105A1000CA204862532021684862204604F030FAC8
:105A20004FF0FF084FF00409E0B91748074020681D
:105A300007602068816821F480218160D5E9031026
:105A4000014320688268114381602068C16821F0A9
:105A50008001C1602068806880060CD4204600F078
:105A600015F840B12168C1F8248084F82190012004
:105A700084F82060AAE72168C1F8248084F821A076
:105A8000002084F82060A1E77F7F7F0070B5054685
:105A90000068C16821F0A001C160FEF717F84FF45B
:105AA0007A76044606E0FEF711F8001BB04201D9F1
:105AB000032070BD2868C0688006F4D5002070BD42
:105AC00070B504000D4603D094F82C0010B107E027
:105AD000012070BD002084F82D00204600F018F849
:105AE000022084F82C002068211DFDF735F9D4E947
:105AF00000022946FDF770F90448016841F00041B1
:105B00000160012084F82C00002070BD004000528C
:105B10003A4800B587B0016841F0020101600068B1
:105B200000F00200059035482038016841F48051AA
:105B30000160006800F48050059030481438016816
:105B400041F004010160016801F004010591016860
:105B500041F008010160016801F008010591016848
:105B600041F010010160016801F010010591016828
:105B700041F020010160016801F0200105910168F8
:105B800041F0400101600068002100F040000590F4
:105B90004FF0806000F064FA00214FF0006000F0E8
:105BA0005FFA0D2000900220019001200290032056
:105BB00003900C20049012486946FDF799FE4CF2C0
:105BC000037000900F486946FDF792FE4FF6837010
:105BD00000900D486946FDF78BFE4FF63F000090A0
:105BE0000A486946FDF784FE48F2371000900848DD
:105BF0006946FDF77DFE07B000BD0000F444025881
:105C000000080258000C02580010025800140258F4
:105C10000018025810B5044690F82C00022809D04C
:105C2000022084F82C002068FDF7BEF8012084F8DB
:105C30002C00002010BD70B5044690F82C000D46D5
:105C400002280CD0022084F82C002068FDF7B2F85E
:105C50002868022804D0012084F82C00002070BDA0
:105C60000520F9E710B5040012D0022084F8810065
:105C70002068016821F001010160204600F0A6F8CB
:105C80000020C4F8840084F8810084F8800010BDEE
:105C9000012010BD2DE9F041040027D00025A562A8
:105CA000474F2068474A484BB84206D0904204D03C
:105CB000984202D0E1680F2918D8E16B012606EB63
:105CC000511CE1680831C908B84201FB0CF105D04C
:105CD000904203D0984201D0082907D8B84203D097
:105CE000904201D0984204D1102902D90120BDE888
:105CF000F08194F8810020B9204684F8805000F0AB
:105D000067F8022084F881002068016821F0010111
:105D10000160A069B0F1806F0AD16068B0F5800FB2
:105D200006D1A06B20B92068016841F48051016060
:105D3000A16AE0690843E16B0843E1680843216810
:105D40008860616A606BA2690843A16B11430843D4
:105D50002169084361690843216A0843616808436F
:105D6000E16C0843A1680843A16C0843A16D084396
:105D70002168C860606868B92068816821F4C051F2
:105D800041F4006181602068816821F4C06141F4C0
:105D9000806181602068016D21F00101016560680A
:105DA000400206D52068C168626D21F000411143B0
:105DB000C160C4F8845084F88160002097E7000037
:105DC0000030014000380040003C004070470000B7
:105DD00000B50068C3B01649884227D1154801684C
:105DE00041F002010160006800F002004290114899
:105DF0001030016841F480510160006800F4805067
:105E000042900D480090002018906846FEF74AF82E
:105E100028203D9002203E9001203F90032040909A
:105E20000520419005483DA9FDF762FD43B000BD46
:105E300000300140E044025808000080000402588D
:105E40002DE9F84F044690F880001D4617460128BA
:105E50008A460DD04FF0010984F88090FDF736FE98
:105E600094F8811006460020012904D002211FE089
:105E70000220BDE8F88FBAF1000F18D0BFB103219E
:105E800084F881108046C4F88400C4F85CA0A4F8AB
:105E90006070A4F862706066A4F86800A4F86A00F4
:105EA00060672067A068B0F5C02F05D009E0012128
:105EB00084F880000846DCE72068016841F400614E
:105EC0000160206841686FF30F0139434160206829
:105ED000016841F0010101606068B0F5800F04D1F4
:105EE0002068016841F400710160E0680F2826D83D
:105EF0002AE02068416989070BD5E16D09680162D4
:105F0000E06D001DE065B4F86200401EA4F8620078
:105F100015E035B1681C12D0FDF7D8FD801BA842F2
:105F20000DD3204604F07EF884F88080D4F88400F5
:105F300040F48070C4F8840084F881908EE0B4F856
:105F400062000028D5D16FE0072829D868E02068D2
:105F5000416989071BD5B4F8621001290BD9E16B9F
:105F600049B1E16D09680162E06D001DE065B4F8BA
:105F70006200801E08E0E16D09880184E06D801CEC
:105F8000E065B4F86200401EA4F8620008E0002D4D
:105F9000C7D0681C04D0FDF799FD801BA842C0D271
:105FA000B4F862000028D2D13EE020684169890738
:105FB0002DD5B4F8621003290CD9E16B402909D919
:105FC000E16D09680162E06D001DE065B4F86200F2
:105FD000001F19E0B4F8621001290BD9E16B49B137
:105FE000E16D09880184E06D801CE065B4F8620011
:105FF000801E09E0E16D097880F82010E06D401CFA
:10600000E065B4F86200401EA4F8620008E0002DCC
:1060100087D0681C04D0FDF759FD801BA84280D2B0
:10602000B4F862000028C0D100223346082120467F
:10603000009504F055F828B1D4F8840040F0200011
:10604000C4F88400204603F0EDFF84F8808084F8D3
:106050008190D4F8840000283FF42DAF012008E798
:10606000024A136883430B431360704704040058CB
:1060700003490A6822F4600202430A607047000084
:10608000040400584FF0E0210428086903D020F0F0
:1060900004000861704740F00400FAE7401EB0F1C8
:1060A000807F10B501D3012010BD4FF0E024606166
:1060B0000F21601704F08FFD0020A06107202061F0
:1060C000002010BD7047704710B5040003D094F84D
:1060D0003D0010B107E0012010BD002084F83C0015
:1060E000204600F00DF8022084F83D002068211DB4
:1060F00004F0F8F8012084F83D00002010BD0000F5
:1061000038B5044600681F4DB0F1804F0FD12868A4
:1061100040F00100286028680022022100F0010000
:1061200000901C20FDF754FD1C20FDF744FD16498E
:10613000206888420FD1286840F002002860286853
:106140000122022100F0020000901D20FDF740FD19
:106150001D20FDF730FD0D492068884211D12868C7
:1061600040F02000286028680222114600F020003C
:1061700000903720FDF72CFDBDE838403720FDF7B3
:106180001ABD38BDE8440258000400400014004025
:106190000168CA6842F00102CA600068018841F0E3
:1061A0000101018000207047704770B50446006807
:1061B00001694FF00005C943890715D4C168C94377
:1061C000890711D4E91E01610120207720688069C8
:1061D0008007204602D0FFF7E7FF04E000F0A5F8B3
:1061E000204600F0A3F8257720680169C9434907D4
:1061F00017D4C168C943490713D46FF00401016182
:10620000022020772068806910F4407F204602D069
:10621000FFF7CAFF04E000F088F8204600F086F897
:10622000257720680169C943090716D4C168C943A5
:10623000090712D46FF0080101610420207720685B
:10624000C0698007204602D0FFF7AEFF04E000F0EF
:106250006CF8204600F06AF8257720680169C94388
:10626000C90617D4C168C943C90613D46FF0100119
:106270000161082020772068C06910F4407F204623
:1062800002D0FFF791FF04E000F04FF8204600F045
:106290004DF8257720680169C943C90708D1C1684D
:1062A000C943C90704D1891E0161204600F03FF8A7
:1062B000206801696FF08005C943090607D4C168E9
:1062C000C943090603D405612046FFF7FBFE206899
:1062D0000169C943C90507D4C168C943090603D484
:1062E00005612046FFF7EEFE20680169C9434906B3
:1062F00009D4C168C943490605D46FF04001016162
:10630000204600F015F820680169C94389060BD4BE
:10631000C168C943890607D46FF020010161204696
:10632000BDE87040FFF7CFBE70BD70477047704743
:1063300070477047704790F8791090F87A000843DA
:106340007047000070B502680446D0691368916810
:1063500010F00F0F64D0594D03F490760D40354383
:1063600076D0C50707D0DD0505D501251562E26F9A
:1063700042F00102E267820708D5CA0706D0256805
:1063800002222A62E26F42F00402E267420708D565
:10639000CA0706D0256804222A62E26F42F0020290
:1063A000E26702070ED503F0200201F080552A4370
:1063B00052EAC17206D0256808222A62E26F42F0D2
:1063C0000802E267E26F002A3AD0800608D503F09F
:1063D000200001F08051084302D0204604F08CF8E0
:1063E000E06F000703D42068806840062AD5204665
:1063F00004F074F82068816849061ED5816821F090
:1064000040018160606FC0B12D490165606FFCF78C
:1064100023FD002814D0606F016DBDE8704008476F
:10642000850615D503F0200501F0805635430FD0C1
:106430002046BDE8704004F05FB82046FFF77AFFC1
:1064400070BD05E02046FFF775FF0020E067F7E725
:10645000C6024FF020050CD54E020AD5E8031062A3
:1064600084F8795084F87A502046BDE87040FFF7F0
:1064700060BF06060AD503F0800601F400010E4352
:1064800004D02046BDE8704004F0C6BA41060BD5E2
:10649000590609D51168204621F04001116084F8A1
:1064A000795000F051F9CBE70002C9D55800C7D5A3
:1064B000106820F080401060C2E70000010000106A
:1064C000C9A4000810B5040003D094F8790010B1F5
:1064D00007E0012010BD002084F87800204600F07D
:1064E00027F8242084F879002068016821F0010150
:1064F0000160204604F03CF80128EBD0606B10B13D
:10650000204603F04FFF2068416821F4904141602C
:106510002068816821F02A0181602068016841F0CB
:10652000010101602046BDE8104003F09FBF00005C
:106530002DE9F0473D490446006802263C4D8CB0E9
:106540000F154FF0010888424FF0070929D128683C
:1065500040F001002860286800F0010005903448F0
:106560001030016841F01001016000686946DFF8F1
:10657000C4A000F01000059030028DE84101CDE983
:1065800003695046FDF7B4F9694650460097FDF798
:10659000AFF92520FDF70FFB032225201146FDF75B
:1065A00017FB254884423DD1286840F0040028604C
:1065B000286800F004000A901D480830016841F482
:1065C00080210160006805A9CDE9057600F48020EE
:1065D0001A4DCDE90990CDE907862846FDF788F9DF
:1065E0004FF40060059005A92846FDF781F9206861
:1065F000016841F0200101602720FDF7DCFA032249
:1066000002212720FDF7E4FA42F2273140F2E73079
:1066100003F052FE0A48002181800A48018821F0D7
:10662000010101800CB0BDE8F087000000100140BE
:10663000E044025800000258E01F002400080258FD
:10664000140000240014004090F87A30202B4CD124
:10665000B9B1B2B190F87830012B46D0012380F85F
:1066600078304166A0F86820A0F86A20FF2281688F
:10667000B1F5805F07D07F2351B1B1F1805F0CD0BD
:1066800010E001207047016921B940F2FF1107E0D5
:10669000016909BBA0F86C2004E00169E1B13F2168
:1066A000A0F86C100021C167222280F87A2080F8BF
:1066B000781001688A6842F001028A6001680A68FD
:1066C00092000CD50A6842F480720A600068816802
:1066D00041F08051816006E0A0F86C30E2E7086884
:1066E00040F490700860002070470220704700005E
:1066F00030B50068114988420CD1114A5088010414
:1067000008D411464FF000034404097806D50A293D
:1067100001D0538030BD40F400400DE00D2909D078
:10672000084DC0F30D04401C80B2C7282955508085
:10673000EFD830BD40F48040508030BD00100140A3
:1067400014000024581800247047FEE7094951F846
:106750003020126901EBC0018888024201D100207B
:1067600000E001208979814201D101207047002099
:1067700070470000FCBA01080B4800B587B00168FB
:1067800041F0010101600068694600F001000590D8
:1067900040200090012001900290032003900348C4
:1067A000FDF7A6F807B000BDE0440258000002580B
:1067B00008B5002069460090012000F033F8012060
:1067C000694600F02FF80098400701D4012008BD69
:1067D0000020694600F026F80098C10408D44FF460
:1067E0000451814317D0810417D4C00517D410E099
:1067F0001F20694600F016F80098C10401D4062055
:1068000008BDC0F38200062805D0022805D005285F
:1068100005D0052008BD022008BD032008BD0420C6
:1068200008BD00000B4602460448002110B5FCF7E5
:10683000EBFE002801D04FF0FF3010BDDC26002415
:1068400008B5002069460090FFF7ECFF009840F47F
:106850008050009081B2002000F002F808BD0000D6
:106860000B4602460448002110B5FDF707F8002842
:1068700001D04FF0FF3010BDDC2600242DE9F0419F
:106880001C4615460E4607462A2000F0DBF9380A5A
:1068900000F0E6F9F8B200F0E3F9280A00F0E0F9B8
:1068A000E8B200F0DDF92B2000F0CCF9300A00F05E
:1068B000D7F9F0B200F0D4F9200A00F0D1F9E0B233
:1068C00000F0CEF9BDE8F0412C2000F0BBB900008B
:1068D00070B5050AEF2300211A46C4B20846FFF737
:1068E000CDFF0F4900204FF4107201EB400301F877
:1068F0001050401C5C7080B29042F6D309480122CF
:106900001021FDF7DDF800244FF490650448294676
:1069100000F052F8641CA4B2642CF7D370BD0000E0
:1069200038220024000402582DE9F047151A5F1A96
:106930006D1C089E7F1C00247D434FF490686D0001
:10694000454502D9A5F590644546FFF797FFDFF866
:106950005090370ADFF84CA0F6B20020494606E016
:1069600001EB400201F81070401C80B25670B0EB91
:10697000550FF5D3012250461021FDF7A1F8084824
:10698000294600F019F8002C07D0444502D9A4F597
:106990009064E2E725460024DFE7BDE8F0870000C9
:1069A00038220024000402580346012000E0584326
:1069B000491EC9B2FBD270472DE9F04105464FF69A
:1069C000FF70B1FBF0F700240E4680460FE007D1C0
:1069D000B6FBF8F1C4EB0440284408FB116103E066
:1069E000C4EB04404146284403F012FB641CBC4243
:1069F000EDD9BDE8F08100002DE9F05F203A1C469A
:106A0000D5B2F022A2EB5402824256D3C4F1F00276
:106A10008A4252DB0A19521E93B200EB5402521EF4
:106A200092B2FFF72BFF3F4F102C15D0202C13D024
:106A30000C2C44D0182C40D13B4905EB45000024D8
:106A40004FF0300A01EB0019B846E00719F804606E
:106A500052D0042700255EE0600700D00120B84630
:106A6000610800EBD400002610FB01F000F0FF0BE2
:106A70002E4800EB051A00F5BE5000EBC5191AE0D0
:106A8000102C09D0202C18D119F806500027280600
:106A900005D5B8F8000004E01AF80650F6E7B8F893
:106AA000020000F0EBF868067F1C050EFFB2082F0D
:106AB000EDD3761CF6B25E45E2D3BDE8F09F1C48EC
:106AC00005EB450100264FF00C0900EB810800247E
:106AD00018F80650280601D5388800E0788800F0BC
:106AE000CDF86806641C050EE4B2062CF2D3761CC1
:106AF000F6B24E45EBD3E0E70827ABE7300602D508
:106B0000B8F8000001E0B8F8020000F0B7F870062D
:106B1000060E6D1CEDB2BD42F0D3641CE4B25445C8
:106B200093D3CAE7260000248A2B01089A2501087E
:106B3000262101082DE9F04700F0FF08044610194E
:106B40000D461FFA80FA58191FFA80F9DDE9087618
:106B50000FE0544502D3E819444685B24D450DD2A5
:106B60003B4629462046FFF747FF04EB570084B217
:106B7000761C3278A2F120005E28EAD9BDE8F087C1
:106B80002DE9F04115461E4644198446069FF02C17
:106B900015D88819F02812D8401E83B26046641EAA
:106BA000A2B2FFF76BFE074801221021FCF788FF15
:106BB000754338466900BDE8F041FFF7FDBEBDE80A
:106BC000F0810000000402582DE9FF5F4FF000083B
:106BD0001E4691460746DDE90EBA44464FEA5B057C
:106BE00029E0301B401EC1B20A20FFF7DDFEB9FBD1
:106BF000F0F00A21B8F1000FB0FBF1F201FB120036
:106C000005D1711E8C4202DA40B14FF001085B469B
:106C10003030C2B205FB047080B207E005FB04709F
:106C2000BAF1000F5B4680B209D030220199FFF71C
:106C3000E3FE641CE4B2B442D3D3BDE8FF9F20223C
:106C4000F4E7000001B5054800221021FCF738FFE9
:106C500001216846FFF7B0FE08BD0000000402589D
:106C600001B5054801221021FCF72AFF01216846E1
:106C7000FFF7A2FE08BD00000004025808B500217D
:106C800001220091010A8DF8001010218DF80100F9
:106C90000348FCF715FF02216846FFF78DFE08BD8B
:106CA00000040258032300221921580710B500F0F0
:106CB00014F8122103230122080700F00EF818210E
:106CC00003230222C80600F008F803231B211A46FA
:106CD000BDE81040C807AFF300802DE9FF411D4615
:106CE00014460E460746FCF749FF00208DF8086061
:106CF0008DF80C0001218DF809008DF80D008DF83C
:106D000000108DF80A008DF80E0068468DF80140DD
:106D100001978DF80B508DF80F10FCF705FF04203C
:106D2000FCF73AFF04B00020BDE8F0810F480022D4
:106D30000121FCF7C5FE0EA0F9F776FC4FF47A743A
:106D4000204604F0F3FD10A0F9F76EFC204604F095
:106D5000EDFDBFF34F8F11480168114A01F4E06166
:106D600011430160BFF34F8F00BFFDE700040258DD
:106D70004D656D20416363657373204572726F7258
:106D800021210D0A00000000536F667420526573C4
:106D90006574696E672E2E2E0D0A00000CED00E062
:106DA0000400FA050A460021AFF30080002310B565
:106DB0001C46641C042C41EA0323FAD310F003049C
:106DC00004D109E0521E641C00F8011B22B1042CFE
:106DD000F8D301E0121F08C0042AFBD202E0521EC1
:106DE00000F8011B002AFAD110BD00007FB5174C36
:106DF000206820F480302060144D7035286820F021
:106E00000100286012480121019007208DF8080038
:106E100003208DF80B0000208DF80F1005268DF84B
:106E20000E008DF800108DF80D108DF80A008DF809
:106E300001608DF809008DF80C006846FCF774FEBF
:106E40002E60206840F4803020607FBD24ED00E09B
:106E5000000004307047704702480068002800D0E6
:106E600000477047B800002410B5044600F0ACF8A5
:106E7000404800220A2102703F4802703F480270D9
:106E80003F4802603F4802603F4802703F4802703E
:106E90003F4802703F4802703F480068B0FBF1F085
:106EA0003E4908603E49086830B13E48006818B164
:106EB000096804C0491EFCD13B4802603B4802609F
:106EC0003B4802603B4802603B4802603B4802602E
:106ED0003B4802603B48027001F05CFE01F014FF89
:106EE000204601F00FFB2088002841D1204601F008
:106EF00063FB208800283BD1204601F069FB2088F5
:106F0000002835D1204601F075FC208800282FD1BB
:106F1000204601F0A7FE2088002829D1204602F053
:106F200001F82088002823D1204602F06FFA20883B
:106F300000281DD1204601F00BFB2088002817D126
:106F4000204602F057FD2088002811D1204602F08B
:106F500063F9208800280BD1204602F0A5FD208887
:106F6000002805D101F0CCFABDE81040FFF773BF4F
:106F700010BD0000CC000024D4000024FA0000243E
:106F80006401002468010024EE000024EF000024C6
:106F9000F00000240001002464BB0108FC00002470
:106FA00040BB01083CBB0108AC000024B000002439
:106FB000B4000024B8000024BC000024C000002459
:106FC000C40000242E010024064905480968006811
:106FD00000EB8100044920F00700086070470000C2
:106FE0003CBB010840BB01086C0100240548007847
:106FF000012805D104490878FA2801D2401C0870FC
:1070000070470000D4000024CC000024194810B5BB
:10701000007801282CD1F9F745FA17490446087879
:1070200008B3401E10F0FF0008701CD11348007810
:10703000C8B901F09DFD1249087000EB40001149EC
:1070400051F82000104908601049096888420AD0A8
:10705000D0F89410491CC0F894100D480168491CE0
:107060000160FBF730FA2046BDE81040F9F71EBA80
:1070700010BD0000D4000024CC000024FA0000243D
:10708000EF000024C4F102246801002464010024FC
:10709000240100242DE9F04117460D460446F9F776
:1070A00001FA0646FBF7AEFA0D48C4E900050025D3
:1070B0002562656204F1080084F82850E56201F059
:1070C0002BFC204601F040FB06490888401C088044
:1070D000FBF7A8FA3046F9F7E9F93D80BDE8F08101
:1070E0004D555458EC0000242DE9F04788B08946EE
:1070F0005149064600681C46109D9046884202D0C1
:1071000045F6C45051E0002704B12760F9F7CAF9E9
:107110008246FBF777FA96F82810484B99B1706AC7
:107120001A6890422CD1FF2922D0491C86F82810D9
:107130000CB1F06A2060FBF775FA5046F9F7B6F922
:1071400045F2827031E018687062012086F82800EC
:107150000CB1F06A20601868C16B3162C663FBF73E
:1071600061FA5046F9F7A2F92F8008B0BDE8F08720
:10717000FBF758FA5046F9F799F945F2847014E094
:107180005FEA084107D5FBF74DFA5046F9F78EF94B
:1071900046F2B01009E02A49097841B1FBF742FAFA
:1071A0005046F9F783F946F663502880DDE790F8FA
:1071B00037C0984692F837108C4501D902F09EF8F6
:1071C00004224B463146684601F020FBFBF72AFAC1
:1071D0005046F9F76BF900F047FAF9F763F90646FC
:1071E000FBF710FAD8F8001091F8350040B10128EB
:1071F0000BD002281AD003280DD046F62E600EE0E0
:107200000CB1886C20602F800AE00CB1886C206083
:1072100046F2A91003E004B1276047F2D920288084
:10722000FBF700FA3046F9F741F99EE70CB1886C9C
:10723000206045F6C250F2E74D55545864010024D1
:10724000FA0000242DE9FC5F8B464849044600689B
:107250001546884204D045F6C4501080BDE8FC9F16
:10726000F9F720F90190FBF7CDF9DFF80481606AA6
:10727000D8F80010884207D0FBF7D4F90198F9F745
:1072800015F945F2817012E0FBF716FAE0628146CB
:1072900094F82800401E10F0FF0084F8280008D061
:1072A000FBF7C0F90198F9F701F945F283702880DE
:1072B000D4E7D8F80000214601F092FA208A04F1C0
:1072C00008074FF0000AE8B3D8F8000090F837102C
:1072D00090F8382091421DD001F071FAD8F80010D2
:1072E00091F83820824200D21046064691F83700C5
:1072F000B0420FD2084601F081FDD8F8000080F8B6
:107300003760304601F050FCD8F8000001F042FD33
:1073100018480670002338681A46816801206162A7
:1073200084F82800C86B20622046CC63CDF800901A
:1073300001F0B0FBFBF776F90198F9F7B7F85FEACF
:107340000B4000E005E001D400F08EF9A5F800A0A4
:1073500084E7C4F824A0564684F828A0FBF762F915
:107360000198F9F7A3F82E8078E700004D5554589E
:1073700064010024EE0000242DE9F0411E469046F1
:107380000F460446F9F78EF80546FBF73BF90E4821
:107390004146C4E9000704F1200001F089F904F135
:1073A000080001F0B9FA204601F036FC07480188D0
:1073B000491C0180FBF736F92846F9F777F80020D9
:1073C0003080BDE8F081000051554555F80000249B
:1073D0002DE9F84F8946334907460068154688422B
:1073E00005D045F6C45010800020BDE8F88FF9F7AD
:1073F00059F80090FBF706F93C8A5FEA0900DFF8CC
:10740000A89007F10806A0464FF0000A09D001280D
:1074100024D0FBF707F90098F9F748F845F62560FE
:1074200009E05FEA080008D0FBF7FCF80098F9F7DC
:107430003DF847F25F10288032E0384601F0FEFB4D
:10744000B9F800103846491EA9F8001001F0CCFB2D
:10745000FBF7E8F80098F9F729F81FE0FBF72CF99B
:10746000834607E030685A468168384601F0B6FA2C
:10747000641EA4B2002CF5D1384601F0DFFBB9F848
:1074800000103846491EA9F8001001F0ADFBFBF7CB
:10749000C9F80098F9F70AF800F0E6F8A5F800A096
:1074A0004046A2E751554555F800002470B50C46FA
:1074B0000E4905460068884204D045F6C450208035
:1074C000002070BDF8F7EEFF0646FBF79BF805F1CC
:1074D000200001F0A7F80546FBF7A4F83046F8F7BE
:1074E000E5FF00202080284670BD0000515545551D
:1074F0002DE9F04F89B08B46494906461F46924612
:10750000DDE912450068884202D045F6C45031E0FA
:107510004FF000080CB1C4F80080F8F7C3FF0090EA
:10752000FBF770F806F120002B462246394601F0A1
:1075300093F88146288850B15FEA0A4010D5FBF7DE
:1075400071F80098F8F7B2FF46F2B01012E0FBF7BE
:1075500069F80098F8F7AAFF484609B0BDE8F08F2F
:107560003048007848B1FBF75DF80098F8F79EFFC7
:1075700046F6635028800020EFE705225B4601A80D
:10758000314601F043F9FBF74DF80098F8F78EFF0C
:1075900000F06AF8F8F786FF8146FBF733F8224AD5
:1075A000116891F8350060B1012815D002282CD05F
:1075B00003284FF0000619D046F62E60A7F8008089
:1075C0001BE0B1F864000E6E388014B11068806C56
:1075D0002060A5F8008011E00026A7F8008014B113
:1075E0001068806C206046F2A91006E04046A7F8BB
:1075F000008004B1206047F2D9202880FBF712F800
:107600004846F8F753FF3046A7E70026A7F8008062
:1076100014B11068806C206045F6C250EDE70000A0
:1076200051554555FA000024640100242DE9FC4120
:1076300088460C4905460068089C1E468842174645
:1076400004D045F6C4502080BDE8FC81FBF734F837
:10765000CDE9000433463A464146284601F00EFB88
:10766000F2E7000051554555184810B5007800283C
:107670002AD117480078002826D1F8F713FF0446CE
:1076800001F076FA1349087000EB4000124951F8F6
:1076900020001249086012490968884204D1204636
:1076A000BDE81040F8F702BFD0F89410491CC0F8AC
:1076B00094100C480168491C0160FAF7FFFE20464F
:1076C000F8F7F4FEBFF36F8F10BD0000CC0000246C
:1076D000FA000024EF000024C4F102246801002411
:1076E000640100242401002470B504460E4800788B
:1076F000012802D045F6896014E00C4D2878FA285C
:1077000002D345F209200DE0F8F7CCFE0646FAF761
:1077100079FF2878401C2870FAF784FF3046F8F784
:10772000C5FE0020208070BDD4000024FA00002493
:107730002DE9F04116460C460546F8F7B3FE07461C
:10774000FAF760FF0D4829460025012901D0057090
:1077500001E0012101700A480CB1046005E009490B
:107760000A220968B1FBF2F10160FAF75BFF3846C3
:10777000F8F79CFE3580BDE8F08100000001002490
:10778000FC00002464BB010870B50446144800786E
:10779000012802D045F6896020E0124E307890B181
:1077A000F8F780FE0546FAF72DFF3078401E10F0FE
:1077B000FF0030700AD0FAF735FF2846F8F776FE5A
:1077C00046F663500AE046F6645007E0FAF72AFFEF
:1077D0002846F8F76BFEFFF747FF0020208070BDBA
:1077E000D4000024FA0000242DE9F0419846154603
:1077F0000E460446F8F756FE0746FAF703FF2562E1
:1078000000250C486562C4E9000604F1080001F097
:1078100083F8204601F060FB07490888401C088077
:10782000FAF700FF3846F8F741FEA8F80050BDE827
:10783000F081000053454D41080100242DE9F84F27
:1078400089463349074600681546884205D045F603
:10785000C45010800020BDE8F88FF8F723FE009098
:10786000FAF7D0FE3C8A5FEA0900DFF8A89007F13A
:107870000806A0464FF0000A09D0012824D0FAF7E4
:10788000D1FE0098F8F712FE45F6256009E05FEAA0
:10789000080008D0FAF7C6FE0098F8F707FE47F28E
:1078A0005F10288032E0384601F028FBB9F800105C
:1078B0003846491EA9F8001001F0FEFAFAF7B2FEA8
:1078C0000098F8F7F3FD1FE0FAF7F6FE834607E0AD
:1078D00030685A468168384601F080F8641EA4B2C8
:1078E000002CF5D1384601F009FBB9F800103846F4
:1078F000491EA9F8001001F0DFFAFAF793FE00988C
:10790000F8F7D4FDFFF7B0FEA5F800A04046A2E7C7
:1079100053454D41080100242DE9F04F89B08A46B6
:107920000168064642481C46129D9146814202D09B
:1079300045F6C45034E0002704B12760F8F7B2FDE3
:107940008346FAF75FFED6F82080B8F1000F0ED01C
:10795000A8F10108C6F820800CB1706A2060346A72
:10796000FAF760FE5846F8F7A1FD2F8057E05FEA6E
:1079700009400BD5FAF756FE5846F8F797FD46F240
:10798000B0102880404609B0BDE8F08F2948007843
:1079900040B1FAF747FE5846F8F788FD46F66350BF
:1079A000288024E0062253463146684600F02EFF28
:1079B000FAF738FE5846F8F779FDFFF755FEF8F765
:1079C00071FD8046FAF71EFE1B48016891F83500EC
:1079D00078B1012812D0022823D0032814D046F60B
:1079E0002E602880FAF71EFE4046F8F75FFD002063
:1079F000C9E70CB1886C20602F800AE00CB1886C5C
:107A0000206046F2A91003E004B1276047F2D920B4
:107A10002880346AFAF706FE4046F8F747FD20460C
:107A2000B1E70CB1886C206045F6C250F0E7000069
:107A300053454D41FA0000246401002470B50E4600
:107A40000A49054600681446884204D045F6C450E9
:107A50001080002070BDFAF72FFE02462346314603
:107A60002846BDE8704001F069BA000053454D4119
:107A700070B50F4D0446287818B145F68A6020800D
:107A800070BD01F075F80B4908700B49087000EBE8
:107A900040000A4951F82000094908600949086076
:107AA00001202870FAF7CCFC43F69920E7E70000A4
:107AB000D4000024EF000024EE000024C4F10224CE
:107AC00068010024640100242DE9F0410746F8F71D
:107AD000E9FC0446FAF796FD2A48002505802A4865
:107AE00005602A4805602A4805602A4805602A483A
:107AF0000581FAF797FD2046F8F7D8FCF8F7D2FC95
:107B00000646FAF77FFD254804681BE0F8F7CAFC33
:107B10000646FAF777FDC4F8B850E567C4F8AC50EC
:107B2000C4F89450A4F89050A4F89250C4F8A0500F
:107B3000C4F8A4507C34FAF7BFFD2062A4F114000D
:107B40008581646CFAF76EFD3046F8F7AFFC002CC7
:107B5000DCD1F8F7A7FC0646FAF754FD1048046894
:107B600006E0F8F79FFC0646FAF74CFDA585A469E8
:107B7000FAF758FD3046F8F799FC002CF1D13D801A
:107B8000BDE8F0810E01002420010024340100240E
:107B900054010024D0000024B8F10224280100245C
:107BA000F4000024F8B504462448694600F076FB4A
:107BB000BDF8000058BB00216A46022000F0B4FB6B
:107BC000BDF8000018BBF8F76DFC0746FAF71AFD80
:107BD0001B4E00253560FAF725FD3846F8F766FCA0
:107BE000184919480A6803689A4202D9B2FBF3F0AF
:107BF00010B90A21B2FBF1F000216A4600F094FBB3
:107C00000E48694600F072F9BDF8000008B1208006
:107C1000F8BDF8F747FC0746FAF7F4FC0B480C49A7
:107C200005603068086001200A490870FAF7FAFC1C
:107C30003846F8F73BFC2580F8BD000004F5022427
:107C40001001002464BB010850BB0108200100247E
:107C5000140100241C01002402480068002800D000
:107C600000477047BC0000242DE9FF4F83B0044655
:107C7000DDE9175BDDE91097DDF85480139EB9F15B
:107C80001F0F09D13F48844206D046F27321ABF85A
:107C9000001007B0BDE8F08F204601F0C7FBE807F1
:107CA0004FF0000AABF800A009D0A80707D50021C3
:107CB0003846524601E0491C04C0B142FBD3129839
:107CC0003A46CDE9006507EB800083460346DDE9CF
:107CD000050100F009FA0599A1620699E16204998B
:107CE000216284F8379084F83890C4F808B0C4F85A
:107CF000588020605FEA080037D0E065514616984A
:107D00006762266460600020A4F8445004EB80029F
:107D1000401C10F0FF00C2F88010F7D0149904F155
:107D2000680000F0C5FC204600F034F8F8F7BAFB14
:107D30000546FAF767FC94F8370000F035FF204657
:107D400001F028F8204601F033FB0F490888401C59
:107D500008800E48007801280AD0FAF763FC07B0C3
:107D60002846BDE8F04FF8F7A1BB09480068C4E712
:107D7000FAF758FC2846F8F799FB07B0BDE8F04F32
:107D8000FFF772BCF0F002242C010024D400002480
:107D9000FC00002402490968002900D00847704708
:107DA000AC0000242DE9F047044649480F468442C0
:107DB00004D147F24C100880BDE8F0875CB9F8F7B1
:107DC00071FB0546FAF71EFC42480468FAF72AFCE4
:107DD0002846F8F76BFBF8F765FB8146FAF712FCCB
:107DE00094F836004FF00008082868D2DFE800F069
:107DF0000440080843400808204600F0FFFF3AE02E
:107E000094F8340007282DD2DFE800F02C042C046D
:107E100008040400204600F0B1FD23E0206BC06898
:107E2000456A204615F8376F00F0A8FD2878697874
:107E3000373D88420CD094F83710884208D1284644
:107E400000F0BDFC95F83810814200D20846064685
:107E500084F8348095F83700B04203D03146284684
:107E600001F04CFA94F83600032801D0072802D11B
:107E7000204601F0BDFCE06B10B1204600F076FC1E
:107E800004F1680000F0CEFB204600F027F8204601
:107E900001F0A0FA10490888401E0880204601F031
:107EA000C5FAFF2084F83600FAF7BCFB4846F8F71D
:107EB000FDFAA7F80080BDE8F047FFF7D5BBFAF759
:107EC000B1FB4846F8F7F2FA46F62D60388073E7C2
:107ED000F0F00224640100242C0100240249096806
:107EE000002900D008477047B000002470B50D4647
:107EF0000646F8F7D7FA0446FAF784FBFAF792FB3E
:107F00002046F8F7D3FA29463046BDE8704001F024
:107F1000EFBA000002490968002900D008477047FD
:107F2000B40000242DE9F04714001D468846814620
:107F30004FF0000600D02660F8F7B4FA8246FAF750
:107F400061FB3D4F3868C16CD9B1491EC164884698
:107F50000CB1806C2060FAF7AFFB39688A6C801A2C
:107F6000C1F8A800D1F8AC20824201D2C1F8AC001F
:107F7000FAF758FB5046F8F799FA40462E80BDE8CC
:107F8000F0875FEA084007D5FAF74CFB5046F8F750
:107F90008DFA46F2B01009E02848007848B1FAF7A7
:107FA00041FB5046F8F782FA46F6635028800020DD
:107FB000E5E700214B460722084600F027FCFAF7C8
:107FC00031FB5046F8F772FAFFF74EFBF8F76AFA02
:107FD0008046FAF717FB396891F8350030B101286F
:107FE00016D003281AD046F62E601BE074B1886CB8
:107FF0002060FAF761FB39688A6C801AC1F8A80022
:10800000D1F8AC20824201D2C1F8AC002E800AE047
:108010000CB1886C206046F2A91003E004B1266020
:1080200047F2D92028803868C46CFAF7FBFA40463A
:10803000F8F73CFA2046A2E764010024FA00002485
:1080400070B514460D460646FAF736FB024623463F
:1080500029463046BDE8704001F0B2BA2DE9F0473C
:108060001D4616460F460446F8F71CFA8146FAF7F5
:10807000C9FA0CB91B4804684FF00008206858B1D1
:1080800094F84400C00713D0FAF7CCFA4846F8F742
:108090000DFA616A00201BE0FAF7C4FA4846F8F7C7
:1080A00005FAC7F8008047F25210C6F800800AE0CF
:1080B000FAF7B8FA4846F8F7F9F9C7F8008047F236
:1080C0005410C6F800802880BDE8F087401C091DC8
:1080D0000A68002AFAD03860216C081A3060A5F8C6
:1080E0000080F1E76401002430B5DDE9035402EBC0
:1080F000850222F007024FF0807542E902054C48E4
:108100004FF0033542F80C0C4FF0123042F8100CCF
:10811000A2F114004FF0023240E903134FF0113185
:1081200040F8101CD10040F8141C4FF0093140F801
:10813000181C910040F81C1C4FF0073140F8201C1F
:10814000690040F8241C4FF0053140F8281C51000C
:1081500040E9012540F82C1D610767D51106021F73
:108160001160A0F10801334A0A60091F324A0A600F
:10817000091F324A0A60091F314A0A60091F314A41
:108180000A60091F304A0A60091F304A0A60091F45
:108190002F4A0A60091F2F4A0A60091F2E4A0A60E7
:1081A000091F2E4A0A60091F2D4A0A60091F2D4A1D
:1081B0000A60091F2C4A0A60091F2C4A0A60091F1D
:1081C0004FF083420A60091F294A0A60091F294AA1
:1081D0000A60091F284A0A60091F284A0A60091F05
:1081E000274A0A60091F274A0A60091F264A0A60AF
:1081F000091F4FF082420A60091F244A0A60091FC2
:10820000234A0A60091F234A0A60091F4FF081426E
:108210000A60091F204A0A60091F12020A60091F2A
:108220004FF07E520A60002140F8841D30BD0000EE
:10823000A99500080000F8410000F0410000E84165
:108240000000E0410000D8410000D0410000C841DA
:108250000000C0410000B8410000B0410000A8414A
:108260000000A041000098410000904100008841BA
:10827000000070410000604100005041000040419A
:108280000000304100002041000010410000E040AB
:108290000000C0400000A04000004040044A90425E
:1082A00003D147F25B100880704701F0DFB900008E
:1082B000F0F0022470B5194C206890F8441049077A
:1082C00002D50068FAF7A6F8154D286890F8441012
:1082D000490702D50068FAF7AAF81248006800B109
:1082E0008047FAF7E9F921682A68914209D0D1F864
:1082F0009C30C31AC1F89830D1F8A0502B44C1F873
:10830000A030C2F89C00FAF75FF92168D1F8B820D4
:10831000824201D2C1F8B80070BD0000640100249F
:1083200068010024C00000242DE9F04106461D48E4
:108330000D461446007810B146F6635021E045B171
:10834000022D06D0042D05D0082D02D045F625605B
:1083500017E0A6B1F8F7A6F80746FAF753F92A4648
:10836000114D23463146286801F004FA208858B19F
:10837000FAF758F93846BDE8F041F8F797B847F2F0
:108380007E201080BDE8F081286800F037FDFAF704
:1083900049F93846F8F78AF8FFF766F90020208097
:1083A000F0E70000FA000024640100242DE9F04108
:1083B0001E462C4B1746DDE906241B7813B146F602
:1083C000635049E012F00E0547F27E2208D0022DDC
:1083D00006D0042D08D0082D02D045F625603BE0DC
:1083E00016B90FB901B9D0B31F4B4FF4FA7CC1EBEA
:1083F00001111B68BCFBF3FC66444FF47A7C5E43BE
:10840000B6FBFCF64FF4616C00FB0CF000EB810056
:10841000384400FB036616B3F8F744F80746FAF74A
:10842000F1F82A46114D23463146286801F0A2F999
:10843000208830B1FAF7F6F83846BDE8F041F8F791
:1084400035B8286800F0DAFCFAF7ECF83846F8F7A7
:108450002DF8FFF709F900202080BDE8F081FFE743
:108460002280FAE7FA00002464BB010864010024BA
:1084700070B50546F8F716F80646FAF7C3F805484A
:108480000468FAF7CFF83046F8F710F80020288093
:10849000204670BD3001002408B500F029F80E48D0
:1084A00000216A46FFF7CCFD0C48007800EB400144
:1084B0000B4800EB810000F0CBFC0A490868401E25
:1084C000086007D108486A4600680860002107482C
:1084D000FFF7B6FD08BD00000CF40224EE000024F6
:1084E000C4F10224600100245C01002404F502248C
:1084F00002480068002800D000477047C4000024EC
:1085000070470000034A00211160034A1180018076
:1085100070470000D8000024DC0000240A4C0B4DFA
:10852000F7F7C0FF0646FAF76DF82068401C206098
:108530002868401C2860FAF775F83046F7F7B6FF50
:10854000FEF78AFCECE70000C800002410010024BC
:108550000E4A002100B589B00F4B11600B22059126
:108560000691CDE907200A480A4A1B68006812688C
:108570000292CDE903011F20084ACDE900030D480E
:10858000002307A1FFF770FB09B000BDC80000245D
:1085900038BB010834BB010830BB01081D85000849
:1085A00075432F4F532D4949492049646C65205428
:1085B00061736B00F0F00224034A00211160034A4A
:1085C0001180018070470000E0000024E4000024D6
:1085D000F0B5124F104E3B8831685B1E9DB20023F0
:1085E00001F110021C4607E0C1E900245B1C0C816C
:1085F000CC6010319BB21032AB42F5D30C604C60B2
:108600000C81CC60064932680A603A888A80CC8046
:108610000C810480F0BD000048BB010844BB010888
:10862000B8F1022410B5428992B10A4903680C6876
:108630001C6043680B60CB8844891B1BCB808B88F4
:10864000448923448B800021418181810160416004
:10865000104610BDB8F10224F0B544890025CCB114
:108660004468278966680F800AB1E1681160216853
:108670004160B9B14189491E41810C4801682160BE
:1086800004608188491C8180C188491EC1803046B0
:108690001D80F0BD0D8002B1156046F29250188029
:1086A0000020F0BD05604581E7E70000B8F1022435
:1086B000018100214181818101604160704700009A
:1086C000F0B544890589DDE905E6AC4202D346F2FE
:1086D00093501EE01B4DAF88CFB12C687F1ED4F89D
:1086E00000C0C5F800C0AF80EF887F1CBFB2EF802C
:1086F000B5F808C0BC4500D22F810025478957B185
:10870000DB060ED403681C60046025600CE045F2B3
:108710001D703080F0BD04600123446043812560FA
:1087200005E043682360446043895B1C438187897B
:1087300043899F4200D2838161602281C4F80CE0AA
:108740003580F0BDB8F10224074A0023436105A13A
:10875000C161116819B1816148611060704783611E
:10876000FBE7000020000000E8000024F8B5C46B1F
:1087700006461CE0256AF9F79FFF03462146E062A2
:10878000304600F02DF8218A04F1080091B100680C
:1087900081680120666284F82800C86B2062204648
:1087A000CC63009300231A4600F074F92C46002C89
:1087B000E0D1F8BD002084F828006062F6E71F21B0
:1087C0003C3008E082682AB1926892F837208A42E9
:1087D00000D21146203000680028F3D108467047C7
:1087E0003C3001E002F1200002688A42FAD1116AAD
:1087F00001607047034A00211160034A1180018023
:1088000070470000E8000024EC0000242DE9F0414E
:10881000114D074600260C461946286880F834207A
:1088200080F8356000F056FD64B1FC6001222868D4
:1088300004F10806394600F011F83946304600F0D8
:1088400070F803E02868A0F84660066320462968AF
:10885000BDE8F04100F016B86401002410B5002412
:10886000A0F846202346016309E04B60641C0B60BE
:10887000A4B20B614B610B83CB61886020319442C1
:10888000F3D310BD38B14268C1F8C420816889684B
:10889000096AC161704791F83400022803D00728A3
:1088A00003D004A002E004A000E005A0C1F8C400C9
:1088B00070470000200000005461736B20510000DD
:1088C0005461736B2053656D0000000005A2C1F870
:1088D000C420816811B18968096A00E001A1C16101
:1088E000704700002000000070B5B0F84650046BDF
:1088F0000FE0E668308A0836012807D9214630465D
:1089000000F051F82146304600F00BF86D1EADB274
:108910002034002DEDD170BD002101604160018146
:10892000704730B58A68002592F8374002891AB13D
:10893000521C028102680BE0012202814D600D6031
:10894000016014E0936893F83730A34203D852686B
:10895000002AF7D107E032B1136853B1C1E9003200
:108960005960116030BD4D6042680A6051604160DD
:1089700030BD1160C1E90052016030BD70B5B0F882
:1089800046500646046B07E0E0682146083000F0D8
:108990000AF86D1EADB22034002DF5D10020A6F8E6
:1089A0004600306370BD10B502890024012A0BD047
:1089B0000A6862B14B6873B153601A600289521E33
:1089C00002814C600C6010BD04604460F6E74A68A8
:1089D00014600260F2E754604260EFE72DE9F04175
:1089E0000C4691F8361002271546002608293ED27B
:1089F000DFE801F03D3D04043D3D202094F83410B3
:108A0000032903D12A46214600F033F82666204682
:108A1000A4F86460A564FFF7B1FF94F8360003285A
:108A200002D1204600F0E4FE204600F07FF984F8F1
:108A3000366018E094F83410032903D12A46214601
:108A400000F017F826662046A4F86460A564FFF7D6
:108A500095FF94F83600072802D1204600F0C8FEA2
:108A6000042084F8360084F8357084F83460BDE85A
:108A7000F08110B50B6BB1F8461008E0DC68844259
:108A800002D1DA61186110BD491E89B22033002974
:108A9000F4D110BDF8B50C4691F836100026054605
:108AA000069808294ED2DFE801F04D4D04044D4DE3
:108AB000282894F83410032910D02266A4F86430D2
:108AC000A06435B12046FFF759FF21462846FFF73D
:108AD000FDFE94F83600032806D008E021460090F9
:108AE000284600F030F8ECE7204600F081FE2046F2
:108AF00000F01CF984F8366020E094F83410032963
:108B000010D02266A4F86430A06435B12046FFF787
:108B100035FF21462846FFF7D9FE94F8360007288E
:108B200006D008E021460090284600F00CF8ECE75B
:108B3000204600F05DFE042084F8360084F835609D
:108B400084F83460F8BD70B50C6BB1F84610049D24
:108B50000AE0E668864204D1C4E904022383E561A1
:108B600070BD491E89B220340029F2D170BD0000C9
:108B700010B50748002402E02034001DE4B201686B
:108B80000029F9D00846F7F798FC2044C0B210BD80
:108B9000A8000024034A0020014642F82010401C8F
:108BA000FBD07047A800002400F01F0241090120FB
:108BB000C2F11F029040034A52F82130034342F8A9
:108BC00021307047A800002400F01F024109012055
:108BD000C2F11F029040034A52F82130834342F809
:108BE00021307047A800002470B5044620300546A7
:108BF000FFF718FD06480021206006A060602846A7
:108C0000FFF756FD04F10800BDE87040FFF784BE91
:108C10004E4F4E453F510000074A0023436105A1D6
:108C2000C161116819B18161486110607047836149
:108C3000FBE7000020000000F4000024D0E905213B
:108C400000232AB151B191614A6183614361704748
:108C5000034A116001B14B61836170479361F5E78D
:108C6000F4000024034A00211160034A11800180AE
:108C700070470000F4000024F80000242DE9FE4FA6
:108C80001E4692468B468046DDE90C79F7F70AFCD2
:108C90000290F9F7B7FCB8F8104008F1080024B1C9
:108CA000B10500D4012405681DE0F00601D40023BD
:108CB00000E010235246CDE9007908F12000594622
:108CC000FFF7FEFCF9F7AEFC0298BDE8FE4FF7F7A0
:108CD000EDBBD5E9015153465A4640460097FFF790
:108CE000D9FE641EA4B2002CF3D1F9F79BFC0298C4
:108CF000F7F7DCFB300401D4FEF7B6FC0021A9F83D
:108D00000010BDE8FE8F0000074B0020024600EB7C
:108D10004001401C03EB8101C0B220280A810A6097
:108D20004A60F4D370470000C4F1022410B5044631
:108D300090F83700FFF738FF074994F837000978B3
:108D40008842204603D1BDE8104000F023B8BDE8BA
:108D5000104000F003B80000EE00002490F8371037
:108D600000230B4A01EB410102EB81010A8942B168
:108D7000521C0A810A68C0E903230A68106108606E
:108D8000704701220A81C360036108604860704730
:108D9000C4F1022490F8371000230A4A01EB410184
:108DA00002EB81010A893AB1521C0A81C3604A6808
:108DB0000261D0604860704701220A81C36003618C
:108DC0000860F7E7C4F1022410B50189002914D026
:108DD000012912D00024022907D0D0E90013CA6863
:108DE0001461C1E90343D96005E0D0E90012C1E98B
:108DF0000342C2E90314C0E9002110BD70B5044666
:108E000090F837001149002500EB400001EB80018C
:108E1000D4E9032040B10B895B1E0B81C26092B183
:108E200010612561E56070BD2AB10889401E088186
:108E300015610A60F5E70D810D604D6094F837000B
:108E4000FFF7C2FEEDE74860EBE70000C4F1022443
:108E500070B5044614480078012824D1F7F722FBA6
:108E60000546F9F7CFFB2168B1B11048814213D014
:108E7000C86D10B1401EC8650ED1208902280BD3E1
:108E80000B48007840B92046FFF79EFF2068816DAF
:108E900009B908490968C165F9F7C4FB2846BDE866
:108EA0007040F7F703BB70BD00010024F0F002240E
:108EB000FA000024FC000024044901600021016242
:108EC000416203A141600830FFF726BD4E4F4E4579
:108ED0003F53454D00000000074A0023436105A1B0
:108EE000C161116819B18161486110607047836187
:108EF000FBE700002000000004010024D0E9052168
:108F000000232AB151B191614A6183614361704785
:108F1000034A116001B14B61836170479361F5E7CA
:108F200004010024034A00211160034A11800180DA
:108F30007047000004010024080100242DE9F84FC7
:108F40001F46904689460646F7F7ACFA8346F9F77E
:108F500059FB348A06F108004FF0000A2CB15FEA91
:108F6000895100D40124056821E0346A601C08D0CE
:108F7000641CC6E90848F9F755FB5846F7F796FA16
:108F800022E0F9F74FFB5846F7F790FA46F6C5503E
:108F900038800020BDE8F88F00233046D5E9015124
:108FA0001A46CDF80080FFF775FD641EA4B2002CB0
:108FB000F2D1346AF9F736FB5846F7F777FA5FEAE9
:108FC000094001D4FEF750FB2046A7F800A0E1E7D6
:108FD000814E0EB5814D3068440004E000212046EA
:108FE0006A46FFF7A1F928780128F7D16846FEF70D
:108FF0006BFD7B4832680168914204D9B1FBF2F104
:109000005FEA010B03D100680A21B0FBF1FB4FF4CA
:109010007A7842F21076F9F74FFB0290F9F7E4FA0A
:1090200070490860F7F73EFA0546F9F7EBFA6E4823
:1090300000276E4C016821600760F9F7F3FA2846B3
:10904000F7F734FA6A48236802689A4228D96948CF
:10905000824202D20121304613E06748824202D2A6
:109060000A2140460DE06548824202D26420014652
:1090700007E06348824202D20A20414601E0012013
:109080003146B2FBF1F15843B0FBF1F05D49301AC3
:1090900080B208805C490A88824203D2088001E0DD
:1090A00058480780FEF7D8FD0025F7F7FBF9814601
:1090B000F9F7A8FADFF854A1DAF80040F9F7B2FAA4
:1090C0004846F7F7F3F9B9461AE0F7F7EBF9074620
:1090D000F9F798FAD4F8A000E4E92890F9F7A2FA91
:1090E0003846F7F7E3F960680544F7F7DBF9074618
:1090F000F9F788FA246AF9F795FA3846F7F7D6F9B6
:10910000002CE2D1E5B13B48854202D2012037462E
:1091100013E03948854202D20A2047460DE037481D
:10912000854202D26427384607E03548854202D29C
:109130000A27404601E001273046B5FBF0F501E083
:1091400000270125F7F7AEF90190F9F75BFADAF895
:109150000040F9F767FA019821E0D4F8A4007843B9
:10916000B0FBF5F080B2B04200D93046A4F89000D0
:10917000B4F89210814201D2A4F8920004F1B00236
:10918000111D6B462046FEF769FFF7F78BF9824603
:10919000F9F738FAD4F8C040F9F744FA5046F7F72F
:1091A00085F9002CD9D11A480178012904D180F819
:1091B00000906846FEF788FCF9F77EFA0299401A9B
:1091C00014490A68824200D2086000216A46584663
:1091D000FFF7AAF81FE7000050BB01081C0100249C
:1091E00064BB0108D00000241001002418010024F1
:1091F00014010024801A060000093D00005A620292
:109200000084D7170C0100240E010024280100243B
:109210000A010024200100241D4A002130B589B034
:10922000204C11601B4A11601B4A11601B4A1170CF
:109230001B4A1170226842B11B4A1C4D13682D68ED
:10924000AB4205D246F62C6108E046F62B6105E0FC
:10925000174B1D781F2D04D346F62A61018009B0F3
:1092600030BD032505910691CDE9075011481268DC
:1092700024680068CDE90202019404910FA11878D6
:10928000002300900C4A1248FEF7EEFCE7E70000CE
:109290001001002418010024140100241C010024E2
:1092A0000A01002454BB01085CBB010860BB010833
:1092B0004CBB010858BB0108D18F000875432F4FE4
:1092C000532D4949492053746174205461736B00D4
:1092D00044F3022410B5044631B10A46014606485B
:1092E00000F018FA032000E0022084F8360020463F
:1092F000BDE81040FFF782BD400100242DE9F04198
:109300000E460446002594F8360094F83770082875
:109310004AD2DFE800F004171A1A17171A1A204663
:10932000FFF76CFD304684F83760FFF73DFC1F48BF
:1093300000688442204602D1FFF710FD32E0FFF7BB
:1093400029FD2FE084F837602CE084F8376094F82A
:109350003400072826D2DFE800F02504250408049D
:1093600004002046FFF7C0FA1CE02046FFF7BCFAD5
:10937000206BB742C068456A95F8370003D9B04200
:1093800010D800250EE0B8420CD12846FFF717FA96
:1093900095F83810814200D20846064695F8370005
:1093A000B042EED02C00ADD1BDE8F08164010024C4
:1093B000074B0022C0F8BC20196829B1C0F8C010C2
:1093C000C1F8BC0018607047C0F8C020FAE7000080
:1093D00028010024D0E92F2100234AB181B1C2F82D
:1093E000C010C1F8BC20C0F8C030C0F8BC30704715
:1093F000054A116009B1C1F8BC30C0F8C0307047EF
:10940000C2F8C030F1E7000028010024044A00211E
:109410001160044A1180044A116001807047000005
:10942000280100242C0100242401002470B500250B
:1094300005608560044645600021C56005614561A1
:10944000856128A0C4E90750656204F16800A5623F
:10945000E5622563A4F84650A5642566A4F8645027
:10946000FFF726F9A5670020E567C4F88450A4F843
:109470008C50C4F8885004EB8001401C10F0FF00B1
:10948000C1F88050F7D0E564C4F8A850C4F8AC50D7
:10949000256484F88E50C4F8B450C4F8B050A4F8D1
:1094A000445025656565A565E565A4F89050A4F868
:1094B0009250C4F89450C4F898503434F9F7FCF83A
:1094C000C4E91A05C4F88450202025706570A57081
:1094D000E070207105A0A560C4F88850C4E923504D
:1094E00070BD00003F5461736B000000200000005D
:1094F00070B50D460446F6F7D5FF0646F9F782F833
:109500000021298094F83600082844D2DFE800F0D2
:10951000040404040D232D37F9F784F83046F6F7D8
:10952000C5FF47F25310288011E094F88E00401ECA
:1095300010F0FF0084F88E0004D1204684F8361025
:10954000FFF7F4FBF9F76EF83046F6F7AFFFBDE82A
:109550007040FEF789B894F88E00401E10F0FF00AE
:1095600084F88E00EED1012012E094F88E00401EA7
:1095700010F0FF0084F88E00E4D1022008E094F897
:109580008E00401E10F0FF0084F88E00DAD1032018
:1095900084F83600D6E7F9F745F83046F6F786FF47
:1095A00046F62D60288070BD044808B50068FEF7B7
:1095B000B1FC00206946FEF7F5FB08BD64010024FC
:1095C0002DE9F8431E46154688460446F6F76AFF1D
:1095D0008146F9F717F80CB923480468002046F6CD
:1095E000C557A564308094F83600082830D2DFE8EB
:1095F00000F004040F0F04040F0FE56C681C1ED06C
:109600006D1CE564F9F70EF84846F6F74FFF28E0C1
:1096100094F834000728F0D1002321461A46184652
:109620000095FFF737FAE56CF8F7FCFF4846F6F7C8
:109630003DFF5FEA084014D4FEF716F811E0F8F792
:10964000F1FF4846F6F732FF00203780BDE8F88387
:10965000F8F7E8FF4846F6F729FF002546F62D60A3
:1096600030802846F2E700006401002470B50D4602
:109670000446F6F717FF0646F8F7C4FF234804B977
:109680000468006884420AD12148007838B1F8F7AC
:10969000C9FF3046F6F70AFF46F6635033E0002074
:1096A000288094F836100120082925D2DFE801F03F
:1096B000040D181C1E1E1E1E042184F8361084F88A
:1096C0008E002046FFF79AFB01E0052109E0F8F73C
:1096D000A9FF3046F6F7EAFEBDE87040FDF7C4BFCB
:1096E000062184F8361004E00721FAE794F88E008A
:1096F000401C84F88E00EAE7F8F794FF3046F6F74E
:10970000D5FE46F62D60288070BD0000640100245F
:10971000FA00002430B50368002533B94D610A65AD
:10972000C1E90650016001210FE01C6D944216D37F
:109730009C694B610A6554B1C1E906401D6DAA1AC6
:109740001A65996161618188491C818030BDC1E9D8
:1097500006501C6DA21A1A6599610160F3E7121B8D
:109760001C465B69002BE0D14D610A65C1E90640EA
:10977000E8E70000F0B51C461B4BDFF868C0002589
:10978000042A47F27E271B6804D0082A08D029B192
:109790000A4614E0CA1A624500D882B905651EE07F
:1097A000D0F854E0A3EB0E068E4202D90A4699186F
:1097B00004E08A1B62450BD852B171444165012116
:1097C00080F8361001460948FFF7A4FF2580F0BD58
:1097D000B6FBF1F201FB02E21144C0E9145127800B
:1097E000F0BD00000000FFFF30010024380100241C
:1097F00030B5D0E90513C269002473B1596121B1B4
:109800008B610B6D056D2B440B6584619188491E3E
:10981000918044610465C46130BD31B18C610B6DD0
:10982000056D2B440B651160F0E714609480F1E73F
:109830002DE9F047F6F736FE8246F8F7E3FEF8F733
:109840003BFF1B4D002680462C680CB3206D4FF06B
:109850000409401E2065002717E094F83600761CA6
:10986000B6B2012802D0052806D007E0204684F8C9
:109870003670FFF75BFA01E084F8369064692C607B
:109880009CB1A888401EA880A761206D0028E4D064
:10989000EE80F8F711FFA0EB0804F8F7C3FE50467E
:1098A000F6F704FE2046BDE8F087AF80F0E7000041
:1098B000380100242DE9F047F6F7F4FD8246F8F769
:1098C000A1FEF8F7F9FE354E002781463468E4B36F
:1098D000206DB846401E20654DE094F834007F1C92
:1098E0000025BFB2042802D1206BC068456AC4F8C5
:1098F0006080A4F86480F8F7DFFEA0642046FFF7DC
:109900003DF894F83600032802D0072806D008E076
:109910002046FFF70BFA84F8368002E0042084F832
:109920003600032084F8350084F83480DDB195F8E2
:10993000370095F83810884215D094F837108842CF
:1099400011D12846FEF73BFF00E017E095F83810EC
:10995000814200D20846014695F83700884202D07D
:109960002846FFF7CBFC64693460A4B1B088401E80
:10997000B080C4F81880206D0028AED0F780F8F7CA
:109980009BFEA0EB0904F8F74DFE5046F6F78EFD5E
:109990002046BDE8F087A6F80480EFE740010024E8
:1099A000124C134D08B500226B4611461046FEF7C7
:1099B000B9FABDF800000028F5D1F6F773FD0646A8
:1099C000F8F720FE2068401C2060F8F72BFE304698
:1099D000F6F76CFDFFF72CFF0646FFF76BFF2968D3
:1099E00030448142DFD22860DDE7000030010024EE
:1099F000340100241D4A002130B589B01D4B11608F
:109A00001B4A116019609180D1809980D9801A4BCE
:109A10001A6842B1194C1A4D22682D68AA4205D223
:109A200047F2132108E047F2122105E0154A1578A4
:109A30001F2D04D347F21121018009B030BD0B2541
:109A400005910691CDE9075020680F4C1B682468EA
:109A5000CDE903010EA1CDE9013410780023009077
:109A60000A4A1048FEF700F9E7E700003001002439
:109A700038010024400100246CBB010874BB0108BC
:109A800060BB010868BB010870BB0108A199000810
:109A900075432F4F532D494949205469636B205416
:109AA00061736B000CF4022430B50446284800258D
:109AB0002A4A89B02A49056026480560264805805B
:109AC0002848136809680BB11A4600E00A22B1FB66
:109AD000F2F12246016008462349086025A1234887
:109AE0000560234805602748FDF7D4FA2088002840
:109AF00015D1254A106840B12448254B01681B68E0
:109B0000994205D247F2483008E047F2473005E075
:109B100020490B781F2B04D347F24630208009B030
:109B200030BD0B2305950695CDE907341A4B006827
:109B300012681B680192CDE9023004950023087871
:109B400017A10090154A1C48FEF78EF8E7E70000C1
:109B500048010024500100244C0100247CBB010872
:109B600064BB01085C01002460010024580100244A
:109B7000540100244F5320546D72204D7574657844
:109B800000000000D4F4022480BB010888BB010857
:109B900060BB010878BB010884BB0108D59B0008A5
:109BA00075432F4F532D4949492054696D657220E3
:109BB0005461736B0000000004F502240EB500220E
:109BC00001A81146009002AB0148FDF78DFA0EBDC9
:109BD000D4F40224DFF88880DFF888A0DFF88890CA
:109BE0001CB500216B4601AA0846FEF79BF9FFF75A
:109BF000E5FFF8F761FDD8F800100646491CC8F8E3
:109C00000010DAF80040032718E06846FDF76CFD05
:109C1000A0692569401EA0610CD1A08C02281BD030
:109C2000204600F023F884F82670A26812B1E1689B
:109C3000204690472C466846FDF7A6FD002CE4D14F
:109C4000F8F73AFDD9F80020801B824201D2C9F80A
:109C5000000000F029F8C4E7206AA061E5E70000F1
:109C60005801002450010024540100240C4A002310
:109C700010B501691468844203D1116029B14B61A8
:109C800003E04269116101B14A61012180F82610A7
:109C90000361436103480188491E018010BD000033
:109CA000500100244C01002408B5034800216A46F5
:109CB000FDF7C8FA08BD0000D4F402242DE9F041F4
:109CC0002F4F04464FF000083868C043800709D082
:109CD0002B4D283D286820F080602860F9F7F6FEBB
:109CE000064607E00120BDE8F081F9F7EFFE801B92
:109CF00002283ED828680001F7D43868216820F48B
:109D00007C3040EA01303860207A4FF4FE02A188AE
:109D10004002491EA0F5007080B2C1F3080108435B
:109D2000A189491E02EA01410843217C1202491E11
:109D300002EA016108431249103108601048001D11
:109D40000168626921F0C001114301600168A269E4
:109D500021F0200111430160286840F080602860F4
:109D6000F9F7B4FE044606E0F9F7B0FE001B02283E
:109D700001D90320B7E728680001F5D54046B2E7CE
:109D8000284402582DE9F0412F4F04464FF00008B7
:109D90003868C043800709D02B4D283D286820F043
:109DA00080502860F9F792FE064607E00120BDE8E2
:109DB000F081F9F78BFE801B02283ED828688000CE
:109DC000F7D43868218820F07C7040EA0150386070
:109DD000207A4FF4FE02A1884002491EA0F50070CF
:109DE00080B2C1F308010843A189491E02EA01417A
:109DF0000843217C1202491E02EA0161084312490C
:109E0000183108601048001D0168626921F4406142
:109E1000114301600168A26921F4007111430160DE
:109E2000286840F080502860F9F750FE044606E0AC
:109E3000F9F74CFE001B022801D90320B7E7286878
:109E40008000F5D54046B2E7284402580148FBF7A8
:109E500049BC0000B8260024010900F00F0001EB06
:109E6000810100EB4100C0B27047002102E00A38D6
:109E7000491CC0B20A28FAD2090740EA11607047AB
:109E800070B505460068C168490613D44FF0FF312C
:109E9000C160F9F71BFE4FF47A76044606E0F9F745
:109EA00015FE001BB04201D9032070BD2868C068B0
:109EB0004006F4D5002070BD08B58DF802200022C0
:109EC0008DF8011069468DF800308DF803000248C6
:109ED000FBF7F4FC08BD0000B826002400B585B0EF
:109EE0008DF8000000208DF8011069468DF80220E1
:109EF00002460390049003488DF80330FBF74AFDB7
:109F000005B000BDB82600240B4B10B51B68DC68FB
:109F100004F0800464F49064DC6002460648FBF7B9
:109F20003AFB022203201146F9F752FEBDE8104029
:109F30000320F9F740BE0000B82600240148FBF7D3
:109F4000ADBB0000B82600240E49002070B50860A3
:109F5000BFF34F8F081F006843F6FF740A4DC0F32C
:109F60004E31C0F3C90304EA4112184642EA807632
:109F70002E60401EFAD2491EF5D2BFF34F8FBFF3B9
:109F80006F8F70BD84ED00E074EF00E000230122CC
:109F90001846114610B500F021F84FF4FA7001F0A0
:109FA000EDFC002301221846022100F017F80023DF
:109FB00008221846032100F011F801220421002094
:109FC0004FF40C7300F00AF8BDE81040024840F26C
:109FD000F921FBF71FBE0000602000241FB50024FC
:109FE00010B1012802D002E0102400E00824074844
:109FF000CDE902234FF6FF72CDE900146946FBF765
:10A000001AFE002800D0012004B010BD60200024FA
:10A010000A46014602484FF47A73FBF711BF00006D
:10A02000B021002410B502685169936943F0080318
:10A0300093610268936943F01003936102681368A7
:10A0400023F0010313600268136940F26B34A343E9
:10A0500013610268936823F44043936090F8812071
:10A06000042A0CD08A060AD5D0F8842042F0800257
:10A07000C0F884200268936943F02003936190F84C
:10A080008120032A0CD04A060AD5D0F8842042F059
:10A090000402C0F884200268936943F0400393618E
:10A0A0008A050AD5D0F8842042F00102C0F8842045
:10A0B0000268936943F400739361C9050AD5D0F827
:10A0C000841041F00801C0F8841001688A6942F4E4
:10A0D00080728A610021A0F86210A0F86A1010BD99
:10A0E0002DE9F0411E4617460D468046069C0AE0C3
:10A0F000601C08D024B1F9F7E9FC801BA04202D90A
:10A100000320BDE8F081D8F80000406935EA00007E
:10A1100004D00020B842EBD00020F2E70120F9E79C
:10A120007047000070B5274C9CB0256825F00405E9
:10A130002560244C00260C34256845F440452560F4
:10A14000256805F440451B952568AD04FCD5012420
:10A1500000940CAD03962404019402240994CDE9E3
:10A160000A410796082485E80D00CDE910466846A7
:10A17000FAF7B4FF00B1FEE73F2013900320CDE9CA
:10A18000140640200101CDE91640CDE91801502008
:10A190001A90042113A8FAF7F1FD00B1FEE70A486E
:10A1A000016841F0800101600748F430016841F026
:10A1B00002010160006800F002001B90F9F790FBBB
:10A1C0001CB070BD0C4802580044025810B5F9F795
:10A1D00083FC06480078012807D1FCF707FFFEF74B
:10A1E0005BF9BDE81040FCF711BF10BDD40000249E
:10A1F0001C48016841F4700101601B49086840F087
:10A2000001000860184A0020103210600A68174BDD
:10A210001A400A60144A18321060121D1060121D94
:10A220001060114A28321060121D1060121D10605B
:10A23000121D1060121D1060121D1060121D1060A2
:10A24000121D10600A6822F480220A6006496031FB
:10A25000086001200649C1F80801C006014980399B
:10A260000860704788ED00E0004402587FEDF6EA90
:10A27000008000510148FBF798BF0000D420002463
:10A280000148FBF792BF0000942000240748018892
:10A2900041F40041018006496FF00100096808613E
:10A2A0000448018821F00101018070471800002452
:10A2B0007021002400140040094A084B10B5C2E97F
:10A2C00000310021C2E9021010461161FBF7FCFECB
:10A2D000BDE810400248FBF75BBF000000140040DF
:10A2E000702100242DE9F04702884FF0804A254C68
:10A2F000254D264EA042264F264B09D0504507D06B
:10A30000A84205D0B04203D0B84201D0984204D14F
:10A3100022F0700C4A6842EA0C02DFF87CC0DFF8D9
:10A320007C80A042DFF878900FD050450DD0A84235
:10A330000BD0B04209D0B84207D0984205D0604552
:10A3400003D0404501D0484503D122F44075CA6886
:10A350002A438D8A22F080022A4302808A68C262E0
:10A360000A880285A04207D0984205D0604503D0F4
:10A37000404501D0484501D1098A0186012141614A
:10A38000BDE8F087000001400004004000080040E4
:10A39000000C004000040140004001400044014026
:10A3A0000048014090F83410C90706D001684A6897
:10A3B000836B22F400321A434A6090F83410890704
:10A3C00006D501684A68C36B22F480321A434A609A
:10A3D00090F83410490706D501684A68036C22F4E6
:10A3E00080221A434A6090F83410090706D50168A4
:10A3F0004A68436C22F400421A434A6090F83410D1
:10A40000C90606D501688A68836C22F480521A4313
:10A410008A6090F83410890606D501688A68C36C92
:10A4200022F400521A438A6090F83410490611D57C
:10A4300001684A68036D22F480121A434A60016D74
:10A44000B1F5801F06D101684A68436D22F4C0024D
:10A450001A434A6090F83410090606D501684A6824
:10A46000806D22F4002202434A607047F8B500254F
:10A470000446C567F9F72AFB0746206800686FF0B5
:10A480007E46000708D500223B464FF400112046C7
:10A49000009600F0FBFA60B92068006840070AD512
:10A4A00000223B464FF480012046009600F0EEFA71
:10A4B00008B10320F8BD202084F8790084F87A00E0
:10A4C000002084F87850F8BD10B5806B0021A0F80A
:10A4D0006A10A0F86210FBF72DFF10BD01680A6832
:10A4E00022F490720A6001688A6822F001028A6090
:10A4F000202180F87A10704710B5B0F86C2090F8E1
:10A500007A300168222B05D0088B40F008000883C0
:10A51000022010BD898C8368B3F5805F01D1036987
:10A520006BB11140426E531C43661170B0F86A1053
:10A53000491E0904090CA0F86A1007D015E0436E03
:10A5400011401980416E891C4166EFE701680A6875
:10A5500022F490720A6001688A6822F001028A601F
:10A56000202180F87A10FCF7C3F8002010BD00000D
:10A570002DE9F04F044600688025FD4B0021D4F8FA
:10A5800010C087B0A6680F46D4F81C8046EA0C06B7
:10A59000D4F814C0A26A4CEA080C46EA0C0632430E
:10A5A0000668DFF8D0C306EA0C061643066020688A
:10A5B0004268E66822F44052324342602268A06951
:10A5C0009A4201D0266A3043A66AB6F1005F04D1F0
:10A5D000D4E90B6C46EA0C0630439668DFF898C362
:10A5E00006EA0C06064396602068C26A666A22F094
:10A5F0000F023243C262E14E2068E14AB04210D1FC
:10A60000126802F03802182A74D005DCCAB3082A8E
:10A610007AD0102A47D179E0202A7BD0282A7CD111
:10A620007AE0D84EB04209D1126802F00702062A39
:10A6300073D2DFE802F053696B6D6F71D24EB04296
:10A6400009D1126802F00702062A66D2DFE802F09A
:10A65000465C5E606264CD4EB04209D1126802F081
:10A660000702062A59D2DFE802F0394F51535557F5
:10A67000C74EB0420BD1126802F00702062A4CD234
:10A6800000E00EE0DFE802F02A4042444648C14EB6
:10A69000B04209D1126802F03802182A38D0BBDC67
:10A6A000B4E74FF0010538E0BB4EB04209D1126863
:10A6B00002F00702062A30D2DFE802F01026282A2C
:10A6C0002C2EB64EB0420BD1126802F00702062AB9
:10A6D00023D2DFE802F003191B1D1F2100251CE017
:10A6E00098421AD1A64A121D126802F00702062AE1
:10A6F00013D202E00CE007E00CE0DFE802F0030513
:10A7000007090B0D022508E0042506E0402504E0BA
:10A71000082502E0102500E02025DFF864B2A04EF5
:10A720009842DFF880A2ABF1540B73D1102D31D0D9
:10A7300006DC022D09D0042D0AD0082D2FD111E0FE
:10A74000202D29D0402D2AD107E0F9F795FA13E002
:10A750006846F9F7A7FA01980EE003A8F9F722FB7B
:10A76000049809E0DBF800105846890610D5006807
:10A77000C0F3C1012AFA01F0002811D061688946AE
:10A7800001EB410181420AD8B0EB093F07D808E04C
:10A790005046F3E78448F1E74FF40040EEE7012725
:10A7A00033E1102D4FF000084ED006DC022D0FD003
:10A7B000042D15D0082D04D12DE0202D4AD0402D98
:10A7C00013D00127794AA0F54071914270D9E6E78C
:10A7D000F9F752FA626A0023414636F812200DE07A
:10A7E0006846F9F75FFA019803E003A8F9F7DAFA87
:10A7F00004980023616A36F811201946F5F770FEB7
:10A8000062680902030241EA10615008181841EB1E
:10A81000080115E032E0DBF800105846890609D53A
:10A8200000680023C0F3C1012AFA01F0616A36F81A
:10A83000112015E0606A002336F8102050460FE022
:10A840000023F5F74DFEBDE7606A002336F81020BF
:10A85000554805E0606A002336F810204FF40040A8
:10A860000021F5F73DFE0902020241EA10614FEABC
:10A87000590010184A4641EB0801E1E7E3694FF43B
:10A88000004293424DD1082D23D005DC8DB1012D1E
:10A8900012D0042D06D112E0102D35D0202D3AD043
:10A8A000402D11D0012721F00F00C1F342010843D0
:10A8B0005AE0FAF769FB16E0FAF77CFB13E068460A
:10A8C000F9F7F0F901980EE003A8F9F76BFA04988C
:10A8D00009E0DBF800105846890608D50068C0F387
:10A8E000C1012AFA01F0616A36F8111010E0606ABD
:10A8F00036F81010BAFBF1F04100606801EB50012E
:10A90000B1FBF0F081B2CEE7606A36F8101026484D
:10A91000B0FBF1F0F0E7606A36F81000B2FBF0F03F
:10A92000EAE7082D4AD00ADC0DB3012D43D0042DEF
:10A930007FF44DAF6846F9F7B5F9019809E0102D9D
:10A9400052D0202D55D0402DF2D103A8F9F72AFA84
:10A950000498616A36F81110B0FBF1F1606801EB00
:10A960005001B1FBF0F080B22168C8604DE01FE0FB
:10A97000000C0058F369FFCFFFF4FF1100100140F5
:10A98000544402580044004000480040004C00403D
:10A99000005000400014014000780040007C00405E
:10A9A0000E2101080090D00300093D00FFFC0F00BC
:10A9B000FAF7EAFACDE7FAF7FDFACAE7DBF8002082
:10A9C000594692060AD50968C1F3C1022AFA02F172
:10A9D000626A36F81220B1FBF2F20FE0616A36F8D3
:10A9E0001120BAFBF2F209E0616A36F81120094938
:10A9F000F1E7616A36F81110B2FBF1F2616802EB1F
:10AA00005102B2FBF1F189B2C16007B03846BDE82E
:10AA1000F08F000000093D0090F87910212901D045
:10AA200002207047B0F8621021B18168B1F5805FF3
:10AA300013D014E001680A68920004D58A6822F4F1
:10AA400000028A6003E00A6822F080020A6000685F
:10AA5000016841F0400101600CE0016961B1C16D24
:10AA60004A1CC265026809781185B0F86210491E57
:10AA7000A0F8621000207047C16D02680988C1F318
:10AA800008011185C16D891CC165EEE72DE9F04112
:10AA90001E46174688460446069D1CE0681C1AD0D0
:10AAA00025B1F9F713F8801BA84214D92068016872
:10AAB00021F4D07101602068816821F0010181607A
:10AAC000202084F8790084F87A00002084F8780047
:10AAD0000320BDE8F0812068C16938EA010004D094
:10AAE0000020B842DAD00020F3E70120F9E70000A7
:10AAF00070B5104D0024FCF779FA0F48FBF722FCE3
:10AB000002E0641CAC4204D80B48FBF714FC20287C
:10AB1000F7D1002402E0641CAC4206D807490122A8
:10AB20000548FBF791FD0028F5D1BDE87040FCF722
:10AB30006DBA0000FFFF010020190024140000245A
:10AB400010B5FCF753FA12480068C069C04380068C
:10AB500017D410480088104AC1B29088030410D45A
:10AB6000B0F5487F11D20D4C0023236028B90B4B60
:10AB7000243B1C8844F001041C80094B1954401CE0
:10AB80009080BDE81040FCF741BA40F40040F7E780
:10AB9000E01F002424480040140000242414004036
:10ABA000C01C0024FEE703B401984100009850EA5D
:10ABB000C12018BF04204A0D18BF40F0010040F228
:10ABC000FF72B2EB515F08BF40F00200012808BFDE
:10ABD000052002B070470907090E002804DB00F1C8
:10ABE000E02080F80014704700F00F0000F1E02032
:10ABF00080F8141D704730380A2801D201207047B0
:10AC00000020704770472DE9F0470546174664302D
:10AC10008846814604F0E0FBC8B32878D5F8A81030
:10AC200003F05EFA04004FF0FF362DD02046C4F842
:10AC3000048004F06DF921464846277204F0BAFBFF
:10AC400048B365680021284604F0B8FD0021284675
:10AC500006F0F3F80021284606F024FA04222846DC
:10AC6000002105F0F5FC0021284604F03AFF002001
:10AC7000606004F13400054604F046FB284604F009
:10AC80008DFB204603F00EFB3046BDE8F087FFE762
:10AC90006FF00500F9E7D5F8A8301BB1002228466F
:10ACA000114698470020F0E710B501F0F1FBBDE830
:10ACB00010400349002241F2883004F01BBC000020
:10ACC000A9AC0008064A014600201288130406D5E4
:10ACD000044BC2F30E0298541846F5F78FBE704726
:10ACE00018000024C01C00242DE9F041134E00255B
:10ACF000884614462F46014611A0358007F00EF80D
:10AD0000B8F1000F17D08CB915E00A2000F00EFE44
:10AD1000308800040AD54046FFF7D4FF28B10AA0C6
:10AD20004146F5F781FC2CB105E03780641E240410
:10AD3000240CEAD101252846BDE8F0811800002442
:10AD400025730D0A0000000061636B3A25730D0A3C
:10AD5000000000002DE9F05F07463B48022F4FF04E
:10AD6000050B00EB07144FF0000A07EB470913D25D
:10AD700056464FF0FF0835462846FBF7E7FC10B172
:10AD8000761CA846F6B26D1CEDB2022DF4D3012E4E
:10AD900040D1B84509D03DE03CD10020FBF7D6FCBE
:10ADA000C0B30120FBF7D2FCA0B32079052803D261
:10ADB00084F804B0BDE8F09F0A2802D2401C20713C
:10ADC000F8E7A07A07EB47035B1C20B90120A072CB
:10ADD000D8B200F03BF820890028EBD0E18881420E
:10ADE00008D2491C89B2E1808142E3D109F1030014
:10ADF000C0B20BE0E07A0028DCD0217B491CC9B24C
:10AE000021738142D6D384F80CA0D8B2BDE8F05F9C
:10AE100000F01CB82079052802D984F804B00DE0B0
:10AE200010B1401E207109E0A07A012806D109F175
:10AE3000020084F80AA0C0B200F008F8A4F806A046
:10AE400084F80CA0B6E700004427002405490A79DD
:10AE500088540879401CC0B20871032801D300202F
:10AE60000871704732000024074AD1781079814276
:10AE700001D100207047505C491CC9B2D170032930
:10AE8000F8D30021D170704732000024144830B547
:10AE900087B0016841F001010160016801F0010122
:10AEA0000591016841F04001016000680D4D00F01E
:10AEB00040000590002001900120029002200390A4
:10AEC0000024694605EBC4008088009055F83400E2
:10AED000F8F70EFD641CE4B2022CF2D307B030BDCB
:10AEE000E0440258FCBA01080A48002230B50A4B77
:10AEF0003224C270022502711146427103EB011027
:10AF0000491CC9B20481032905718272C27202739D
:10AF1000F4D330BD320000244427002410B5FFF7DD
:10AF2000E3FFBDE81040FFF7B1BF10B50024204695
:10AF3000FFF710FF641CE4B2032CF8D310BD00002F
:10AF4000FEB5002425460294FBF716FC02F0E0F85B
:10AF5000FBF74CFF3B4801788DF8001041788DF8E5
:10AF6000011081788DF80210C1788DF803100179F5
:10AF70008DF8041040798DF805003448324901609D
:10AF80000121C0F804D00172314901613149C16029
:10AF90004FF4BF614161F8F759F92C48F8F772FB9B
:10AFA00000204FF40041FBF75BFC002819DB002078
:10AFB00002A9FBF737FC661F00280CDA0FE000201F
:10AFC00002A9FBF72FFC002809DB0A2000F0AEFCE9
:10AFD000641CC82C07D202980004F0D403E0354664
:10AFE00001E06FF00305FBF72BFC1DB94FF47A70FD
:10AFF00000F09CFC0024184E032709E00A2000F012
:10B0000095FC641CC82C02D30220308004E03780F9
:10B01000FBF7CEFB0128F1D9FBF7CAFB022806D0CB
:10B02000032806D0042806D0052806D008E00BA087
:10B0300004E012A002E019A000E01FA0F5F7F4FA66
:10B040002846FEBDCCF5022400800240DC26002408
:10B0500000000430600004300A0000244C414E38E7
:10B060003732303A3130304D622F732046756C6C78
:10B070004475706C65780D0A000000004C414E3834
:10B080003732303A3130304D622F732048616C6670
:10B090004475706C65780D0A000000004C414E3814
:10B0A0003732303A31304D622F732046756C6C4424
:10B0B00075706C65780D0A004C414E383732303A65
:10B0C00031304D622F732048616C664475706C6539
:10B0D000780D0A0010B502F035F9782000F026FC52
:10B0E0001120FBF7AFFD782000F020FC3620FBF7A5
:10B0F000A9FD0020FBF7B4FD3A20FBF7A3FD652076
:10B10000FBF7AEFDB220FBF79DFD0C20FBF7A8FD81
:10B110000C20FBF7A5FD0020FBF7A2FD3320FBF779
:10B120009FFD3320FBF79CFDB720FBF78BFD7220C2
:10B13000FBF796FDBB20FBF785FD3D20FBF790FD5F
:10B14000C020FBF77FFD2C20FBF78AFDC220FBF718
:10B1500079FD0120FBF784FDC320FBF773FD192067
:10B16000FBF77EFDC420FBF76DFD2020FBF778FD8B
:10B17000C620FBF767FD0F20FBF772FDD020FBF721
:10B1800061FDA420FBF76CFDA120FBF769FDE02029
:10B19000FBF758FDD020FBF763FD0420FBF760FDB3
:10B1A0000D20FBF75DFD1120FBF75AFD1320FBF787
:10B1B00057FD2B20FBF754FD3F20FBF751FD54209A
:10B1C000FBF74EFD4C20FBF74BFD1820FBF748FD2D
:10B1D0000D20FBF745FD0B20FBF742FD1F20FBF781
:10B1E0003FFD2320FBF73CFDE120FBF72BFDD020AA
:10B1F000FBF736FD0420FBF733FD0C20FBF730FD99
:10B200001120FBF72DFD1320FBF72AFD2C20FBF767
:10B2100027FD3F20FBF724FD4420FBF721FD5120B3
:10B22000FBF71EFD2F20FBF71BFD1F20FBF718FD72
:10B230001F20FBF715FD2020FBF712FD2320FBF755
:10B240000FFD2120FBF7FEFC2920FBF7FBFCEF2381
:10B2500000211A460846FBF711FB44F69C40FBF719
:10B2600037FBBDE8104002F01DB80000104810B5D3
:10B2700086B0016841F002010160006801210D4CB7
:10B2800000F0020005900320CDE90001CDE9021095
:10B2900069462046F8F72CFB012220461146F8F7B4
:10B2A0000FFC012220460221F8F70AFC06B010BD6F
:10B2B000E04402580004025817487F2270B515492F
:10B2C00001600021C0E90112FF22C0E90321816170
:10B2D000C161FAF781FA08B1022070BD0E48002161
:10B2E000FAF74FF945F25005A84211D00B4CE3791B
:10B2F000A27961792079FEF7F1FDE378A27861788F
:10B300002078FEF7D9FD044800212A46FAF73EF9D5
:10B31000002070BD00400058B82600242A000024F8
:10B320001548012200B5134987B0102301600021A0
:10B33000C0E901120822C0E90323402343614FF40E
:10B34000C073C0E90631130203625302C0E9093138
:10B35000062102200090CDE90121CDE903100590DE
:10B36000694606900448FAF7ABFB0348FEF70EFE69
:10B3700007B000BD404100526020002410B5154CBC
:10B38000072113484FF0007204F1080320604FF4C6
:10B3900080006060002083E8070052106261920024
:10B3A000A2614FF040526063C4E907206062C4E9C3
:10B3B0000A01C80760652046FAF754FC2046FAF7F0
:10B3C00069FC2068016841F00101016010BD0000C6
:10B3D00000300140B02100244FF4C87010B500F0D7
:10B3E0007FFA4FF4E134204606F0BAFC204606F01E
:10B3F000DFFDFFF73BFFFFF791FDFFF7BFFFFFF713
:10B4000069FE03F05FFCFFF757FF00210420FEF701
:10B410007BFDC82000F08AFAFFF782FF002002F0CF
:10B4200075FD012002F072FD022002F06FFD01F0B7
:10B430005DFF05F039FEBDE8104044F69C40FBF787
:10B4400047BA00002DE9F0411021064600208AB0DD
:10B4500002F0E0FD04004FF0FF3525D0C421266046
:10B46000002002F0D7FD606010B300204FF480612F
:10B4700002F0D0FDA060F8B139A0F5F7D5F83C4E48
:10B480000125701990F8A000002824D06D1CEDB2A1
:10B49000282DF6D3F5F706F88046F7F7B3F8354FC1
:10B4A000387801281BD030E033A0F5F7BDF80EE066
:10B4B00036A0F5F7B9F806E03BA0F5F7B5F86168F6
:10B4C000002002F09BFD0020214602F097FD284657
:10B4D0000AB0BDE8F081257346F82540DAE7072277
:10B4E0000020059009A90891CDE90602A1684FF452
:10B4F0008072CDE903201923324A0B208DE80B001E
:10B50000606831A12346FCF7AFFBF7F78BF84046A4
:10B51000F4F7CCFFF878401CC0B2F870BDF82410E6
:10B52000A1B1401EF870217B2EA0F5F77DF861686F
:10B53000002002F063FDA168002002F05FFD002002
:10B54000214602F05BFD6FF00300C1E77119012095
:10B5500081F8A0002AA0217BF5F766F80020B7E764
:10B56000636865636B20636C69656E740D0A000027
:10B570000C38002454000024636C69656E74203D0F
:10B580003D204E554C4C0D0A00000000636C69656F
:10B590006E742D3E636C69656E74544342203D3D6C
:10B5A000204E554C4C0D0A00636C69656E742D3E3F
:10B5B000636C69656E7453544B203D3D204E554C71
:10B5C0004C0D0A00711101087463705F7365727627
:10B5D00065725F7468726561645F31207461736B5A
:10B5E000000000002564BAC5BFCDBBA7B6CBC8CE4E
:10B5F000CEF1B4B4BDA8CAA7B0DC0D0A00000000AB
:10B60000436C69656E74204E4F2025642069732059
:10B61000636F6E6E65637465642E0D0A0000000032
:10B6200070B50AA1064605F018F8144D00243046FE
:10B6300055F8241005F011F8641CE4B2032CF6D37D
:10B640003046BDE870400EA105F007B82A2A2A2A24
:10B650002A2A2A2A2A2A2A2A2A5573657220436FFF
:10B660006D6D616E64204C6973742A2A2A2A2A2A15
:10B670002A2A2A2A2A2A2A2A0D0A000048000024F7
:10B680002A2A2A2A2A2A2A2A2A2A2A2A2A2A2A2A1A
:10B690002A4C69737420456E642A2A2A2A2A2A2A87
:10B6A0002A2A2A2A2A2A2A2A2A2A2A2A0D0A00008B
:10B6B00010B507A1044604F0D0FF0EA1204604F007
:10B6C000CCFF2046BDE8104012A104F0C6BF000028
:10B6D0004657205645523A204D414749432043554D
:10B6E000424520544543482046573A302E302E35A7
:10B6F0000D0A00004857205645523A2053544D3306
:10B700003248375F546F6F6C735F56312E300D0ABD
:10B71000000000004657205550444154453A20321D
:10B720003032315F30395F32330D0A0070B5B2B05C
:10B730000E4620210546002002F06CFC16A10446AE
:10B740006A463046F5F7BCF817A06946F4F76CFF77
:10B750001422684616A1FFF7C7FA16A0F4F764FF93
:10B760001A491BA0F4F760FF18484FF44871F5F729
:10B7700019FA10A0F4F758FF16A16A4619A8F4F7B1
:10B780005FFF19A9284604F068FF0020214602F057
:10B7900035FC32B070BD0000252A5B5E3D5D3D2565
:10B7A0005B5E295D0000000025730D0A00000000AB
:10B7B0004F4B00002A2A2A2A2A2A41542041434B6F
:10B7C0002A2A2A2A2A2A2A0D0A000000C01C00243C
:10B7D0002573000073656E645F61745F636D645F01
:10B7E00065737038323636287374723D2573292C90
:10B7F000204F4B210D0A000070B59AB00446642119
:10B800006846F5F7F1F92046F5F736F9204410F8C7
:10B81000020C0D2807D12046F5F72EF9204410F828
:10B82000010C0A2803D023A0F4F7FEFE23E02A4EE1
:10B8300020463178F5F7D8F8002820461ED0F5F7D5
:10B840001BF9317805462046F5F7CEF8F5F714F9DF
:10B850002A1A21466846F5F7EEF91F4D00242D1DE2
:10B86000694655F82400F5F711FA04F10104F0B126
:10B87000A4B2032CF4D300201AB070BDF5F7FCF885
:10B88000024621466846F5F7D6F914A16846F5F751
:10B89000A5F8002405466E4603E0285D3055641C7B
:10B8A000A4B22846F5F7E8F8A042F6D8D5E7E0B20A
:10B8B000E2E7000054686520636F6D6D616E64207F
:10B8C0006D6179206265206D697373696E675C7262
:10B8D0005C6E2E0D0A000000380000240D000000F0
:10B8E00010B504460420FAF7CDFB0D4A0D480E4B67
:10B8F000546001680068B3FBF1F14FF47A73B3FB55
:10B90000F0F010804FF0E0206143026942F0020243
:10B9100002614161016941F00101016110BD000056
:10B920000C00002464BB010840420F0070B50446BF
:10B930000C48007878B10C48007860B90B4D288825
:10B94000844203D3B4FBF0F000F012F82888B4FB73
:10B95000F0F100FB11444FF47A706043BDE8704091
:10B9600000F00CB8D4000024CC0000240C0000240B
:10B9700008B508216A46FCF7D7FC08BDF8B54FF0BA
:10B98000E02700247E690D49496800FB01F56846FF
:10B99000FBF7AAFEB969B8698842FCD002D2A1EBD4
:10B9A000000102E0A6EB000211440C440146AC4247
:10B9B000F1D36846FBF7E8FEF8BD00000C00002458
:10B9C00010B50168044691F9080010F1090F19DB60
:10B9D000FA2020714868B0B1097801F0F00110290F
:10B9E0000CD0202905D040290DD1A16803F0FAF828
:10B9F00008E0A289A16806F0CFF903E0A289A16856
:10BA000003F0DEFE20712068BDE810400C3003F02A
:10BA100017BD10B504460068417819B1022901D05C
:10BA2000FB211BE0426812B10278102A01D0FA21F2
:10BA300014E0227A032A01D002290ED0D10701D0C6
:10BA400002F0E8FB2168042048702068C0F8A44098
:10BA50002068BDE8104000F007B8F3212171BDE86F
:10BA600010400C3003F0ECBC2DE9F0410446D0F856
:10BA7000A400007A032800F0010700F0020624D099
:10BA800000251DB16068002103F098FE6068017E0A
:10BA900001291CD037B1002105F0CFF960680021E1
:10BAA00003F009FE1EB16068002105F0FBFA9DB1AC
:10BAB00060680422002104F0CBFD6068002104F0DE
:10BAC00010F8606803F0BCFE0BE00125D9E7002107
:10BAD00003F0F1FD002DF4D160683246394605F0DF
:10BAE000AFFC90B11C49606805F0DCFA1B490422E8
:10BAF000606804F0ADFD1A49606803F0F2FF606809
:10BB00002146BDE8F04103F059BED4F8A41000204E
:10BB10000871C4F8A40060703DB16060D4F8A8302A
:10BB20001BB1002220460421984737B1D4F8A83031
:10BB30001BB1002220461146984736B1D4F8A830F0
:10BB40001BB1002220460221984704F10C00BDE8F9
:10BB5000F04103F075BC0000B9EE00088DEB000861
:10BB6000E5BE000870B501680446487830B1022887
:10BB700004D0032802D0FB20207128E0084602F000
:10BB800049FB22685168A1B1107800F0F00010283C
:10BB900029D00025202805D0402808D1084603F0E8
:10BBA0007BF804E0CD612068406806F0EBF920687E
:10BBB00045602068D0F8A8304BB100221146984764
:10BBC0002068D0F8A83013B10022022198472068DD
:10BBD0000C3003F03BFC002811D02068BDE8704019
:10BBE0000C3003F02DBC042050700320207220681C
:10BBF000C0F8A4402068BDE87040FFF735BF70BDB5
:10BC000001686FF00C034968C1B1027C002A8268A8
:10BC100001D0096800E049681160002101710168E4
:10BC20000A7802F0F002102A14D0202A08D0402A04
:10BC300018D1027C12B14968097C11E0037111E04E
:10BC4000027C49680AB1498A0AE00A7C5207F5D5A4
:10BC5000898A05E0027C49680AB1498B00E0898B3A
:10BC6000C268118000680C3003F0EABB70B504466E
:10BC7000006890F9081011F1090F01DA217144E010
:10BC8000F321217142681AB30178102901D0F22002
:10BC90001DE04078E0B9FF21104604F055FA050098
:10BCA00014D02068343003F097FB38B1206834306A
:10BCB00003F02AFB2068343003F070FB0026267165
:10BCC0002068643003F088FB18B108E0FF20207181
:10BCD0001BE020681421643003F022FB20712079DE
:10BCE00028B1284603F0ACFD206846600DE02168CD
:10BCF00002204870206845602846216803F05EFDF8
:10BD000020680549406803F0D6FC2068BDE8704013
:10BD10000C3003F095BB000007AC000810B50446DA
:10BD2000002020712068406810B9204602F0C2FE51
:10BD30002068BDE810400C3003F082BB2DE9F041D3
:10BD40000546002028712868416899B100781028BC
:10BD500010D1AC684FF480384FF6FF77444501D3DB
:10BD60003E4600E0A6B228683146406805F079F802
:10BD7000A41BF3D12868BDE8F0410C3003F060BB90
:10BD8000016891F9082012F1090F07DB0A78102ADF
:10BD900001D0FA2202E04A782AB1FB22027101F1B5
:10BDA0000C0003F04DBB4A685AB101224A70016889
:10BDB000C1F8A40000210268C2F8A010006800F0D9
:10BDC00002B8F322EAE72DE9F047044690F89C0018
:10BDD0004FF000088107D4F8A400037C01D4590770
:10BDE00001D5012700E000278168D4F8A020C068B1
:10BDF0001144801AB0F5803F04D343F002034FF69C
:10BE0000FF7500E085B266684FF00009B6F866007D
:10BE1000A84207D205461FB125B96FF006060AE011
:10BE200043F002032A46304605F0ECFC060001D040
:10BE3000701C41D197B1D4F8A400C068A8420DD9B4
:10BE4000D4F8A8301BB103212A462046984794F81D
:10BE50009C0040F0100084F89C0011E0606840F6FF
:10BE60006932B0F86610914203D9B0F8680005282D
:10BE700006D3D4F8A8301BB103212A4620469847A0
:10BE800016B1701C17D017E0D4F8A0002844C4F8ED
:10BE9000A000D4F8A410CA68904200D027B1C860AE
:10BEA0004FF00108C4F8A090606804F0CBF9B8F135
:10BEB000000F05D10FE08FB1D4F8A410C1F80C9099
:10BEC000D4F8A400067104F10C00C4F8A49084F81E
:10BED000019003F0B5FA0020BDE8F087606804F037
:10BEE000B1F9F8E72DE9F04100270E460446476016
:10BEF000F4F7D8FA2672F4F7D9FA65786770D4F8AF
:10BF0000A8308BB10022204604219847D4F8A830ED
:10BF100053B10022204611469847D4F8A8301BB1EF
:10BF2000002220460221984704F13400804603F0A5
:10BF300053FA18B10021404603F03CFA04F16400C2
:10BF4000804603F049FA18B10021404603F032FA66
:10BF5000012D03D0042D01D0032D14D194F89C00A1
:10BF6000C0F38001002920F0040084F89C000AD16D
:10BF7000D4F8A400067104F10C00C4F8A470BDE864
:10BF8000F04103F05DBABDE8F0812DE9F84F0500FE
:10BF90009046894657D0B8F80A002A2850D3D8F8D6
:10BFA00004604FF4807A344634F80E0F504547D180
:10BFB0002079062844D16079042841D16088082876
:10BFC0003ED1D4F80E000090281DA16905D0686804
:10BFD00018B1814201D1012700E000270FB10123F0
:10BFE00000E00223694604F10802284600F074FAD2
:10BFF000E088504524D11FB3022001F043FCE080CB
:10C00000D4F80E00A0616868C4F80E00A068C4F8F7
:10C010001200A089E082A0683060A089B080D9F8C1
:10C020000010A160B9F80400A081D9F80010C6F88A
:10C0300006104146B9F8040070812846AA69904765
:10C04000404602F099FCBDE8F88F00002DE9F35F4F
:10C0500000214FF00A0B0446DA46584688468C46C3
:10C06000D9460F46344B01EB810E0A2803EB8E02B2
:10C07000937C08D0ABB154B125685668B54206D15F
:10C0800048B2BDE8FC9F002BF5D148B209E0012B76
:10C0900015D0022B05D3D27C624502D394464FFAC9
:10C0A00081FA491CC9B20A29DCD301994FF0FF3249
:10C0B00089073ED40A2814D016DAC5B228E01E4BF0
:10C0C00053F82E3033B1D67CBE42EAD337464FFA0E
:10C0D00081F9E6E7D57C4545E3D3A8464FFA81FBD5
:10C0E000DFE70198C00724D0BAF10A0F02DA0AF09C
:10C0F000FF050AE0BBF10A0F02DA0BF0FF0504E0CE
:10C10000B9F10A0F15DA09F0FF05284600F016F814
:10C1100034B1094805EB8502216800EB82004160DB
:10C1200005EB85020448002100EB8200C17468B26F
:10C13000A7E71046A5E7000014F6022470B50C4EE0
:10C1400000EB8004002556F8240018B102F014FC1E
:10C1500046F8245006EB840006498574C574856052
:10C160004560D1F80620C2604989018270BD000097
:10C1700014F602248CBB01082DE9FC410E4615463D
:10C180000E210446304602F031FC18B16FF0010078
:10C19000BDE8FC812868214600F03CFB08B1334B28
:10C1A0003CE02868C0F303110E2922D0A16863681F
:10C1B00000EA01020B409A420BD080B2A0F57E410A
:10C1C000A93906D014F10C0F2FD0E06868B304F140
:10C1D0000C05274B274A187800EB800102EB810100
:10C1E0008F7C022F24D32F6849688F4220D10246CA
:10C1F0002CE001208DF8000000208DF801005E2069
:10C200008DF8020068786B4600F07F008DF803001F
:10C21000A8788DF80400E8788DF8050004F1230271
:10C220003146204600F024F9B2E76FF00300AFE793
:10C23000002000EB800102EB81018F7C022F0AD3EA
:10C240002F6849688F4206D1C2B21A703146204623
:10C2500000F012F89CE7401C40B20A28E9DB3246A5
:10C260002946204600F02AF892E700008CBB01081E
:10C270007801002414F6022470B50E4605460E48D7
:10C2800002EB820100EB8104A07C022809D1E07C52
:10C29000E42806D3211D284600F0D8F808B9032069
:10C2A000A07404F10C03314605F123022846BDE8D1
:10C2B000704000F0DDB8000014F602242DE9F74FBD
:10C2C00082B04FF0FF3B154688465F460298233008
:10C2D00000900868029900F09DFAD8B9D8F80000DB
:10C2E000C0F303110E2915D0B8F1000F12D088B198
:10C2F00001214046FFF7AAFE04000DD4DFF8A4A0F8
:10C3000004EB84090AEB8906B07C40B1012808D00F
:10C310003DB10DE06FF00D0005B0BDE8F08F0120DC
:10C32000B0740298414600F091F8002D0746F3D012
:10C33000B07CD04602280AD31B4806F10C032946DC
:10C340000470009A029800F093F8074628E001284C
:10C3500026D100222846017B012903D1006800284C
:10C36000F9D172B101890022032002F0B3F904006F
:10C3700015D0294602F07FFA40B1204602F0FCFABF
:10C380000DE02C46284602F088FB44B158F82900FD
:10C3900008B102F0F1FA002748F8294000E05F46B2
:10C3A0003846B9E714F60224780100242DE9F05F3D
:10C3B0001F46904600228946DDF82CB02A2182468D
:10C3C000032002F087F906003DD075680D9805F14D
:10C3D0000E0401F057FAE0803868A060B888A081A8
:10C3E000DBF80010C4F81210BBF80400E082D8F8A3
:10C3F00000102960B8F80400A880D9F80010C5F82A
:10C4000006103146B9F8040068810A980068C4F83B
:10C410000E000C980068A0614FF480702080082006
:10C42000608006202071042060714FF4C160A881F3
:10C430005046DAF8182090470446304602F09CFA3D
:10C440002046BDE8F09F4FF0FF30FAE71FB5074CDC
:10C450000123021DCDE90213CDE9002400F12303DD
:10C46000A21F1946FFF7A2FF04B010BD92BB01083E
:10C4700030B44C681D6825609B88A3801368C4F89D
:10C480000630928862810822A281826930BC1047FE
:10C4900070B5104D002404EB840005EB8000827C15
:10C4A00092B1C17C491CC9B2C174F02906D2012ADB
:10C4B00002D0032A06D007E0022905D32046FFF761
:10C4C0003DFE01E002218174641CE4B20A2CE2D337
:10C4D00070BD000014F602242DE9F0410E001F4645
:10C4E0001546044630D0306870B3214600F092F90A
:10C4F00050BB3078C0F303100E2825D039463046A3
:10C50000FFF7A4FD00281DDB114A00EB8001022388
:10C5100002EB8100837484602B68C360AB88038264
:10C520000023C37452F821605EB142F8213004F157
:10C5300023022B4631462046FFF79AFF304602F091
:10C540001BFA0020BDE8F0816FF00D00FAE7000053
:10C5500014F6022470B5044640890D460E283AD9D7
:10C56000606801788689CA0714D0012905D01C4962
:10C570000622F4F755FA48B10CE0417851B98078B9
:10C580005E2807D1607B40F0100002E0607B40F045
:10C5900008006073082E03D0B6F5C16F1BD10EE002
:10C5A00095F82900800616D56FF00D01204602F09F
:10C5B0001DFA80B92946204600F0FAF909E095F8FD
:10C5C0002900800607D505F1230122462846FFF7FA
:10C5D000DCFC002070BD204602F0CEF9F9E7000037
:10C5E0008CBB010810B5652180F82A106E2180F8F7
:10C5F0002B10044941610449816100F00FFF0020C4
:10C6000010BD000079C100088DD5000870B5054641
:10C6100000F08AFF04000CD02A69294690470500E3
:10C6200002D0204602F0A8F90348F6F763FC28463A
:10C6300070BD4FF0FF3070BDDC2600240349CA698D
:10C640005206FCD5C2B20A857047000000100140B6
:10C650000A46032100F07EB82DE9FE4F45680446E6
:10C660008A46287800074FEA90682046C8F1000102
:10C670000F4602F0BBF9002862D1208904285FD35D
:10C680006068007800285BD0082859D12F4901261E
:10C690000868C0F303120E2A00D1002689465146CD
:10C6A00000F0B8F8E8BBE6B32089082848D3204654
:10C6B00000F08CF8A8BB2221204602F097F9D0B1F7
:10C6C0004146204602F092F958BB218900220220FF
:10C6D00002F000F8060033D0214602F0CCF800BB8F
:10C6E00075683946304602F081F9D0B9204602F02B
:10C6F00043F9344605E06FF02101204602F076F957
:10C7000078B960680026D9F80010E9601049096816
:10C710002961414606704680FF20287220466E81BE
:10C7200000E00DE002F062F950B901212046FF233C
:10C73000CDF808A00022CDE90061044900F0FAF923
:10C740002046BDE8FE4F02F017B90000900100241A
:10C750008C0100242DE9FE4391460E460022074637
:10C760002421012001F0B6FF050023D06C681C22B3
:10C77000D7F804802670002684F80190A680E68011
:10C78000686879680830F4F796F966802046698908
:10C7900000F016F86080FF23D8F80C00002102900A
:10C7A000012002AACDE90060284600F0A9F9284638
:10C7B00002F0E2F8BDE8FE830A460B21FFF7CABF8C
:10C7C00010B501F088F9C04380B210BD70B50024E7
:10C7D0000546264613E06989686801F07CF9204423
:10C7E000010C11FA80F4A87AC00707D0C6F1010045
:10C7F000C6B2E0B2C4F3072141EA00242D68002D3F
:10C80000E9D126B1E0B2C4F3072141EA0024E043B4
:10C8100080B270BD421C12D088B191F829209207D5
:10C820000BD54A68824208D089680A4000EA0103B1
:10C83000934202D10143491C01D0002070470120DE
:10C84000704700002DE9F74F8AB0044614250026F2
:10C850000B98078C60680690C08801F011F9C0F34E
:10C860000C01039100F40050089020891438143F03
:10C8700007971FFA80F9F81707EB5070C0F3CF0045
:10C88000049081E00799894501DC012000E0002047
:10C890000399089AC1F30C0111430591C8B14846A8
:10C8A0001FFA80FB00221421022001F013FF0290E6
:10C8B000A8B1406814220699F4F7FDF80298D0F860
:10C8C00004A06068284460606089401B5D46608108
:10C8D00031E041F4005005900498C000E0E74FF0CB
:10C8E000FF300DB0BDE8F08F6689AE4200D92E460C
:10C8F00006B3062001F0C8FA07004BD06068022298
:10C90000CDE9000603203B46314601F06DFF5FEAAA
:10C91000000843D0204602F0C0F822484146C7E94B
:10C920000404029801F08AFFA81B05042D0C04D012
:10C930002468D9E72468002DD6D10598354600F043
:10C94000A1FFAAF806000BF1140080B200F09AFFD4
:10C95000AAF8020000215046AAF80A101421FFF795
:10C960002FFFAAF80A000B980C9A0299436998477E
:10C97000029802F001F8A9EB0B001FFA80F9DDE93B
:10C980000301084480B20390B9F1000F7FF47AAF3D
:10C990000020A6E7029801F0EFFFA0E7384600F07C
:10C9A00003F8F7E7F9CF00080146062001F02CBA9A
:10C9B0002DE9F05F45680646884604212878B1EBEA
:10C9C000101F0FD100F00F004FF6FF7101EA800435
:10C9D000688801F055F801467089A04202D3308979
:10C9E000884203D2304601F0C7FF4EE0304602F0E5
:10C9F0002DF84148012729694446A0F1040ADFF8CF
:10CA0000FCB081460160EA68CAF8002094F8290069
:10CA1000C0070BD0201D09D0616839B1D9F80000DA
:10CA200088420ED02146FFF7F5FE50B91FB1DBF862
:10CA30000040002700E02468444500D12468002C11
:10CA4000E4D1DAF8000057464146FFF7E3FE00283C
:10CA5000C8D13878BA46C0F303100E28C2D0002CD3
:10CA6000C0D0E88830F0C00005D0304600F0B6F8FD
:10CA700006000AD0756841461F4C3046103CC4E998
:10CA8000018502F0B5F818B12DE00020BDE8F09F57
:10CA9000687A012815D006280ED0112807D0D9F8B9
:10CAA00000004F464146FFF7B5FE78B118E0414619
:10CAB000304605F0BFF916E04146304603F030F944
:10CAC00011E041463046FFF7C7FD0CE03878C0F36F
:10CAD00003100E2804D0022130467560FFF7B8FD20
:10CAE000304601F049FF00206060A060CAF80000F5
:10CAF000C9F80000C9E7000090010024AC0100243F
:10CB00002DE9FE431F46164688468146DDE90A5454
:10CB1000104600F051FA50B100953B46CDE9014076
:10CB200032464146484600F005F8BDE8FE836FF006
:10CB30000300FAE72DE9F84F1700984689460546A5
:10CB4000DDE90BA6DDF828B031D0142101F04EFF4D
:10CB500018B16FF00100BDE8F88F6C6884F80880A8
:10CB600084F809A0386820614520207084F801B05D
:10CB7000288900F087FEDFF860804FF0000A6080AF
:10CB8000A4F806A0B8F8000000F07CFEA080B8F879
:10CB90000000401CA8F80000B9F1000F02D0D9F83D
:10CBA000000000B97068E060A4F80AA003E06868BB
:10CBB0006F4600690090308C40B12989814205D9C7
:10CBC0003A4631462846FFF73DFEC4E773693A46C8
:10CBD000294630469847BEE7800100242DE9F14FF1
:10CBE000002700984468207800F00F0005287CD1C9
:10CBF000E08800F045FFC0044FEA104A608800F06A
:10CC00003FFF217801F00F01494200EB81001FFA3C
:10CC100080F9009801F026FE584D064628883044D9
:10CC20000A2809D93146204600F068F900285CD06E
:10CC3000288830440A2858D8A8466D684FF0000B61
:10CC40000DE06869E168884207D1A86921698842D6
:10CC500003D1A889A188884204D02F462D68002DD1
:10CC6000EFD106E02DB1E08800F00AFFC00424D027
:10CC70002EE0052001F008F905000AD131462046D2
:10CC800000F03CF9B04216DB052001F0FDF805008C
:10CC900011D02021F3F7A8FF0320E877D8F804107B
:10CCA0001422296005F108002146C8F80450F3F762
:10CCB00002FFD5B10CE05D46FBE7E88900F0E0FE3D
:10CCC000C00405D01422214605F10800F3F7F3FE55
:10CCD000B8F800103144A8F80010A079800608D4F4
:10CCE000A87F40F00100A87700E041E00AEB0900CE
:10CCF000A8830099284600F043F8002836D0A88B76
:10CD0000142205F108011430A8836868466830468B
:10CD10003468F3F7D0FEA88B00F0B4FD70801421C6
:10CD2000A6F806B03046A6F80AB0FFF749FD7081B4
:10CD30006FF0130AD5F8049009E066685146204662
:10CD400001F054FE2146484601F078FD3468002C7D
:10CD5000F3D13946284600F087F8484601F082FDB5
:10CD6000B8F80020101AA8F800004846BDE8F88F6F
:10CD7000009801F001FE0020F8E700009401002473
:10CD80002DE9F047D1F80480002401250E4607461E
:10CD9000B8F8020000F074FE014698F8000000F0B8
:10CDA0000F00404201EB8009B8F8060000F068FE71
:10CDB0007268C004030C0020106003EB090093802C
:10CDC0001FFA80F8A2F8068079681DE04868B0F87C
:10CDD00004C063450DD2116044B1B4F806C0634588
:10CDE00032D3808880452FD8266000E07E6069B10C
:10CDF00015E029D0C1888B4226D31CB1E18861455A
:10CE000000D00025016804460029DFD134B1266036
:10CE1000E0889188884202D0002500E07E60B87FDB
:10CE2000C0070DD05DB178684068808830B911685E
:10CE300029B14868D1888288914203D000252846CC
:10CE4000BDE8F0870246F2E7304601F00BFD0146EF
:10CE500004480288511A0180304601F08DFD0020FF
:10CE6000EEE7000094010024074A0B4630B4016845
:10CE70005468844201D1516000E01960014630BC21
:10CE8000052000F0C1BF0000940100242DE9F0410D
:10CE900044680646884600256068818891B9006824
:10CEA0001422706006F108016068F3F704FE0121A6
:10CEB0002046FFF781FC204601F0D4FC05462046C1
:10CEC00001F05AFD74680AE0606827460468384635
:10CED00001F0C8FC284485B2384601F04DFD002C15
:10CEE000F2D141463046FFF7BFFF03480188491B96
:10CEF00001802846BDE8F081940100242DE9F0412D
:10CF0000DFF8688000260F460546002213461446C7
:10CF1000D8F804001AE04169D5F80CC0614509D180
:10CF20008169D5F810C0614504D18189B5F804C084
:10CF3000614507D0641C22B1C17F92F81FC06145D2
:10CF400000D80246016801B1034608460028E2D134
:10CF500022B119461046FFF799FF0644BE4201DA96
:10CF6000012CD2DC3046BDE8F081000094010024A1
:10CF700010B500F00BF8BDE81040034900224FF453
:10CF80007A7002F0B7BA000071CF0008094870B596
:10CF9000002544680BE0E07F20B1401EE077254685
:10CFA000246804E0204624682946FFF76FFF002C20
:10CFB000F1D170BD9401002410B504460C480AE07C
:10CFC00090F82910C90706D08168226843680A4092
:10CFD0000B409A420AD000680028F1D10548006849
:10CFE00018B190F82910C90700D1002010BD000029
:10CFF000AC010024B001002410B50446406908B11A
:10D0000001F0BAFC2046BDE81040FFF7CDBC0EB5DC
:10D01000002502ACFDF789FF00220A231146CDE965
:10D0200000541046FBF7C2F9F4E7000010B5FDF715
:10D030001BFF1149002808701DD00A281BD2DFE809
:10D0400000F01A0507090B0D0F1113150BA00EE0C8
:10D050000DA00CE00FA00AE011A008E013A006E06C
:10D0600015A004E017A002E01AA000E01DA0BDE892
:10D070001040F3F7D9BA10BD240000245331BCFC92
:10D08000B0B4CFC20D0A00005331BCFCB5AFC6F03E
:10D090000D0A00005331BCFCB3A4B0B40D0A00006B
:10D0A0005332BCFCB0B4CFC20D0A00005332BCFCFA
:10D0B000B5AFC6F00D0A00005332BCFCB3A4B0B447
:10D0C0000D0A000053315332BCFCB0B4CFC20D0A7C
:10D0D0000000000053315332BCFCB5AFC6F00D0A5E
:10D0E0000000000053315332BCFCB3A4B0B40D0AAD
:10D0F000000000000EB5002502ACFFF797FF0022EC
:10D100000A231146CDE900541046FBF74FF9F4E726
:10D1100010B5F3F788F90A4C002240212046F6F7B3
:10D12000CFFC6420FEF702FC012220464021F6F7E6
:10D13000C7FC6420FEF7FAFBBDE81040F3F775B9B1
:10D14000000002582DE9FC41012506460C240F463B
:10D150001422052011460223CDE90045F9F734FDDC
:10D16000022314211120CDE90045F2B2F9F72CFD7C
:10D1700028A00C2314211A46CDE900401D20F9F700
:10D18000D9FC022314212920CDE90045C6F307224A
:10D19000F9F71AFD1FA00C2314211A46CDE900400F
:10D1A0003520F9F7C7FC022314214120CDE90045C1
:10D1B000C6F30742F9F708FD022314215220CDE9F6
:10D1C0000045FAB2F9F700FD13A00C2314211A460A
:10D1D000CDE900405E20F9F7ADFC022314216A205E
:10D1E000CDE90045C7F30722F9F7EEFC0AA00C23AE
:10D1F00014211A46CDE900407620F9F79BFC022362
:10D2000014218220CDE90045C7F30742F9F7DCFC81
:10D21000BDE8FC812D0000003A0000001CB50F4B5A
:10D220004FF6FF721A8044F69C420D4B1A80FFF7AE
:10D2300089FF0CA10C20F0220346CDE90001052155
:10D240000846F9F777FC0EA11820F0220346CDE935
:10D2500000013C212820F9F76DFC1CBD26000024AC
:10D26000280000244D41474943204355424520545E
:10D270004543482046573A302E302E3500000000F6
:10D2800053544D3332483720544F4F4C5300000015
:10D2900008B5034A642300921A46F9F771FC08BDE9
:10D2A000DA6C0108024800224FF48061F6F708BCEE
:10D2B00000180258012202489102F6F701BC000052
:10D2C000001802580EB5084C002502AE20686168AF
:10D2D000FFF7A4FF002264231146CDE90056104653
:10D2E000FBF764F8F2E700002A00002446211CB591
:10D2F0000846FFF7CDFFFFF7DDFF0C494FF6FF7043
:10D30000F022088044F69C400949088009A11020B9
:10D310000346CDE90001AA213C20F9F70BFCBDE84A
:10D320001C404FF47A60FEF701BB00002600002489
:10D33000280000244D6167696320437562652054AD
:10D34000656368002748F0B5016887B041F00201C5
:10D350000160016801F002010591016841F040019E
:10D3600001600068012402251F4F00F04000059075
:10D3700010206946CDE90004CDE902453846F6F7AC
:10D38000B7FA002238461021F6F79AFB802069464A
:10D39000CDE90004CDE902453846F6F7A9FA0022A6
:10D3A00038468021F6F78CFBA6026946CDE9006479
:10D3B000CDE902450D4C2046F6F79AFA0022314697
:10D3C0002046F6F77DFB002238468021F6F778FBF1
:10D3D0007820FEF7ABFA012238468021F6F770FB81
:10D3E00007B0F0BDE044025800040258001802588B
:10D3F0000EB5094E002502AC4FF4FA7730460121F4
:10D40000F6F75AFB00223B46CDE900541146104680
:10D41000FAF7CCFFF2E70000000402582DE9F047CC
:10D420000546DFF8F4800024DFF8F0900620DFF8EE
:10D43000F0A09AB085F822003648274626460178A3
:10D4400085F82310417885F82410817885F8251017
:10D45000C17885F82610017985F82710407985F87C
:10D46000280040F2DC50288495F8290040F0320072
:10D4700085F82900C4EB841000EBC411294800236F
:10D4800008EBC1022146F5F770FD04EB8402641C31
:10D490000AEB8201042CC1F81090EBD32048342110
:10D4A0003438F3F7A1FB1E482121343801604FF4D2
:10D4B0004031416100210161F9F77AF94FF40052DE
:10D4C0005100022806D0032806D0042807D00528DA
:10D4D00009D106E0164600E000260F4603E0164696
:10D4E00000E0002600270F486946F5F75CFD0D486F
:10D4F0006946CDE90576F6F7B8F80A48F6F7FEF87A
:10D50000284601F0D7F8284601F0C0F81AB0BDE867
:10D51000F0870000CCF5022400020430D9E90008AD
:10D5200010F70224DC26002430B587B0144800250B
:10D530000595F5F793FF00281ED0FCF705FD104870
:10D5400002A9F5F716FE0E4805A9F5F764FE059841
:10D550000C4C81B202980C4ACDE90001206800EB26
:10D56000800002EB80030322104601F03DF92168A0
:10D57000032903D2491C216007B030BD2560FBE7B9
:10D58000DC2600247C01002410F70224F0B50022E0
:10D590008DB0104614466D46164618E0042A03D393
:10D5A0006FF00E000DB0F0BD02EB42034F6845F87E
:10D5B000237005EB83034F895F604F8938440AB1BC
:10D5C00043F8043C0F6807B99E60521C09680029A3
:10D5D000E4D10649C1E90105FCF7B6FC0349002284
:10D5E0000348F6F7E6F82046DCE70000DCF6022404
:10D5F000DC260024124970B50968C0248471A8256E
:10D60000C5710222027268234372002302700E0C5D
:10D6100043708370C6700E0A067141711E218472B8
:10D62000C57202734173FF218173C17301740121BB
:10D6300043748474C57402754175837570BD0000B0
:10D6400000E8F11F30B5002487B000F0FFF810B1FA
:10D65000022007B030BD4048FFF7CCFF07E0641C54
:10D66000E4B2052C03D900F0E3F80320F1E7FDF75D
:10D6700067FC0028F3D139480088032868D10021CD
:10D68000084604F0A3FA344C617BA07AE27A40EABF
:10D690000160217B090441EA022108430390617C77
:10D6A000A07BE27B40EA0160217C090441EA02217F
:10D6B00008430490617DA07CE27C40EA0160217D0A
:10D6C000090441EA02210843059062792179E07852
:10D6D0008DE80700A37822A062782178F2F7A4FFF2
:10D6E000607B00902CA0237BE27AA17AF2F79CFF6A
:10D6F000607C009034A0237CE27BA17BF2F794FF56
:10D70000607D00903CA0237DE27CA17CF2F78CFF41
:10D71000F2F7C8FE0546F4F775FF434A0020434977
:10D7200005AB8DE8070004AA03A904F1180000F076
:10D7300039FF0446F4F776FF2846F2F7B7FE4CB1FE
:10D740000548183000F064FF0348183000F0B2FFBD
:10D7500000207EE704207CE7CCF502240A000024A8
:10D76000CDF8BFA8656EB5C44D4143B5D8D6B7CE88
:10D77000AA3A2E2E2E2E2E2E2E2E2E2E2E2E2E2E41
:10D780002E2E25642E25642E25642E25642E2564D8
:10D790002E25640D0A000000BEB2CCAC4950B5D8AD
:10D7A000D6B72E2E2E2E2E2E2E2E2E2E2E2E2E2E68
:10D7B0002E2E2E2E2E2E2E2E2E2E25642E25642E2F
:10D7C00025642E25640D0A00D7D3CDF8D1DAC2EB3B
:10D7D0002E2E2E2E2E2E2E2E2E2E2E2E2E2E2E2E69
:10D7E0002E2E2E2E2E2E2E2E2E2E25642E25642EFF
:10D7F00025642E25640D0A00C4ACC8CFCDF8B9D875
:10D800002E2E2E2E2E2E2E2E2E2E2E2E2E2E2E2E38
:10D810002E2E2E2E2E2E2E2E2E2E25642E25642ECE
:10D8200025642E25640D0A00151C0108E5C50008B5
:10D8300010B5054C0020216800F0E0FB6168002075
:10D84000BDE8104000F0DABB7001002400204FF466
:10D850007A6110B500F0DEFB084C4FF48061206067
:10D86000002000F0D7FB6060216811B108B10020F2
:10D8700010BDFFF7DDFF012010BD00007001002486
:10D8800000BA704740BA704710B501F03CFD00F097
:10D89000BFF900F0CDFA00F0A9FE00F01BF904F08A
:10D8A000C7FA02F03BFABDE8104001F051BE00009B
:10D8B00030B5002187B0084604F088F9354C617B0B
:10D8C000A07AE27A40EA0160217B090441EA022160
:10D8D00008430390617CA07BE27B40EA0160217CED
:10D8E000090441EA022108430490617DA07CE27CA6
:10D8F00040EA0160217D090441EA022108430590C4
:10D9000062792179E0788DE80700A37822A0627817
:10D910002178F2F789FE607B00902DA0237BE27ACC
:10D92000A17AF2F781FE607C009035A0237CE27B37
:10D93000A17BF2F779FE607D00903DA0237DE27C23
:10D94000A17CF2F771FEF2F7ADFD0546F4F75AFE41
:10D95000434A0020434905AB8DE8070004AA03A908
:10D9600004F1180000F01EFE0446F4F75BFE2846A2
:10D97000F2F79CFD4CB10748183000F049FE05480D
:10D98000183000F097FE07B030BD37A0F2F74CFE1C
:10D99000F9E70000CCF50224CDF8BFA8656EB5C448
:10D9A0004D4143B5D8D6B7CEAA3A2E2E2E2E2E2EC6
:10D9B0002E2E2E2E2E2E2E2E2E2E25642E25642E2D
:10D9C00025642E25642E25642E25640D0A00000092
:10D9D000BEB2CCAC4950B5D8D6B72E2E2E2E2E2E98
:10D9E0002E2E2E2E2E2E2E2E2E2E2E2E2E2E2E2E57
:10D9F0002E2E25642E25642E25642E25640D0A0006
:10DA0000D7D3CDF8D1DAC2EB2E2E2E2E2E2E2E2EDF
:10DA10002E2E2E2E2E2E2E2E2E2E2E2E2E2E2E2E26
:10DA20002E2E25642E25642E25642E25640D0A00D5
:10DA3000C4ACC8CFCDF8B9D82E2E2E2E2E2E2E2E19
:10DA40002E2E2E2E2E2E2E2E2E2E2E2E2E2E2E2EF6
:10DA50002E2E25642E25642E25642E25640D0A00A5
:10DA6000151C0108E5C500086E6574696620696EBD
:10DA70006974206661696C0D0A00000000BA704785
:10DA800040BA70470148FEF7C1BD0000E4F502242A
:10DA900038B504460D460846F2F7EEFF0246294621
:10DAA000002000902068012300F034FD040002D023
:10DAB00002A0F2F7B9FDE0B238BD00004C57495062
:10DAC0002053656E642044617461204661696C0D69
:10DAD0000A000000704718B5002210F00103ADF8ED
:10DAE00000200BD0002909DD10F8014B491E8DF8EC
:10DAF000014003E030F8024B891E22440129F9DC81
:10DB0000002902DD00788DF80000BDF80000104407
:10DB1000010C11FA80F0010C11FA80F023B1C1B2AE
:10DB2000C0F3072040EA012080B218BD1E4904203E
:10DB300010B58AB00860F9F7B5F8F4F7C3FDF5F74A
:10DB4000D3FF042302220521A020FCF7EBFA09A849
:10DB5000F9F78AF9FDF740FCF2F7A4FC0446F4F764
:10DB600051FD09A8114B0021059103220691CDE931
:10DB7000072080200C220292CDE9030114200C4AD8
:10DB8000CDE9000309480B460AA1C838FAF76CF83A
:10DB9000F4F748FD2046F2F789FC09A8F9F768FF79
:10DBA0000AB0002010BD00009CEF00E054160024D5
:10DBB00055EF00087374617274207461736B000018
:10DBC00070B504001FD0104D2868844202D36868E5
:10DBD000844205D3F2F766FCBDE87040F2F766BCFC
:10DBE0000A48002101F05BFBA4F10800002101714B
:10DBF000A968884200D2A86000F09EFFBDE870408E
:10DC0000024801F01DBC70BD9C010024F4350324C2
:10DC10000C484FF47A530C4A20F0030130B400242E
:10DC2000116001F57A500B804C800C71012450601A
:10DC30000471038043809160214630BC034801F0A9
:10DC4000DFBB000063F702249C010024F4350324A9
:10DC50002DE9F04100280DD0C01C4FF6FC7100EA00
:10DC600001050C2D4FF47A5601D20C2504E0B54283
:10DC700002D90020BDE8F0812748002101F00FFB08
:10DC8000DFF898E0C5F57A52DEF80870DEF800009B
:10DC9000391A89B239E044182379A3BB23885B1A67
:10DCA000083BAB4230D3228805F114034FF0010C3E
:10DCB000521A083A9A4211D34A19083293B2C2183A
:10DCC00000251571258815805180238084F804C0B3
:10DCD0001188B14204D0821C8B5201E084F804C048
:10DCE000BC4202D009E039880F18397919B1DEF841
:10DCF00004108F42F7D1CEF80870074801F0A0FB5E
:10DD000004F10800B6E7FFE7415A8A42C3DC024843
:10DD100001F096FBADE70000F43503249C010024DC
:10DD20002DE9F047C91C07464FF6FC7001EA0004D4
:10DD30000C2C4FF47A5A01D20C2401E0544517D828
:10DD40002F490868874202D34A68974204D3F2F702
:10DD5000A9FBF2F7ABFB10E0A7F108058846281AEB
:10DD600086B22888801B08381FFA80F94C4503D9F1
:10DD70004FF00000BDE8F08701D13846FAE72148AE
:10DD80004FF0000101F08BFA28884246D8F80010C5
:10DD9000002300EB010898F80400D0B104F114004E
:10DDA000484512D83019D2F808C0083084B2081992
:10DDB000604500D2906003712A88028046802C80E2
:10DDC0000088504501D0891C44520E4801F038FBB0
:10DDD000D3E7301994680830B8F800C080B24445E1
:10DDE00001D10C1894600A181371A2F800C0568073
:10DDF000288012885245E8D0891C5052E5E700007F
:10DE00009C010024F435032470B5002905460CD08C
:10DE10000C46F2F747FB054951F82520226041F8EE
:10DE20002540BDE87040F2F741BB70BD1C360324AD
:10DE3000F0B50020401C80B20E28FBD31048104CD7
:10DE400020F003010F4E00203B3C074606F11C0565
:10DE5000002244F8207009E054F82030521C0B6076
:10DE600092B244F8201036F81030194435F81030CA
:10DE70009342F1D8401C80B20E28E9D3F0BD0000D7
:10DE8000573603249CBB010870B50E28054601D304
:10DE9000002070BDF2F706FB054951F8254014B18A
:10DEA000226841F82520F2F701FB204670BD0000F2
:10DEB0001C360324134A70B5131893F8203093B11D
:10DEC000114B53F820308B421AD90F4B02EB8002D2
:10DED0000C3B53F820305069B1FBF3F150F821406E
:10DEE0000020034608E011688847012070BD55698D
:10DEF0000E18401C45F82630A042F8DB002070BD0B
:10DF0000022070BD6800002424BB010830B504461F
:10DF10000748084D002150F82400820005EB8400DA
:10DF2000406900F087F80120291981F8200030BDF0
:10DF30000CBB0108680000242DE9F0411E4E0024AE
:10DF400005460F46701990F8200010B93168284630
:10DF500088474FF0FF326FB3184B53F82510B7FBCB
:10DF6000F1FCB7FBF1F001FB1C7101B1401C13493E
:10DF70000C3951F82510491E1CD406EB850677692B
:10DF800057F821C0BCF1000F04D0002484420FD107
:10DF9000002206E0641CF9E774698F18521C44F8EB
:10DFA00027008242F8D353F825004843BDE8F081AA
:10DFB000491EE5D51046F9E76800002418BB0108A2
:10DFC0000C4B002210B50C4C114653F8203004EBDA
:10DFD000800005E0446954F8214004B1521C491CFA
:10DFE0008B42F7D84FF47A704243B2FBF3F080B221
:10DFF00010BD00000CBB010868000024002906D0F9
:10E00000034A02EB80029268891AFFF753BF7047F8
:10E010006800002410B50446FFF78EFF411C05D0B0
:10E02000034901EB84018968084410BD002010BD3C
:10E030006800002401E000F8011B521EFBD270476B
:10E0400010B504000CD0206820B100F095FC002031
:10E05000606020602146BDE810400720FFF7D4BE75
:10E0600010BDF8B50D0004466FF00D0621D000205C
:10E070002860F4B104F16400074601F0ADF9C0B1C5
:10E0800094F90800761DB04212DBD4F89820694656
:10E09000384601F0BFF8401C0DD0D4F8A8301BB1B1
:10E0A0000022204601219847009868B1286000208E
:10E0B000F8BD3046F8BDF2F7F5F994F908106FF0A5
:10E0C000020507E0257207E0F2F7ECF994F9081071
:10E0D0006FF00905B142F5DAF2F7E8F92846F8BD24
:10E0E0002DE9F0410E4607460820FFF7CDFE041E3D
:10E0F00026D00025257207F0F000277010286560F3
:10E1000008D0202803D0402815D1002703E04FF481
:10E11000FA6700E0142704F10C000021804601F0AA
:10E120006FF940B904F13400394601F0F9F848B10B
:10E13000404601F05FF908202146FFF765FE002008
:10E14000BDE8F08104F1640001F028F965704FF03A
:10E15000FF30C4E92956C4F8A050C4E9250520467B
:10E1600084F89C50ECE7000030B5040087B016D06E
:10E170000C48CDE9000468460391ADF8102003F087
:10E1800005FD0546F2F78EF994F9081011F1090F13
:10E1900000DB2572F2F78AF9284607B030BD6FF030
:10E1A0000D00FAE7C1B90008032100F001B8000032
:10E1B00030B5040087B015D00C48CDE9000468469E
:10E1C0008DF80C1003F0E2FC0546F2F76BF994F9B8
:10E1D000081011F1090F00DB2572F2F767F92846E4
:10E1E00007B030BD6FF00D00FAE7000013BA000869
:10E1F00010B5040086B008D00548CDE90004684693
:10E2000003F0C4FC204600F04DF806B0002010BD1D
:10E2100065BB0008F8B504463430064601F0DCF86A
:10E2200030B911E02078102829D00098FFF708FFB6
:10E230006946304601F030F8401CF3D1304601F019
:10E2400063F8304601F0AAF804F16400064601F0D4
:10E25000C3F8002825D000256946304601F01CF897
:10E26000401C18D0009C2046FFF7D4FF606810B116
:10E2700001F01EFA6560204600F014F8ECE7009DFE
:10E28000002DD5D0606810B1298902F0EAFD28463A
:10E2900000F072FBCCE7304601F036F8304601F072
:10E2A0007DF8F8BD70B50446343001F095F804F1FE
:10E2B000640001F091F804F10C00054601F09AF8B1
:10E2C000284601F0B1F82146BDE870400820FFF76C
:10E2D0009BBD000030B5040087B06FF00D0019D071
:10E2E000002917D0002A15D00B48CDE90004CDE94C
:10E2F000031268468DF8143003F048FC0546F2F727
:10E30000D1F894F9081011F1090F00DB2572F2F72A
:10E31000CDF8284607B030BD01BC000830B5040078
:10E3200087B013D00B48CDE90004684603F02EFCFB
:10E330000546F2F7B7F894F9081011F1090F00DB60
:10E340002572F2F7B3F8284607B030BD6FF00D0024
:10E35000FAE700006DBC000870B586B00D461146A6
:10E36000FFF7BEFE040023D01248009068468DF8E7
:10E370000C50019403F00AFCD0B104F10C000546E6
:10E3800001F064F804F13400064601F025F804F1C8
:10E39000640001F021F8284601F02CF8304600F026
:10E3A000B3FF08202146FFF72FFD002006B070BD07
:10E3B0002046FBE71DBD0008F8B50E0005466FF0CE
:10E3C0000D0013D000273760002D0FD005F1340069
:10E3D00001F002F840B12878102808D031462846CC
:10E3E000BDE8F84000F02CB86FF00C00F8BD072035
:10E3F0000097FFF749FD04000BD06946284600F05E
:10E400001FF8050013D007202146FFF7FDFC284622
:10E41000F8BDF2F747F895F908104FF0FF3411F105
:10E42000090F00DB2C72F2F741F82046F8BD009886
:10E430002060009860600020A781A7603460F8BD6C
:10E44000F0B587B004460D004FF000006FF00D01ED
:10E4500000901BD02860CCB104F13400074600F0D6
:10E46000BBFFB0B194F908006FF00806B0420EDBB4
:10E47000D4F898206946384600F0CCFE401C0BD0FA
:10E480002078102811D00098006822E0084607B0D4
:10E49000F0BD6FF00C00FAE7F2F704F894F90810F9
:10E4A0006FF002052DE025722DE094F89C00000726
:10E4B00001D5009868B91648CDE90104009808B163
:10E4C000008900E00120049001A803F05FFB0098A0
:10E4D00050B10289D4F8A83013B1012120469847E1
:10E4E000009828600020D2E7D4F8A8301BB10022A1
:10E4F000204601219847F1F7D5FF94F908106FF0F5
:10E500000B05B142CFDAF1F7D1FF2846BFE7000093
:10E510003DBD00082DE9F04186B0174604000C9D72
:10E5200005D020786FF00502102822D104E06FF0AA
:10E530000D0006B0BDE8F0813FB194F89C00800763
:10E5400001D4580703D5012002E00020F1E70020A4
:10E550005FEA000800D065B11148CDE900046846C3
:10E5600003918DF81430049703F010FB060002D0DD
:10E5700009E01046DDE735B1B8F1000F02D004988C
:10E58000286000E02F60F1F78DFF94F9081011F179
:10E59000090F00DB2672F1F789FF3046C9E700005A
:10E5A00081BD00082DE9F041044606A890E8E0008E
:10E5B00000206060A060E06084F82900E5610A4DF9
:10E5C000287884F82C00401C28702046276100F031
:10E5D0000EF82046B04710B10020BDE8F081686811
:10E5E000206020466C60F8E7A8010024704770B5F1
:10E5F0001D461646044600F015F83146204600F048
:10E6000055F829462046BDE8704000F007B80000E4
:10E610000149886070470000A801002401B1096821
:10E62000C160704770B50C00054628D02068696845
:10E6300088421ED01348006809E001686A68914268
:10E6400004D1C66801F034F8304600E0C068002804
:10E65000F3D10D48006809E007D0016829B16A6864
:10E66000914202D144B121680160C0680028F3D111
:10E670002CB12068686070BD4FF00001F4E74FF0E6
:10E680000000F7E7D0010024CC01002490F8291005
:10E69000CA060AD441F0100180F82910CA0704D034
:10E6A000890602D5011DFDF7D1BE704701B1096889
:10E6B0008160704790F82910CA070AD141F0010122
:10E6C00080F82910CA0604D5890602D5011DFDF778
:10E6D000BDBE70472DE9F04717460D4630B1012801
:10E6E00006D0022806D0032850D105E0362604E0E3
:10E6F000222602E00E2600E000264FF001094FF02E
:10E700000008EFB3012F5DD0022F5BD0032F3DD166
:10E710000D20FFF7B9FB041E39D0A0192773133061
:10E72000414620F00300F61CC4E9008026F00300F7
:10E730002581C0F50070A84200DD284660812D1AB1
:10E7400026464FF4007A8846A4F80E9016E00D2075
:10E75000FFF79AFBB8B10773A9B280F80D80514555
:10E76000C0F800803060018100D35146418100F142
:10E77000100242606D1A0646A0F80E90002D00E0CF
:10E7800007E0E4DC2AE0204600F0F6F80020BDE8CF
:10E79000F08706F1130020F00301E81C20F00300CD
:10E7A000084480B2FFF754FA041EF0D0A0191330C9
:10E7B00020F00300606025816581C4F8008084F842
:10E7C0000C800BE00C20FFF75FFB041EDFD0C4F8C9
:10E7D000048025816581C4F8008027732046A4F851
:10E7E0000E9084F80D80D2E770B5DDE9044530B1B4
:10E7F000012806D0022806D003280DD105E03620D6
:10E8000004E0222002E00E2000E00020C01C20F0E6
:10E8100003004618AE4201D9002070BD00251D60DE
:10E8200014B12044586000E05D600220587301205C
:10E83000198159811A73D881184670BD002810B506
:10E840000FD000290DD004E003890C8923440381F3
:10E8500010460268002AF7D102890B891A44028106
:10E86000016010BD002102E00068491CC9B2002807
:10E87000FAD1084670472DE9F0474FF000070C46E3
:10E8800005003E466FF00D0932D07CB328892189FE
:10E8900088422DD36FF0050A68896189C01B891BE6
:10E8A000884201DB88B200E080B280466068424660
:10E8B000811968683844F2F7FEF807EB080087B260
:10E8C00006EB080086B26089B04201D824680026B1
:10E8D0006889B84202D12D68002745B15CB16089D2
:10E8E0002189884207D1206860B904E000E06CB15A
:10E8F0004846BDE8F0873DB168892989884203D13F
:10E90000286808B15046F4E7002CC5D10020F0E794
:10E910002DE9F0470028164689464FF0000806D03A
:10E92000B9F1000F02D00027044620E00020BDE826
:10E93000F0872BB16089984202D8181A83B215E08B
:10E940006089C01A85B2B54200D9354660682A464A
:10E95000C11809EB0700F2F7AEF808EB05001FFA43
:10E9600080F8781987B2701B86B2002324680EB134
:10E97000002CDED14046DAE770B504000AD000264C
:10E98000F1F790FDE189491E8DB2E581F1F78EFD29
:10E9900015B117E0002070BD617B207B25688907D9
:10E9A00003D521692046884708E003280CD00128B8
:10E9B0000DD002280BD02046FFF702F9761C2C0060
:10E9C000F6B2DDD1304670BD0D20214601E00C20AD
:10E9D0002146FFF719FAF1E7002806D0002141731C
:10E9E000016001814181C1814160704710B541B131
:10E9F00038B1002907DA4A4293B242899A4223D3B6
:10EA000002E0002010BD8BB2027B446832B1032AC1
:10EA100004D0022A0AD0012A08D015E0621A426006
:10EA200000F110039A4208D244600DE000290BDA8D
:10EA300042899A4208D3621A426042890A4442815A
:10EA4000028911440181DCE7012010BD70B5028903
:10EA50008A4221D98A1A0D46044605E0281A85B251
:10EA600020891044208124686089A842F6D3207B45
:10EA700050B96089A84207D0A088001B284481B201
:10EA80002046FFF74DF9044665812581206808B1CD
:10EA9000FFF772FF0020206070BD10B5040008D0A1
:10EAA000F1F700FDE189491CE181BDE81040F1F773
:10EAB000FDBC10BD70B5044600684FF0FF3500780E
:10EAC00000F0F000102827D0202812D0402802D0D3
:10EAD000FA20207170BD207A00F0C4F821684860E7
:10EAE000226820B1BDE87040114900F0D1B825710D
:10EAF00070BD03F037FA2168002848602168F6D01D
:10EB00000978222901D1012101742268094950683C
:10EB1000BDE8704003F033BA01F05AFB21680028C9
:10EB200048602168E3D0BDE87040084600F0F0B9C5
:10EB3000EDEC0008DBED000830B5134C01882268CD
:10EB4000931C114488420DD00D795DB96568A942C6
:10EB500008D0A5688D4200D1A0600D880580851A77
:10EB60000988CD524188114481420BD00D79002D86
:10EB700008D1A568854200D1A16004880C80891A5B
:10EB80000088C15230BD00009C01002410B504462D
:10EB90004078012802D0042804D006E02046FDF782
:10EBA00012F902E02046FCF75FFF94F89C10C806BB
:10EBB00016D56068A0B1B0F8662040F669339A4275
:10EBC0000ED9B0F8680005280AD221F0100084F8A8
:10EBD0009C00D4F8A8301BB100222046022198479F
:10EBE000002010BD01B109680160002070470000DD
:10EBF0002DE9F047DFF8609007464068002635466B
:10EC0000D9F8004090F8098021E0217C41451BD1D2
:10EC10002CB1206818B111490968884214D1D4F880
:10EC200014C0BCF1000F0FD00D4B3A46A06921462D
:10EC3000E04748B10027012635B1E068E860D9F81F
:10EC40000010E160C9F800402546E4680EB9002CC8
:10EC5000DBD13046BDE8F087B401002490010024E8
:10EC60008C01002470B505460020FFF70DF9040063
:10EC700009D01C21F1F7B8FF2574FF20A0720348CA
:10EC80000168E1600460204670BD0000B40100240A
:10EC9000C0E905127047000009490A68824209D19B
:10ECA000D2680A6008E0D16819B1814201D1C16817
:10ECB000D1600A46002AF6D101460020FFF7A4B829
:10ECC000B401002408481521017009214170162162
:10ECD00081700321C170082101711E214171002141
:10ECE0008171C171704700002A0000242DE9F041B4
:10ECF000060014460F4631D006F13400804600F07D
:10ED00006BFBF8B1218900220320FFF7E3FC05002B
:10ED100024D02146FFF7AFFDA8B90720FFF7B4F8CC
:10ED2000040010D00F482146256065600068A0608F
:10ED3000387CA08140462D8900F03CFB38B120464C
:10ED4000FFF77EF90AE02846FFF716FE06E0D6F840
:10ED5000A8301BB100212A46304698470020BDE864
:10ED6000F08100008C0100242DE9F04104001E46D2
:10ED700015460F4612D004F13400804600F02CFBFB
:10ED800080B1F1F78FFB94F9081011F1090F00DB46
:10ED90002672F1F78BFB75B12E890DE06FF005003F
:10EDA000BDE8F081BDB12989384602F05AF82846FD
:10EDB000FFF7E2FD0FE000262946404600F0FAFA90
:10EDC00010B14FF0FF30EBE7D4F8A8301BB10021B1
:10EDD0003246204698470020E2E72DE9F04705003B
:10EDE0001F461646DDF820801CD005F13400814610
:10EDF00000F0F2FAB0B10720FFF746F8040011D096
:10EE0000266066609FB138682146A0604846A4F835
:10EE10000C80368900F0CEFA58B12046BDE8F047A4
:10EE2000FFF70EB93046BDE8F047FFF7A5BD00205B
:10EE3000EAE7D5F8A830002B05D032462846BDE8D1
:10EE4000F04700211847BDE8F0870000184C8AB051
:10EE5000002608AF64210020FFF7DCF800220546F9
:10EE6000144802A9F6F78CFC9DF8080000222071D6
:10EE700007A99DF8090060719DF80A00A0710D486E
:10EE8000F6F75CFC9DF81F00294620709DF81D00D8
:10EE900060709DF81E00A0700020FFF7AFF8002200
:10EEA00096231146CDE900671046F9F77FFAD1E7BE
:10EEB0002A000024B826002470B504464078154680
:10EEC000012802D0042804D006E02046FCF77BFF8E
:10EED00002E02046FCF7C8FDC4B16068B0B1B0F8EC
:10EEE000661040F66932914210D9B0F868000528E2
:10EEF0000CD294F89C0020F0100084F89C00D4F808
:10EF0000A8301BB102212A4620469847002070BD38
:10EF100010B544680146204600F050FC09492046DF
:10EF200001F08BFF0849204602F0BCF80749042293
:10EF3000204601F08DFB20460549BDE8104000F059
:10EF4000D0BD000069ED0008B9EE00088DEB0008A7
:10EF5000E5BE00082DE9F0438BB0F3F7E9FA09A804
:10EF6000F8F720FEF3F730FB012109AA0846F8F76D
:10EF7000DFFBF1F797FA8146F3F744FB032741499A
:10EF800000244FF080080C25059410200494CDE94E
:10EF9000064709AE08968DE823013A483BA13A4A54
:10EFA0002346C838F8F760FE3B490920CDE90647FB
:10EFB00008960023059404948DE82301364838A16F
:10EFC000364AC838F8F750FE39490A20CDE90647D5
:10EFD00008960023059404948DE82301344836A153
:10EFE000344AC838F8F740FE01A83749CDE906474A
:10EFF000089600230594049480E82201324834A145
:10F00000324AC8380095F8F72FFE37490F20CDE96E
:10F01000064708960023059404948DE8230132489E
:10F0200033A1324AC838F8F71FFE35490E20CDE922
:10F03000064708960023059404948DE82301304880
:10F0400031A1304AC838F8F70FFE35490D20CDE917
:10F05000064708960023059404948DE82301304860
:10F0600031A1304AC838F8F7FFFD344809A9FAF74A
:10F07000FDFAF3F7D7FA4846F1F718FA0BB0BDE8F6
:10F08000F08300008C130024F1D300086C65642029
:10F090007461736B00000000DC020024F5D00008EE
:10F0A0006B6579207363616E207461736B0000007F
:10F0B000A40500240FD000086B6579206465746591
:10F0C0006374207461736B006C0800244520010890
:10F0D000776966692061702073746120726576209B
:10F0E0007461736B00000000C41000244DEE000832
:10F0F00072746320757064617465207461736B0051
:10F10000FC0D0024C5D200086C6364206469737030
:10F110006C617920757064617465207461736B0033
:10F12000340B002445FB000874637020686F742062
:10F1300073776170207461736B0000008C1500247C
:10F140000EB5002241F6B05510201146FFF704F924
:10F15000204CE0604068017A41F0080101721EA075
:10F160002946F1F761FA1F492A46E068FEF7FCFFDD
:10F17000E068FF21FFF7D2F8E0680A2501264FF08A
:10F18000000802AF4FF4FA79C0F898501149E068CE
:10F190001031FEF766FF98B92670E068C0F8985005
:10F1A0002069FCF74FF958B10FA0F1F73DFA20693B
:10F1B000FEF7FAFF2069FFF71BF810A0F1F734FA09
:10F1C00000224B46CDE9008711461046F9F7EEF8CC
:10F1D000DCE7000054000024706F7274313A25643B
:10F1E0000D0A000098BB0108BDA8C1A2D0C2C1ACE5
:10F1F000BDD3CAA7B0DC0D0A00000000D2D1B6CF43
:10F20000BFAAB2A2C9BEB3FDD0C2C1ACBDD30D0A64
:10F21000000000002DE9FF474FF47A780E46814642
:10F2200032B140464243B2FBF8F414B9012400E085
:10F23000002402A8F9F71CF90546214602A8002778
:10F2400003AB3A46CDE900704846F8F751F92EB1C4
:10F250001049884201D1376000E03060BDF80800F5
:10F26000A0F5E441D93906D002A8F9F701F9A8427E
:10F2700006D3401B06E04FF0FF3004B0BDE8F08736
:10F28000E94308444FF47A714843B0FBF8F0401C5E
:10F29000F3E7000028BC01080122FFF7BBBF2DE9FE
:10F2A000FC414FF47A76074631B130464143B1FB19
:10F2B000F6F414B9012400E0002401A8F9F7D8F805
:10F2C0000023054601A81A46214600903846F8F763
:10F2D00023FBBDF80400A0F5E441D93906D001A80C
:10F2E000F9F7C6F8A84205D3401B05E04FF0FF3000
:10F2F000BDE8FC81E94308444FF47A714843B0FB10
:10F30000F6F0401CF4E7704738B504466946F8F754
:10F31000CDF801216A462046F8F75AF838BD0000BA
:10F32000142908B500DD14216B468AB204A1F8F750
:10F3300023F8BDF80000002801D04FF0FF3008BDD1
:10F340004C57495020517569756500002DE9FE4301
:10F350000E0080464FF0000400D10F4E002702AD92
:10F360003046F1F789FB82B23146002340460095D2
:10F37000F8F75CF9BDF8080000280BD0641C0022E7
:10F3800005231146CDE900751046E4B2F9F70EF8F1
:10F390000A2CE5D3BDE8FE8328BC010810B504465D
:10F3A00000F01AF8002804D02046BDE81040FFF70E
:10F3B000ABBF10BD1CB501B9064901AA00230092DC
:10F3C0000422F8F733F9BDF80400002801D04FF00B
:10F3D000FF301CBD28BC010810B54068002805D0CE
:10F3E00003A1F1F753FC002800D0012010BD00005C
:10F3F0003F51000008B501216A46F8F71FFA08BD21
:10F4000008B56B460A4605A1F8F7EEF9BDF800000D
:10F41000002801D04FF0FF3008BD00004C57495084
:10F420002053656D0000000010B5044600F00EF892
:10F43000002804D02046BDE81040FFF7DBBF10BD18
:10F4400008B500216A46F8F7F9FA08BD10B540681A
:10F45000002805D003A1F1F719FC002800D00120F5
:10F4600010BD00003F53454D00000000F0B58BB0CB
:10F470001C460F4614A1109EF1F708FC08BBF1F7DB
:10F4800011F80546F3F7BEF80A20B4FBF0F109AA1B
:10F490000020059003230690CDE907320E4A002391
:10F4A000126802910DA1CDE90340F0B2CDE900024E
:10F4B0000F483A46F8F7D8FBF3F7B4F82846F0F7C8
:10F4C000F5FF0BB00020F0BD74637069705F746865
:10F4D00072656164000000007001002454435049CB
:10F4E00050546872656164207461736B00000000A1
:10F4F0006076032470B515460E4604460B20FEF7D1
:10F50000C3FC00280DD0114B0021C56080E85200DB
:10F51000196829B14A68A24210D9121B4A600160D9
:10F52000186070BD54689C4207D9536844681B1B1F
:10F5300053600A680260086070BD114642684B68FB
:10F54000D31A43600A68002AF3D0EBE7F8010024DD
:10F55000074900224FF47A7010B5FFF7CBFFBDE8E2
:10F5600010400449002241F28830FFF7C3BF000079
:10F5700071CF0008A9AC00082DE9F047164D884668
:10F5800081464FF0FF37286830B142685AB1414692
:10F590004846FFF73FFE07E041464846BDE8F047D2
:10F5A0000022FFF737BE3846411C296804D04A685C
:10F5B00082420DD9101A0CE0086828600B20D1E9AE
:10F5C0000246FEF721FC002CDDD03046A047DAE7EA
:10F5D00000204860BDE8F087F801002430B4104CEA
:10F5E0000B462168002919D000228D68854211D16F
:10F5F000CD689D420ED1086852B11060086818B1FC
:10F6000042684B681A44426030BC0B20FEF7FCBBDA
:10F610002060F3E70A4609680029E6D130BC70474C
:10F62000F80100242DE9FC470446007E0F460A2815
:10F630002FD01E482146D4F85090D4F8288026694F
:10F64000D4F8885000F0D8FF184901201839087004
:10F65000206F08B101F0D6FCE06E08B101F0D2FCD9
:10F660004FB1A18B231D608B2246CDE9000141469D
:10F67000484601F07EFC02202146FEF7C5FB002D26
:10F6800012D002B03046AC466FF00901BDE8F04739
:10F69000604706482146001D00F0AEFF2146BDE848
:10F6A000FC470220FEF7B0BBBDE8FC87D001002478
:10F6B0000121FFF7B7BF416170476FF00900704744
:10F6C0002DE9F04104460220FEF7DEFB394D06002D
:10F6D00036D10023EE681A46E86906E0416A711ADD
:10F6E000994201D30B460246C0680028F6D112B1F8
:10F6F0001046FFF7DDFF0220FEF7C6FB06001FD114
:10F700007F26D5F80CC00027A8693B460DE0417E56
:10F71000A14209D8B14207D8426AACEB0202BA4210
:10F7200002D3174603460E46C0680028EFD113B136
:10F730001846FFF7BDFF0220FEF7A6FB060036D0F5
:10F740009C21F1F751FA747641F2D060A6F8660078
:10F750000023A6F86830B085F085FF207372B07280
:10F760004FF40670F0860620A6F84400A6F8403054
:10F77000A6F84200C01FB0860120A6F84C0018363B
:10F7800000F058FD3064B06330637064E868F06086
:10F79000A87870720848F37170664FF4FA60706769
:10F7A0004010B0670320F06786F88230183E30467C
:10F7B000BDE8F081B80100243F0E010801617047E7
:10F7C0002DE9F0410546007E04260C4618B16FF085
:10F7D0000500BDE8F0811AB900F0FEFC020006D079
:10F7E000DFF854C000215CF82100006811E06FF0E0
:10F7F0000100EEE7438B93420AD130B1036823B195
:10F800001CB127680FB1BB4202D16FF00700E0E7DF
:10F81000C0680028EED1491CB142E4DB14B1206875
:10F8200000B1286005486A830169E960056101F05B
:10F830006FFF0020CDE7000018BC0108B8010024CC
:10F84000017E012903D0817F41F0100181770121E0
:10F85000AFF300802DE9FC47474E0446007E0127A8
:10F860004FF0000991B3042801D0072837D1616F08
:10F8700021B9A18DA1F5B052D03A30D0A18B231D72
:10F88000608B2246CDE90001A16A206D01F071FB79
:10F89000204600F094FEB069A04202D1C068B06179
:10F8A00007E0306228B1C068A042FAD1316AE0684E
:10F8B000C860C4F80C903770207E042807D002205E
:10F8C0002146FEF7A1FA0020BDE8FC8707E00A20E8
:10F8D0002076F069E060F46101F01AFFF3E7082890
:10F8E0004FF0050840D2DFE800F0041C252D2D3F25
:10F8F0003F35608B002578B13069A04202D1C068E5
:10F90000306107E0306228B1C068A042FAD1316AA4
:10F91000E068C860C4F80C9002202146FEF774FA33
:10F9200027E0154800252146143000F065FE03202D
:10F930002146F3E7104800252146183000F05CFE10
:10F940003770E9E7204601F08AFB050009D184F809
:10F95000188006E0204601F082FB050001D1092055
:10F96000207634B115B104E0002502E0204600F015
:10F9700069FC2846A8E70000B80100242DE9F047FB
:10F980009A4691460F468046089EF00700D0042014
:10F99000B10701D50C2100E0002145180420FEF735
:10F9A00073FA040012D026730026C4E90067388970
:10F9B0001421401B208138466681FFF717F848B1B3
:10F9C000204601F011FB0020BDE8F0873846FEF725
:10F9D000D3FFF8E7606840682061B8F81A00FDF7C7
:10F9E00051FF21690880B8F81C00FDF74BFF216921
:10F9F00048805046FDF744FF21694860A80800038D
:10FA000000F5A04040EA0900FDF73CFF216988812C
:10FA1000206946822046D7E710B504460846FDF720
:10FA2000CBFA38B1008C28B1283880B2844200D299
:10FA300020460446204610BDF8B500260446B0F81E
:10FA40006800771E0D46082804D3A07F40F0800090
:10FA5000A07720E0A80700D50126F00700D00420F9
:10FA6000B10701D50C2100E000210144B4F8660083
:10FA700088B100221046FEF72DFE0028E5D0009642
:10FA80002A46E36D01462046FFF778FF0200DCD0EE
:10FA9000E06E10B104E03846F8BDE26604E00846C6
:10FAA00001680029FBD102600020A4F86A00A807C1
:10FAB00007D0E06D401CE065B4F86600401EA4F875
:10FAC0006600E80703D0A07F40F02000A0775068D0
:10FAD000FEF7C8FEB4F868100844A4F868000020D7
:10FAE000F8BDC0F8881070472DE9F041144EB07889
:10FAF000401CB070B46900271EE094F82110B07863
:10FB0000814219D084F82100A07FC10709D040F0BC
:10FB10000200A077204600F095FBA07F20F00300B4
:10FB2000A077E568606F30B12046377000F04AFF7B
:10FB300030780028DED12C46002CDED1BDE8F081E3
:10FB4000B80100241FB5454F102644F69C450120FE
:10FB500002A9F6F767FE0298400712D4387800240D
:10FB600000286ED0C8230095F02219460020F6F731
:10FB7000DBFE3BA01023F022C821CDE90060142059
:10FB80005DE03878012401285BD07888012848D0CE
:10FB9000022803D103207880FDF78AFEC823009550
:10FBA000F02219460020F6F7BFFE35A01023F02200
:10FBB000CDE90060C8210020F6F7BCFF4FF4FA78C9
:10FBC00015E04046FBF7B2FE34A0F0F72DFDC82348
:10FBD0000095F02219460020F6F7A6FE35A0102366
:10FBE000F022CDE90060C8211420F6F7A3FF01F050
:10FBF000F3FB0028E5D135A0F0F716FDF0230095C2
:10FC000000211A460846F6F78FFE36A01023F02290
:10FC1000CDE90060C8211420F6F78CFF0120788020
:10FC20000FE0C8230095F02219460020F6F77CFE6D
:10FC300033A01023F022CDE90060C8210020F6F7A0
:10FC400079FF03A93C7000204FF47A730246CDE996
:10FC500000010146F8F7AAFB79E70000080000243C
:10FC60004E6574776F726B206361626C6520697397
:10FC700020646973636F6E6E65637465642E000043
:10FC8000496E697469616C697A696E672054435082
:10FC900020536572766572202E2E2E00544350201C
:10FCA000536572766572206661696C656421210D09
:10FCB0000A00000054435020536572766572204953
:10FCC0006E6974204661696C65642100544350205C
:10FCD0005365727665722053756363657373210D86
:10FCE0000A00000054435020536572766572204923
:10FCF0006E6974205375636365737321000000009F
:10FD00004E6574776F726B206361626C65206973F6
:10FD100020636F6E6E65637465642E00704700002B
:10FD20002DE9FC47B94E054640680C46B0600178A5
:10FD300001F00F0100EB810070608800414228460D
:10FD4000FEF754FE002873D12889142870D3B04FD1
:10FD500021463868FCF75EFD0028F4D13878C0F3FE
:10FD600003100E2864D070688089FDF789FE000BAF
:10FD7000800041422846FEF739FE0028E3D1706832
:10FD80000088FDF77DFE0146706801804088FDF720
:10FD900077FE0146706841804068FDF76FFE0146BE
:10FDA00070684160F1608068FDF768FE7168886086
:10FDB0003061C889FDF764FE01467068C1818089A1
:10FDC000FDF75EFE00F03F0C86F800C029895FEA6F
:10FDD0008C7000D00120DFF83CA2084470808E486F
:10FDE00000237168DAF800403A680068A1461AE01A
:10FDF000A78BB1F80080474513D1678BB1F802801B
:10FE000047450ED1676887420BD12768974208D1D2
:10FE10002BB1E768DF60C4F80C90CAF8004024B149
:10FE20003FE02346E468002CE2D17C4B1C6813E0E1
:10FE3000E7E0A38B0F88BB420DD1638B4F88BB4299
:10FE400009D16368834206D12368934203D12046D7
:10FE500001F078FCD5E0E468002CEAD1DFF8C0A11D
:10FE60000027DAF8000081460BE0438BB1F80280EE
:10FE7000434504D10368934206D080B12BB10746B5
:10FE8000C0680028F1D10AE048B12FB1C168F9601B
:10FE9000C0F80C90CAF8000000F0E4F8B1E0002CC3
:10FEA0007AD0DFF8808100275FEA0C70C8F8007014
:10FEB0002A89A8F80820C8F80450C8F810107761FB
:10FEC000777003D5687B40F001006873606F40B1C4
:10FED000204600F077FD0A3075D0606F08B1708859
:10FEE00018BB2046B46100F0CBFB0A306BD07078B1
:10FEF000010706D5D4F888207AB120696FF00A018D
:10FF00000AE0C00612D5A07FC00606D4D4F8882027
:10FF10001AB16FF00B01206990473E48214600F06E
:10FF20006BFB02202146FDF76FFF4CE0B4F8642024
:10FF3000002032B1A36F13B12069214698470A30DF
:10FF400041D07069F0B1A17FC90605D5FEF714FD57
:10FF50002046FFF7ADFB36E0E56F3DB1D4F810C0A9
:10FF60000023024621466046A84705E000230246DA
:10FF70002146184600F063FF10F10A0F23D008B1A4
:10FF8000706960677078800619D5606F28B1417B11
:10FF900041F02001417312E021E0A08DA0F5B051A5
:10FFA000D03901D0401CA085E56F2DB10023206918
:10FFB0001A462146A84700E000200A3003D0204618
:10FFC000B76100F03FF9B76144467761D8F80400A3
:10FFD000002802D0FEF7D0FC6760BDE8FC87888966
:10FFE000FDF74EFD40070CD470680B4B084A0188A2
:10FFF0004088CDE900017188F0680144306900F063
:020000040801F1
:10000000B8FF2846BDE8FC47FEF7B6BCDC0100247B
:1000100090010024D00100248C010024D40100248C
:10002000CC0100244C7603247CB50446006D401EB0
:10003000FDF726FC002203461146204600F0CAF9CF
:1000400005000ED006210020221DCDE90001A37A73
:1000500021462846FCF754FD2846BDE87C40FEF7C3
:100060008BBC7CBD7CB5334E0546307841075FD4F0
:10007000C1060DD57068304B304A01884088CDE903
:1000800000017188F0680144306900F072FF4FE0B0
:1000900080074DD5687EFFF713FB040040D027484A
:1000A00000682060688B6083234800686060706827
:1000B0000188A18303212176F1680A46491CA162C7
:1000C0002163521EC189A4F86010C089A4F862009F
:1000D000A4F84E1062652869206168696061287A19
:1000E00000F08C00207216480168E160046001F0A5
:1000F0000FFB144901200870204600F0F9F9E08E4A
:10010000211DFFF789FC1221E0862046FFF794FCB1
:10011000050008D000212046FFF784FA28467CBD60
:100120004FF0FF307CBD2046BDE87C4000F08AB82F
:1001300000207CBDDC0100248C01002490010024FF
:10014000D0010024B801002470B50446007E08B137
:10015000002070BD0320FDF797FE051EF9D0206931
:100160002861608B688301202876607E6876207A1B
:1001700040F002002872A07AA872607A6872206843
:100180002860608B80B110490869A04202D1C06824
:10019000086107E0086228B1C068A042FAD1096A84
:1001A000E068C8600020E06002202146FDF72CFED8
:1001B00006486861044814300168E960056001F090
:1001C000A7FA284670BD0000B8010024BBF600085D
:1001D0004020FFF775BA0000F0B5144D0024144E0E
:1001E0004FF4404C4FF4804E4FF6FF77B088411CDF
:1001F000B180B84201D1A6F804C00021B28855F8F8
:100200002100006809E0438B934205D1641CA4B22D
:100210007445EBD30020F0BDC0680028F3D1491C21
:10022000C9B20429EBD390B2F0BD000018BC01089C
:10023000B80100240249D1E90202104488607047E5
:10024000B80100242DE9F047044661480068A04247
:1002500002D10020BDE8F087B4F86010B4F84C007B
:10026000814200D20846E56E8146A07F80070FD507
:100270004DB128694068FDF701FCA16C401A29893D
:100280000144494504D92046BDE8F04700F0C3BE0B
:10029000D4F870804FF0000A5FEA080001D182E0D4
:1002A0008046D8F800000028FAD17CE028698089CF
:1002B000FDF7E6FB206FA8B1A17F11F0440F11D12B
:1002C000E06E28B102686AB90089E28E904209D2D4
:1002D000B4F8660030B1B4F86800082802D211F012
:1002E000A00F6CD02868E066207E02280BD010207A
:1002F000FDF7C8FA01462869828911438181A07FF0
:1003000020F00300A0772146284600F099F82869DC
:100310004068FDF7B3FB064628698089FDF7B0FB0E
:10032000800700D00120298930440844216D091A32
:1003300000D5206528698089FDF7A2FB800700D0E1
:1003400001202989C8422AD0C5F800A0206F70B1C9
:1003500028694068FDF792FB0646D8F8100040680F
:10036000FDF78CFB301A16D504F1700602E0256704
:1003700013E03668306850B100694068FDF77EFBD5
:10038000074628694068FDF779FB381AF1D43068D0
:100390002860356006E0C8F80050A84602E028460C
:1003A00000F022FEE56E55B128694068FDF766FB56
:1003B000A16C401A2989014449457FF677AFE06E68
:1003C00008B9A4F86AA0A07F20F08000A07740E7D9
:1003D000F40100242DE9F04105460F46881898469F
:1003E000143081B200220120FEF774F9060023D0F8
:1003F000688B7468FDF746FA2080A88BFDF742FAF7
:100400006080C4F80480A86AFDF73AFAA060B808D2
:10041000000300F5A04080B240F01000FDF732FA72
:10042000A081E88DFDF72EFAE08100202082608215
:10043000E98DA86A084428633046BDE8F0810000D1
:100440007CB50C460546886AFDF71AFA296988606A
:10045000E08DFDF717FA2969C881E18DA06A08448B
:100460002063287B2E691436C00709D0211D40F275
:10047000B450FFF7D1FA40F00170FDF701FA306097
:100480000026B4F93400401C00D1A6860CB12068C7
:1004900030B9201DFCF790FD002825D04068206071
:1004A000A06B38B911480068A06328694068FDF75F
:1004B000E5FAE0636968288A8A88801A4A89121AEC
:1004C0004A8169680A89101A08816968221D2869A9
:1004D0004860062128690682607ACDE90001A37A86
:1004E00021466868FCF70CFB7CBD0000C4010024B9
:1004F00070B51E4E0546706800F114048089FDF742
:10050000BFFA0521B1EB103F1ED270688089FDF75C
:10051000B7FA6FF0040140F2B45601EB1030090C49
:1005200001EA800300210DE0605C00280CD0012866
:100530000BD0022804EB010009D04078002803D03A
:10054000084481B29942EFD370BD491C0CE0427857
:10055000042AF9D1091D9942F6D8408842BAB2421C
:1005600000D802B93246EA8689B2EBE7DC01002402
:100570002DE9F0411D460C469142DDE90637089E03
:1005800011D2BF0707D49F7F7F060CD41EB1DE6E49
:100590000EB91B6F3BB104F2B75121F00301914238
:1005A00000D80A4691B20022FEF794F8002804D041
:1005B0004189091B298004814481BDE8F08170B51F
:1005C0000446007E002816D00A2814D0012812D034
:1005D000606F002510B1FEF7CFF965674FF0FF306F
:1005E000A086E06E00F00EFD206F00F00BFDE566CA
:1005F0002567A4F86A5070BD70B50C4601460068C6
:10060000A04202D1C06808600BE0104906E0C06853
:10061000A04203D1096AE068C86002E000280862CD
:10062000F5D100252046E560FFF7C9FF207E0A28A6
:100630000AD0012808D0A07FC10705D040F00200F1
:10064000A0772046FFF7FEFD257670BDB801002497
:10065000C0F8841080F8202070470FB4652110B5D1
:100660009AB004461EAB68461D9AEFF7C3FF694671
:100670002046FDF70DFA1AB010BC5DF814FB00001F
:100680002DE9FC5FC74E04460020009030784107FA
:100690001CD5207E022814D0A06AF1680A1A14D44E
:1006A000A28D1044081A00280FDC707840F0080072
:1006B0007070A07F20F00100A0776FF00A00BDE805
:1006C000FC9F206D31698842EFD069E1800709D530
:1006D000207E022806D0032804D0A07F40F002002C
:1006E000A0775DE1A07FC00602D4AF4800686062D9
:1006F000002084F89A002046FFF7FAFE207E4FF093
:100700000109DFF8A8A24FF00A0BDFF8A482801ECF
:10071000A84F0828A84DD8D2DFE800F0046EC0C466
:10072000FBC0F0EF3078C106CFD5800758D5206FD9
:1007300000694068FDF7A2F93169401C88424CD13C
:10074000B4F86600401CA4F86600F0680246401C3D
:10075000A062A164521E20637068C189A4F8601071
:10076000211DC089A4F86200042062652076E08E15
:10077000FFF752F900EB80014FF6FF72E08602EAC4
:100780004101A4F84E10B4F84C10012900D14000EA
:10079000A4F84C00B4F86800401EA4F86800206F6C
:1007A000016821674C3400F01FFC606A4C3C70B15A
:1007B0000020A08684F84600D4F880305BB1002287
:1007C00020692146984700900A3032D085E74FF0E3
:1007D000FF30A086F0E70098F6E73078C006A3D592
:1007E0007068764B764A01884088CDE900017188AF
:1007F000F0680144306943E03078C10643D5A16C0C
:100800003069411A012931D4216D411A00292DDCAA
:100810000420207663692BB1002220692146984785
:1008200010B909E06FF00D000A3002D02046FEF743
:100830003FFF6FF0090042E7B4F84C50204600F04B
:10084000F3F8B4F8640010B1401EA4F86400E08E20
:10085000012D00D14000A4F84C007078800611D51D
:10086000A07F40F00200A077072050E07168534B52
:100870000A884988CDE900127288F1681144504A0B
:1008800000F077FB8CE0800707D5A06AF168401E76
:10089000884202D1204600F000FB81E0204600F0B3
:1008A000C3F8DAE7204600F0BFF8707880063078A9
:1008B0004FEAC06024D5002819DA206D31698842DA
:1008C00015D1A07F40F00200A0772046FFF777FE09
:1008D0003868A04202D1C068386047E0286070B331
:1008E000C068A042FAD12968E068C8603EE0A07FF5
:1008F00040F00200A077082009E043E020E008E093
:1009000000284DDA206D3169884249D106202076D1
:1009100046E0204600F088F87078800640D5A07F39
:1009200040F00200A0772046FFF749FE3868A04259
:10093000D1D0286018B1C068A042FAD1D3E715E041
:10094000204600F071F83078C00629D5206D316955
:10095000884225D12046FFF732FE3868A042BAD03F
:10096000286018B1C068A042FAD1BCE78AF80090AC
:1009700084F818B0D8F80010E160C8F8004000F022
:10098000C7FE0DE0204600F04FF83078C00607D5CE
:10099000206D3169884203D1707840F0100070708A
:1009A00000208CE6DC010024C4010024B8010024EE
:1009B000D4010024D0010024D80100248C0100249B
:1009C000900100242DE9F041456F044600206E7B24
:1009D0006067E76F2FB1002320692A462146B84798
:1009E00005E000232A462146184600F028FA6FF059
:1009F000090728B10A3015D065670020BDE8F081ED
:100A0000B106FAD5A18DA1F5B052D03A01D0491C5A
:100A1000A185E56F25B1002320691A462146A84724
:100A20000A30EAD13846E9E72DE9F041FE4F0446A5
:100A30004FF000063878C0067DD5B4F86050A16D3F
:100A4000626DF8686B18B2EB000C0BD4824202D1D5
:100A50003A698A1A06D43A69914217D17968C989E4
:100A6000A94213D97968CA89A4F86020B4F8625001
:100A7000C9898D4201D2A4F8621060653869A06509
:100A800094F8990062B108B184F89960A26C386951
:100A9000811A002936DCA4F86460798841B12EE01F
:100AA0000028F3D184F89860012084F89900EDE7DC
:100AB000B4F86050A16D2944994220D1B4F93410A2
:100AC00000291CDB82421AD194F84700411CC9B2AC
:100AD000814201D984F8471094F84700032809D9C6
:100AE000B4F84C00E18E014489B2814201D9A4F8E6
:100AF0004C10A8E002D1204600F0F8F9A3E084F8F9
:100B00004760A0E001297AD4226D821A002A76DC9F
:100B1000A27F530706D522F00402A277B4F84E2034
:100B2000A4F84C2084F84660B4F94030B4F8422070
:100B300002EBE30200E0C2E0A4F84420A4F8641051
:100B4000B4F866201144A4F8661084F84760A064E5
:100B5000207E042833D3B4F84C00B4F84E108842F9
:100B6000E18E04D2014489B2814207D827E049438B
:100B700091FBF0F1014489B2884220D2A4F84C10D4
:100B80001DE0286820676868FDF76CFEB4F8640013
:100B900050B128698089FCF773FFC00704D0B4F80E
:100BA0006400401EA4F864006868FDF75BFEB4F8BA
:100BB0006810081AA4F86800284600F015FA206F9B
:100BC000C8B100694068FCF759FF0546206F00690D
:100BD0008089FCF755FF800700D001202844256F4D
:100BE000298908443969401A0028CADD1DB1A68642
:100BF000E67728E003E04FF0FF30A086F8E7A4F89E
:100C0000646020E02868E06608B9A4F86A60686853
:100C1000FDF728FEB4F8640050B128698089FCF71C
:100C20002FFFC00704D0B4F86400401EA4F864008D
:100C30006868FDF717FEB4F86810081AA4F8680091
:100C4000284600F0D1F9E06EB8B100694068FCF7C1
:100C500015FF0546E06E00698089FCF711FF8007EB
:100C600000D001202844E56E298901443869411AE1
:100C700003D4216D401A0028C4DDA06BF8B1E16BEC
:100C80003A69891A1BD569490988081AB4F94010CC
:100C9000A0EBE10000B201440AB2A4F84020002811
:100CA00001DA404200B2B4F94210A0EBA1000844BE
:100CB000A4F8420000EBE200A4F84400A6637B889D
:100CC000002B7DD0207E07287AD2A06AFA68584D82
:100CD000811A012924D41344C31A5B1C002B1FDC86
:100CE000686842898A420ADA0289521A93B203E09A
:100CF0000381891A4681006842898A42F8DB4942A9
:100D000009B2FDF773FEBA89A06A2989821A891A85
:100D10002981F86029694860A16A401A07D572E004
:100D2000101A04D5A07F40F00200A0776BE0A18DDF
:100D3000A06A4218F9688A1A521C002A63DC8842A9
:100D400061D128698089FCF79BFE800700D00120D3
:100D50002989084480B27880A18D81422DD22869EA
:100D60008089FCF78DFEC0070ED028698089FCF7CA
:100D700087FE00F03E00FCF785FD01462869828968
:100D800022F47C5211438181A08D288128698089B9
:100D9000FCF776FE800702D52889401E2881298924
:100DA0006868FDF753FE28698089FCF769FE8007B3
:100DB00000D0012029890844788080B2F96800E0D9
:100DC00026E00144A162A18D081AA085204600F00A
:100DD000FFFC6868018909B178616E6028698089C3
:100DE000FCF74EFEC00703D0787840F02000787002
:100DF000A07FC10702D020F0010014E040F0010004
:100E0000A077BDE8F0812046BDE8F04100F003B9CD
:100E1000A06AF9680A1A05D4A28D1044081A401C69
:100E20000028EEDDA07F05E0DC010024C4010024E1
:100E30004C76032440F00200E2E7C167704710B52A
:100E40001400084606D0218900F00BF82046FDF773
:100E500093FD00E00BB1002010BDBDE81040FEF78F
:100E6000EFBC10B50446808D084441F2D06180B2D9
:100E7000A085884200D9A185204600F0A9FC40F257
:100E8000B451884208DBA07F40F00200A0772046E2
:100E9000BDE81040FFF7D6B910BD2DE9F041066F4F
:100EA0000546002E20D0306805F16C04286700E06C
:100EB0002468206850B100694068FCF7DFFD0746F0
:100EC00030694068FCF7DAFD381AF1D420683060E8
:100ED00000202660316809B9A5F86A0095F8461027
:100EE000491C85F84610A863BDE8F08110B504469A
:100EF000006F002825D0A07F400722D42046FFF7AE
:100F0000CCFFB4F84C00B4F86010884201D948080E
:100F100000E04008A4F84E0081B2E08EB1EB400F33
:100F200005D24FF6FF7101EA4001A4F84E1089B2D4
:100F300000EB40000844A4F84C00A07F40F00400FF
:100F4000A07710BD016F002912D000E011460A6899
:100F5000002AFBD1C26E0A60016FC16600210167E1
:100F600090F84620521C80F846208163FFF76AB94A
:100F700070472DE9FC5F1E46174600228846142163
:100F800083460120DDE90C9AFDF7A4FB050029D07A
:100F90006C684846FCF776FC20805046FCF772FCF3
:100FA00060805846FCF76CFC60604046FCF768FCCB
:100FB000A06045F21400FCF765FCA08106214DF20B
:100FC0001600E081002020826082FF23CDE900012D
:100FD000324639462846FBF793FD2846BDE8FC5FBC
:100FE000FDF7CABCBDE8FC9F10B5040009D06068DD
:100FF00008B1FDF7C1FC2146BDE810400420FCF714
:1010000003BF10BD10B503E00468FFF7EDFF2046F5
:101010000028F9D110BD7CB500250446006DFCF711
:101020002FFC0022034629462046FFF7D3F905008E
:1010300012D0A07F0621221D20F00300A077607A45
:10104000CDE90001A37A21462846FBF759FD284641
:10105000FDF792FC00207CBD6FF001007CBD70B5F7
:10106000C46E05460CB909E00C4621680029FBD185
:1010700020698089FCF704FD400705D02846BDE8BB
:1010800070400121FEF7D8BC0120FCF7FBFB0146B4
:101090002069828911438181A87F40F02000A877D0
:1010A000002070BD816770477CB516A01024F02227
:1010B0002346CDE90040C8212820F5F73BFD4FF439
:1010C000FA750EE02846FAF731FC14A01023F0223E
:1010D000CDE90040C8212820F5F72CFD14A0EFF73A
:1010E000A3FAFCF7AFFA0028ECD116A0EFF79CFAB0
:1010F0001AA01023F022CDE90040C8212820F5F7DE
:1011000019FD7CBD496E697469616C697A696E67A5
:10111000204C776970202E2E2E0000004C776970CD
:1011200020496E6974204661696C65642100000085
:101130004C77697020496E6974204661696C6564FA
:10114000210D0A004C77697020496E69742053752F
:101150006363657373210D0A000000004C776970AA
:1011600020496E69742053756363657373210000B1
:101170002DE9FF5F5D4A002306460068111D4FF010
:10118000010BFDF7A7F85948001D0068010E0091FA
:10119000C0F3074361F31F64C0F3072263F31744EE
:1011A000C0B262F30F24014660F3070450A0A046CA
:1011B000EFF73AFA4D4F0120DFF860914FF4FA6AE9
:1011C0003F1FB87001A93068FDF7F6F8010007D09D
:1011D00011F10C0F30D011F10B0F3ED050A02DE0CB
:1011E0000025EFF75FF90090F1F70CFA4B485146F4
:1011F000EFF7FAFC019804680FE06289C5F5FA6020
:10120000824200D90246616809EB0500EFF753FC02
:1012100060890544554502D82468002CEDD1F1F7CA
:1012200001FA0098EFF742F93C49304600F0D2FE4F
:101230000198FCF705FF06E0317B3DA0EFF7F4F9DC
:101240007878401C7870012002A9F5F7EBFA029833
:10125000400705D5B87818B109E0317B3DA0EDE72E
:10126000317B45A0EFF7E0F97878401C787078780A
:1012700010B10020787002E0BBF1000FA2D1307BEA
:10128000484C005D01282ED1F878401EF870306877
:10129000FCF78AFF3068FCF7ABFF317B0020A4F13C
:1012A000A002C8F307430855317B02EB8101C8F364
:1012B0000722C1F8C8004FEA186008F0FF0100904B
:1012C00039A0EFF7B1F971680020FCF797FEB1681B
:1012D0000020FCF793FE00203146FCF78FFE002033
:1012E00003A9F6F75FFDBDE8FF9F0000580000244A
:1012F000486F73743A25642E25642E25642E256468
:1013000020636F6E6E656374656420746F2074680B
:1013100065207365727665720D0A000074270024DB
:10132000456C7365204572723A2025642E0D0A00C3
:10133000546865204E4F20256420636F6E6E656390
:1013400074696F6E20697320636C6F7365642E0D12
:101350000A000000546865204E4F20256420636F0A
:101360006E6E656374696F6E206973207265736554
:10137000742E0D0A00000000546865204E4F202591
:1013800064206E6574776F726B206361626C652098
:10139000697320646973636F6E6E65637465642E30
:1013A0000D0A0000AC380024486F73743A25642E8F
:1013B00025642E25642E256420646973636F6E6E28
:1013C0006563742066726F6D207468652073657242
:1013D0007665720D0A00000010B58AB0EFF762F86A
:1013E0000446F1F70FF909A8104B002105910322DB
:1013F0000691CDE90720332202924FF400700C4A87
:10140000CDE903010620CDE9000308480B4609A1F8
:10141000C838F6F729FCF1F705F92046EFF746F84A
:10142000BDF824000AB0C0B210BD00000C3000248A
:1014300041F10008737672207461736B0000000044
:1014400010B50446007E6FF00C03012815D069B179
:10145000A07F40F01000A0770AB1012110E0606F7A
:1014600098B1FDF789FA002060670EE06AB10328A1
:1014700005D0042803D0072801D0184610BDC9B2F2
:101480002046BDE81040FEF7E5B9002010BD000081
:101490002DE9FC5F944F4FF4FA7B4FF0000AF86897
:1014A000401CF860B878401CB870BC690026FCE0AD
:1014B00094F82110B878814201D1E468F5E084F80D
:1014C00021000025227EA946022A03D194F8460075
:1014D00006281BD094F846100C2919D094F89900CE
:1014E000C0B194F89810814A491CC9B284F8981088
:1014F000825C914244D3072884F898A002D2401C11
:1015000084F89900204600F0F8FA39E0012543E01C
:10151000012535E0B4F93400002801DB401CA08629
:10152000206F68B3B4F93400B4F94430984227DB33
:10153000022A0AD0B4F94020B4F8420000EBE200DD
:101540006B4A515C8840A4F84400A4F834A0B4F875
:101550004C00B4F86010884200D308464108A4F853
:101560004E10E08EB1EB400F05D24FF6FF7101EA4D
:101570004001A4F84E10A4F84C002046FFF7E2FC0E
:10158000207E062808D1A07FC00605D5606AF968CC
:10159000081A282800D96D1C207A00072DD5207E36
:1015A000042801D0072828D1D4E92310D4F89420A6
:1015B000636AD7F80CC002FB0012ACEB0303B2FB6A
:1015C000FBF29A4209D24BA0EFF72EF84F496D1C5F
:1015D0004FF0010981F800A00FE094F89A2002FB77
:1015E0000010B0FBFBF0984207D22046FEF71CFD2E
:1015F00094F89A00401C84F89A00207E032802D0B8
:10160000092807D00BE0606AF968081A282806D96B
:101610006D1C04E0606AF968081AF028F8D84DB328
:101620002046FEF7CCFFE0680EB1F06000E0B86144
:10163000B9F1000F09D0A18B231D608B2246CDE9A3
:101640000001A16A206DFFF794FCD4F810800220FD
:10165000D4F888502146E468FCF7D6FB87F800A050
:101660001DB36FF009014046A847387800287FF481
:101670001CAF1AE02646E468F07F401CC0B2F07749
:1016800096F82010884210D386F81FA087F800A093
:10169000D6F8842032B13069314690473978002934
:1016A000E5D110B93046FEF7CDFD002C7FF400AF38
:1016B000FC69002514E0606AF968081AF0280DD961
:1016C0002046FEF77CFFE0680DB1E86000E0F861BD
:1016D00002202146E468FCF797FB01E02546E46818
:1016E000002CE8D1BDE8FC9FB8010024D3BB010861
:1016F00008BC01084B454550414C4956452074698A
:101700006D656F75742E0D0A0000000056000024F0
:101710000848416800290CD10749084A096812683D
:10172000114306D00121416000220549FA20FDF74E
:10173000E1BE7047F8010024D0010024D401002448
:10174000611C01081CB5164C21784A0726D48A076B
:1017500015D5826AE1688B1A16D4838D1A448A1AC9
:10176000002A11DC60680F4B02884088CDE9000236
:1017700060880D4A01442069FFF7FBFB0EE0C907B2
:1017800002D00A4909684162618839B1817F41F01C
:1017900002018177BDE81C40FEF754BD00201CBD4E
:1017A000DC0100248C01002490010024C4010024E9
:1017B00010B5FEF799F905494878401C4870C007F4
:1017C00003D0BDE81040FFF763BE10BDB801002490
:1017D00070B5858D40F66836826AC48E016B5319E8
:1017E000B44200D934460C441C1B02D4C585581A97
:1017F00070BD531A002B01DD002100E0891AC1855C
:10180000002070BD2DE9FF4F8BB0064600209146A9
:101810000546074603908246079004460590804699
:101820000990ADF82000B6F86210F08EB0EB510FC1
:1018300000D3480806900C9860B1307E1146042809
:101840000DD007280BD0022809D0032807D06FF04D
:101850000C0015E06FF00D000FB0BDE8F08F71B116
:10186000B6F86600904203D3B6F86800082806D39D
:10187000B07F40F080014FF0FF30B17700E00020F2
:101880000028E9D1F06EB6F868B0002867D00546A8
:1018900000680028FBD1287BC10700D00421800705
:1018A00001D50C2000E000202B8908441918069867
:1018B000401A82B2B6F86A00ADF8200078B1484507
:1018C0002F46494600D201468846A0EB0800ADF8F5
:1018D000200004EB0801A2EB08008CB282B24C4558
:1018E0003DD2002A3BD0002B39D0A9EB0400904216
:1018F00000DD10462F4680B204900E98C00719D024
:1019000001210E98009608ABCDE90101049903204E
:10191000FEF72EFE002803906FD06889BDF82010D6
:10192000084468810C98049A011903984068EFF7FD
:10193000C2F80BE0049901220320FCF7CBFE00283B
:101940000390E9D00C980119039841600498204451
:1019500084B20398FCF786FF58441FFA80FB66E0C8
:10196000A9EB040081B2DDE90520801A80B2814232
:1019700000D8084604900E98C0071ED0BAF1000F98
:1019800019D000200E99009608ABCDE901100498FB
:101990001044069A81B20020FEF7EAFD002801906B
:1019A0002BD00C9801190198426805981044049AAC
:1019B000EFF781F815E00120E4E704990122002007
:1019C000FCF788FE070018D00C98002220447860AD
:1019D00005991046FCF77EFE019078B13946FCF778
:1019E0002DFF0198FCF73EFF58441FFA80FBBBF126
:1019F000080F05D90198FCF7BFFF6EE03846FAE7FB
:101A0000099800220090F06D019903193046FDF706
:101A1000B5FF070061D0BDF82000BAF1000F788152
:101A20000CD00798076004980797204484B24C456F
:101A300096D3B8F1000F1FD06C6813E0BA46F2E7F6
:101A4000218901EB08002081206850B96189424654
:101A5000606808440C99EFF72EF8618901EB0800E3
:101A600060812468002CEBD1298901EB08002881D2
:101A70006989A1EB08006881BDF82000A6F86A001A
:101A8000039840B168680399FCF7D8FE0398298948
:101A9000008908442881EDB1C5F800A0F16D01EB83
:101AA0000900F065B6F86610A1EB0900A6F866001B
:101AB000A6F868B067B1386950B10E98800707D4AE
:101AC0000820FBF7DFFE01463869828911438181D6
:101AD0000020C1E6C6F86CA0E0E7B07F40F08000CF
:101AE000B077039808B1FCF747FFBAF1000001D0C6
:101AF000FFF788FA4FF0FF30AEE62DE9FC41046FA6
:101B0000054614B9EC6E002C3ED020698089FBF7A5
:101B1000B7FFC00701D02089C8B100205FEA0008E4
:101B200017D000222069002143682846FEF752FCA6
:101B3000070029D07E68B8F1000F0CD01120FBF708
:101B4000A1FEB18921F47C510843B0810DE0012050
:101B5000E4E70122E6E7606806F1140123890289BF
:101B6000D21A93B20122FCF7D3FE062100202A1DCF
:101B7000CDE90001AB7A29463846FAF7C1FF38466D
:101B8000BDE8FC41FCF7F8BEBDE8FC8130B585B08E
:101B900004466FF0050505720B48FDF71DFC80B18A
:101BA00000208DF80000084869460294FDF7CEFB3E
:101BB000606800210C30FDF772FB94F9080005B055
:101BC00030BD2846FBE700002877032438B50D46D2
:101BD0000446FBF759FE08481421C0E900450748B0
:101BE000FDF79EFB05200649002200904FF47A7312
:101BF00004A0FDF73BFC38BD08020024287703242D
