:020000040800F2
:10000000A042032435040008DD7F0008EF6D0008DE
:10001000157F0008DF3500083D9300080000000050
:1000200000000000000000000000000081860008C1
:10003000C938000800000000BD8000082D870008B6
:100040004F0400084F0400084F040008C183000853
:100050004F0400084F0400084F0400084F04000834
:100060004F0400084F0400084F0400084F04000824
:100070004F0400084F0400084F0400084F04000814
:100080004F0400084F0400084F0400084F04000804
:100090004F0400084F0400084F0400084F040008F4
:1000A0004F0400084F0400084F0400084F040008E4
:1000B0004F04000889890008C18900084F0400081E
:1000C0004F0400084F0400084F0400084F040008C4
:1000D0004F040008B59200084F040008F992000888
:1000E0004F040008A1820008000000004F0400082F
:1000F0004F0400084F0400084F0400084F04000894
:100100004F0400084F0400084F0400084F04000883
:100110004F0400084F0400084F0400084F04000873
:100120004F0400084F0400084F0400084F04000863
:100130004F040008CD3800084F0400084F040008A1
:1001400000000000000000000000000000000000AF
:100150004F0400084F0400084F0400084F04000833
:100160004F0400084F0400084F0400084F04000823
:100170004F0400084F0400084F040008000000006E
:100180004F0400084F0400084F0400084F04000803
:100190004F0400084F0400084F0400084F040008F3
:1001A0004F0400084F0400084F0400084F040008E3
:1001B0004F0400084F0400084F0400084F040008D3
:1001C0004F0400084F0400084F0400084F040008C3
:1001D0004F0400084F0400084F0400084F040008B3
:1001E0004F0400084F0400084F0400084F040008A3
:1001F0004F0400084F0400084F0400084F04000893
:100200004F0400084F0400084F0400084F04000882
:100210004F0400084F0400084F0400084F04000872
:100220004F0400084F0400084F04000800000000BD
:100230004F0400084F040008000000004F040008AD
:100240004F0400084F0400084F0400084F04000842
:100250004F0400084F0400084F0400084F04000832
:100260004F0400084F0400084F0400084F04000822
:100270004F0400084F0400084F040008000000006D
:100280004F040008000000004F04000800000000B8
:10029000000000004F04000800F002F800F0B2F87F
:1002A0000AA090E8000C82448344AAF10107DA45D1
:1002B00001D100F0A7F8AFF2090EBAE80F0013F071
:1002C000010F18BFFB1A43F001031847441A01003D
:1002D000641A01000A444FF0000C10F8013B13F0BF
:1002E000070408BF10F8014B1D1108BF10F8015B8F
:1002F000641E05D010F8016B641E01F8016BF9D182
:1003000013F0080F1EBF10F8014BAD1C0C1B09D1D8
:100310006D1E58BF01F801CBFAD505E014F8016B4A
:1003200001F8016B6D1EF9D59142D6D370470000DC
:100330000023002400250026103A28BF78C1FBD8EE
:10034000520728BF30C148BF0B6070476E2900F0CC
:100350007385702900F00D82662911F047806529A8
:1003600011F04480672911F04180612911F040802B
:1003700003681B0A28BF41F08001692900F07E81D3
:10038000642900F07B81752900F078816F2901F0E4
:100390008280782900F0D981E92901F01D80E429C3
:1003A00001F01A80F52901F01780EF2901F07F8014
:1003B000F82900F0D8810368DB0928BF41F08001EB
:1003C000632900F08C87732900F09187E32901F0FD
:1003D0008183F32901F08683002070471FB510F058
:1003E000FDFF01F05DF904000020002110F0D8FFAE
:1003F000401C60600020002110F0BCFFE0601FBDC9
:1004000010B510BD01F030FE1146FFF7E7FF0CF00C
:10041000F2FE02F0D9F803B4FFF7F2FF03BC09F0D3
:100420001AFF000030BF72B6704762B6704780F3A3
:10043000088870470948804709480047FEE7FEE7FB
:10044000FEE7FEE7FEE7FEE7FEE7FEE7FEE7FEE784
:1004500004480549054A064B7047000031870008EB
:1004600099020008A03C0324A0420324A03E0324D8
:10047000A03E032453EA020C00F069802DE9F04B02
:100480004FF00006002B1FBFB3FA83F503FA05F403
:1004900024FA05F65E4012BF1643B2FA82F502FA5C
:1004A00005F4C5F120051EBF22FA05FC44EA0C0440
:1004B000203556EA044C4FEA144418BF641C4FF030
:1004C00000084FF00009904271EB030C39D300296A
:1004D00019BFB1FA81F701FA07F6B0FA80F700FA0E
:1004E00007F6C7F120071EBF20FA07FC46EA0C06F4
:1004F0002037B6FBF4FCA7EB0507103F07F01F0BF6
:10050000CBF120060CFA0BFB2CFA06F644BFB346DF
:100510000026202FA4BF5E464FF0000B5BEA060CBE
:1005200008BF4FF0010B19EB0B09ABFB027C48EB4A
:100530000608C01B06FB02CC0BFB03CC71EB0C01C5
:10054000C1E70B46024641464846BDE8F08B13B56D
:100550004FF000004FF00001AFF30080BDE81C40F9
:10056000704700007CB51D4616460C00009001D077
:100570002044401E074B7B442A4669460190304682
:1005800000F083FE05461CB10020694600F090FE95
:1005900028467CBD410D00000FB4044910B503AAE4
:1005A000029800F0A9FE10BC5DF814FBCC000024FA
:1005B0000FB41CB5084B06AA7B4469460090059809
:1005C00000F063FE04460020694600F071FE2046FC
:1005D0001CBC5DF814FB0000F50C000070B504466F
:1005E00085690068C10601D5302600E02026C007D5
:1005F00007D070BDD4E9012130469047206A401CE5
:1006000020626D1EF6D570BD70B504468569007810
:10061000C00707D170BDD4E9012120209047206A8E
:10062000401C20626D1EF6D570BD70B50C460546A7
:10063000012A05D02878800600D5EA69002302E067
:10064000012305E05B1C934202D2E05C0028F9D153
:10065000A869E618C01AA861286A184428622846C2
:10066000FFF7BCFF04E0D5E9012114F8010B904726
:10067000B442F8D32846FFF7C7FF70BD2DE9F0411B
:100680000646002410687529314616A510D000F0E2
:1006900068FB002802DA404213A507E031688A07A8
:1006A00001D512A502E0490704D511A5012401E0F6
:1006B00000F060FB00210A2206F1240709E0B0FBEC
:1006C000F2FCB0FBF2F302FB1C0030307854184609
:1006D000491C0028F3D123462A463046BDE8F041A4
:1006E00000F051BB000000002D0000002B000000B6
:1006F00020000000F0B40D460188090502D5214C08
:100700007C4402E01F4C7C440E34002100F124069E
:1007100008E002F00F071209E75D42EA03721B09C5
:100720007754491C52EA0307F3D1027800231207D9
:1007300004D5702D06D009B1022311342246F0BC35
:1007400000F021BB01231034F8E770B504460D46D4
:100750002146106800F00EFB024629462046BDE8FF
:1007600070400023C6E7D21D22F00703D3E900231F
:10077000C0E70368126843F0200303600823C361E5
:100780000023B7E7C40E01002DE9F05F8946044657
:100790004FF0000ADFF874B1FB44C0F820A02046F7
:1007A000E1688847002874D0252806D0D4E90121C3
:1007B0009047206A401C2062F1E700265F462046F1
:1007C000E16888472028054607DB312D05D27819D6
:1007D00010F8200C08B10643F1E7B00701D526F068
:1007E0000406C4F81CA00027C4F818A02A2D09D0BC
:1007F000284609F029FD38B304EB8708303DC8F8D6
:10080000185019E059F8041B204604EB8702916147
:10081000E1688847012F054618D1E069002820DAF1
:1008200026F020061DE0D8F8180000EB800005EB4C
:1008300040003038C8F818002046E168884705466F
:1008400009F002FD0028EED1012F0AD02E2D08D18B
:100850002046E16888477F1C0546022F46F02006A7
:10086000C4DBA069002803DA404246F00106A0611B
:10087000F00701D026F010066C2D0BD0682D09D0A2
:100880004C2D39D06A2D35D0742D35D07A2D33D0FA
:1008900016E038E0E1682F4620468847B842054612
:1008A00009D16C2F26D04FF48060E16806432046C2
:1008B0008847054604E06C2F1AD04FF48070064339
:1008C0000DB3A5F14100192802D8203546F4006681
:1008D0004A462946204626604E46FFF737FD80B13E
:1008E00001280BD0F61D26F0070000F1080956E795
:1008F0004020E4E78020D8E70020D6E706F104098D
:100900004DE7284652E7206ABDE8F09F540E0100EB
:100910000FB400B58DB010A9099000910B904FF065
:10092000FF300A9000200C90064878440690064854
:1009300078446A4607900F9909A800F0C9FD0DB0E8
:100940005DF814FBC30B0000DB0B00002DE9FF5F1B
:100950004FF000089946144646469169D2E901A72E
:10096000DDF838B001988847054659EA0B0005D0F4
:1009700009E0A1690198761C88470546216A284646
:1009800088470028F5D1681C03D05FEACA7005D0FB
:1009900015E04FF0FF3004B0BDE8F09F2068011D66
:1009A0002160D0F800800AE05FEACA7001D108F83F
:1009B000015BA169761C01987F1E88470546002FC0
:1009C0001ADD681C18D0B9F1000F0DD0E81705EB3F
:1009D000D060421120F01F0059F822102A1A01207D
:1009E00090400142E0D107E0BBF1000FDCD1284686
:1009F000216A88470028D7D0E16901988847BBF170
:100A0000000F07D1002E05DD5FEACA7002D1002178
:100A100088F80010A068B84203DDBBF1000F03D0D6
:100A200017B16FF00100B6E73046B4E770B506467F
:100A300000F088F90468054630460A22002100F0DB
:100A4000C9FD2C6070BD0000014A00F0FBBD000034
:100A50000C030024401ECAB210F8011F8A4202D0C3
:100A60000029F9D10020704740EA010310B59B0727
:100A70000FD1042A0DD310C808C9121F9C42F8D008
:100A800020BA19BA884201D9012010BD4FF0FF30B9
:100A900010BD1AB1D30703D0521C07E0002010BDCF
:100AA00010F8013B11F8014B1B1B07D110F8013B5B
:100AB00011F8014B1B1B01D1921EF1D1184610BD3C
:100AC00010B5431C02E010F8011B71B18107FAD187
:100AD0004FF0013202C88C1A8C4314EAC211F9D0CB
:100AE000C01A0A0603D0C01E10BDC01A10BD0A04E9
:100AF00001D0801E10BD0902FCD0401E10BD032A8B
:100B000040F2308010F0030C00F0158011F8013B2A
:100B1000BCF1020F624498BF11F801CB00F8013B11
:100B200038BF11F8013BA2F1040298BF00F801CBD5
:100B300038BF00F8013B11F0030300F02580083AAC
:100B4000C0F0088051F8043B083A51F804CBA0E803
:100B50000810F5E7121D5CBF51F8043B40F8043B58
:100B6000AFF30080D20724BF11F8013B11F801CB8D
:100B700048BF11F8012B24BF00F8013B00F801CB5E
:100B800048BF00F8012B704710B5203AC0F00B8029
:100B9000B1E81850203AA0E81850B1E81850A0E881
:100BA0001850BFF4F5AF5FEA027C24BFB1E81850DB
:100BB000A0E8185044BF18C918C0BDE810405FEA4B
:100BC000827C24BF51F8043B40F8043B08BF7047C7
:100BD000D20728BF31F8023B48BF11F8012B28BFCC
:100BE00020F8023B48BF00F8012B70474FF000028D
:100BF0000429C0F0128010F0030C00F01B80CCF12F
:100C0000040CBCF1020F18BF00F8012BA8BF20F89C
:100C1000022BA1EB0C0100F00DB85FEAC17C24BFF0
:100C200000F8012B00F8012B48BF00F8012B70479A
:100C30004FF0000200B5134694469646203922BF75
:100C4000A0E80C50A0E80C50B1F12001BFF4F7AFC0
:100C5000090728BFA0E80C5048BF0CC05DF804EBA2
:100C6000890028BF40F8042B08BF704748BF20F810
:100C7000022B11F0804F18BF00F8012B704710B500
:100C8000044610F0030F08BF11F0030F40F0158069
:100C90004FF0013E121FC0F20E8051F8043BA3EB4F
:100CA0000E0C2CEA030C1CEACE1C08BF40F8043BD7
:100CB000F0D0A1F1040102F10402521E08DB11F888
:100CC000013B002B00F8013BF7D11146FFF78EFFE7
:100CD000204610BD4FF0013C50F8042B51F8043B66
:100CE0009A4215D1A2EB0C03934313EACC130BD118
:100CF00050F8042B51F8043B9A4209D1A2EB0C03A3
:100D0000934313EACC13E7D04FF00000704700BFC5
:100D1000D01A01BAB1FA81F101F0180122FA01F0FA
:100D2000CB40C1F12001DBB2C0B2C01A2CFA01F3F2
:100D3000D11A914311EAC311E6D170477047704749
:100D400070470000004870473C3C032410B5FFF793
:100D5000F9FF006810BD10B50446FFF7F3FF04600B
:100D600010BD09684A0501D540B27047C905FCD5D8
:100D700000B2704709684A0501D5C0B27047C9057D
:100D8000FCD580B270472DE9F0470D469946924652
:100D9000044600F124080168880604D5E06921F0C2
:100DA0001001216000E00120A84201DD471B00E0A6
:100DB0000027A1697A1902EB0900081AA0612078BE
:100DC000C00602D42046FFF709FC002608E0D4E95B
:100DD00001211AF806009047206A401C761C206208
:100DE0004E45F4DB2078C0060AD52046FFF7F6FB17
:100DF00006E0D4E9012130209047206A401C20629F
:100E0000381EA7F10107F4DC07E0D4E9012118F846
:100E100005009047206A401C2062281EA5F10105AC
:100E2000F3DC2046FFF7F0FB2078000602D5022015
:100E3000BDE8F0870120FBE711680268006A5305EE
:100E400001D508700AE0D30501D5088006E0130635
:100E500003D5C217C1E9000200E008600120704715
:100E600070472DE9FF4F0C461E464FF0FF378BB001
:100E7000D2E90001DDF860800A908A46C1F30A5584
:100E800005B93D46002108464FF00000BAF1000FB9
:100E900000F4400005DA00EB80004FF4400101EA65
:100EA00050004FEA9059B9F1010F00DDB9460A9898
:100EB00050EA4A000ED044F61050A5F2FF354543E3
:100EC0002F14B8F1000F1ED07542291E1EDDC9F186
:100ED00000021CE0B8F1010F4FF0000001D03021FA
:100EE00003E0F24305E02154401CB042FBDB3046F6
:100EF0000022002121540B99C1F80880C1E900208B
:100F00000FB0BDE8F08FBD1B6D1CDEE74A4600DA6E
:100F1000694206A800F0F4FF06AB93E8070003ABB4
:100F200083E8070050460A9901F095FD8DE8070017
:100F3000A0F500501F3800900398002D0ADD42F202
:100F40001F014A460844002303A90390684602F0A3
:100F500041F809E0A0F500504A461F38002303A9D4
:100F60000390684602F060F88DE807000004000C6A
:100F700003D04FF0FF30410800E01046B8F1000FF9
:100F800003D00022009215461EE0751E05D400F025
:100F90008BFB303262556D1EF9D5B34601220843F2
:100FA00002D000227F1C04E02078302801D10022EA
:100FB0007F1E002A099784D01DE0112D07DA00F06A
:100FC00073FB303262556D1C50EA0102F5D10843C3
:100FD00002D00098C8B10EE00021681E05E0235C35
:100FE000625C63542254401E491C8142F7DBAB46CD
:100FF000A81B401E0990002004F80B000B98099ACA
:10100000C0F80880C0E9002B7AE711264FF00008ED
:1010100057E72DE9F04F88460446D21D22F007011C
:1010200091B0D1E90001CDE90A0108F0DFF90246EB
:101030000B98C00F01D02D2007E02068810701D553
:101040002B2002E0202101EAC000032A099001D0F0
:10105000072A05DB03464146204600F0F1FC0BE180
:101060002078800601D5E06900E00620B8F1650F20
:10107000814606D0B8F1660F18D0B8F1670F70D16D
:1010800031E00020B9F1110F009001DB112301E0E4
:1010900009F101030AAA01A90CA8FFF7E2FEDDE9A4
:1010A0000C70002609F10105834647E001204B46FC
:1010B00000904FF000470AAA01A90CA8FFF7D1FE43
:1010C000DDE90DB00C995D46002610B909F101006B
:1010D0000D18B9EB050003D4C0F1FF3609F1010585
:1010E000A5EB09002BE0B9F1010F01DA4FF001097E
:1010F0000020B9F1110F0090484601DD112300E0F6
:1011000003460AAA01A90CA8FFF7ABFEDDE90C70A3
:101110004D4600268346207800070AD4AB4500DA06
:101120005D4601A8012D04DD411911F8011C30298B
:1011300007D04F4502DA17F1040F04DA0120824686
:101140000FE06D1EEEE7002F02DCED1B3E4403E0D6
:10115000781CA84200DD7D1CB81B00F1010A4FF08D
:1011600000472078000703D4AA4501DB4FF0FF3A7F
:101170000021B7F1004F0DF143088DF8431024D042
:1011800002202B23002F01DA7F422D230A21021E89
:10119000A0F1010000DC5FB197FBF1FC97FBF1F2DD
:1011A00001FB1C7C17460CF1300C08F801CDEEE772
:1011B000A8F1010003702188090501D5452100E04F
:1011C0006521A0F1010800F8011C09980FA9A1EB05
:1011D0000807FF1D00B10120411901EBEA70A16968
:1011E0003844081A401EA0612078C00602D4204668
:1011F000FFF7F4F9099828B1D4E901219047206A52
:10120000401C20622078C00622D52046FFF7E6F970
:101210001EE0002E04DBB34502DD01A8805D00E086
:101220003020D4E901219047206A401C2062761CBE
:10123000AAF101005FEA000A0AD100F031FAC068A1
:101240000168405CD4E901219047206A401C20627B
:10125000281EA5F10105DCDC07E0D4E9012118F81E
:10126000010B9047206A401C2062381EA7F101073D
:10127000F3DC2046FFF7C8F9032011B041E6000077
:1012800001694A1C02610878704700B58FB0CDE94A
:1012900001310021059105497944CDE9031011463A
:1012A0006846FFF771FA0FB000BD0000E5FFFFFFD1
:1012B0000A6802F8010B0A607047D1E900239A42DC
:1012C00002D2531C0B601070704710B5436913B104
:1012D000AFF3008001E0FFF7A8F9012010BD1278FC
:1012E00000F124010A7000224A700122EDE7116822
:1012F0004FF0FF32E9E70000074B70B50D467B4425
:10130000FFF7C3FF0446284600F06CFE10B14FF013
:10131000FF3070BD204670BD63AC00002DE9FF5F5B
:1013200015468A460446DFF8AC80F8440027D8E921
:1013300000103E46CDE9001010E03AF816106A465B
:1013400002A800F053FE411C07D02178890603D57E
:10135000E269391891420DD80744761C207880063E
:1013600002D5E069B84205DDAE42E6DB3AF8160088
:101370000028E2D1A069C01BA0612046FFF72EF92A
:10138000D8E90010CDE90010002017E03AF8181055
:101390006A4602A800F02AFEB0F1FF3F81460BD05A
:1013A00000250DF1080B05E0D4E901211BF805002B
:1013B00090476D1C4D45F7D308F10100B0428046BF
:1013C000E4DB206A384420622046FFF71DF9BDE8BF
:1013D000FF9F00009A0301002DE9F0418046D21DD5
:1013E00022F007020025D2E90002F52915A614D043
:1013F000011E72F1000106DA0023D0EB030063EB5B
:10140000020211A608E0D8F800108B0701D50FA63C
:1014100002E0490701D50EA601251146002408F176
:10142000240704E000F040F930323A55641C50EAD9
:101430000102F7D12B46324621464046BDE8F04135
:10144000FFF7A1BC000000002D0000002B000000F1
:101450002000000030B4002100F1240408E002F074
:101460000705D208303542EA4372DB086554491C4F
:1014700052EA0305F3D10468002310A2250707D51B
:10148000A40600D421B1C46901230DA2641EC46165
:1014900030BCFFF778BC10B5044621461068FFF752
:1014A00069FC02462046BDE810400023D2E7D21D69
:1014B00022F00701D1E90023CCE700000000000082
:1014C000300000000268114413780160184670472C
:1014D000D160054979445161044979441162002180
:1014E0001161114600F002BBEDFFFFFF5502000045
:1014F000426842B1016811F8013B23B1521EC0E9B4
:101500000012184670470121C160881E704742686A
:101510005AB1C368016843B983688B4205D0491E3C
:10152000521CC0E90012002070474FF0FF30704796
:101530000FB4002300B589B00CA900910B99CB60C2
:10154000214B7B440693214B7B44079304236FF08C
:101550000042CDE901321E4A7A446B4608920246A7
:1015600000200FF0A7FF09B05DF814FB70B5064628
:101570004FF0FF3015460C46324686B00091CDE95B
:10158000010169460020049004A8FFF7D1FF02463C
:101590000498211825B108B1084600E020462860CB
:1015A000049800280DD0002A02DD0098884208D057
:1015B0003246081B69460094CDE9010404A8FFF7F0
:1015C000B7FF06B070BD0000ABFFFFFFC3FFFFFF1A
:1015D000D70100002DE9F04791460F4680460446AA
:1015E000002614F8015B2DB100F052F80068405D50
:1015F000C007F6D12B2D02D02D2D18D0641E4A46DF
:101600003946204600F02CFC27B13968A14201D1AF
:10161000C7F800804FF0020471050BD54042002846
:1016200003DDFFF78FFB0460A007BDE8F08746F4F9
:101630008066E4E70028F8DAFFF784FB04606FF0C7
:101640000040F2E72DE9F04115460E46040002D1B4
:101650002C6804B90BA4204600F0F8FC0444207860
:1016600070B127463146384600F0E0FC044420784B
:1016700010B1002004F8010B38462C60BDE8F08161
:101680000027F9E700000000004870473C3C0324B5
:1016900010B500F005F8001D10BD00BF05FD0000ED
:1016A000004870475C3C032430B5B0F10A024FEAB1
:1016B000900E71F100034EEA817EB0EB0E0061EBFB
:1016C00091014FEA101E4EEA017E10EB0E0041EB35
:1016D00011114FEA102E4EEA016E10EB0E0041EB95
:1016E00011214FEA104E4EEA014E10EB0E0041EB75
:1016F0001141401841F100014FEAD00040EA417029
:101700004FEAD10110EB80054FEA810444EA90745E
:1017100044EB01046D1944EB0404521BA3414FF048
:10172000000348BF0A3200D530BD401C41F1000122
:1017300030BD10B50446FFF7ABFF0068005D00F058
:10174000010010BD2DE9F04F04460D46D21D22F0D8
:10175000070089B0D0E900974846394607F046FEB1
:101760000246F80F01D02D2307E02068810701D53C
:101770002B2302E0202101EAC0038DF820300BB1B9
:10178000012000E00020032A824601D0072A04DB62
:101790002946204600F054F93FE12078800601D424
:1017A0000D2500E0E569C7F30A560D2D49DA002141
:1017B0004FEA175B08464FF00000002F00F440008E
:1017C00007DA00EB80004FF4400100EBD07001EA33
:1017D00060008115012901DD4FF0FF3100224FEA41
:1017E000850CBCF1180F06D31346ACF118004FF06E
:1017F0008052C24003E04FF4801323FA0CF30CF143
:101800000C0CBCF1200F04D3ACF1200C09FA0CF045
:1018100001E007FA0CF000294FF0004801DD18B98B
:101820000FE00ED140450CD319EB02095F4121B9FD
:10183000404502D19F4329EA0209BBEB175F00D064
:10184000761C2088000502D57B48784402E07A485F
:101850007844193808AA302302F80A30037C0AF1C8
:101860000101002E0AF1020A53546A4602DC4FF0CD
:10187000300101E04FF031014FF001088DF8001008
:1018800002D0A6F2FF3603E059EA470100D06B4EC2
:10189000002D02DC2178090704D54FF002082E2123
:1018A0008DF80110C44600210BE0C7F303433F014C
:1018B000C35C491C6D1E02F80830052908F10108B7
:1018C00001DA002DF1DC00210CE000EB1973491C5A
:1018D0001B786D1E082902F808304FEA091908F133
:1018E000010801DA002DF0DC21688B0602D516E034
:1018F000A8F10108E04505DD02EB080313F8013CFF
:10190000302BF5D0B8F1000F09DD02EB080313F816
:10191000013C2E2B03D1090701D4A8F10108002DA9
:1019200005DD3E2102F808106D1E08F10108407C1B
:10193000002E02F8080008F1010804DA2D20764292
:1019400002F8080002E02B2002F808000A214FF4F8
:101950007A70864208F101080BDB96FBF0F3303316
:1019600002F8083096FBF0F308F1010800FB13665B
:1019700001E0642E0CDB642096FBF0F3303302F8B8
:10198000083096FBF0F308F1010800FB136601E054
:101990000A2E06DB96FBF1F0303002F8080008F161
:1019A000010896FBF1F001FB1060303002F80800EE
:1019B000A16908F1010808EB050202EB0A00081A08
:1019C000A0612078C00602D42046FEF707FE216AF7
:1019D00008AE01EB0A00206204E0D4E9012116F808
:1019E000010B9047BAF1010AF7D22078C00602D560
:1019F0002046FEF7F3FD6E4609E016F8010B3E287F
:101A00000FD0D4E901219047206A401C2062B8F130
:101A10000108F2D22046FEF7F7FD09B00320BDE829
:101A2000F08F206A2844206203E0D4E901213020AD
:101A300090476D1EEBD3F8E79DFE000002FCFFFF10
:101A40002DE9F0411F46044603260168072A01F4E8
:101A5000006004DB08B116A505E016A503E008B197
:101A600015A500E015A521F010002060A069C01E9A
:101A7000A0610FB1401EA0612046FEF7AFFD4FB13F
:101A8000D4E9012138469047206A401C2062C01CDE
:101A9000206206E0206AFAE7D4E9012115F8010B7B
:101AA0009047761EF8D22046FEF7AEFDBDE8F081E5
:101AB0004E414E006E616E00494E4600696E6600F2
:101AC00010B5436913B1AFF3008001E0FFF726FCC6
:101AD000012010BD128800F1240182840022C284FA
:101AE0000122EDE711684FF0FF32E9E72DE9F34FEE
:101AF0004FF0000A0C4656468DB001200C9001F1C3
:101B00000C000B9062690B9801219047051E2DD0A7
:101B1000252D2CD0216A8847C0B162690B9801211C
:101B20009047216A88470028F7D16269411E0B98C7
:101B3000904700E0761CA1690D988847216A884784
:101B40000028F7D1E1690D988847DBE7A1690D9876
:101B50008847A842074601D1761CD3E7E1690D9872
:101B600088477F1C02D1BAF1000F6FD06BE1626928
:101B70000B9800273D46394690472A2804D16269D0
:101B80000B98012190470125DFF8D08262690B98FC
:101B900001219047A0F130010A290AD24745E5DC2E
:101BA00007EB870100EB4107303FDFD445F010051C
:101BB000ECE7E90601D46FF000476C280AD04C2806
:101BC00014D0682815D06A280DD074281CD07A2823
:101BD0001AD01DE062690B98012190476C2802D051
:101BE00045F0040514E045F002050DE045F0200540
:101BF0000AE062690B9801219047682802D045F0FD
:101C0000080505E045F4006562690B9801219047DD
:101C1000C4E9015765283DD019DC58287AD00CDC7E
:101C2000452837D004DC252826D041289ED131E034
:101C300046282FD0472899D12CE05B2877D06128FF
:101C400028D063287CD0642823D15AE0F6E06F289E
:101C500048D008DC66281DD067281BD0692821D011
:101C60006E2816D127E0702845D0732868D07528D3
:101C700047D078280DD14DE0A1690D9888472528D7
:101C800005463FF469AFE1690D9888476D1C3FF444
:101C90006AAFD8E00D9923466A466FF001000FF055
:101CA00009FCC5E045F0400023464FF000026060AB
:101CB000A80736D43EE0E8077FF447AF2068011D4F
:101CC00021600068290501D506701BE7290701D5A9
:101CD000068017E7A90703D5F117C0E9006111E7EE
:101CE00006600FE745F0400023464FF008026060B1
:101CF000A80716D41EE040F60E0125EA0100606038
:101D000016E045F0400023464FF00A026060A80745
:101D100007D40FE045F040006060A80708D52346CF
:101D200010220D996FF00100AFF3008080E007E012
:101D3000102223460D996FF00100AFF3008077E089
:101D40004FF0000963284F46C8464B46CB4602D0A9
:101D50005B2806D038E0E80601D40120A060012706
:101D600032E06269D4F80CB00B98012190475E28EC
:101D700007D14FF0010949466269D4F80CB00B98BD
:101D80009047216939B900210A4603AB43F8212065
:101D9000491C0829FADBD8B3216949B308F10108C5
:101DA00062690B98012190475D28F4D1B9F1000FC9
:101DB00009D0002003A951F82020D24341F8202067
:101DC000401C0828F7DB03AB2069002820794FEA84
:101DD00040701ED05B462246CDF80080CDE90197C9
:101DE0000D9900286FF0010020DAAFF300801FE0AA
:101DF000C11703AA00EBD1614B1121F01F0102EBC7
:101E00008302411A13680120884003431360C7E727
:101E100019E00D99224600286FF00100009702DAC0
:101E2000AFF3008004E0FEF791FD01E0AFF3008026
:101E300000280ADA401C06D10C9820B14FF0FF3080
:101E40000FB0BDE8F08F5046FAE7E90701D10AF17B
:101E5000010A064400200C9054E60000CCCCCC0CC7
:101E60002DE9F05F824615468B4600270AF10104F2
:101E7000B9460078302801D09DB113E014F8010B69
:101E80000127782803D0582801D045B10AE00DB1C8
:101E9000102D07D1002714F8010B102502E00825AA
:101EA00000E00A250026B0460EE005FB080005FB11
:101EB00006F101271FFA80F801EB1046B6F5803FC6
:101EC00000D3B94614F8010B294600F0F2F80028B7
:101ED000EBDABBF1000F05D00FB1641E00E05446F1
:101EE000CBF80040B9F1000F06D0FEF72BFF02211E
:101EF0000160C81EBDE8F09F48EA0640FAE700000E
:101F00002DE9F047814616468AB0354878440DC819
:101F10008DE80D0032487844801C03AC0DC884E87D
:101F20000D0041F69B300844372190FBF1F290FB05
:101F3000F1F5A5F1800501FB12041B3C02D56442BA
:101F4000012000E00020DFF898A080460027FA4436
:101F5000AAF1BE0A0EE0E0070AD03246684607EB57
:101F6000470101230AEB810101F05EF88DE80700CB
:101F700064107F1C002CEED1194F7F44AE3F19E056
:101F8000E80715D007EB04100DF1180A90E80E00D1
:101F90008AE80E00C068F04201D1981908903246D4
:101FA000012306A903A801F03FF803AB83E807006B
:101FB0006D10641C002DE3D14FF0010332466946D9
:101FC000B8F1000F03A802D001F004F801E001F01D
:101FD0002BF8C9E90001C9F808200AB0BDE8F0876C
:101FE0006CF80000007B00F08000704770B516466A
:101FF0000C460546FFF74CFB036893F801010128E6
:1020000006D0FF2C0FD8185D68B101202C7070BD70
:10201000D3F807013246214603F20713034428464A
:10202000BDE8704018474FF0FF3070BD30B5034633
:102030001D781DB10A4603E0AC4201D1181A30BD2B
:1020400012F8014B002CF7D15B1CF1E730B50346C9
:102050001D783DB10A4612F8014B1CB1AC42FAD1D1
:102060005B1CF5E7181A30BD7546FFF70DFBAE4651
:1020700005006946534620F00700854618B020B594
:10208000FEF7E6F9BDE820404FF000064FF00007EC
:102090004FF000084FF0000B21F00701AC46ACE810
:1020A000C009ACE8C009ACE8C009ACE8C0098D467D
:1020B00070473A2800D2303820F02002412A01D35C
:1020C000A2F13700884201D34FF0FF307047000083
:1020D0002DE9FF4F06468BB00878FF2806D0491C33
:1020E0002D2805D000244FF0000908E000200CE066
:1020F0000124F8E709EB8903491C00EB4309087840
:10210000FF28F7D114B1C9F10000814610780025ED
:102110002C46AA4629462D2801D02B2804D1521C32
:102120002D2813D0002082468B461078FF280FD030
:102130004FF0000C0A21521CA5FB017804FB018121
:1021400005FB0C11C5194BEB0104EEE70120EAE792
:10215000002108464FF00000BAF1000F02D000EB5A
:1021600080004008C0F38157012F01DD4FF0FF3799
:102170000E9955EA040009EB01080BD04FF0020953
:1021800018F5FA7F16DA4FEACA70002F706008DD82
:10219000012007E04FEACA70C6E900B00FB0BDE801
:1021A000F08F00203060FEF7CDFDC0F800901821C0
:1021B000084616E0B8F5FA7F18DD002F02DAF74876
:1021C000784401E0F6487844D0E90010C6E90010F0
:1021D00040EACA707060FEF7B5FDC0F800901421A7
:1021E00008460FB0BDE8F04F0FF0FDB800210846DB
:1021F0004FF00000B8F10001099002DAC7F10002C7
:1022000000E03A4601DAC8F1000106A8FFF778FEBF
:1022100006AB93E8070003AB83E8070044F23E00F7
:102220005BEA04010090584604D144F21E012C469A
:102230005D460091210C0904014306D10099240454
:1022400044EA15442D041039009104F07F41014304
:1022500006D10099240244EA15642D020839009140
:1022600004F07041014306D10099240144EA157439
:102270002D01091F009104F04041014306D100994E
:10228000A40044EA9574AD00891E009104F0004159
:10229000084304D100986D196441401E00904FF02E
:1022A00001033A466846B8F1000FCDE9014503A99C
:1022B00002DD00F0CEFE01E000F0A1FEBAF1000F59
:1022C00004460D4601D084F00044002108464FF03A
:1022D0000000099940F2FF77484010F00C0F07D139
:1022E00024F00040284303D0C4F30A50B84212D16E
:1022F000FEF728FDC0F80090C4F30A50B8420AD196
:10230000A8487844D0E90010C6E9001004F0004164
:102310000843706042E7C6E900543FE72DE9FF4FEC
:102320001F464FF0000A4FF0FF38454691B0D7E9FD
:102330000146CDF83CA0FFF7B3F9C0680168405CE6
:102340001090B96912986D1C8847396A8146884790
:102350000028F6D1B9F1FF3F0AD0002E24F4D06452
:1023600011DDB9F12B0F08D0B9F12D0F0BD102E01F
:10237000404615B013E744F48064B96912986D1CA7
:102380008847761E8146600504A901D52D2000E00E
:102390002B20002E01F1010B0DF130088DF81000FB
:1023A0003FDDB9F1690F08D0B9F1490F05D0B9F196
:1023B0006E0F02D0B9F14E0F1CD13B4601A800951B
:1023C00080E85002DDE912126FF002000FF076F89B
:1023D000C11CCED10EE0B96912986D1C88478146A8
:1023E0001398761E44F4007405600F98401C002E6C
:1023F0000F9016DDB9F1300FEDD0B9F1780F02D0A2
:10240000B9F1580F0DD10F9801280AD13B46CDE9FB
:102410000054DDE91212001F02960FF04DF8C11CA6
:10242000A7D1109989453ED144F0800406E0139964
:10243000681CAAF1010A44F400740860B9696D1CB3
:102440001298761E884730288146F0D02BE01099EC
:10245000894505D1200603D4761E44F0800418E097
:10246000484607F0F1FE08B3761E0DF123018B45B7
:1024700044F4007408D2A9F130000BF8010B2006D7
:1024800007D5AAF1010003E0200602D40AF10100F9
:102490008246A00502D51399681C0860B969129894
:1024A0006D1C88478146002ED1DC53E0002E51DDA3
:1024B000B9F1650F02D0B9F1450F4BD1A00549D54F
:1024C000B9696D1C1298761E24F440748847002E5A
:1024D00081460CDD2B2804D0B9F12D0F07D144F42F
:1024E0008074B96912986D1C8847761E8146E00594
:1024F00001D52D2100E02B2108F8011BCDF800802B
:1025000021E0761E0DF13901884544F400740CD2A7
:10251000A9F1300010F0FF0088F8000002D1009906
:10252000884509D908F1010806E0E00501D51E48F3
:1025300001E042F20F708246B96912986D1C88471B
:10254000814613980560002E04DD484607F07CFEA6
:102550000028D6D1F96912988847FF2053468BF896
:10256000000088F8000000200A900B9004AA0CA933
:102570000AA8FFF7ADFDA00502D46FF00100F8E650
:1025800014F0240F12D0E0071CD13868DDE90A12DC
:10259000031D3B600068C0E9001213E074FB0000FB
:1025A00066FB00002AFA0000F1D8FFFF0AA968467E
:1025B00007F0E2FDE00705D13868009A011D396097
:1025C000006802602846D4E610B50446AFF30080E8
:1025D0002046BDE81040FDF71EBF00002DE9FF4F6B
:1025E0001F464FF03C0987B04FF00042DDE9141060
:1025F00001F10108DDF858A002EA405003900020E4
:1026000005908346054604460490B969461E08981D
:102610008847AAF1010A0290BAF1000F3BDD029847
:102620002E2815D01021FFF744FD00282EDB4FF097
:10263000010B0599014317D0B9F1000F0BDB4A4696
:10264000C11700F0F5F905430C43A9F1040905E0B1
:10265000012004900BE008B145F001050120059030
:10266000049820B9361D02E0049800B1361FB969FC
:10267000089808F101088847BBF1000FAAF1010A88
:102680000290C9D00999C1F80080C5E70298702866
:1026900008D0502806D0F96908988847BBF1000F88
:1026A00014D04FE0002002900120BBF1000F0490F5
:1026B00009D0B969089808F101088847AAF1010909
:1026C000B9F1000F07DCF969089888476FF001003D
:1026D0000BB0BDE8F08F2B2804D02D280CD14FF083
:1026E000FF300490B969089808F101088847A9F1FA
:1026F0000109B9F1000FE6DD411CE4D00A21FFF722
:10270000D8FC0028DFDB029908F1010801EB810108
:1027100000EB41000290B969089888470A21FFF749
:10272000C8FC099AA9F10109B9F1000FC2F80080AB
:1027300001DD0028E7DAF9690898884704990298CA
:1027400000FB016655EA040004D004F04041090092
:1027500002D006E0039898E0A40044EA9574AD0026
:10276000B61E04F00041080002D16D196441761EC6
:10277000159810F0240F03D04FF00B095C4803E0CC
:102780004FF028096FF07D008246564507DAAAEB24
:1027900006018944B9F1410F01DD4FF041090120E3
:1027A0000021A9F1010200F043F9024628400B463E
:1027B0002140084301D0012100E00021501E029178
:1027C00043F1FF3128402140084301D0012000E0BF
:1027D00000200299834651EA0B014FD000210846A0
:1027E0004FF00000039900F4400039B100EB800085
:1027F0004FF4400100EBD07001EA60008015012821
:1028000002DD4FF0FF3000E013D0401C36D00298BC
:1028100060B3BBF1000F0CD14A460120002100F04B
:1028200007F928402140084301D0012000E00020A2
:10283000E0B101204A46002100F0FAF803464019B1
:102840000A4661412D1A8C4111D3B9F1400F09DDBF
:10285000159810F0240F02D0AAF1340603E0AAF173
:10286000170600E0761C00254FF0004406E05B1ED2
:1028700042F1FF3220EA030521EA0204CAF1010015
:10288000B04206DA1B4903980843019000200090EB
:102890000EE0039AC4F3D321E80A0A43164940EA3A
:1028A00044500A433146CDE90002684607F070FC07
:1028B000159810F0240F0BD01598C00715D1386863
:1028C000DDE90012031D3B600068C0E900120CE066
:1028D00002A8694607F050FC1598C00705D1386872
:1028E000029A011D3960006802604046F0E600006F
:1028F00002FCFFFF0000F07F0000F03F2DE9FF4FDA
:1029000092461D4685B04FF00041DDE9124BDDE9EE
:1029100014727F1E01EA4B50414940F0FF4940EAE2
:102920000108002122F020004928049102D04E28FD
:1029300028D04CE03BA0012607C88DE80700A96914
:102940000698641C88477F1E014606D41DF80600C1
:1029500018B121F0200181420BD0E969069888471F
:10296000032E34D0082E32D06FF0010009B0BDE83C
:10297000F08F761C032E01D0082EE0D1601CCAF81F
:102980000000DCE7A9690698641C88477F1E2AD4EA
:1029900020F02000412826D1A9690698641C8847A8
:1029A0007F1E20D420F020004E281CD1A969069853
:1029B000641C88477F1E48F4002849F48009CAF83F
:1029C000004001D4282806D0E969069888475FEAC4
:1029D000CB7012D022E0A9690698641C88477F1E3C
:1029E00001D4002803DAE96906988847BCE729285A
:1029F000F1D1641CCAF80040E9E71BF0240F07D0AE
:102A000028680499031D2B600068C0E9001805E0E0
:102A10002868021D2A600068C0F800902046A5E7DB
:102A20000000F07F494E46494E49545900000000CD
:102A3000B2F120030AD5C2F1200301FA02F120FA13
:102A400003F300FA02F041EA0301704700FA03F1D0
:102A50004FF0000070475FEA400C08BF91F0000F94
:102A60004FEA8C234FEAC12243EA51514FEA1C50EE
:102A700018BF00F5F0404FEA300018BF41F00041A8
:102A80005FEA6C5C00F02980BCF1FF3F08BF40F0BA
:102A900080407047130C06BF12044FF0100C4FF02B
:102AA000000C130E04BF12020CF1080C130F04BF2C
:102AB00012010CF1040C930F04BF92000CF1020CF4
:102AC000D30F04BF52000CF1010C11464FF000026D
:102AD000A0F11F00A0EB0C00704711F0004F08BFE1
:102AE000704731F000413FF4D5AF0B0C06BF09042D
:102AF0004FF0100C4FF0000C0B0E04BF09020CF14C
:102B0000080C0B0F04BF09010CF1040C8B0F04BF60
:102B100089000CF1020CCB0F04BF49000CF1010C31
:102B2000CCF12003A0EB0C0022FA03F302FA0CF222
:102B300041EA030100F10100704720F07F4C80EA78
:102B4000030023F07F47ACEB070303F57C5300F051
:102B5000004003F1FF032DE980494FEA154B09B40A
:102B60004FEA144325EA0B4E24EA03480FF20426E9
:102B700006EB132749083E785FEA320203FB06673B
:102B8000C7F5000707FB06F64FEA54374FEAD6466B
:102B900006F1020607FB066CCCF1005C4FEA1C470D
:102BA0002CEA074C07FB06F40CFB06F504EB154674
:102BB0004FEA961634BF00204FF000404FEAD1375D
:102BC00006FB07FC4FEA1C4C0CFB0BF7D21B03FB6C
:102BD0000CF761EB07010CFB0EF7B0EB074072EB53
:102BE00017420CFB08F734BFA2EB0742B2EB0742D7
:102BF00061EB17414FEA0C444FEA910706FB07FCD3
:102C00004FEA1C4C0CFB0BF7B0EBC74072EB573292
:102C100003FB0CF734BFA2EBC742B2EBC74261EB38
:102C200057310CFB0EF7B0EBC70072EB57720CFB81
:102C300008F734BFA2EBC702B2EBC70261EB5771D2
:102C4000039F4FEA816141EA921104EBCC044FEA01
:102C5000D1374FEA826206FB07FC42EA90124FEA44
:102C600080604FEA1C4C0CFB0BF7D21B03FB0CF7EC
:102C700061EB07010CFB0EF7B0EB074072EB17425C
:102C80000CFB08F734BFA2EB0742B2EB074261EB43
:102C900017414FEA8C554FEA910704EB9C2406FB41
:102CA00007FC4FEA1C4C0CFB0BF7B0EBC74072EB78
:102CB000573203FB0CF734BFA2EBC742B2EBC7425B
:102CC00061EB57310CFB0EF7B0EBC70072EB57729C
:102CD0000CFB08F734BFA2EBC702B2EBC70261EBF3
:102CE000577115EB4C254FEA816141EA92114FEA89
:102CF00082624FEAD13742EA901206FB07FC44F1A8
:102D000000044FEA80604FEA1C4C0CFB0BF7D21B0F
:102D100003FB0CF761EB07010CFB0EF7B0EB074070
:102D200072EB17420CFB08F734BFA2EB0742B2EB81
:102D3000074261EB174115EB1C154FEA813141EA5F
:102D400092414FEA823242EA90424FEA80304FEAA3
:102D50000C7644F1000448EA03434EEA0B484FF076
:102D6000000EB2EB080C71EB030724BF6246394634
:102D70004EEB0E0E4FF0000B0018524149414BEB49
:102D80000B0BB2EB080C71EB03077BF1000B24BFBC
:102D9000624639464EEB0E0E4FF0000B00185241C2
:102DA00049414BEB0B0BB2EB080C71EB03077BF1CA
:102DB000000B24BF624639464EEB0E0E51EA020765
:102DC00018BF46F0010616EB0E7655F1000254F1DD
:102DD000000103D5BDE88901BDE80088BDE889018F
:102DE000BDE80048B619524141EB0101A3F10103CE
:102DF000704780807F7E7D7C7B7A79787776767568
:102E00007473727171706F6E6E6D6C6C6B6A6A69DF
:102E10006868676666656464636362616160605F79
:102E20005F5E5E5D5D5C5C5B5B5A5A5959585857F2
:102E3000575656555555545453535252525151505A
:102E400050504F4F4F4E4E4D4D4D4C4C4C4B4B4BAD
:102E50004A4A4A49494948484847474747464646F3
:102E6000454545444444444343434342424242412E
:102E70004141000046EA0646A3F570534FEA164664
:102E800046EA42564FEAD22242EA415210B54FEA90
:102E9000D121A3F1010300F02FF820F0004000F150
:102EA000020C00F0004701EB00501146BCF5006F2A
:102EB00040EA070000D210BDBAF1000F0AD01CB5DD
:102EC00003B44FF004004FF004014FF000000FBCBA
:102ED000BDE810404FF00001BBF1010FB9BF04483D
:102EE0004FF0FF310348002140EA070010BD00BF4A
:102EF000FFFFEF7F0000F07F002B9C4630D477006F
:102F00002BD01CB54FEA370703B44FF010004FF039
:102F10001001BAF1000F06D0BCF1000FDCBF40F089
:102F2000080040F008014FF000000FBCBDE8104061
:102F30000BF1010BBBF1010F08BF5FEA170722BFBE
:102F400012F1010211F101014FF0004143F10003C0
:102F500000F0004043EA00007047F9D35708D0E77B
:102F600046EA064613F1400F4FEA16461FDD13F1FD
:102F7000200FDFBF16430A46002120335B42BED03C
:102F8000C3F1200746EA064602FA07F74FEA16465B
:102F900046EA0706C3F1200722FA03F201FA07F70F
:102FA00021FA03F14FF0000342EA0702A7E746EADD
:102FB000020646EA06464FEA164646EA0106BCBF46
:102FC00046EA0646360C4FF000034FF000024FF081
:102FD000000194E72DE9804C9A46934670B491E83D
:102FE000380007C831EA400C48BF34EA430C03D527
:102FF000FFF7A3FDFFF780FFF0BCBDE8008C2DE9D3
:10300000804C9A46934670B491E8380007C831EA7C
:10301000400C48BF34EA430C03D5FFF78EFDFFF7A1
:1030200029FFF0BCBDE8008C2DE9804C9A46934600
:1030300070B491E8380007C810F0804F08BF13F053
:10304000804F03D100F01AF8FFF756FFF0BCBDE83F
:10305000008C2DE9804C9A46934670B491E8380074
:1030600007C810F0804F08BF13F0804F03D100F065
:1030700005F8FFF7FFFEF0BCBDE8008C20F07F47AD
:1030800080EA030023F07F4C07EB0C03A3F57C538D
:1030900000F00040A3F1FE0392F0000F00F0B380B7
:1030A00095F0000F00F077802DE901494FEA1140BB
:1030B0004FEA144621EA004800FB06FC24EA0647D2
:1030C00008FB06F607FB08F800FB07F718EB0648B5
:1030D0004CEB164C4FEA124B18EB07484FEA1546DB
:1030E0004CEB174022EA0B4E0BFB06FC25EA064789
:1030F0000EFB06F607FB0EFE0BFB07F71EEB064E5C
:103100004CEB164C4FF000061EEB074E4CEB174BEA
:1031100018EB0B0840F1000018EB0E0B58EB000801
:1031200040F100008F1A4FF000013CBFC943661BFD
:1031300014BFB5EB040C00213CBFC943F61B4FEA9A
:1031400017444EEA8E0E27EA04454FEA1C4704FB5B
:1031500007622CEA074C05FB07F70CFB05F604FB9E
:103160000CFC16EB074642EB174216EB0C4642EB03
:103170001C421BEB060658EB0202414146EA9E0642
:1031800001D5BDE80189B619524141EB0101A3F116
:103190000103BDE801894FEA14454FEA114724EACB
:1031A000054621EA074C05FB07F406FB07F70CFB75
:1031B00006F105FB0CFC11EB074144EB17444FEA09
:1031C000124711EB0C4144EB1C4422EA074C05FB6F
:1031D00007F206FB07F70CFB06F605FB0CFC16EBEB
:1031E000074642EB174216EB0C4642EB1C456A18A9
:1031F00054F1000148BF7047B619524141EB01013B
:10320000A3F10103704795F0000F37D04FEA114248
:103210004FEA144721EA024624EA074C02FB07F171
:1032200006FB07F70CFB06F402FB0CFC14EB07444F
:1032300041EB17414FEA154714EB0C4441EB1C419D
:1032400025EA074C02FB07F506FB07F70CFB06F621
:1032500002FB0CFC16EB074645EB174516EB0C463C
:1032600045EB1C42121951F1000148BF7047B619D5
:10327000524141EB0101A3F1010370474FEA1445AC
:103280004FEA114724EA054621EA074C05FB07F1FE
:1032900006FB07F70CFB06F24FF0000605FB0CFCE3
:1032A00012EB074241EB174112EB0C4251EB1C4170
:1032B00048BF7047921841EB0101A3F10103704729
:1032C000F0B50B46144600212DED028B85B08DF82C
:1032D0000810DFED520A60EE200A9FED515A03916B
:1032E0005826022560EE850A012B03AAFCEEE00AAF
:1032F00010EE901A89B222D05927022B22D0B7EEB5
:10330000C01A032BF2EE0E5A2ED0042B28D110EE49
:10331000101A444BB7EE043B9942B2EE042BB2EEC6
:10332000046AB7EE084B53DA31EE431BC0EE060ACF
:1033300081EE023BB7EEE00A33EE000B5AE08DF867
:10334000086001E08DF808700B0A8DF80C3001233D
:10335000CDE9002502AA8DF80D10214604F00EFBE0
:1033600005B0BDEC028BF0BD10EE101A2E4B9FED98
:103370002F0B9FED303B9FED312B9FED327B994220
:10338000B3EE044B09DA9FED318B9FED326B01EE0A
:10339000086BB7EEC61BB7EEC11A31EE401B81EECB
:1033A000046B33EE461B01EE020B9FED2C1A30EE40
:1033B000470BB7EEC00BDFED2A0A50EE010A20EEF4
:1033C000A50A20EE050ABCEEC00A10EE101AB6E7F8
:1033D000DFED240ADFED246A50EE206AB7EEE60A3C
:1033E00030EE431B81EE020B86EE861AB7EEC11A51
:1033F00030EE010B80EE041BDFED1D0AB7EEC10BB2
:103400009FED1A1A40EE010A20EEA50A20EE050AE9
:10341000BCEEC00A10EE101A94E70000000003434F
:1034200000007A4400009041000020412FDD240676
:103430008195F33F52B81E85EB51F03F6666666694
:1034400066660A40A835CD3B4ED1F33F4B598638CE
:10345000D6C5EF3F2DB29DEFA7C6C33F1EA7883F3D
:103460006C09F93A9565B83F91EDF440B537883F5E
:1034700052499D3970B50C4605460A46FF2100F0B9
:103480002AF8AA280ED0AB222346FF21284600F0B6
:1034900070F8FF212246284600F01DF8AB2801D025
:1034A000012070BD002070BD03F012BD2DE9F8436E
:1034B000002417460D4680466E463A46281981B2CA
:1034C000404600F008F83055641CE4B2032CF4D9EF
:1034D0000098BDE8F8832DE9F04117460D460646F1
:1034E00004F08EF82C0AB7F5006F08D3A0213046FF
:1034F00003F0A2FF304604F071F9214603E0A0205A
:1035000000EB4400C1B2304603F096FF304604F0B1
:1035100065F93046E9B203F08FFF304604F05EF9FA
:10352000304604F06DF8A121304603F085FF3046A7
:1035300004F054F90021304603F09AFE0446304668
:1035400004F0D4F82046BDE8F0812DE9FF410024C5
:103550001F4602AE0D4680463B46281981B2325DB9
:10356000404600F006F8641CE4B2032CF4D9BDE830
:10357000FF812DE9F0411C4616460D46074604F032
:103580003FF823462C0AB3F5006F08D3A021384634
:1035900003F052FF384604F021F9214603E0A02051
:1035A00000EB4400C1B2384603F046FF384604F051
:1035B00015F93846E9B203F03FFF384604F00EF93A
:1035C0003146384603F038FF384604F007F93846EC
:1035D00004F08CF8BDE8F0410A2008F0F7B8FEE7E7
:1035E00070B5054603F074FC012D16D10B4A01217C
:1035F000284600F075F8094A012104462846921C25
:1036000000F0C4F8204410F0FF0F01D004A000E047
:103610000AA0BDE87040FCF7BFBF70BDDE0000240B
:10362000496E697469616C20504444206361743947
:10363000353535206661696C2E0D0A00496E697456
:1036400069616C20504444206361743935353520FC
:103650006F6B2E0D0A000000F0B5BFF34F8FBFF364
:103660006F8F1D4900200860BFF34F8FBFF36F8F2E
:103670001A4C216841F400312160BFF34F8FBFF332
:103680006F8F164970310860BFF34F8F081F0068B5
:1036900043F6FF75104E1036C0F34E31C0F3C90328
:1036A00005EA4112184642EA80773760401EFAD296
:1036B000491EF5D2BFF34F8F206840F48030206060
:1036C000BFF34F8FBFF36F8F03484C30016841F059
:1036D00004010160F0BD000050EF00E014ED00E0D7
:1036E00038B53E24134604EB41010224009406221F
:1036F000C9B200F00AF8002800D0012038BD38B562
:10370000049C009403F0D2FC38BD0FB583B0089A36
:10371000CDE90032012305AA04F030F907B000BD5D
:103720002DE9FC47491E8146C8B2164640220109D0
:10373000C0F3C005AD1C02EB41012A4600F00704AE
:1037400088460127484601AB0097FFF7D8FF88B9A4
:10375000012E12D00C489DF80410005D08402A4646
:1037600001AB41468DF8040048460097FFF7CDFFB6
:10377000002800D00120BDE8FC8703489DF8041014
:103780000830005D0843EAE7E200002438B53E2433
:10379000134604EB4101022400942246C9B2FFF70C
:1037A000B4FF002800D0012038BD03B41E229DEDD7
:1037B000010A9DF80010022002B0FFF781BD062823
:1037C00010B545D2DFE800F044030A1B222E012287
:1037D00008210120FFF7A4FF002205E001220821B3
:1037E0001046FFF79DFF012207210120FFF798FFF8
:1037F000002206210120FFF793FF002222E0012290
:1038000008211046FFF78CFF002205E00122082165
:103810001046FFF785FF012207210120FFF780FFF7
:103820000122E6E7012208211046FFF779FF002276
:1038300007210120FFF774FF002206210120FFF776
:103840006FFF01220B21BDE810400120FFF768BF88
:103850000022BDE710B52DED028BFFF7B0FF10A0E1
:103860000CF0C4FD1C2007F0B1FF134C2078012898
:1038700004D09FED120ABDEC028B10BD104805F07C
:103880004FFEB7EEC08B0F48C82180ED008A0020A4
:1038900020700B48FDF7AAF9B0EE480AEBE70000EC
:1038A000726561645F766F6C746167655F76616C89
:1038B00075650D0A00000000C50000240000C6C2A6
:1038C000D8050024F00200247047000010B509F06C
:1038D00061FC06484FF40041006800F58B50016020
:1038E000402101600121016010BD00001408002486
:1038F00070B5A2B006460024694601258DF8045033
:10390000680306908DF80F504FF4C3608DF80E5089
:103910000D9020208DF81D408DF80C4009948DF8F5
:103920001F4012948DF832508DF828408DF8605069
:1039300017904FF040508DF838400F9402948DF856
:1039400061408DF81C4014948DF862400B948DF802
:103950001E500090A8038DF811508DF840408DF84E
:103960003140059002208DF812408DF85640169097
:1039700030468DF820508DF854408DF830408DF849
:1039800010508DF80D408DF8554011948DF84C5025
:1039900000F0CEF91B9569058DF871404FF4067063
:1039A0008DF8685019948DF880408DF870401F9103
:1039B0008DF878401D9119A98DF8814021903046ED
:1039C00000F066F922B070BD2DE9F047846A00F17D
:1039D000180692468B680027254656F82420D2F810
:1039E0000CC0BCF1000F63DB91F800805FEA4878FF
:1039F00037D5D1F824806FF30F0C4CEA080C4CF447
:103A0000803CC2F80CC0D0F800C0DCF8608048F4FC
:103A10008018CCF8608091F800C05FEA0C7C20D55B
:103A2000B1F82CC0A2F80AC0D2F80CC04CF4003C8B
:103A3000C2F80CC0D1F830802CF4402C4CEA080CB1
:103A4000C2F80CC0D0F800C0DCF8648048F48018DC
:103A5000CCF864800068D0F850C04CF0806CC0F89E
:103A600050C00878C0060BD59068D1F818C06FF325
:103A70000D0040EA0C009060D06840F08060D0609B
:103A8000087810F0140F14D0D068641C042C40F097
:103A90004040D06000D3241F012756F82420D0686E
:103AA000002806DA56F82500C16821F00041C160FF
:103AB0008DE018687F1C10604FF000099068D3F803
:103AC00004C06FF30D0040EA0C009060D3F808804A
:103AD000DFF8B8C1B8F1000F0BD04346D8F800802A
:103AE000C2F8048000EA0C00B3F8048040EA084001
:103AF00003E000EA0C00C2F8049090600878C00669
:103B0000D0680FD5B1F8208020F4F00040EAC8401A
:103B1000D060D1F81C806FF3110040EA080040F437
:103B200080201CE0D1F804806FF30E0040EA08000A
:103B3000D06091F800805FEAC87806D0D1F8148090
:103B400020F4403040EA0800D0600878800607D5AD
:103B5000D068D1F8108020F0406040EA0800D060C2
:103B60000878400707D59068D1F8288020F44040B5
:103B700040EA08009060D06820F0804040F020408B
:103B8000D06091F800805FEA887869D5D1F80C8020
:103B900020F0607040EA080061E0641C042C00D34F
:103BA000241F56F82420D068002813DA56F8251070
:103BB00000200AE0CA686D1C042D22F00042CA6091
:103BC00000D32D1F401C56F82510B842F2D3022016
:103BD000BDE8F08718687F1C10609068D3F80480F7
:103BE0006FF30D0040EA08009060D3F80880B8F148
:103BF000000F0BD04346D8F80080C2F8048000EADA
:103C00000C00B3F8048040EA084003E000EA0C002E
:103C1000C2F8049090600878C006D06808D5D1F842
:103C20001C806FF3110040EA080040F4802011E08E
:103C3000D1F804806FF30E0040EA0800D06091F8DC
:103C400000805FEAC87815D0D1F8148020F44030A5
:103C500040EA0800D06020F0804040F00040D06092
:103C60009B68002B99D19068BAF1000F04D040F006
:103C7000004003E0D068EEE720F000409060D0689C
:103C800040F08050D06000203461A1E7FFFF00C009
:103C900030B5026802F58052136847F60204A34368
:103CA0000C68234313600A790B7B120342EAC33387
:103CB0008A681343026802F5805254684DF2010588
:103CC000AC431C4354604B7B0A6A42EA03430268DC
:103CD00002F58052D2F80041124D2C401C43C2F82C
:103CE00000410A7D4B7F120142EA03330A69134304
:103CF000026802F58052D2F804410B4D2C401C435F
:103D0000C2F8044100688A69097F00F5805042EAE0
:103D1000C171D0F80821054B1A400A43C0F80821A8
:103D200030BD000000C0FEFFEFEFC0FFFFFFC07F0F
:103D300030B50B688A680C7B1A430B79DB0643EAC3
:103D4000C4531A434B7B42EA83528B7B42EA435271
:103D5000CB7B42EA03530A7C002A7CD0002243EA50
:103D6000C2434A7C002A78D0002243EA42428B7C3C
:103D700042EA03424B691A438B691A430B7F42EABA
:103D800003324B7F42EAC3238A7F002A66D0002297
:103D900043EA8222CB7F42EA432391F82020002A83
:103DA0007ED0002243EA02224B6A1A4391F828305F
:103DB00042EA0313CA6A134302681468434D2C4055
:103DC0001C43146091F83C2091F83830520642EAC6
:103DD000036291F8303042EA834291F8313042EA8E
:103DE000434391F83220BAB3002243EA02434A6BBC
:103DF000134302685468364D2C401C43546091F8BC
:103E000040304A6C42EA03230268D46840F20F153E
:103E1000AC431C43D46091F854300A6D42EA43032A
:103E200091F84C20EAB30022B1F84840D20142EAAE
:103E3000044213430268146F4FF60D752C401C4367
:103E4000146791F8553091F8562042EA430302680E
:103E5000D2F8904003E02BE032E02BE02CE024F09D
:103E600003041C43C2F890400268D2F8003D8C6DF8
:103E700023F072032343C2F8003D91F86020CB6D1C
:103E800012B30022006843EA821291F8613091F87F
:103E900062101B0143EAC1010A43D0F8301D01E062
:103EA0000CE00FE021F07B011143C0F8301D30BD64
:103EB000012254E7012258E7012269E7012271E754
:103EC000012292E70122AFE70122DBE783800400B1
:103ED0000080F8C030B5D1E901230D681A43D1E95B
:103EE000033423431A434B691A438B691A43D1E9BC
:103EF0000734496A012D056807D01A4322430A4353
:103F00006FF30E052A4302600AE025F4F8452343C7
:103F100029430B43416803606FF30E010A4342607B
:103F2000002030BD426942EA4101416100207047F2
:103F300018B5D1E900236FF01F041A438B68C968D4
:103F400004EB431343EA41210A430092026100203B
:103F500018BD0000F0B5D1E900346FF00F055B1E0D
:103F60002E0105EB041423438C682F034FEA054C04
:103F70000D8A06EB04248E8A2343CC68097E4FF019
:103F80007F4E012A07EB05450CEB06560EEB01614F
:103F90000CD082683F1107EB043423432B43334397
:103FA0000B4302F07042134383600FE08768084AB6
:103FB00017402203C468A2F5805232433A4382601C
:103FC0002B430B4304F070442343C3600020F0BD37
:103FD000FF0F0FFF10B528B190F83510022903D05C
:103FE00080214165012010BD1D4A4FF49563016891
:103FF0008C189C4207D8042280F83520086820F0ED
:104000000100086029E00C6824F00E040C600168CF
:104010000A440A6822F001020A60016E0A6822F46A
:1040200080720A6090F85C30012202FA03F10D4BB5
:104030001960D0E919134B60C16E31B10B6823F4DC
:1040400080730B60D0E91C134B60002180F83410A2
:1040500080F83520016D01B18847002010BD0000B7
:10406000F0FFFDBF0454025870B5026C00F12C0340
:10407000456C53F8221025B1DC6904B16D1C002495
:1040800023E0012070BD0E690E604FF08076CE6097
:104090004E692EB14E698E60CE6846F00076CE60D5
:1040A000CE6846F00046CE601E6A1EB1CE6846F06D
:1040B0008046CE609E69761EA64205D9521C042A0F
:1040C00000D3121F53F82210641CAC42DBD30068EB
:1040D00000F58050C0F828110020986170BD10B51F
:1040E00000EB8104E46A0AB1042903D3012141658C
:1040F000084610BD22602261E06840F08070E060F8
:104100004BB1A36040F000706361E06040F000409C
:10411000E060002010BDE068F8E700297DD002686B
:10412000126802F00C02CA6202681268C2F300123E
:1041300081F828200268126802F060024A62026870
:10414000126842F30022521C81F820200268126893
:10415000C2F34022CA770268126842F38022521CDE
:104160008A7702681268C2F3C0224A77026812682E
:10417000C2F300320A770268126802F400528A61C0
:104180000268126802F480424A6102681268C2F34F
:1041900000428A740268126842F34042521C4A7418
:1041A0000268126842F3C042521C0A740268126824
:1041B000C2F30052CA7302681268C2F340528A7393
:1041C00002681268C2F380524A7302681268C2F32E
:1041D000C0520A730268126802F0E0628A600268E4
:1041E0001268C2F3C0620A710268126802F0E0420B
:1041F0000A6002685268C2F30D024A63026852689C
:1042000042F30042521C81F8322002685268C2F325
:10421000404281F83120026800E062E05268C2F357
:10422000804281F8302002685268C2F3006281F84F
:10423000382002685268C2F34462CA630268D268D6
:10424000C2F3002281F840200268D26802F00F0217
:104250004A640268126FC2F3400281F85420026877
:10426000126F42F3C012521C81F84C200268126F88
:1042700002F070020A650268126F120C8A6402680A
:10428000D2F8902002F0010281F856200268D2F89C
:104290009020C2F3400281F855200268D2F8002D28
:1042A00002F072028A650268D2F8302D02F0230211
:1042B000CA650268D2F8302DC2F3C00281F86220CC
:1042C0000268D2F8302DC2F3001281F86120006834
:1042D000D0F8300D40F38010401C81F860000020C1
:1042E0007047012070472DE9F043066C00F12C085F
:1042F0000746406C0C464FF0000958F8265018B994
:10430000384600F061F9E8B3002017E0696939B375
:10431000C4B32969216079696160A46894B369694B
:10432000216079696160E968761C042EC1F30E0989
:1043300000D3361FA468401C58F82650D8F818102F
:10434000491E8142E2D8ECB1E868C0F30E01A1EB4E
:1043500009007969814205D32969C4E900100EE09A
:104360002969DDE7696969B1296921607969616055
:10437000A16839B16A690A607A69801A48600020C8
:10438000BDE8F083FFE70120FAE770B500F12C04E7
:104390000D46D4E9056111B900F016F968B1A069BC
:1043A000761E3044042800D3001F54F82000C06853
:1043B000C0F30E002860002070BD012070BD000019
:1043C000F8B5040003D094F8510010B104E00120C6
:1043D000F8BD204600F05CF9232084F851007048B5
:1043E000016841F002010160006800F002000090E5
:1043F000207A08B14FF4000002F08EF9206800F531
:104400008050016841F00101016000F021FCE026CC
:1044100005464FF4FA7706E000F01AFC401BB8425C
:1044200001D9042049E0206800F580500068C007E9
:10443000F2D12068D0F8000220F4706501F0ACFBE6
:104440005849594A0144914202D245F4007516E098
:104450005649574A0144914202D245F440750EE054
:104460005449554A0144914209D354490844544996
:10447000884202D245F4807501E045F480652068E9
:10448000C0F8005201F088FB4E49B0FBF1F0216802
:10449000401EC1F8DC002046FFF72AFA206800F52C
:1044A0008050D0F8001121F4E01141F40021C0F84F
:1044B00000116169880704D00120606584F85160AB
:1044C00085E7206800F58050D0F8082147F6FE7394
:1044D0009A4342EA4101C0F8081100210A46E06807
:1044E00001EB410300EBC30004EB8103491C0260B4
:1044F000042942608260C2609861F0D3A262032303
:10450000206800F58050C0F82C312068E16800F583
:104510008050C0F814112068E16800F58050C0F8A0
:1045200020110021206901EB410500EBC50004EBDF
:104530008105491C0260042942608260C2600261F8
:104540004261E862EED3E26322646264E264A264E0
:10455000206800F58050C0F830312068216900F5EE
:104560008050C0F81C112168206901F58051483045
:10457000C1F82801606821688088C1F8000360687C
:104580000178D0F8010041EA00202168C1F8040355
:104590006265102084F8510084F852000020F8BDB4
:1045A000F444025800D3CEFEC0E1E40040F1E9FD3E
:1045B00040787D0100796CFC005A6202001F0AFA03
:1045C00080F0FA0240420F00F0B5C16B2C3000259C
:1045D0002C462B46866950F8212036B30020F0BDCA
:1045E0006D1CD60019D5641C012C00D10B46491C4A
:1045F000042900D3091F50F82120D268002A07DBC4
:10460000520005D50122C261491C042900D3091FAB
:10461000103080E81A000120F0BD920013D501246B
:104620000B46491C11E050F82120D268002A01DB1A
:10463000042DD5D34CB350F8232000214FF08076C1
:104640004FF040771FE0491C641C0429EBD3091F7D
:10465000E9E715691560D66055690DB19560D760B9
:10466000D56845F00045D560D0F820C0BCF1000FFA
:1046700002D045F08045D5605B1C042B00D31B1F86
:10468000491C50F82320A142E3D300218161A5E712
:10469000334800B587B0016841F00101016001684D
:1046A00001F001010591016841F00201016001681A
:1046B00001F002010591016841F004010160016807
:1046C00001F004010591016841F0400101600068BA
:1046D00000F04000059022480838016841F400418C
:1046E0000160016801F400410591016841F48031E5
:1046F0000160016801F480310591016841F40031E5
:1047000001600068002100F40030059086200090D0
:104710000220CDE9010103900B2004906946114865
:1047200000F094F94FF4006000900F48694600F0E3
:104730008DF9322000900D48694600F087F94FF45A
:10474000C04000900A48694600F080F9002201212B
:104750003D2000F045FB3D2000F035FB07B000BDDB
:10476000E0440258000002580004025800080258B1
:10477000001802582DE9F041044600681F46D0F8A1
:104780000032DB0718D1D0F8003223F0787343EA07
:10479000415121F4F81141EA024141F00D01C0F804
:1047A000001200F055FA4FF47A76054607E000F063
:1047B0004FFA401BB04202D90120BDE8F0812068C9
:1047C000D0F80002C007F2D12068D0F8040280B20D
:1047D00038600020F1E710B519B190F85220102A86
:1047E00001D0012010BDFFF7A3FA002010BD00008A
:1047F00070B505460068D0F8000220F4706401F03E
:10480000CBF91149114A0144914202D244F4007497
:1048100016E00F490F4A0144914202D244F4407419
:104820000EE00D490D4A0144914209D30C49084458
:104830000C49884202D244F4807401E044F480645C
:104840002868C0F8004270BD00D3CEFEC0E1E4008D
:1048500040F1E9FD40787D0100796CFC005A62026C
:10486000001F0AFA80F0FA0210B590F851300021CA
:10487000C26A102B01D0012010BD232380F85130D3
:104880000023D468491C042944F08044D46000D338
:10489000091F5B1C00EB8102042BD26AF1D30121BA
:1048A000C16401680A6842F002020A6001680A688D
:1048B00042F001020A600168D1F8002D42F00102C5
:1048C000C1F8002D016801F58051D1F8042142F0B2
:1048D0000102C1F80421016801F58051D1F80821D5
:1048E00042F00102C1F80821016801F58051D1F8B8
:1048F000602142F48172C1F86021102180F85110CA
:10490000222180F85210006800F58050D0F8341150
:104910004DF241021143C0F83411002010BD2DE9C1
:10492000F0411546044621B194F85100102804D0F6
:104930004FE0606D40F0010007E000222046FFF7E5
:1049400043F820B1606D40F00200606541E0A06A6C
:1049500004EB8001401C04288E69A06201D3001F73
:10496000A06204EB80008169206800F58050C0F8E7
:10497000201100F06DF907464FF010081AE020688A
:1049800000F58050D0F86001C0040BD5606D40F098
:1049900008006065206800F58050D0F86001A065CF
:1049A000E02014E0681C05D000F052F9C01BA842BA
:1049B00008D83DB1F0680028E1DB84F85180002080
:1049C000BDE8F081606D40F004006065404684F809
:1049D00051000120F4E7000070B505460068D0F8EA
:1049E0000042E4071FD1D0F8000220F0787040EABE
:1049F0004150114920F4F81040EA024020F00C0028
:104A0000001D9AB2C1F8042240F00100C1F8000272
:104A100000F01EF94FF47A76044606E000F018F92B
:104A2000001BB04201D9012070BD2868D0F80002F7
:104A3000C007F3D170BD0000008002400248016849
:104A400041F0010101607047200400582DE9F84F42
:104A50006C4C00224FF0B04A4FF0010B4FF0030EA8
:104A60004FF00F090B680BFA02F73B40BB4270D1C5
:104A70004D68022D01D0122D12D1D50800EB850C06
:104A8000DCF820605507ED0E09FA05F826EA08065D
:104A9000D1F8108008FA05F848EA0608CCF820801A
:104AA000D0F80080560091F804C00EFA06F50CF01C
:104AB000030C28EA05080CFA06FC4CEA080CC0F8BE
:104AC00000C0D1F804C0BCF1010F08D0BCF1020F46
:104AD00005D0BCF1110F02D0BCF1120F16D1D0F8E5
:104AE00008C0D1F80C802CEA050C08FA06F848EA50
:104AF0000C08C0F80880D0F804C02CEA070C0F7925
:104B0000C7F30017974047EA0C074760C768AF43F1
:104B10008D68B5403D43C5604D68ED006BD53A4D9D
:104B20002E6846F002062E602D6822F0030606F17C
:104B3000B04605F002050095D6F808C495072F0F7A
:104B400009FA07F52CEA050C304DA84202D10025E0
:104B50002EE050E02E4DA84201D1012528E02D4D38
:104B6000A84201D1022523E02B4DA84201D1032503
:104B70001EE02A4DA84201D1042519E0284DA84283
:104B800001D1052514E0274DA84201D106250FE0EB
:104B9000254DA84201D107250AE0244DA84201D1A4
:104BA000082505E0224DA84201D1092500E00A258B
:104BB000BD4045EA0C05C6F8085425684E689D437B
:104BC000F60300D51D43256065684E689D43B60316
:104BD00000D51D436560DAF8005056464F689D4386
:104BE000FF0200D51D43356075684F689D43BF02C5
:104BF00000D51D437560521C102AFFF433AFBDE889
:104C0000F88F000080000058F44402580000025859
:104C10000004025800080258000C02580010025804
:104C20000014025800180258001C025800200258B4
:104C3000002402580069084000D0012070474269F2
:104C40004A40426170470AB101837047418370470F
:104C50000148806870470000D000002470B504004F
:104C600011D021684CF6CC40086045F255502168BF
:104C70000860D4E9000141602168A0688860FFF7FE
:104C8000E7FF054608E0012070BDFFF7E1FF401B8C
:104C9000302801D9032070BD2068C0680028F4D1F5
:104CA00020680269E1688A4201D0016102E04AF6A7
:104CB000AA210160002070BD00684AF6AA210160A7
:104CC0000020704702488168027811448160704773
:104CD000D0000024032010B500F0A2F80F2000F04F
:104CE00007F808B1012010BD00F06CF8002010BDDD
:104CF00070B50D4D04464FF47A712878B1FBF0F091
:104D00000A490968B1FBF0F001F01CFD48B9102C0C
:104D100007D200222146501E00F062F800206C608D
:104D200070BD012070BD0000D000002400000024F0
:104D3000134A41781160111D03780A1DE3B14368DD
:104D40000B60017BC37A090741EA0361837A41EA78
:104D5000C341437B41EA8341837B41EA4341C37BB7
:104D600041EA0341437A41EA0321037A007841EAA8
:104D700043010143116070470020086010607047D4
:104D800098ED00E0BFF35F8F0448016821F48031A3
:104D900001600249002070310860704724ED00E096
:104DA000074940F00100086005487038016841F487
:104DB00080310160BFF34F8FBFF36F8F70470000EA
:104DC00094ED00E07047002809DB012100F01F028C
:104DD00091404009800000F1E020C0F800117047C8
:104DE0000E4BF0B41B68C3F30223C3F10704042C79
:104DF00000D904241D1D072D01D2002300E0DB1E75
:104E0000012606FA04F56D1E0D409D409E40761E5B
:104E1000164045EA0601F0BC04F000BB0CED00E0D2
:104E2000064A00F0070110684FF6FF03184040EAF9
:104E30000120034908431060704700000CED00E0BA
:104E40000000FA050248016841F480710160704772
:104E50000048025810B500F0E5FE084909684FF413
:104E6000807292FAA2F201F47061B2FA82F2D14039
:104E7000034A515CC8400349086010BD18440258F9
:104E8000F01401080000002410B500F085FE074969
:104E90000968102292FAA2F201F07001B2FA82F2CD
:104EA000D140034A515CC84010BD00002044025864
:104EB000F0140108364930B50A68096812F0030297
:104EC000344BC1F305311B68334C03F010032468E5
:104ED000DFED320AB7EE001AC4F3CC0414FB03F37F
:104EE00000EE103A2E4BB8EE400A07D02D4C012AA6
:104EF00001D0022A4AD0B4FBF1F10BE0244C283C4B
:104F000022689506284A03D52468C4F3C104E24008
:104F1000B2FBF1F101EE901A1968B8EE612AC1F303
:104F2000080101EE901A1968F8EE611A40EE201A95
:104F300031EE810A22EE000AC1F34621491C00EE3F
:104F4000901AF8EE600A80EE201AFCEEC10AC0ED5D
:104F5000000A1968C1F30641491C00EE901AF8EEE8
:104F6000600A80EE201AFCEEC10AC0ED010A196841
:104F7000C1F30661491C00EE901AF8EE600A80EE5B
:104F8000201ABCEEC10A80ED020A30BD074ABFE715
:104F9000284402582C4402583C440258000000396E
:104FA0003844025800093D000090D00340787D014C
:104FB000364930B50A68096812F00302344BC1F370
:104FC00005511B68334C03F480732468DFED320A0B
:104FD000B7EE001AC4F3CC0414FB03F300EE103A4E
:104FE0002E4BB8EE400A07D02D4C012A01D0022AE0
:104FF0004AD0B4FBF1F10BE0244C283C2268950622
:10500000284A03D52468C4F3C104E240B2FBF1F19D
:1050100001EE901A1968B8EE612AC1F3080101EE99
:10502000901A1968F8EE611A40EE201A31EE810AE2
:1050300022EE000AC1F34621491C00EE901AF8EE58
:10504000600A80EE201AFCEEC10AC0ED000A196861
:10505000C1F30641491C00EE901AF8EE600A80EE9A
:10506000201AFCEEC10AC0ED010A1968C1F30661FD
:10507000491C00EE901AF8EE600A80EE201ABCEE91
:10508000C10A80ED020A30BD074ABFE72844025832
:105090002C4402584444025800000039404402584D
:1050A00000093D000090D00340787D012DE9F84FC4
:1050B0000446006800252E46010104F12400FE4F3D
:1050C000DFF8F88300901DD5606E50B1B0F5801FF9
:1050D0000CD0B0F5001F0ED0B0F5401F1DD001253B
:1050E0000FE0386840F40030386016E00221201DDF
:1050F00002F0E6FF03E00098022103F059F80500F2
:105100000BD02E462088C00523D5606D05281ED201
:10511000DFE800F00C11161B1B00D8F80010626EBF
:1051200021F440111143C8F80010EBE7386840F44F
:105130000030386009E00021201D02F0C1FF03E0CB
:105140000098002103F034F805466DB100E0012518
:105150002E432088800528D5A06D80281ED00CDC29
:1051600090B140280ED114E0D8F80010626D21F003
:1051700007011143C8F80010EBE7C02813D0B0F5C1
:10518000807F10D001250FE0386840F4003038608F
:1051900009E00021201D02F093FF03E000980021A8
:1051A00003F006F8054685B12E432088DFF81093FA
:1051B00040052CD5D4F8A400B0F5800F20D00DDC2C
:1051C000A0B1B0F5001F0FD115E0D8F80010A26D06
:1051D00021F4E0711143C8F80010E6E7B0F5C00F04
:1051E00013D0B0F5000F10D001250FE0386840F45F
:1051F0000030386009E00021201D02F061FF03E06B
:105200000098002102F0D4FF054675B12E43208896
:1052100000052DD5D4F8A800B0F1007F21D00EDC18
:10522000A8B1B0F1807F10D116E0D9F80010D4F801
:10523000A42021F460011143C9F80010E7E7B0F1A0
:10524000407F13D0B0F1806F10D001250FE0386897
:1052500040F40030386009E00021201D02F030FFEA
:1052600003E00098002102F0A3FF05466DB12E4334
:10527000206880011FD5A06CD8B110280FD020283D
:1052800012D0302815D0012514E0D9F80010D4F838
:10529000A82021F0E0611143C9F80010E8E7386860
:1052A00040F40030386004E00221201D02F008FFC5
:1052B00005466DB12E432088C0042BD5E06DB0F5B6
:1052C000005F20D00DDCA0B1B0F5805F0FD115E0FC
:1052D0007A48001F0168A26C21F03001114301607F
:1052E000E9E7B0F5405F13D0B0F5804F10D001254D
:1052F0000FE0386840F40030386009E00021201DDC
:1053000002F0DEFE03E00098002102F051FF0546A6
:1053100085B12E432088800429D5206EB0F5403F0A
:1053200023D010DC08B3B0F5803F14D0B0F5003FB7
:105330000FD115E0D8F80010E26D21F4E0411143DF
:10534000C8F80010E6E7B0F5802F0ED0B0F5A02F1A
:105350000BD001250AE00121201D02F0B1FE03E07F
:105360000098012102F024FF05468DB12E432088CC
:1053700040042AD5D4F8AC00B0F1405F23D010DC53
:1053800008B3B0F1805F14D0B0F1005F0FD115E029
:10539000D8F80010226E21F4E0211143C8F8001063
:1053A000E5E7B0F1804F0ED0B0F1A04F0BD0012552
:1053B0000AE00121201D02F083FE03E00098012194
:1053C00002F0F6FE05466DB12E43208800041FD57D
:1053D000E06ED8B1B0F1805F0ED0B0F1005F10D0B8
:1053E000012514E0D9F80010D4F8AC2021F0E041F8
:1053F0001143C9F80010E8E7386840F4003038601D
:1054000004E00121201D02F05BFE05466DB12E4334
:105410002068C0011ED5606CD0B101280ED00228D2
:1054200011D0032814D0012513E0D8F80010E26E43
:1054300021F040511143C8F80010E9E7386840F402
:105440000030386004E00221201D02F039FE0546DC
:1054500075B12E432068DFF86CB040025AD51A4867
:10546000016841F480710160FFF7F2FB82460EE0B3
:105470001248001F0168626C21F0030111430160B2
:10548000E8E7FFF7E5FBA0EB0A0064283AD80E48EE
:105490000068C005F5D5B5BB094818300068B4F8F8
:1054A000B01000F4407001F44071884219D00448F3
:1054B000183001680AE000002C4402585044025899
:1054C000584402581044025800480258026821F417
:1054D000407142F480320260026822F4803202603D
:1054E0000160D4F8B000B0F5807F22D1FFF7B0FBA7
:1054F000824609E0FFF7ACFBA0EB0A0141F28830DD
:10550000814201D9032504E0FE4800688007F1D5F7
:105510007DB12E432078DFF8F0A3C0073CD0A06F08
:10552000182837D025DC78B3082828D0102824D1B3
:105530002BE0D4F8B000C0F3012103290ED0DBF832
:10554000001021F47C51CBF80010EE480168B4F84B
:10555000B020C2F30B0211430160DBE7DBF800204F
:10556000EA4B22F47C5203EA10100243CBF80020ED
:10557000EBE720280ED028280CD001250BE00121D4
:10558000201D02F09DFD04E004E00098012102F0DE
:105590000FFE05465DB12E43207880071ED5606F53
:1055A000062819D2DFE800F0160C11161616DAF8E4
:1055B0000010A26F21F038011143CAF80010EBE788
:1055C0000121201D02F07CFD03E00098012102F082
:1055D000EFFD054675B100E001252E432078400718
:1055E0001FD5D4F89000062819D2DFE800F0160C79
:1055F00011161616DAF80010626F21F00701114338
:10560000CAF80010EAE70121201D02F059FD03E06D
:105610000098012102F0CCFD05469DB100E0012576
:105620002E43207880062BD5D4F88C00B0F1405F53
:1056300024D011DC10B3B0F1805F15D0B0F1005F61
:1056400010D116E0D9F80010D4F8902021F007010D
:105650001143C9F80010E4E7B0F1804F0ED0B0F16B
:10566000A04F0BD001250AE00021201D02F028FDEB
:1056700003E00098022102F09BFD05468DB12E4308
:10568000207840062BD5D4F89800B0F5406F24D090
:1056900011DC10B3B0F5806F15D0B0F5006F10D1EC
:1056A00016E0DAF80010D4F88C2021F0E041114324
:1056B000CAF80010E4E7B0F5805F0ED0B0F5A05F47
:1056C0000BD001250AE00021201D02F0F9FC03E0C7
:1056D0000098022102F06CFD05468DB12E43207822
:1056E00000062BD5D4F89C00B0F5C04F24D011DCB7
:1056F00010B3B0F5005F15D0B0F5804F10D116E0B3
:10570000D9F80010D4F8982021F4E0511143C9F8D9
:105710000010E4E7B0F5004F0ED0B0F5204F0BD0ED
:1057200001250AE00021201D02F0CAFC03E00098D8
:10573000022102F03DFD054665B32E4320780007A7
:105740000BD5D4F88000B0F5805F2DD0DAF80020BA
:1057500022F440520243CAF800202078C0060BD53C
:10576000D4F89400B0F5807F24D0D9F8002022F43A
:1057700040720243C9F80020206800032CD5D4F8F9
:10578000A000E8B1B0F5803F1FD0B0F5003F21D0B8
:10579000012520E0D9F80010D4F89C2021F46041C4
:1057A0001143C9F80010C9E70098022102F000FD7A
:1057B0000643D2E70098022102F0FAFC0643DBE739
:1057C0000021201D02F07CFC03E00098022102F081
:1057D000EFFC054685B12E432068400322D5D4F85E
:1057E0008400B0F5801F11D0B0F5001F13D0B0F5C4
:1057F000401F15D0012514E0D9F80010D4F8A020DE
:1058000021F440311143C9F80010E5E7386840F44D
:105810000030386004E00098012102F0C9FC054620
:1058200055B12E432068C0031CD5E06C70B1B0F5B3
:10583000803F10D0012514E0DAF80010D4F884205D
:1058400021F440111143CAF80010EBE7386840F426
:105850000030386004E00221201D02F031FC0546D2
:10586000C5B12E432068800004D50098022102F0C3
:105870009FFC0643206880031BD5E06FB8B1B0F5EC
:10588000807F10D0B0F5007F11D0B0F5407F0ED0F2
:1058900001250DE01C4808380168E26C21F48031D4
:1058A00011430160DEE7386840F40030386045B3EA
:1058B0002E432068C00207D5D8F80000226F20F0E0
:1058C00000401043C8F800002068C00008D5DBF88D
:1058D0000010D4F8B42021F480411143CBF800101B
:1058E0002068800207D5D8F80010A26E21F08071E0
:1058F0001143C8F800102068400014D5DBF80010F0
:1059000006E01EE07044025854440258CFFFFF00E6
:1059100021F40041CBF80010DBF80010D4F8B820D7
:105920001143CBF800102068002806DA0A48016805
:10593000226D21F04051114301605EB10120BDE8AC
:10594000F88FDAF80010E26F21F440711143CAF8C1
:105950000010AEE70020F2E74C4402582DE9F04772
:10596000DFF8BC9104460E46D9F8000000F00700AD
:10597000B0420CD2D9F8001021F007013143C9F828
:105980000010D9F8000000F00700B0427ED1207866
:10599000DFF89081800707D5D8F80010E26821F081
:1059A0000F011143C8F800102078C00762D0D8F862
:1059B0000010A26821F470611143C8F80010594921
:1059C0006068183902281CD003281DD009680128F6
:1059D0001DD04907002960DA524F083F396821F08D
:1059E000070101433960FFF733F90546606841F26A
:1059F0008831022813D003281ED001288A4627D0D8
:105A000034E009688903E5E709688901E2E7C90527
:105A1000E0E7FFF71DF9411B514501D923E08A4614
:105A20003868C0F3C2000228F3D123E0FFF710F971
:105A3000411B514501D916E08A463868C0F3C200BF
:105A40000328F3D116E0FFF703F9411B51450AD8AB
:105A50003868C0F3C2000128F5D10BE0FFF7F8F871
:105A6000411B514502D90320BDE8F087386810F08A
:105A7000380FF3D1D9F80010484601F00701B142C0
:105A80000DD9016821F00701314300E005E0016014
:105A9000006800F00700B04201D00120E4E7207860
:105AA000400707D5D8F80010226921F07001114392
:105AB000C8F80010207801071B4805D50168626905
:105AC00021F07001114301602178C90605D50168F4
:105AD000A26921F4E061114301602078800607D5B6
:105AE0001149091D0868E26920F070001043086040
:105AF00000F098F8D8F800104FF4807292FAA2F2F1
:105B000001F47061B2FA82F2D140084A515CC84097
:105B1000074908600F20FFF7EBF80020A4E700001A
:105B200000200052184402581C440258F014010886
:105B3000000000241649086840F001000860144A7B
:105B40000020103210600A68124B1A400A60104A96
:105B500018321060121D1060121D10600C4A28329D
:105B60001060121D1060121D1060121D1060121DB9
:105B70001060121D1060121D1060121D10600A6866
:105B800022F480220A6002496831086070470000F0
:105B90000044025845EDF6EA10B5FFF75BF90849F5
:105BA0000968012292FAA2F201F00F01B2FA82F220
:105BB000D140044A515CC8400349086010BD000050
:105BC00018440258F01401080400002410B5FFF72F
:105BD000E3FF07490968102292FAA2F201F070016E
:105BE000B2FA82F2D140034A515CC84010BD0000B5
:105BF0001C440258F014010810B5FFF7CDFF074907
:105C000009684FF4807292FAA2F201F4E061B2FAEC
:105C100082F2D140024A515CC84010BD1C44025877
:105C2000F01401083548F0B50068364D10F0380121
:105C3000334809D00411082904D0334E10290BD061
:105C400018290BD02046F0BD29688906FBD52968A4
:105C5000C1F3C101C840F0BD3046F0BD274918313D
:105C60000A68096812F00302284BC1F305111B688A
:105C7000274F03F001033F68DFED260AB7EE001A55
:105C8000C7F3CC0717FB03F300EE103A224BB8EE34
:105C9000400A06D0012A01D0022A2BD0B4FBF1F031
:105CA00008E02A68920603D52A68C2F3C102D040F0
:105CB000B0FBF1F001EE900A1868B8EE612AC0F36B
:105CC000080001EE900A1868F8EE611A40EE201AFA
:105CD00031EE810A22EE000AC0F34620401C00EE9D
:105CE000900AF8EE600A80EE201ABCEEC10A10EEAF
:105CF000100AF0BDB6FBF1F0DCE7000010440258DA
:105D00000090D0030044025840787D012C44025892
:105D10003444025800000039304402582DE9F05F45
:105D200004460078DFF8FC8341F28839DFF8F8A3F5
:105D3000FE4DC0074ED0D8F800104046C1F3C20156
:105D400002291AD00068C0F3C200032805D1DAF88E
:105D5000000000F0030002280FD06068B0F5803F1B
:105D600012D010B1B0F5A02F19D0286820F48030DF
:105D70002860286820F4802009E02868800329D55D
:105D80006068002874D025E0286840F480302860DE
:105D9000606890B1FEF75CFF06464F4609E0286850
:105DA00040F480202860EFE7FEF752FF801BB842E6
:105DB0007DD828688003F7D50CE0FEF749FF06463A
:105DC0004F4604E0FEF744FF801BB842F0D8286835
:105DD0008003F7D42078D64F80075AD5D8F8001022
:105DE00040464FF47C3B11F0380F13D00068C0F3ED
:105DF000C200032803D1DAF8000080070AD0E06867
:105E0000A8B3296821F0190101432960FEF720FF9A
:105E100006461DE02868400702D5E0680028B1D09A
:105E20002868E16820F0190008432860FEF710FF99
:105E3000064604E0FEF70CFF801B0228B8D828684D
:105E40004007F7D507E0FEF703FF801B0228AFD815
:105E500028684007F7D538689BFAABF220F47C310C
:105E60002069B2FA82F290400143396011E000E00B
:105E7000AEE0286820F001002860FEF7E9FE064643
:105E800004E0FEF7E5FE801B022891D82868400751
:105E9000F7D42078C00655D5D8F8001040464FF00A
:105EA000F84BC1F3C201012917D0006800E0EDE012
:105EB000C0F3C200032805D1DAF8000000F00300A7
:105EC00001280AD0E069002828682CD040F0800022
:105ED0002860FEF7BDFE064616E02868C00502D51C
:105EE000E069802874D138689BFAABF220F0F84161
:105EF000206AB2FA82F290400143396022E0FEF754
:105F0000A7FE801B022899D82868C005F7D53868F5
:105F10009BFAABF2216AB2FA82F220F0F84091408B
:105F2000084338600EE020F080002860FEF790FE05
:105F3000064604E0FEF78CFE801B022887D82868FE
:105F4000C005F7D42078000724D5774F60694C3717
:105F5000002838680FD040F001003860FEF778FE66
:105F6000064604E0FEF774FE801B02288DD83868D0
:105F70008007F7D50EE020F001003860FEF768FEDC
:105F8000064604E0FEF764FE801B02287ED83868CF
:105F90008007F7D42078800623D5A06900282868D8
:105FA0000FD040F480502860FEF752FE064604E011
:105FB000FEF74EFE801B022868D828688004F7D5BB
:105FC0000FE020F480502860FEF742FE064605E010
:105FD000D6E0FEF73DFE801B022857D828688004D3
:105FE000F7D42078400744D5524F386840F4807089
:105FF0003860FEF72DFE064604E0FEF729FE801B02
:10600000642843D83868C005F7D5474FA06848379B
:1060100001280AD008B1052811D0386820F0010005
:106020003860386820F0040002E0386840F0010071
:106030003860A06888B1FEF70BFE064609E03868B4
:1060400040F004003860F0E7FEF702FE811B49458E
:106050001CD838688007F7D50BE0FEF7F9FD064637
:1060600004E0FEF7F5FD811B49450FD8386880072D
:10607000F7D4606AF0B3D8F80010C1F3C201032965
:106080007ED00228286820F0807000E079E0286047
:1060900003D0FEF7DDFD044687E0FEF7D9FD064696
:1060A00004E0FEF7D5FD801B02287BD8286880011C
:1060B000F7D4DAF8001040F2F3329143E26A41EA91
:1060C0000211A26A1143CAF8001094F834004FF488
:1060D000FE02218E4002491EA0F5007080B2C1F37D
:1060E00008010843218F491E02EA0141084394F840
:1060F0003C1000E05CE0491E120202EA0161084324
:106100000949083108600B1D19684FF6F872A06C38
:10611000914392FAA2F2B2FA82F2904001431960DE
:10612000014809E01044025828440258004402582B
:106130000444025800480258001D0168226C21F0F6
:106140000C01114301600168626C21F002011143EE
:106150000160016841F480310160016841F400315F
:106160000160016841F480210160016841F0010192
:106170000160286840F080702860FEF769FD01E04A
:1061800018E00FE0044604E0FEF762FD001B022861
:1061900008D828688001F7D50AE0FEF759FD001BF2
:1061A000022802D90320BDE8F09F28688001F4D4BA
:1061B0000020F8E70120F6E770470068503050F8FB
:1061C000210070470068503040F8212070470000DF
:1061D00001480121FEF733BD000402584FF0B041E1
:1061E00010B504464FF40020C1F888002168C86843
:1061F000400508D5C86800F0800060F49060C86071
:106200002046FFF7E5FF012084F8210010BD0000C3
:1062100001A0FAF7C1B90000414C41524D20412183
:106220000D0A00004FF0B04110B504464FF40030A5
:10623000C1F8880021688868C0040BD5C868C0050B
:1062400008D5C86800F0800060F4C070C8602046BF
:10625000FFF7DEFF2168886880040BD5C8688005D9
:1062600008D5C86800F0800060F42070C86020463F
:10627000FFF7A2FF012084F8210010BD70B50400D3
:1062800003D094F8210010B107E0012070BD002078
:1062900084F82000204600F045F8022084F8210010
:1062A0002168CA204862532021684862204602F0D3
:1062B00011F8FF210028206804D04162042084F8EE
:1062C0002100E2E78268164B1A40826020688268EB
:1062D0006368A5691A4323692B431A4382602268C5
:1062E000E068106120680269238942EA0342026182
:1062F0002068C26822F08002C2602068C26C22F06E
:106300000302C264E269606902432068C36C1A43F5
:10631000C26420684162012084F82100002070BD21
:10632000BFFF8FFF00B5C3B0FEF78CFD04202F9098
:1063300000203890012031902FA8FFF7EFFC4FF498
:106340008000009080132C906846FEF7AFFE034853
:10635000016841F40041016043B000BD704402583F
:106360002DE9F047044690F820000B46012826D07E
:106370004FF0010984F82090022084F82100587819
:1063800002B301F093FF987801F090FFD9789878E4
:1063900040EA014558781978000240EA4130054347
:1063A0002168CA204862532021684862204601F0D3
:1063B00091FF00264FF00408FF2758BB19E0022088
:1063C000BDE8F087C10603D500F0EF000A30587031
:1063D000D87801F074FF0204587801F070FF42EAA7
:1063E0000022987801F06BFF0243187842EA4035AA
:1063F000D6E710480540206845602068C16821F054
:106400008001C1602068806880060BD4204600F0BF
:106410008FF838B12068476284F82180012084F821
:106420002060CDE72068476284F82190002084F83E
:106430002060C5E73FFFFF002DE9F047044690F8D4
:1064400020000D46012812D04FF0010A84F820A048
:10645000022084F821002068002680684FEA40600E
:1064600042B100281ADA287801F020FF17E0022054
:10647000BDE8F087002800DBEE70287801F01FFFF0
:106480000204687801F01BFF42EA0022A87801F0BC
:1064900016FF0243E87842EA00470AE0EE702978E6
:1064A000A87840EA01476878E978000240EA0140AC
:1064B00007432168CA204862532021684862204669
:1064C00001F008FF4FF0FF084FF00409E0B917484A
:1064D0000740206807602068816821F4802181607E
:1064E000D5E9031001432068826811438160206868
:1064F000C16821F08001C1602068806880060CD4EA
:10650000204600F015F840B12168C1F8248084F8D5
:106510002190012084F82060AAE72168C1F8248036
:1065200084F821A0002084F82060A1E77F7F7F000D
:1065300070B505460068C16821F0A001C160FEF792
:1065400087FB4FF47A76044606E0FEF781FB001BDA
:10655000B04201D9032070BD2868C0688006F4D518
:10656000002070BD70B504000D4603D094F82C00D7
:1065700010B107E0012070BD002084F82D002046F6
:1065800000F018F8022084F82C002068211DFDF787
:10659000A1FCD4E900022946FDF7DCFC04480168AF
:1065A00041F000410160012084F82C00002070BD02
:1065B000004000523A4800B587B0016841F002013E
:1065C0000160006800F0020005903548203801683D
:1065D00041F480510160006800F48050059030481B
:1065E0001438016841F004010160016801F0040100
:1065F0000591016841F008010160016801F008019E
:106600000591016841F010010160016801F010017D
:106610000591016841F020010160016801F020014D
:106620000591016841F0400101600068002100F01F
:10663000400005904FF0806000F066F800214FF0B8
:10664000006000F061F80D20009002200190012010
:106650000290032003900C20049012486946FEF734
:10666000F5F94CF2037000900F486946FEF7EEF919
:106670004FF6837000900D486946FEF7E7F94FF634
:106680003F0000900A486946FEF7E0F948F23710EB
:10669000009008486946FEF7D9F907B000BD000030
:1066A000F444025800080258000C02580010025826
:1066B000001402580018025810B5044690F82C0037
:1066C000022809D0022084F82C002068FDF72AFC5B
:1066D000012084F82C00002010BD70B5044690F80D
:1066E0002C000D4602280CD0022084F82C002068D3
:1066F000FDF71EFC2868022804D0012084F82C0035
:10670000002070BD0520F9E7024A136883430B435C
:10671000136070470404005803490A6822F46002B9
:1067200002430A6070470000040400584FF0E02163
:106730000428086903D020F004000861704740F085
:106740000400FAE7401EB0F1807F10B501D30120AC
:1067500010BD4FF0E02460610F21601702F05EFE73
:106760000020A06107202061002010BD7047704705
:1067700010B5040003D094F83D0010B107E00120EB
:1067800010BD002084F83C00204600F00DF80220E7
:1067900084F83D002068211D02F02CF9012084F8C6
:1067A0003D00002010BD000008B500680B4988427C
:1067B00012D10B48016841F0020101600068032218
:1067C000012100F0020000901D20FEF709FBBDE84A
:1067D00008401D20FEF7F7BA08BD00000004004085
:1067E000E84402580168CA6842F00102CA600068C1
:1067F000018841F00101018000207047704770B5A9
:106800000446006801694FF00005C943890715D4A3
:10681000C168C943890711D4E91E016101202077AD
:10682000206880698007204602D0FFF7E7FF04E078
:1068300000F0A5F8204600F0A3F82577206801694C
:10684000C943490717D4C168C943490713D46FF036
:1068500004010161022020772068806910F4407FE4
:10686000204602D0FFF7CAFF04E000F088F8204677
:1068700000F086F8257720680169C943090716D416
:10688000C168C943090712D46FF0080101610420EF
:1068900020772068C0698007204602D0FFF7AEFF4E
:1068A00004E000F06CF8204600F06AF825772068D4
:1068B0000169C943C90617D4C168C943C90613D4BD
:1068C0006FF010010161082020772068C06910F482
:1068D000407F204602D0FFF791FF04E000F04FF820
:1068E000204600F04DF8257720680169C943C907A3
:1068F00008D1C168C943C90704D1891E0161204676
:1069000000F040F8206801696FF08005C94309066E
:1069100007D4C168C943090603D405612046FFF7BF
:1069200025FF20680169C943C90507D4C168C94367
:10693000090603D405612046FFF718FF20680169A6
:10694000C943490609D4C168C943490605D46FF053
:1069500040010161204600F031F820680169C94317
:1069600089060BD4C168C943890607D46FF020019A
:1069700001612046BDE87040FFF7F9BE70BD704769
:10698000704700000A4910B588420FD102F092F812
:1069900008490888401C80B20880B0F5FA7F01D30E
:1069A00001F0BAF804480168491C016010BD0000FC
:1069B000D4070024DC0000244802002470477047FC
:1069C000704790F8791090F87A00084370470000FB
:1069D00070B502680446D0691368916810F00F0F13
:1069E00064D0594D03F490760D40354376D0C507F9
:1069F00007D0DD0505D501251562E26F42F00102E1
:106A0000E267820708D5CA0706D0256802222A62F3
:106A1000E26F42F00402E267420708D5CA0706D0D7
:106A2000256804222A62E26F42F00202E26702074E
:106A30000ED503F0200201F080552A4352EAC172BC
:106A400006D0256808222A62E26F42F00802E26757
:106A5000E26F002A3AD0800608D503F0200001F04A
:106A60008051084302D0204602F028F9E06F000769
:106A700003D42068806840062AD5204602F010F929
:106A80002068816849061ED5816821F04001816037
:106A9000606FC0B12D490165606FFDF79BFA00285A
:106AA00014D0606F016DBDE870400847850615D5AC
:106AB00003F0200501F0805635430FD02046BDE895
:106AC000704002F0FBB82046FFF77AFF70BD05E08A
:106AD0002046FFF775FF0020E067F7E7C6024FF09A
:106AE00020050CD54E020AD5E803106284F87950CF
:106AF00084F87A502046BDE87040FFF760BF060674
:106B00000AD503F0800601F400010E4304D02046AC
:106B1000BDE8704002F062BB41060BD5590609D5AD
:106B20001168204621F04001116084F8795000F08E
:106B30005DF9CBE70002C9D55800C7D5106820F031
:106B400080401060C2E70000010000108D8C00083A
:106B500010B5040003D094F8790010B107E00120CB
:106B600010BD002084F87800204600F027F824208B
:106B700084F879002068016821F001010160204655
:106B800002F0D8F80128EBD0606B10B1204601F07C
:106B9000EBFF2068416821F49041416020688168E2
:106BA00021F02A0181602068016841F00101016043
:106BB0002046BDE8104002F03BB800002DE9F04748
:106BC0003449054600680226334C86B00F154FF055
:106BD000010888424FF0070929D1206840F00100E0
:106BE0002060206800F0010005902B4810300168FB
:106BF00041F01001016000686946DFF8A0A000F0D4
:106C00001000059030028DE84101CDE9036950463E
:106C1000FDF71CFF694650460097FDF717FF25203A
:106C2000FEF7D1F8032225201146FEF7D9F81C49BA
:106C3000286888422AD1206840F00400206020683B
:106C400000F00400059014480830016841F48021E8
:106C5000016000686946134C00F48020CDE900769D
:106C6000CDE90286CDE904902046FDF7EFFE4FF412
:106C70000061204600916946FDF7E8FE2720FEF7F7
:106C8000A2F8012227201146FEF7AAF806B0BDE8B7
:106C9000F087000000100140E04402580000025854
:106CA000004800400008025890F87A30202B4CD160
:106CB000B9B1B2B190F87830012B46D0012380F8F9
:106CC00078304166A0F86820A0F86A20FF22816829
:106CD000B1F5805F07D07F2351B1B1F1805F0CD057
:106CE00010E001207047016921B940F2FF1107E06F
:106CF000016909BBA0F86C2004E00169E1B13F2102
:106D0000A0F86C100021C167222280F87A2080F858
:106D1000781001688A6842F001028A6001680A6896
:106D200092000CD50A6842F480720A60006881689B
:106D300041F08051816006E0A0F86C30E2E708681D
:106D400040F49070086000207047022070470000F7
:106D5000F0B5224B012501680022214C994219D13E
:106D6000A1880B0416D41F4FA31CC1F30D061B787A
:106D7000BB554E0406D50A2B01D0A28007E0257032
:106D8000A280F0BD0D2B02D141F48041A180A188E9
:106D9000491CA180006814498842F2D1E0880104AE
:106DA000EFD40F49430401F10301097805D50A29FD
:106DB00001D0E280F0BD6570FBE70D290AD0094DD6
:106DC000C0F30D03401CC83580B2C728E954E080E9
:106DD000EFD8F0BD40F48040E080F0BD00100140ED
:106DE000C400002410050024004800407047FEE75E
:106DF00070B54FF480767500012816D0022818D09F
:106E0000032837D004285AD12D4C00223146204681
:106E1000FDF719FF206820F440202060206840F42E
:106E2000802020600022294613E0264C00223146B3
:106E3000EDE7254C002231462046FDF704FF20688F
:106E400020F440402060206840F480402060002210
:106E500080212046FDF7F7FE022004F0C5FC012248
:106E600031462046FDF7EFFE022004F0BDFC002273
:106E700031461FE0154C002210212046FDF7E3FEAD
:106E8000206820F440602060206840F4806020602A
:106E9000002220462021FDF7D6FE022004F0A4FCAB
:106EA000012220461021FDF7CEFE022004F09CFCBA
:106EB000002210212046BDE87040FDF7C4BE70BD21
:106EC000000802580004025800200258001C025812
:106ED00070B50121384A03234C020D02012886B007
:106EE0004FF4407622D002282FD0032848D004281F
:106EF0001AD1106840F0040010601068CDE9021348
:106F000000F004000590CDE900612C4E6946304642
:106F1000FDF79CFD012221463046FDF794FE01223B
:106F200029463046FDF78FFE06B070BD106840F070
:106F3000020010601068CDE9021300F00200059015
:106F4000CDE900611E4E6946E1E7106840F48070AB
:106F5000106010681B4C00F4807005904FF4C070F6
:106F6000CDE90001CDE9021369462046FDF76EFD2B
:106F7000012220468021FDF766FE0122294618E005
:106F8000106840F08000106010680F4C00F0800026
:106F900005903020CDE90001CDE902136946204675
:106FA000FDF754FD012220462021FDF74CFE012271
:106FB00010212046B6E70000E044025800080258BD
:106FC0000004025800200258001C025870B54FF40B
:106FD00080767500012816D0022818D0032837D0F3
:106FE00004285AD12D4C002231462046FDF72BFEB5
:106FF000206820F440202060206840F48020206039
:107000000122294613E0264C00223146EDE7254CAB
:10701000002231462046FDF716FE206820F440404D
:107020002060206840F480402060012280212046BA
:10703000FDF709FE022004F0D7FB0122314620466D
:10704000FDF701FE022004F0CFFB002231461FE0D5
:10705000154C002210212046FDF7F5FD206820F494
:1070600040602060206840F480602060012220465B
:107070002021FDF7E8FD022004F0B6FB01222046A6
:107080001021FDF7E0FD022004F0AEFB00221021EC
:107090002046BDE87040FDF7D6BD70BD000802581F
:1070A0000004025800200258001C02582DE9FF5F1E
:1070B0004FF000091C4601288B460E9D01F1010A84
:1070C000C8464F464E4622D0022857D0032873D0D8
:1070D000042872D100F094FA0420594600F0ACF96B
:1070E000042000F07BFB0299042000F0A5F90420A5
:1070F00000F074FB042000F083FA04200AF0FF0182
:1071000000F09AF9042000F069FB0746A7E001208F
:1071100000F076FA0120594600F08EF9012000F0C7
:107120005DFB0299012000F087F9012000F056FB79
:10713000012000F065FA01200AF0FF0100F07CF95F
:10714000012000F04BFB06460DE0A5EB09000128ED
:107150000DD00121084600F08BF804F8090009F170
:10716000010101F0FF09A945EFD3012065E00021ED
:10717000012000F07DF804F80900F0E7022000F09B
:107180003FFA0220594600F057F9022000F026FB92
:107190000299022000F050F9022000F01FFB0220AB
:1071A00000F02EFA02200AF0FF0100F045F902205B
:1071B00000F014FB06460FE014E041E0A5EB0800E8
:1071C00001280DD00121022000F052F808F1010140
:1071D00004F8080001F0FF08A845EFD302202CE0D6
:1071E0000021F0E7032000F00BFA0320594600F0DD
:1071F00023F9032000F0F2FA0299032000F01CF9B1
:10720000032000F0EBFA032000F0FAF903200AF063
:10721000FF0100F011F9032000F0E0FA064609E052
:10722000E81B01280FD00121032000F021F8E055D0
:107230007F1CFFB2AF42F3D3032000F057FA304671
:1072400004B0BDE8F09F0021EEE7A81B01280DD097
:107250000121042000F00CF8A055761CF6B2AE42D5
:10726000F3D3042000F042FA3846E9E70021F0E7C2
:107270002DE9F04700258A4601282C464FF48077F7
:10728000A9464FF400782E460DD002283DD00328A1
:107290006CD0042834D1644C206820F44020206055
:1072A00020682060B0E0614E306820F440203060FB
:1072B000306830600024002239463046FDF7C3FCB8
:1072C000022004F091FA012239463046FDF7BBFC5A
:1072D00068064146050E3046FDF7ACFC08B16D1C52
:1072E000EDB2012004F080FA641CE4B2082CE2D371
:1072F000BAF1000F4FF0010004D0FFF779FD2846E6
:10730000BDE8F087FFF762FEF9E7494E306820F4E8
:1073100040403060306830600025002239463046F9
:10732000FDF791FC022004F05FFA01223946304655
:10733000FDF789FC60068021040E3046FDF77AFCDB
:1073400008B1641CE4B2012004F04EFA6D1CEDB2E9
:10735000082DE2D3BAF1000F4FF0020003D0FFF77F
:1073600047FD2046CCE7FFF731FEFAE7314D2868AC
:1073700020F4406028602868286000240022284605
:107380001021FDF760FC022004F02EFA01222846AD
:107390001021FDF758FC4FEA496020214FEA10699F
:1073A0002846FDF747FC18B109F1010909F0FF096A
:1073B000012004F019FA641CE4B2082CDED3BAF1FF
:1073C000000F4FF0030003D0FFF712FD484697E788
:1073D000FFF7FCFDFAE7002239462046FDF733FCB3
:1073E000022004F001FA012239462046FDF72BFC69
:1073F00070064146060E2046FDF71CFC08B1761CBF
:10740000F6B2012004F0F0F9BAF1080FE3D3BAF1B3
:10741000000F4FF0040003D0FFF7EAFC30466FE79F
:10742000FFF7D4FDFAE700000008025800040258F4
:1074300000200258001C02582DE9F04701280C4694
:107440004FF4007A06464FF4807932D1684F3846BF
:10745000396821F440213960396841F4802139606C
:1074600000224946FDF7EFFB0025B8464F462006AF
:1074700001D5012200E0002251464046FDF7E3FB22
:107480006006040E022004F0AFF90122394640469E
:10749000FDF7D9FB022004F0A7F900223946404647
:1074A000FDF7D1FB022004F09FF96D1CEDB2082D11
:1074B000DDD3022E32D14F4F3846396821F4404196
:1074C0003960396841F48041396000224946FDF74E
:1074D000BAFB0025B8464F46200601D5012200E040
:1074E000002240468021FDF7AEFB6006040E02201C
:1074F00004F07AF9012239464046FDF7A4FB022048
:1075000004F072F9002239464046FDF79CFB022048
:1075100004F06AF96D1CEDB2082DDDD3032E30D1D5
:10752000354F3846396821F440613960396841F493
:107530008061396000221021FDF785FB00252006BF
:1075400001D5012200E0002238462021FDF77BFB17
:107550006006040E022004F047F90122384610218B
:10756000FDF771FB022004F03FF90022384610219C
:10757000FDF769FB022004F037F96D1CEDB2082D10
:10758000DDD3042E31D11D4E3046316821F4402127
:107590003160316841F48021316000224F46494614
:1075A000FDF751FB0025200601D5012200E0002255
:1075B00051463046FDF747FB6006040E022004F0FA
:1075C00013F9012239463046FDF73DFB022004F055
:1075D0000BF9002239463046FDF735FB022004F056
:1075E00003F96D1CEDB2082DDDD3BDE8F087000076
:1075F0000004025800200258001C025800080258DB
:1076000070B54FF40076751001281ED002281ED0E8
:1076100003283DD0042860D1304C206820F440205D
:107620002060206840F480202060012231462046FE
:10763000FDF709FB012229462046FDF704FB042043
:1076400004F0D2F80022314619E0254CE5E7254C3C
:10765000206820F440402060206840F48040206092
:10766000012220468021FDF7EEFA0122294620461C
:10767000FDF7E9FA042004F0B7F800228021204643
:10768000FDF7E1FA042004F0AFF8002229461FE0DC
:10769000154C206820F440602060206840F4806031
:1076A0002060012220462021FDF7CDFA012220464C
:1076B0001021FDF7C8FA042004F096F800222046B5
:1076C0002021FDF7C0FA042004F08EF800221021DA
:1076D0002046BDE87040FDF7B6BA70BD00080258FC
:1076E0000004025800200258001C025870B54FF4E4
:1076F00080756E0001282AD002282AD0032846D09F
:10770000042862D1314C206820F440202060206899
:1077100040F480202060002229462046FDF793FA9D
:10772000002231462046FDF78EFA042004F05CF872
:10773000012229462046FDF786FA012231462046DD
:10774000FDF781FABDE87040042004F04DB8204CEC
:10775000D9E7204C206820F440402060206840F4A5
:1077600080402060002229462046FDF76CFA002266
:1077700020468021FDF767FA042004F035F8012245
:1077800029462046FDF75FFA01228021D7E7124CF7
:10779000206820F440602060206840F48060206011
:1077A000002220461021FDF74EFA0022204620211B
:1077B000FDF749FA042004F017F8012220461021B1
:1077C000FDF741FA01222021B9E770BD00080258F7
:1077D0000004025800200258001C02582DE9F05FF6
:1077E0000027804601283E464FF4807A3D464FF4FC
:1077F000007B3C462DD1DFF87491D9F8000020F4CD
:1078000040214846C9F80010D9F80010C9F8001006
:1078100001225946FDF717FA012003F0E5FF012286
:1078200051464846FDF70FFA012003F0DDFF05E061
:107830007F1CFFB2FA2F01D9012084E05946484647
:10784000FDF7F8F90028F3D1002251464846FDF72C
:10785000FAF9B8F1020F28D1454F386820F44040BA
:10786000386038683860012280213846FDF7EBF92E
:10787000012003F0B9FF012251463846FDF7E3F934
:10788000012003F0B1FF05E0761CF6B2FA2E01D913
:10789000022058E080213846FDF7CCF90028F3D1CA
:1078A000002251463846FDF7CEF9B8F1030F28D132
:1078B000304E306820F44060306030683060012223
:1078C00020213046FDF7BFF9012003F08DFF012292
:1078D00030461021FDF7B7F9012003F085FF05E0E0
:1078E0006D1CEDB2FA2D01D903202CE02021304689
:1078F000FDF7A0F90028F3D1002230461021FDF752
:10790000A2F9B8F1040F2ED11B4D286820F44020B5
:1079100028602868286001225E4659462846FDF7FF
:1079200092F9012003F060FF012257465146284694
:10793000FDF789F9012003F057FF09E0641CE4B268
:10794000FA2C05D90420FFF7D1FE0120BDE8F09FF5
:1079500031462846FDF76EF90028EFD1002239465E
:107960002846FDF770F90020F0E7000000040258F7
:1079700000200258001C0258000802582DE9FF4F51
:1079800081B04FF0000801289B4614464746DDE9C8
:107990000EA946464546CDF800801BD0022844D0AB
:1079A00003286BD004287DD1FFF72AFE029904201A
:1079B000FFF742FD0420FFF711FF2178BBF1020F12
:1079C0004FF004006FD0FFF737FD0420FFF706FFEC
:1079D000009099E00120FFF713FE02990120FFF7C4
:1079E0002BFD0120FFF7FAFE2178BBF1020F03D136
:1079F0000120FFF721FD61780120FFF71DFD012027
:107A0000FFF7ECFE04460CE01AF808100120FFF71F
:107A100013FD0120FFF7E2FE044608F1010000F02B
:107A2000FF08C845F0D3012053E00220FFF7E8FD2E
:107A300002990220FFF700FD0220FFF7CFFE217818
:107A4000BBF1020F03D10220FFF7F6FC61780220A0
:107A5000FFF7F2FC0220FFF7C1FE04460AE01AF825
:107A600007100220FFF7E8FC0220FFF7B7FE7F1C9B
:107A70000446FFB24F45F2D302202AE00320FFF76D
:107A8000BFFD02990320FFF7D7FC0320FFF7A6FEF6
:107A90002178BBF1020F03D10320FFF7CDFC617801
:107AA000032001E018E01AE0FFF7C6FC0320FFF70F
:107AB00095FE04460AE01AF806100320FFF7BCFC06
:107AC0000320FFF78BFE761C0446F6B24E45F2D338
:107AD0000320FFF70BFE204605B0BDE8F08FFFF74F
:107AE000ABFC61780420FFF7A7FC0420FFF776FECB
:107AF0000AE01AF805100420FFF79EFC0420FFF7A7
:107B00006DFE6D1C0090EDB24D45F2D30420FFF7E1
:107B1000EDFD0098E0E700000148FDF7CDB800005A
:107B2000A0080024064A054B1360C2E9010140F693
:107B3000FF70D0601046FDF791B800000048005873
:107B4000A00800242DE9FF4100250F4680468DF84E
:107B500008500395FFF7BCF90224394630208DF810
:107B6000080003AE404601238DF80C40CDE90064C7
:107B700002AAFFF703FF2020394601238DF80800F1
:107B8000CDE9006402AA40468DF80C40FFF7F6FEEE
:107B90003820394601238DF80800CDE9006402AA97
:107BA00040468DF80C50FFF7E9FE5F20394601236F
:107BB0008DF80800CDE9006402AA40468DF80C500B
:107BC000FFF7DCFE04B00020BDE8F08108B500201E
:107BD00069460090012000F0FFF80120694600F09E
:107BE000FBF80098400701D4012008BD0020694639
:107BF00000F0F2F80098C10408D44FF40451814316
:107C000017D0810417D4C00517D410E01F2069468F
:107C100000F0E2F80098C10401D4062008BDC0F3CA
:107C20008200062805D0022805D0052805D00520A9
:107C300008BD022008BD032008BD042008BD0000C7
:107C4000FEB5002425460294F8F7EDFB642003F00E
:107C5000BDFD642003F0BAFDF8F7E7FB00F096F9EC
:107C60003A4801788DF8001041788DF8011081783C
:107C70008DF80210C1788DF8031001798DF8041089
:107C800040798DF805003348314901600121C0F881
:107C900004D00172304901613049C1604FF4BF61C5
:107CA0004161FCF78DFB2B48FCF7A2FD00204FF44F
:107CB000004100F0AFF800284FF4FA7619DB0020FD
:107CC00002A900F089F8671F00280CDA0FE00020F5
:107CD00002A900F081F8002809DB0A2003F076FDF4
:107CE000641CB44207D202980004F0D403E03D467D
:107CF00001E06FF0030500F07DF81DB94FF47A70D4
:107D000003F064FD002407E00A2003F05FFD641C1B
:107D1000B44201D3012503E0FFF758FF0128F3D94E
:107D2000FFF754FF022806D0032806D0042806D007
:107D3000052806D008E00AA004E011A002E018A07F
:107D400000E01EA0F8F728FC2846FEBD00B1022482
:107D50000080024014080024000004306000043059
:107D60004C414E383732303A3130304D622F73202B
:107D700046756C6C4475706C65780D0A00000000E7
:107D80004C414E383732303A3130304D622F73200B
:107D900048616C664475706C65780D0A00000000DF
:107DA0004C414E383732303A31304D622F732046D5
:107DB000756C6C4475706C65780D0A004C414E38DA
:107DC0003732303A31304D622F732048616C66444F
:107DD00075706C65780D0A000B4602460448002158
:107DE00010B5FCF7C7FC002801D04FF0FF3010BDE4
:107DF0001408002408B5002069460090FFF7ECFF46
:107E0000009840F48050009081B2002000F002F809
:107E100008BD00000B4602460448002110B5FCF7DF
:107E2000DBFD002801D04FF0FF3010BD1408002406
:107E3000104810B586B0016841F002010160006889
:107E400001210D4C00F0020005900320CDE9000156
:107E5000CDE9021069462046FCF7F8FD01222046D4
:107E60001146FCF7F0FE012220460221FCF7EBFE52
:107E700006B010BDE0440258000402580146024812
:107E8000C06807F039BE00004C0200240323002222
:107E90001921580710B500F014F81221032301220C
:107EA000080700F00EF8182103230222C80600F08C
:107EB00008F803231B211A46BDE81040C807AFF39A
:107EC00000802DE9FF411D4614460E460746FCF78B
:107ED00059FF00208DF808608DF80C0001218DF805
:107EE00009008DF80D008DF800108DF80A008DF84E
:107EF0000E0068468DF8014001978DF80B508DF803
:107F00000F10FCF715FF0420FCF74AFF04B0002017
:107F1000BDE8F0810F4800220121FCF794FE0EA07D
:107F2000F8F73AFB4FF47A74204603F04FFC10A0A8
:107F3000F8F732FB204603F049FCBFF34F8F11489E
:107F40000168114A01F4E06111430160BFF34F8FF2
:107F500000BFFDE7000402584D656D204163636575
:107F60007373204572726F7221210D0A00000000A8
:107F7000536F6674205265736574696E672E2E2E7A
:107F80000D0A00000CED00E00400FA051FB5FCF737
:107F9000F9FE11480121019007208DF80800032007
:107FA0008DF80B0000208DF80F108DF80E008DF865
:107FB0000D108DF8001005218DF80A008DF80110C4
:107FC0008DF809008DF80C006846FCF7B1FE04201E
:107FD000FCF7E6FE1FBD000000000430704790ED86
:107FE000030AD0ED040AB0EE002A30EE600A80EDFC
:107FF000050AD0ED060AD0ED001A30EE601A21EE27
:10800000211AD0ED011A01EE801AF0EE401A40EE6E
:10801000C21A90ED072A71EE821A90ED022A02EE42
:10802000211AD0ED0A1A31EE811A80ED0A1AC0ED3C
:10803000070A80ED060A90ED0B0AB4EEC01AF1EEC5
:1080400010FA01DD80ED0A0AD0ED0A0A90ED0C0A63
:10805000F4EEC00AF1EE10FA01D280ED0A0A704780
:10806000E9B1144991ED000A091D80ED000A91ED76
:10807000000A091D80ED010A91ED000A091D80ED3D
:10808000020A91ED000A091D80ED030A91ED000A34
:10809000091D80ED0B0A91ED000A80ED0C0A9FEDA1
:1080A000060A80ED050A80ED060A80ED070A80EDDC
:1080B0000A0A7047F4020024000000007047000024
:1080C0002DE9F047DFF8E48004460F464FF0000941
:1080D000D8F80000C043800709D0344D283D2868F7
:1080E00020F080602860FCF7B3FD064607E0012021
:1080F000BDE8F087FCF7ACFD801B02284ED828684D
:108100000001F7D4D8F80010226821F47C3141EA4C
:108110000231C8F80010207A4FF4FE02A188400214
:10812000491EA0F5007080B2C1F308010843A1897F
:10813000491E02EA01410843217C1202491E02EA5B
:10814000016108431949103108601848001D016891
:10815000626921F0C001114301600168A26921F048
:108160002001114301606FB10168012F0ED041F46D
:1081700000110160286840F080602860FCF768FD0D
:1081800004460DE0016841F40021F2E741F480115A
:10819000EFE7FCF75DFD001B022801D90320A7E7EC
:1081A00028680001F5D54846A2E700002844025897
:1081B0002DE9F047DFF8E48004460F464FF0000950
:1081C000D8F80000C043800709D0344D283D286806
:1081D00020F080502860FCF73BFD064607E00120B8
:1081E000BDE8F087FCF734FD801B02284ED82868D4
:1081F0008000F7D4D8F80010228821F07C7141EA81
:108200000251C8F80010207A4FF4FE02A188400203
:10821000491EA0F5007080B2C1F308010843A1898E
:10822000491E02EA01410843217C1202491E02EA6A
:10823000016108431949183108601848001D016898
:10824000626921F44061114301600168A26921F46F
:108250000071114301606FB10168012F0ED041F030
:1082600080710160286840F080502860FCF7F0FCC5
:1082700004460DE0016841F48001F2E741F4000199
:10828000EFE7FCF7E5FC001B022801D90320A7E774
:1082900028688000F5D54846A2E700002844025827
:1082A0000148FDF7BFBF00007C080024010900F071
:1082B0000F0001EB810100EB4100C0B270470021CB
:1082C00002E00A38491CC0B20A28FAD2090740EA7B
:1082D0001160704770B505460068C168490613D43F
:1082E0004FF0FF31C160FCF7B3FC4FF47A760446DF
:1082F00006E0FCF7ADFC001BB04201D9032070BDC5
:108300002868C0684006F4D5002070BD17487F2259
:10831000154910B501600021C0E90112FF22C0E932
:1083200003218161C161FDF7A9FF08B1022010BDE1
:108330000E480021FDF741FF45F25004A04210D045
:10834000002332211A460A2000F024F807230D22C8
:108350000821112000F00CF8044800212246FDF706
:1083600031FF002010BD0000004000587C080024B0
:1083700008B58DF8022000228DF8011069468DF8AD
:1083800000308DF803000248FDF7EAFF08BD000049
:108390007C08002400B585B08DF8000000208DF821
:1083A000011069468DF802200246039004900348AC
:1083B0008DF80330FEF740F805B000BD7C080024BE
:1083C0000148FDF70BBF00007C08002410B53FA05A
:1083D000F8F7E2F8FF2220210320FBF767F800EE10
:1083E000100A3F4CB4EE400AF1EE10FA206061D161
:1083F000FF2224210320FBF759F8FF226060282187
:108400000320FBF753F8FF22A0602C210320FBF789
:108410004DF8FF22E06030210320FBF747F8FF22F0
:10842000206134210320FBF741F860612DA094ED19
:10843000000AB7EEC00A53EC102BF8F7ADF8201D78
:1084400090ED000A2AA0B7EEC00A53EC102BF8F703
:10845000A3F804F1080090ED000A28A0B7EEC00AC6
:1084600053EC102BF8F798F804F10C0090ED000A8B
:1084700025A0B7EEC00A53EC102BF8F78DF804F1E5
:10848000100090ED000A24A0B7EEC00A53EC102BA8
:10849000F8F782F804F1140090ED000A22A0B7EE7C
:1084A000C00A53EC102BF8F777F8BDE8104022A073
:1084B000F8F772B8B7EEC00A25A053EC102BF8F706
:1084C0006BF89FED250A84ED000A10BD72656164AA
:1084D000696E6720656570726F6D0D0A000000009F
:1084E000F40200246565705F6B703A25660D0A0022
:1084F0006565705F6B693A25660D0A006565705F9A
:108500006B643A25660D0A006565705F74656D7071
:108510003A25660D0A0000006565705F6F75744D41
:1085200041583A25660D0A006565705F6F75744D98
:10853000494E3A25660D0A006565705F7265616493
:10854000696E672066696E6973680D0A0000000035
:108550004B703D25660D0A003D0A573E0E4900202E
:1085600070B50860BFF34F8F081F006843F6FF74B3
:108570000A4DC0F34E31C0F3C90304EA4112184654
:1085800042EA80762E60401EFAD2491EF5D2BFF331
:108590004F8FBFF36F8F70BD84ED00E074EF00E08C
:1085A0001548012200B5134987B01023016000214E
:1085B000C0E901120822C0E90323402343614FF4BC
:1085C000C073C0E90631130203625302C0E90931E6
:1085D000062102200090CDE90121CDE9031005908C
:1085E000694606900448FDF7BDFF034800F006F811
:1085F00007B000BD40410052A00700240023012223
:108600001846114610B500F021F84FF4FA7003F047
:10861000EBF8002301221846022100F017F800238E
:1086200008221846032100F011F80122042100203D
:108630004FF40C7300F00AF8BDE81040024840F215
:10864000F921FEF739B80000A00700241FB5002467
:1086500010B1012802D002E0102400E008240748ED
:10866000CDE902234FF6FF72CDE900146946FEF70B
:1086700034F8002800D0012004B010BDA007002469
:108680007047000070B5274C9CB0256825F00405A4
:108690002560244C00260C34256845F440452560AF
:1086A000256805F440451B952568AD04FCD50124DB
:1086B00000940CAD03962404019402240994CDE99E
:1086C0000A410796082485E80D00CDE91046684662
:1086D000FDF724FB00B1FEE73F2013900320CDE916
:1086E000140640200101CDE91640CDE918015020C3
:1086F0001A90022113A8FDF731F900B1FEE70A48EC
:10870000016841F0800101600748F430016841F0E0
:1087100002010160006800F002001B90FCF78EF976
:108720001CB070BD0C48025800440258FCF7CABA8D
:108730001C48016841F4700101601B49086840F061
:1087400001000860184A0020103210600A68174BB8
:108750001A400A60144A18321060121D1060121D6F
:108760001060114A28321060121D1060121D106036
:10877000121D1060121D1060121D1060121D10607D
:10878000121D10600A6822F480220A6006496031D6
:10879000086001200649C1F80801C0060149803976
:1087A0000860704788ED00E0004402587FEDF6EA6B
:1087B000008000510FB4652100B599B01BAB68462D
:1087C0001A9AF7F7CFFE6846FFF758FB19B05DF825
:1087D00014FB00001E482DE9F041016886B041F00D
:1087E00002010160016801F002010591016841F098
:1087F00080010160006801240327DFF8588000F041
:10880000800005904FF480666946CDE90064CDE9AB
:1088100002474046FCF71AF9E5026946CDE90054E3
:10882000CDE902470C4C2046FCF710F901222946FD
:108830002046FCF708FA012231464046FCF703FACD
:10884000002204210120FAF76BFF06B0BDE8F08199
:10885000E044025800040258001C02582DE9F0417F
:108860000C4601272DED048B91F83510B1B101288C
:10887000B7EE009AF0EE009A4FF07C554FF03F466D
:1088800018D002284AD0032860D0042876D1204688
:10889000FFF7A5FB042194ED0A0A5DE000212046C4
:1088A000FFF7DEFB9FED370A204610EE101A67F344
:1088B00007002DE02046FFF792FB94ED0A8A384628
:1088C0002746B5EEC08A60F30707F1EE10FA0ADB1F
:1088D00018EE101AA94206DCF0EE488A19EE101ABA
:1088E00060F307040EE0B5EEC08AF1EE10FA0CD288
:1088F00018EE101AB14208D819EE901AF1EE488A13
:1089000060F30704204602F089FF18EE901A3846FB
:10891000BDEC048BBDE8F041FAF747BF2046FFF7F6
:108920005EFB022194ED0A0A16E0204661F307007F
:1089300019EE101A04E0204661F3070019EE901AB0
:10894000BDEC048BBDE8F04102F068BF2046FFF7A4
:1089500046FB94ED0A0A0321B5EEC00AF1EE10FAC7
:1089600003DB10EE100AA842DFDDB5EEC00AF1EE1F
:1089700010FA03D210EE100AB042DCD9BDEC048B21
:10898000BDE8F081000000000148FDF738BF00009D
:10899000D4070024094A084B10B5C2E90031002170
:1089A000C2E9021010461161FDF7E2FEBDE8104079
:1089B0000248FDF717BF000000040040D407002460
:1089C00010B50A4C2068C068C043C00709D10848E8
:1089D0000069804721680020486264202168C862DD
:1089E000E0606FF001002168086110BDC0B0022492
:1089F000540100242DE9F04702884FF0804A254CAD
:108A0000254D264EA042264F264B09D0504507D073
:108A1000A84205D0B04203D0B84201D0984204D158
:108A200022F0700C4A6842EA0C02DFF87CC0DFF8E2
:108A30007C80A042DFF878900FD050450DD0A8423E
:108A40000BD0B04209D0B84207D0984205D060455B
:108A500003D0404501D0484503D122F44075CA688F
:108A60002A438D8A22F080022A4302808A68C262E9
:108A70000A880285A04207D0984205D0604503D0FD
:108A8000404501D0484501D1098A01860121416153
:108A9000BDE8F087000001400004004000080040ED
:108AA000000C00400004014000400140004401402F
:108AB000004801400A4B002010B5012403EBC0011F
:108AC0004A7842B1521E12F0FF024A7003D18A78EE
:108AD0004A7003F83040401CC0B20328EED310BDEA
:108AE000A8000024114A38B504460D46106840F02D
:108AF0000400106010680322114600F0040000908A
:108B00001E20FCF76DF91E20FCF75DF9094A0021D3
:108B10000748C2E902141161C2E900051046FDF7D9
:108B200027FEBDE838400348FDF75CBEE844025824
:108B300000080040C0B0022470B50446F7F7C0FF3B
:108B4000084D0021C3B207480C3507E00268520601
:108B5000FCD514F8012B2A80491CC9B29942F5D3DF
:108B600070BD00001C48004090F83410C90706D0C2
:108B700001684A68836B22F400321A434A6090F815
:108B80003410890706D501684A68C36B22F4803225
:108B90001A434A6090F83410490706D501684A68BC
:108BA000036C22F480221A434A6090F834100907BB
:108BB00006D501684A68436C22F400421A434A60B1
:108BC00090F83410C90606D501688A68836C22F4CF
:108BD00080521A438A6090F83410890606D50168DD
:108BE0008A68C36C22F400521A438A6090F83410E9
:108BF000490611D501684A68036D22F480121A43B0
:108C00004A60016DB1F5801F06D101684A68436D65
:108C100022F4C0021A434A6090F83410090606D5BF
:108C200001684A68806D22F4002202434A6070475E
:108C3000F8B500250446C567FCF70AF80746206822
:108C400000686FF07E46000708D500223B464FF4CF
:108C500000112046009600F0FBFA60B92068006819
:108C600040070AD500223B464FF48001204600967B
:108C700000F0EEFA08B10320F8BD202084F8790056
:108C800084F87A00002084F87850F8BD10B5806B25
:108C90000021A0F86A10A0F86210FDF791FE10BD47
:108CA00001680A6822F490720A6001688A6822F0FA
:108CB00001028A60202180F87A10704710B5B0F860
:108CC0006C2090F87A300168222B05D0088B40F098
:108CD00008000883022010BD898C8368B3F5805F8B
:108CE00001D103696BB11140426E531C4366117090
:108CF000B0F86A10491E0904090CA0F86A1007D0E0
:108D000015E0436E11401980416E891C4166EFE702
:108D100001680A6822F490720A6001688A6822F089
:108D200001028A60202180F87A10FEF711F80020F5
:108D300010BD00002DE9F04F044600688025FD4B72
:108D40000021D4F810C087B0A6680F46D4F81C8064
:108D500046EA0C06D4F814C0A26A4CEA080C46EAAB
:108D60000C0632430668DFF8D0C306EA0C06164349
:108D7000066020684268E66822F44052324342604E
:108D80002268A0699A4201D0266A3043A66AB6F1E9
:108D9000005F04D1D4E90B6C46EA0C0630439668B8
:108DA000DFF898C306EA0C06064396602068C26A9C
:108DB000666A22F00F023243C262E14E2068E14A45
:108DC000B04210D1126802F03802182A74D005DCC3
:108DD000CAB3082A7AD0102A47D179E0202A7BD05A
:108DE000282A7CD17AE0D84EB04209D1126802F02C
:108DF0000702062A73D2DFE802F053696B6D6F71C8
:108E0000D24EB04209D1126802F00702062A66D299
:108E1000DFE802F0465C5E606264CD4EB04209D18C
:108E2000126802F00702062A59D2DFE802F0394F31
:108E300051535557C74EB0420BD1126802F007028A
:108E4000062A4CD200E00EE0DFE802F02A4042445D
:108E50004648C14EB04209D1126802F03802182AC1
:108E600038D0BBDCB4E74FF0010538E0BB4EB04270
:108E700009D1126802F00702062A30D2DFE802F0B8
:108E80001026282A2C2EB64EB0420BD1126802F0C2
:108E90000702062A23D2DFE802F003191B1D1F2157
:108EA00000251CE098421AD1A64A121D126802F051
:108EB0000702062A13D202E00CE007E00CE0DFE82C
:108EC00002F0030507090B0D022508E0042506E062
:108ED000402504E0082502E0102500E02025DFF809
:108EE00064B2A04E9842DFF880A2ABF1540B73D16C
:108EF000102D31D006DC022D09D0042D0AD0082D0A
:108F00002FD111E0202D29D0402D2AD107E0FBF7E9
:108F1000BBFF13E06846FBF7CDFF01980EE003A806
:108F2000FCF746F8049809E0DBF80010584689067B
:108F300010D50068C0F3C1012AFA01F0002811D051
:108F40006168894601EB410181420AD8B0EB093FD3
:108F500007D808E05046F3E78448F1E74FF40040B3
:108F6000EEE7012733E1102D4FF000084ED006DC6C
:108F7000022D0FD0042D15D0082D04D12DE0202D69
:108F80004AD0402D13D00127794AA0F54071914273
:108F900070D9E6E7FBF778FF626A0023414636F8AE
:108FA00012200DE06846FBF785FF019803E003A857
:108FB000FBF7FEFF04980023616A36F8112019467A
:108FC000F7F758FA62680902030241EA1061500893
:108FD000181841EB080115E032E0DBF800105846A4
:108FE000890609D500680023C0F3C1012AFA01F0FF
:108FF000616A36F8112015E0606A002336F8102007
:1090000050460FE00023F7F735FABDE7606A00230A
:1090100036F81020554805E0606A002336F8102025
:109020004FF400400021F7F725FA0902020241EA55
:1090300010614FEA590010184A4641EB0801E1E778
:10904000E3694FF4004293424DD1082D23D005DC53
:109050008DB1012D12D0042D06D112E0102D35D086
:10906000202D3AD0402D11D0012721F00F00C1F35F
:10907000420108435AE0FCF7A9FD16E0FCF7BCFDED
:1090800013E06846FBF716FF01980EE003A8FBF714
:109090008FFF049809E0DBF800105846890608D5D0
:1090A0000068C0F3C1012AFA01F0616A36F81110B4
:1090B00010E0606A36F81010BAFBF1F04100606809
:1090C00001EB5001B1FBF0F081B2CEE7606A36F8F7
:1090D00010102648B0FBF1F0F0E7606A36F8100097
:1090E000B2FBF0F0EAE7082D4AD00ADC0DB3012DFF
:1090F00043D0042D7FF44DAF6846FBF7DBFE0198AB
:1091000009E0102D52D0202D55D0402DF2D103A8CA
:10911000FBF74EFF0498616A36F81110B0FBF1F1CD
:10912000606801EB5001B1FBF0F080B22168C860CB
:109130004DE01FE0000C0058F369FFCFFFF4FF1172
:1091400000100140544402580044004000480040D0
:10915000004C0040005000400014014000780040E6
:10916000007C0040001501080090D00300093D007C
:10917000FFFC0F00FCF72AFDCDE7FCF73DFDCAE739
:10918000DBF80020594692060AD50968C1F3C102EE
:109190002AFA02F1626A36F81220B1FBF2F20FE00D
:1091A000616A36F81120BAFBF2F209E0616A36F81A
:1091B00011200949F1E7616A36F81110B2FBF1F2AA
:1091C000616802EB5102B2FBF1F189B2C16007B0F4
:1091D0003846BDE8F08F000000093D0090F8791096
:1091E000212901D002207047B0F8621021B18168B6
:1091F000B1F5805F13D014E001680A68920004D5CD
:109200008A6822F400028A6003E00A6822F0800281
:109210000A600068016841F0400101600CE00169EA
:1092200061B1C16D4A1CC265026809781185B0F848
:109230006210491EA0F8621000207047C16D0268DC
:109240000988C1F308011185C16D891CC165EEE76C
:109250002DE9F0411E46174688460446069D1CE04F
:10926000681C1AD025B1FBF7F3FC801BA84214D967
:109270002068016821F4D07101602068816821F0C4
:1092800001018160202084F8790084F87A000020B0
:1092900084F878000320BDE8F0812068C16938EACD
:1092A000010004D00020B842DAD00020F3E701200A
:1092B000F9E7000070B50D4D00240D48FDF788FB5F
:1092C00002E0641CAC4204D80948FDF77AFB202870
:1092D000F7D1002402E0641CAC4206D80549012203
:1092E0000348FDF7E1FC0028F5D170BDFFFF010048
:1092F000A0060024C600002470B50D4D00240D48C2
:10930000FDF766FB02E0641CAC4204D80948FDF797
:1093100058FB2028F7D1002402E0641CAC4206D898
:10932000054901220348FDF7BFFC0028F5D170BDB7
:10933000FFFF010020070024C7000024FEE7000013
:109340001FA010B5F7F728F9224CFF232021032096
:109350002268FAF7FAF8052002F038FA6268FF236B
:1093600024210320FAF7F1F8052002F02FFAA26871
:10937000FF2328210320FAF7E8F8052002F026FA57
:10938000E268FF232C210320FAF7DFF8052002F022
:109390001DFA2269FF2330210320FAF7D6F80520B1
:1093A00002F014FA6269FF2334210320FAF7CDF8A2
:1093B000052002F00BFABDE8104007A0F7F7ECB863
:1093C00077726974696E6720656570726F6D0D0ADA
:1093D00000000000F402002477726974696E67204F
:1093E00066696E6973680D0A0000000003B4019895
:1093F0004100009850EAC12018BF04204A0D18BF50
:1094000040F0010040F2FF72B2EB515F08BF40F044
:109410000200012808BF052002B070470907090EA5
:10942000002804DB00F1E02080F80014704700F011
:109430000F0000F1E02080F8141D704700000000CC
:1094400030B52DED068B81B0B0EE409B6A4651ECF5
:10945000190B02F091FDB7EEC98B00989FED2AAB76
:109460007E30009000281BDCB4EE4A9BF1EE10FA2F
:1094700016D0002140F608004FF0000040F6080129
:10948000014040F608004FF000009FED210AB4EEC5
:10949000408AF1EE10FA04BF0220F7F75CFC2AE0E4
:1094A000FF2828DB002108464FF00000B4EEC9ABCE
:1094B00000F44005F1EE10FA94BF012400240220CC
:1094C000F7F749FC9FED138A4DB1002C0CBF4FF408
:1094D00000004FF48000A84218BF9FED0F8A0421BE
:1094E00008464FF00000002C01BFB1EE480A01B061
:1094F000BDEC068B30BDB0EE480A01B0BDEC068B6A
:1095000030BD00000000000000000000000000006E
:10951000000000000000807FFFFF7F7F0000000050
:1095200030B583B00446F7F711FC9FED090B0546F3
:109530008DED000B002221466846F8F717F8284603
:10954000F7F709FC9DED000B03B030BD00000000F3
:10955000000000000000000070B5DFF8DCC1002250
:109560002DED020B2DED108BDDE91010604505DAB5
:1095700020F00043634501D809D141B19DED100BA6
:10958000BDEC108B02B0BDE8704000F0C9BDB0F575
:10959000801F24DA19430BD0002814DA0120F7F7D2
:1095A000DAFBBDEC108B02B0BDE8704000F0C0BD2E
:1095B0000220F7F7D0FB00F0A3FDB1EE400BBDECAD
:1095C000108B02B070BD9DED100B6FF035029FED5A
:1095D0005C1B20EE010B10EE900A8DED100B02EBE0
:1095E0002051A1F2FF325849C0F31300014401F4A5
:1095F000801181F07F6383F04053034311939DED0D
:10960000100B02EB21549FED521B811CC1F313017F
:1096100030EE418B9FED50BB9FED51CB032931D2F2
:109620005148784490ED000BB4EE408BF1EE10FA07
:109630000ED1002C02BFBDEC108B02B070BD00EE4D
:10964000104AB8EEC01B21EE0B0B01EE0C0BB6E777
:1096500028EE081B9FED462B9FED470B002C08EED4
:10966000420B21EE000B08BF38EE400BA7D001EEF5
:10967000104AB8EEC11B01EE4C0B30EE480B11EE58
:109680000B0B9CE79FED3E0B3F49C0F1510638EEB6
:10969000000B45183D4806F5D726032188EE009BB0
:1096A00000EE104AB8EEC0AB29EE09DB2DEE0DEB53
:1096B000B0EE4E0B784400F0EBFC20EE0EFB34488D
:1096C000B0EE4E0B0421784400F0E2FC20EE0D0BCE
:1096D00045EA0600002830EE0F1B1ADD002C9FED36
:1096E000260B28EE000B20EE080B30EE011B04BF0A
:1096F00009EE410B38EE400B3FF461AF21EE091B40
:109700000AEE0C1B30EE410B30EE480B1AEE0B0B41
:1097100055E754B138EE410B20EE090B0AEE4C0B25
:1097200030EE480B1AEE0B0B49E738EE411BB0EE5A
:10973000480B09EE410B42E70000F07F00000000FB
:109740000000000000005043645F090000000000BA
:10975000000000000000F03F0000E0FE422EE63F67
:10976000763C7935EF39EA3DAA8000000000000020
:10977000555555555555D53F000000000000E03FB8
:10978000000000000000004086EBF9FF507F000061
:10979000567F0000000000002DE9F04D2DED040B78
:1097A0002DED0A8B9AB0DDE92550279CDDF890A0BD
:1097B00025F0004624F00048BAF1000F14BF012143
:1097C000002101EB4502F84953184A1093422AD36D
:1097D000002814BF0123002303EB44030B44F34987
:1097E0008B4220D358EA00019FEDF19B72D0DFF845
:1097F000C8B35D4503D1BAF1000F05D184E0BAF1D9
:10980000000F08BF002100D0012101EB450111F537
:10981000001F08D8002814BF0121002101EB4401DA
:1098200011F5001F0BD99DED261B9DED240B1AB0E1
:10983000BDEC0A8B04B0BDE8F04D00F074BC00270D
:10984000002DBCBFDD49884521DADD498845A8BF28
:1098500002271CDAC3451ADCDA4901EB2851142926
:1098600008DDC1F1340220FA02F101FA02F282426B
:109870000DD108E058B9C1F1140228FA02F101FA39
:1098800002F2424503D101F00101C1F1020756EA9B
:109890000A0120D1002C1EDA002D18BF022F01D0A2
:1098A000012F0AD00220F7F756FA1AB0BDEC0A8B46
:1098B00004B0BDE8F04D00F023BC0220F7F74BFAEE
:1098C00000F01EFCB1EE400B1AB0BDEC0A8B04B0E8
:1098D000BDE8F08D18E09FEDBCAB9FEDBD8B00287F
:1098E0007DD1B64880451CD105F1804010F580102F
:1098F00008BFBAF1000F07D0B34508DC002CA8BFA1
:109900009DED260BE0DA07E0B0EE490BDCE7002C1A
:10991000B8BF9DED260BD5DBAF48784490ED000B2A
:10992000D2E7D84548D1002C43DA2EB186423AD14D
:10993000BAF1000F3DD126E0BAF1000F13D002209A
:10994000F7F709FA00F000FC8DED020B9DED240BFA
:109950008DED000B10EE900A039961F31E00039049
:109960009DED020BB0E78DED02AB9DED240B1AEEE1
:10997000901A10EE900A8DED000B61F31E0003901B
:109980009DED020BA0E78DED028B9DED240B18EEF3
:10999000901A10EE900A8DED000B61F31E000390FB
:1099A0009DED020B90E704DA9DED241B89EE010B7F
:1099B0008AE79DED240B87E786421ADAB4F1804FDF
:1099C00004BF9DED240B20EE000B3FF47DAFA4F10E
:1099D0000050B0F1FF500CD1002D0ADB00E008E090
:1099E0009DED240B51EC100B04F0B8F941EC100B79
:1099F0006AE79DED240B51EC100B02F0A7FABAF1C7
:109A0000000FCDE90E0140D19FED750B46B3A6F1D5
:109A1000E040B0F17F600ED05E4536D1002D00DA17
:109A200097B3022F0CBF01204FF0FF3000EE100A59
:109A3000B8EEC00B48E7002D01DD002C0DDA002D3B
:109A400001DD002C1DDB002D14DA002C12DB012FB0
:109A500008BF9FED650B3FF437AFB0EE4A0B33E71D
:109A6000022F18BF002D0CD0012F0AD1002DFFF6B8
:109A70002BAF06E0002DB8BF002C06DA012F3FF413
:109A800023AFB0EE480B1FE719E0012000EBE570B3
:109A900050EA070113D0791EB0EE498B084308BF86
:109AA0009FED538B5448002580457ADD5349544837
:109AB000884514DDB0420DDB002C19DB2CE00120C1
:109AC000F7F749F91AB0BDEC0A8B04B0BDE8F04DC8
:109AD00000F02EBBB34502DC002C09DC1CE0864202
:109AE00002DA002C18DA03E05E4528DD002C13DDD5
:109AF0000220F7F730F900F027FB8DED020B28EE7E
:109B00000A0B8DED000B10EE900A039961F31E0015
:109B100003909DED020BD7E60220F7F71CF900F049
:109B20001FFB10EE901A18EE900A8DED020B8DEDD2
:109B3000008B61F31E0003909DED020BC4E69DEDCA
:109B40000E0B9FED313B30EE490B8DED040B20EEFB
:109B5000002B9DED041B9FED2E0B01EE430B9DEDA5
:109B6000043B9FED2D1B03EE401B9DED040B9FED71
:109B70002E3B22EE012B9FED2A1B20EE011B20EE37
:109B8000030B9FED2B3B02EE430B31EE002B8DEDD3
:109B9000022B02959DED022B32EE411B30EE411B54
:109BA00021E149E000000000FFFF1F00FFFF0F0060
:109BB000000000000000F03F0000F03F0000F07FD8
:109BC0000000404301FCFFFF000000000000F07FA8
:109BD0000000000000000000B27D00000000000056
:109BE0000000000000000080000000000000F0FF06
:109BF000000000000000F0BF0000E0410000F04362
:109C0000FFFFEF3F00000000000000000000D03F19
:109C1000555555555555D53F000000000000E03F13
:109C2000000000604715F73F44DF5DF80BAE543E7F
:109C3000FE822B654715F73F0020B6F5801F0BDA33
:109C40009DED0E0B9FEDEC1B6FF0340020EE010B31
:109C500010EE906A8DED0E0BE94A00EB2650C6F32C
:109C60001301A0F2FF3741F07F6040F04050914275
:109C7000D8BF002408DDE34A8A42C8BF012403DCC0
:109C80000024A0F580107F1CDF49794401EBC4015A
:109C90000F9091ED001B9DED0E2B9DED0E0BDB4902
:109CA00031EE023B30EE410B89EE032B20EE02AB8E
:109CB0008DED02AB7944029591ED003B4FF00051E0
:109CC00041EA600000EB84408DED043B00F500208C
:109CD00005909DED043B9DED044B2AEE0ACB33EE3F
:109CE000411B9DED0E3BCA48062133EE411B9DED05
:109CF000023B03EE440B03EE410B20EE02BBB0EE41
:109D00004C0B784400F0C4F92CEE0C1B20EE010B38
:109D10009DED021B31EE0A1B0BEE010B9DED021BAC
:109D200021EE011B9FEDBC2B31EE023B33EE003BDD
:109D30008DED043B04959DED043B33EE422B32EE5A
:109D4000411B30EE412B9DED020B9DED041B20EEDF
:109D5000011B9DED040B2BEE000B02EE0A0B31EE06
:109D6000002B8DED022B02959DED022B32EE411B57
:109D700030EE410B9DED021B9FEDA92B21EE021B46
:109D80009DED022B9FEDA83B22EE032B9FEDA83B00
:109D9000A94800EE032B784400EBC40090ED000BC3
:109DA000A64832EE000B02EE107AB8EEC22B8DED13
:109DB000042B31EE003B784400EBC4009DED044BD6
:109DC00090ED002B33EE023B33EE043B8DED023B76
:109DD00002959DED023B33EE443B33EE422B32EED7
:109DE000411B30EE411B9DED260B954A8DED000B7E
:109DF00000959DED260B9DED002B30EE420B9DED69
:109E0000022B20EE020B9DED262B02EE010B9DEDA9
:109E1000001B9DED022B21EE021B8DED021B30EE8F
:109E2000011B11EE900A11EE101A8DED001B9042ED
:109E300024DB821A11430ED19FED831B9DED002B75
:109E40009DED023B30EE011B32EE432BB4EEC21B04
:109E5000F1EE10FA26DD0220F6F77DFF00F074F92E
:109E600010EE901A18EE900A8DED020B8DED008B1E
:109E700061F31E0003909DED020B25E5744B20F06D
:109E800000429A420ED3734A024411437FF444AE17
:109E90009DED022B31EE421BB4EEC01BF1EE10FA29
:109EA000BFF63AAE20F000416B4A6C4B002402EB47
:109EB00021529942D8BF9DED021B27DD511C4FF462
:109EC000801222FA01F10144654BC1F30A527B442E
:109ED000A2F2FF3293ED001B624B8DED041BD340C9
:109EE00021EA0303C1F3130141F48011C2F114020A
:109EF00021FA02F405930028B8BF64429DED021BCD
:109F00009DED042B31EE421B8DED021B30EE011B4B
:109F10008DED041B04959DED041B9FED532B9DEDD2
:109F2000023B21EE021B9DED042B32EE432B30EE63
:109F3000420B9FED4F2B20EE020B9DED042B9FED6E
:109F40004E3B4F48052102EE030B31EE002B8DED09
:109F5000002B32EE411B30EE41AB9DED000B20EEAD
:109F6000000B8DED040B784400F092F89DED001B82
:109F70009DED042B02EE401B8DED021B9DED000BB1
:109F800020EE010B9FED402B31EE422B80EE021BA9
:109F90009DED002BB0EE4A0B02EE0A0B31EE400BAA
:109FA0009DED001B30EE410B39EE400B10EE900A98
:109FB0008DED000B00EB045001150029C8BF019086
:109FC00013DC224651EC100B07F046FAFFF70EFAAD
:109FD000042808BF00F0C4F822469DED000B51ECA8
:109FE000100B07F039FACDE900019DED000B28EECA
:109FF000000B69E400000000000000000000404386
:10A000008E9803007AB60B00B2790000187A00002F
:10A010006A79000000000000000000000000084015
:10A02000000000E009C7EE3FF5015B14E02F3EBEE3
:10A03000FD033ADC09C7EE3FC678000096780000C1
:10A040000000904000000000FE822B654715973C01
:10A0500000CC904000346F3F01FCFFFF0000E03F68
:10A06000FE770000FFFF0F0000000000432EE63FD8
:10A07000EF39FAFE422EE63F396CA80C615C20BE37
:10A0800036770000000000000000000000000040E3
:10A09000491E00EBC102B0EE401B92ED000B31F007
:10A0A00006020DD0491E00EBC102B0EE403B92ED1E
:10A0B000002B31F00602B0EE420B03EE010BF1D1A2
:10A0C000022914D004290AD0062918BF704790ED40
:10A0D0000A2B00EE012B90ED080B02EE010B90ED28
:10A0E000062B00EE012B90ED040B02EE010B90ED20
:10A0F000022B00EE012B90ED000B02EE010B7047DE
:10A100009FED031B9FED042B81EE020B70470000B7
:10A11000000000000000F03F000000000000000010
:10A1200030EE000B704730EE010B7047000000006E
:10A130009FED031B81EE010B704700000000000043
:10A1400000000000000000009FED030B20EE000B5C
:10A1500070470000000000000000000000000070D8
:10A160009FED030B20EE000B704700000000000085
:10A17000000000000000001010B5044691ED000B37
:10A18000FFF75EF984ED000A10BD0000000000003A
:10A1900030B504462DED048B85B040F2FF7590ED8F
:10A1A000008B0A4618EE900A8DED008B35EA1050B0
:10A1B0001EBF9FED239BB4EE498BF1EE10FA23D026
:10A1C00051EC180B07F048F941EC180B18EE900A07
:10A1D0008DED008B35EA10501CD0B4EE498BF1EEBA
:10A1E00010FA11D10220F6F7B6FDFFF7B9FF10EE15
:10A1F000901A18EE900A8DED000B8DED028B61F335
:10A200001E0001909DED008B84ED008B05B0BDEC30
:10A21000048B30BD0220F6F79EFDFFF795FF10EE90
:10A22000901A18EE900A8DED000B8DED028B61F304
:10A230001E0001909DED008BE6E70000000000008D
:10A24000000000000000000030380A2801D2012080
:10A25000704700207047704710B501F0A1FDBDE8C0
:10A2600010400349002241F2883003F0B3BD0000E2
:10A2700059A200084249042010B50860FDF706FE07
:10A28000F9F7EAF9FAF726FD042302220521A020B6
:10A29000FEF7F8F94FF4C87001F08EFA4FF4E1348C
:10A2A000204605F0D1FF204605F0EAFFFDF7C0FD8E
:10A2B000FEF776F9002003F0D7F8012003F0D4F878
:10A2C000022003F0D1F8FEF721F8632040F2CF71AD
:10A2D000FEF760FB0120F9F783F91E210220FDF74C
:10A2E00031FC0320FCF7F4FD0420FCF7F1FD042011
:10A2F000F9F7DAF8FEF76EFA01220C211046F9F7A9
:10A300000FFAC82001F062FA182203210420B1EEEE
:10A31000080AF8F7D5FF642001F058FA0421182242
:10A320000846B1EE040AF8F7CBFFFF210320F9F746
:10A33000A1F808B113A000E017A0F6F72DF901F07D
:10A34000DFFFFEF743F818480121FDF789FE0420DE
:10A350004FF47A71FDF7E6FB4FF4FA7402E0204601
:10A3600001F034FA02F030FE0028F8D10F48012243
:10A370000221FAF768FC05F099FB0028FBD110BD1B
:10A380009CEF00E04932433320496E6974204661F6
:10A39000696C2E0D0A0000004932433320496E6972
:10A3A00074204F4B2E0D0A00043C03240004025875
:10A3B00070B52DED028BA2B00C461FAA32A1F6F7A4
:10A3C000A7FA1FA8F6F732FBC5B2681E032853D8B8
:10A3D000FF2240210320F9F77EF8AB280BD0012C97
:10A3E00045D0022C03D12CA132A0F6F7D5F822B02B
:10A3F000BDEC028B70BD05EB4506382000EB8601F5
:10A40000FF220320F9F752F808EE100A012001F0AC
:10A41000DDF93C2000EB8601FF220320F9F746F826
:10A4200008EE900A012001F0D1F9402000EB8601EE
:10A43000FF220320F9F73AF800EE100A1EA12A467F
:10A4400006A8B7EEC00A8DED040BB7EEE80A8DED55
:10A45000020BB7EEC80A8DED000BF6F7A9F8012C38
:10A4600003D0022CC3D106A9BEE706A900E00AA1C9
:10A4700010A0FEF79FF9BAE7012C03D0022CB6D149
:10A4800018A1B1E717A1F3E7252A5B5E3D5D3D25E5
:10A490005B5E295D000000004E544320454550524C
:10A4A0004F4D2044415441204552524F522E0D0AE7
:10A4B00000000000257300006765745F6E74635FC1
:10A4C0007061726D2863683D25642C413D252E35F1
:10A4D000652C423D252E35652C433D252E356529BD
:10A4E0000A00000041434B287061726120276368B5
:10A4F000206E756D62657227206572726F722E69AB
:10A50000742073686F756C6420626520312C322C66
:10A51000332C342E290D0A0030B59FB00D461BAAEE
:10A5200014A1F6F7F5F91BA8F6F780FAC4B2601E7D
:10A5300003280CD8204601F065FDB7EEC00A11A132
:10A54000224602A88DED000BF6F732F803E016A1C3
:10A5500002A8F6F72DF8012D07D0022D03D102A98C
:10A560001EA0F6F719F81FB030BD02A91BA0FEF718
:10A5700021F9F8E7252A5B5E3D5D3D255B5E295D9F
:10A58000000000006E74635F74656D702863683D41
:10A5900025642C74656D703D252E3166A1E6292C4D
:10A5A000204F4B210D0A000041434B28706172611E
:10A5B00020276368206E756D626572272065727250
:10A5C0006F722E69742073686F756C6420626520E9
:10A5D000312C322C332C342E290D0A002573000027
:10A5E00010B5514C012994ED000AB7EEC00A4CD0C9
:10A5F00002297DD153EC102B4CA0F5F7CDFF94ED43
:10A60000010A4DA0B7EEC00A53EC102BF5F7C4FFBA
:10A6100094ED020A4BA0B7EEC00A53EC102BF5F7ED
:10A62000BBFF94F835104AA0F5F7B6FF94ED030A86
:10A630004AA0B7EEC00A53EC102BF5F7ADFF94ED2E
:10A64000040A4AA0B7EEC00A53EC102BF5F7A4FF9A
:10A6500094ED0A0A4AA0B7EEC00A53EC102BF5F7A6
:10A660009BFF94ED0C0A49A0B7EEC00A53EC102BE7
:10A67000F5F792FF94ED0B0ABDE8104043A0B7EE4A
:10A68000C00A53EC102BF5F787BF53EC102B27A013
:10A69000FEF790F894ED010A27A0B7EEC00A53EC3C
:10A6A000102BFEF787F894ED020A26A0B7EEC00A39
:10A6B00053EC102BFEF77EF894F8351024A0FEF72B
:10A6C00079F894ED030A25A0B7EEC00A53EC102BDD
:10A6D000FEF770F894ED040A24A0B7EEC00A53EC1C
:10A6E000102BFEF767F894ED0A0AB7EEC00A00E0F7
:10A6F00018E053EC102B22A0FEF75CF894ED0C0A46
:10A7000022A0B7EEC00A53EC102BFEF753F894EDDD
:10A710000B0ABDE810401DA0B7EEC00A53EC102B89
:10A72000FEF748B810BD0000043C03244B703A25E6
:10A730002E34660D0A0000004B693A252E34660D52
:10A740000A0000004B643A252E34660D0A00000012
:10A750004953454E3A25640D0A0000007365745F45
:10A7600074656D703A252E32660D0A00616374754A
:10A77000616C5F74656D703A252E32660D0A0000BB
:10A780006F75743A252E33660D0A00004D494E3A16
:10A79000252E33660D0A000070B5144D012912D024
:10A7A000022921D112A0F5F7F7FE002455F8240064
:10A7B000F5F7F2FE641CE4B2102CF7D3BDE870404C
:10A7C00017A0F5F7E9BE0AA0FDF7F4FF002455F83D
:10A7D0002400FDF7EFFF641CE4B2102CF7D3BDE8B2
:10A7E00070400FA0FDF7E6BF70BD000068000024B8
:10A7F0002A2A2A2A2A2A2A2A2A2A2A2A2A5573650A
:10A800007220436F6D6D616E64204C6973742A2AE7
:10A810002A2A2A2A2A2A2A2A2A2A2A2A0D0A000029
:10A820002A2A2A2A2A2A2A2A2A2A2A2A2A2A2A2A88
:10A830002A4C69737420456E642A2A2A2A2A2A2AF5
:10A840002A2A2A2A2A2A2A2A2A2A2A2A0D0A0000F9
:10A8500030B5BBB00C461821054623A8F6F7E8F939
:10A8600038AB35AA32A92FA88DE80F0042492CAB8E
:10A8700029AA2846F6F74CF829A8FEF751FEB7EEAC
:10A88000C00B2CA88DED230AFEF74AFEB7EEC00BD5
:10A890002FA88DED240AFEF743FEB7EEC00B32A8B9
:10A8A0008DED250AFEF73CFEB7EEC00B35A88DED09
:10A8B000260AFEF735FEB7EEC00B38A88DED270A45
:10A8C000FEF72EFEB7EEC00B8DED280AB5EEC00ADE
:10A8D000F1EE10FA01DD29A10BE0344927988842F6
:10A8E00001DB33A105E010EE100A3D49884204D394
:10A8F0003CA10AA8F5F75CFE2FE0464823A903F027
:10A9000009FAFEF71DFDFDF761FD9DED280A42499C
:10A910000AA8B7EEC00A8DED080B9DED270AB7EE29
:10A92000C00A8DED060B9DED260AB7EEC00A8DED2F
:10A93000040B9DED250AB7EEC00A8DED020B9DEDCF
:10A94000240AB7EEC00A8DED000B9DED230AB7EE89
:10A95000C00A53EC102BF5F72BFE012C07D0022C6C
:10A9600003D10AA92DA0F5F717FE3BB030BD0AA907
:10A970002AA0FDF71FFFF8E7701A010841434B2892
:10A98000706172612027704F75744D696E27206564
:10A9900072726F722E49742073686F756C642062D6
:10A9A00065203C3D20302E290D0A00000000A0400B
:10A9B00041434B28706172612027704F75744D615F
:10A9C0007827206572726F722E49742073686F75D4
:10A9D0006C64206265203C3D20352E290D0A000064
:10A9E0000000A0C041434B28706172612027704F66
:10A9F00075744D696E27206572726F722E497420CE
:10AA000073686F756C64206265203E3D202D352E85
:10AA1000290D0A00043C03248C1901082573000049
:10AA200030B52DED028BA1B00D461EAB1BAA1EA1A9
:10AA3000F5F76EFF641E032C21D81BA8F5F7F6FF6F
:10AA4000C4B21EA8FEF76CFDB7EEC08B022C05D970
:10AA5000182221460420B0EE480A04E01E222146B6
:10AA60000220B0EE480AF8F72BFCB7EEC80A15A191
:10AA7000224602A88DED000BF5F79AFD03E01BA11D
:10AA800002A8F5F795FD012D09D0022D03D102A9E9
:10AA900023A0F5F781FD21B0BDEC028B30BD02A9EA
:10AAA0001FA0FDF787FEF6E7252A5B5E3D5D3D258D
:10AAB0005B5E2C5D252A5B5E3D5D3D255B5E295D11
:10AAC000000000007365745F6461635F766F6C748F
:10AAD0002863683D25642C766F6C743D252E3366A3
:10AAE000292C204F4B210D0A0000000041434B2828
:10AAF0007061726120276368206E756D62657227D0
:10AB0000206572726F722E69742073686F756C6441
:10AB100020626520312C322C332C342E290D0A0072
:10AB20002573000030B59DB00C4619AA11A1F5F7A8
:10AB3000EFFE19A8F5F77AFF10F0FF0501D001220A
:10AB400000E0002204210120F8F7EAFD0DA12A46C9
:10AB50006846F5F72DFD012C07D0022C03D10FA07C
:10AB60006946F5F719FD1DB030BD0CA06946FDF72B
:10AB700021FEF8E7252A5B5E3D5D3D255B5E295D94
:10AB8000000000007365745F66616E5F6F757470BE
:10AB90007574287374613D2564290A0025730000CB
:10ABA000A6B00DF18A060C4620AD0DF17603CDE975
:10ABB00000561BAA1F4633A1F5F7AAFE1BA8F5F7FE
:10ABC00035FF00F0FF083846F5F730FFC7B22846DA
:10ABD000F5F72CFFC5B23046F5F728FFC6B23B4665
:10ABE00035A1424602A8CDE90056F5F7E1FCFF2366
:10ABF000424630210320F8F7BCFCFF233A463121BE
:10AC00000320F8F7B6FCFF232A4632210320F8F789
:10AC1000B0FCFF23324633210320F8F7AAFC012CB5
:10AC200002D0022C05D008E002A92EA0FDF7C2FD3B
:10AC300003E002A92BA0F5F7AFFC642000F0C6FDED
:10AC4000012C02D0022C04D006E027A0FDF7B2FDB3
:10AC500002E025A0F5F7A0FC4FF4FA74204600F0BE
:10AC6000B5FD204600F0B2FDBFF34F8F24480168C8
:10AC7000244A01F4E06111430160BFF34F8F00BF2C
:10AC8000FDE70000252A5B5E3D5D3D255B5E2C5D9A
:10AC9000252A5B5E3D5D3D255B5E2C5D252A5B5E66
:10ACA0003D5D3D255B5E2C5D252A5B5E3D5D3D2562
:10ACB0005B5E295D000000007365745F69705F6111
:10ACC0006464722870313D25642C70323D25642CFB
:10ACD00070333D25642C70343D2564292C4F4B0D79
:10ACE0000A0000002573000077616974696E6720AF
:10ACF00072657365742E2E2E2E2E2E0D0A00000006
:10AD00000CED00E00400FA0538B515480024009069
:10AD100072B64FF0E020046144618461FAF70AFFE3
:10AD20004FF0FF31A00000F1E020C0F88011C0F822
:10AD30008012641C082CF5D362B600980099406814
:10AD4000096881F30888002181F31488804705A0F1
:10AD5000FDF730FDBDE8384002A0F5F71DBC00004E
:10AD60000098F01F626F6F746C6F6164657220668B
:10AD700061696C0D0A00000030B52DED0C8BBBB085
:10AD80000D460DF1040C2BAC28AB25AA34A98CE898
:10AD90001E0031A900916C492EAB37AAF5F7B8FD1A
:10ADA00037A8F5F743FEC4B2601E03287DD82EA84D
:10ADB000FEF7B6FBB0EE409B31A8FEF7B1FBB0EE5C
:10ADC000408B34A8FEF7ACFBB0EE402B9FED5F1B31
:10ADD00025A839EE01DB38EE01CB32EE01BBFEF7E0
:10ADE0009FFBB0EE408B28A8FEF79AFBB0EE409B8D
:10ADF0002BA8FEF795FB8DED0A0B8DED089B8DEDD5
:10AE0000068B8DED04BB8DED02CB52490CA8B0EE44
:10AE100040AB8DED00DB2246F5F7CAFBB0EE480BE8
:10AE2000FEF79AFBB0EE408BB0EE490BFEF794FBB9
:10AE3000B0EE409BB0EE4A0BFEF78EFBB7EE001B68
:10AE400081EE0DAB81EE0C2B81EE0B3B32EE4A1BFB
:10AE500039EE482B81EE02BB33EE4A2B30EE483BF5
:10AE600082EE031B30EE492B31EE4B1B81EE02CB01
:10AE700038EE091B31EE000BBFEE001BFEF78CFC19
:10AE80002CEE000BB0EE001BB7EEC0CBB0EE480BC3
:10AE9000FEF782FCB0EE40DBB0EE001B08EE09DBF3
:10AEA000B0EE490BFEF778FC00E037E03DEE000B1A
:10AEB000B7EECC9AB0EE001B09EE40BBB0EE480BEB
:10AEC000B7EECBBBFEF768FCB7EECB1A1CEE103A20
:10AED0001BEE102A204609EE001B08EE41ABB7EE30
:10AEE000CA8B18EE101A06F011FA012C06D0022CAB
:10AEF00006D0032C07D0042C14D106E0164806E037
:10AF00001548803003E0154801E01448803080ED9A
:10AF10000C8A80ED0DBA80ED0ECA03E010A10CA8DA
:10AF2000F5F746FB012D09D0022D03D10CA919A07C
:10AF3000F5F732FB3BB0BDEC0C8B30BD0CA915A076
:10AF4000FDF738FCF6E70000BC1A01086666666685
:10AF500066127140941701081003002410040024A5
:10AF600041434B287061726120276368206E756DC4
:10AF700062657227206572726F722E697420736821
:10AF80006F756C6420626520312C322C332C342E8A
:10AF9000290D0A002573000030B5BBB00C461821FE
:10AFA000054623A8F5F744FE38AB35AA32A92FA8E9
:10AFB0008DE80F0040492CAB29AA2846F5F7A8FCDC
:10AFC00029A8FEF7ADFAB7EEC00B2CA88DED230A29
:10AFD000FEF7A6FAB7EEC00B2FA88DED240AFEF7F8
:10AFE0009FFAB7EEC00B32A88DED250AFEF798FA4E
:10AFF000B7EEC00B35A88DED260AFEF791FAB7EE35
:10B00000C00B38A88DED270AFEF78AFAB7EEC00B01
:10B010008DED280AB5EEC00AF1EE10FA01DD27A188
:10B020000BE032492798884201DB31A105E010EEA0
:10B03000100A3B49884204D33AA10AA8F5F7B8FAA6
:10B040002BE0444823A902F065FE9DED280A424901
:10B050000AA8B7EEC00A8DED080B9DED270AB7EEE2
:10B06000C00A8DED060B9DED260AB7EEC00A8DEDE8
:10B07000040B9DED250AB7EEC00A8DED020B9DED88
:10B08000240AB7EEC00A8DED000B9DED230AB7EE42
:10B09000C00A53EC102BF5F78BFA012C07D0022CC9
:10B0A00003D10AA92DA0F5F777FA3BB030BD0AA964
:10B0B0002AA0FDF77FFBF8E7701A010841434B28EF
:10B0C000706172612027704F75744D696E2720651D
:10B0D00072726F722E49742073686F756C6420628F
:10B0E00065203C3D20302E290D0A00000000A040C4
:10B0F00041434B28706172612027704F75744D6118
:10B100007827206572726F722E49742073686F758C
:10B110006C64206265203C3D20352E290D0A00001C
:10B120000000A0C041434B28706172612027704F1E
:10B1300075744D696E27206572726F722E49742086
:10B1400073686F756C64206265203E3D202D352E3E
:10B15000290D0A00043C0324E019010825730000AE
:10B1600030B59DB00C4619AA11A1F5F7D1FB19A86D
:10B17000F5F75CFC10F0FF0501D0012200E0002291
:10B1800003210120F8F7CCFA0DA12A466846F5F70D
:10B190000FFA012C07D0022C03D110A06946F5F755
:10B1A000FBF91DB030BD0DA06946FDF703FBF8E7C4
:10B1B000252A5B5E3D5D3D255B5E295D000000004C
:10B1C0007365745F70756D705F6F757470757428DA
:10B1D0007374613D2564290A000000002573000096
:10B1E00070B52DED028BA0B00E461CAB19AA26A19E
:10B1F000F5F78EFB19A8F5F719FCC4B21CA864F387
:10B200000705F5F713FC00EE100A002CB8EEC08A13
:10B2100033D0B0EE480A10EE100AB0F1814F2CDCAA
:10B22000B0EE480AB5EEC00AF1EE10FA0BD0B0EE5F
:10B23000480A10EE100AB0F17E5F04D019A16846EA
:10B24000F5F7B6F90DE018EE101A284602F02EFDBB
:10B25000BDEEC80A20A16846EAB210EE103AF5F732
:10B26000A7F9012E0BD0022E03D124A06946F5F7D1
:10B2700093F920B0BDEC028B70BD21A1DFE71FA0C8
:10B280006946FDF797FAF4E7252A5B5E3D5D3D25AB
:10B290005B5E2C5D252A5B5E3D5D3D255B5E295D29
:10B2A0000000000041434B287061726120277374D5
:10B2B00061206E756D62657227206572726F722EE5
:10B2C00069742073686F756C642062652030206F2C
:10B2D0007220312E290D0A007365745F7465635FF7
:10B2E0006F75747075742863683D25642C73746180
:10B2F0003D2564292C4F4B0D0A00000025730000EA
:10B3000041434B287061726120276368206E756D20
:10B3100062657227206572726F722E69742073687D
:10B320006F756C6420626520312C322C332C342EE6
:10B33000290D0A0010B52DED028BA2B00C461BABF7
:10B340001EAA3AA1F5F7E4FA1BA8FEF7E9F8F7EE12
:10B35000C08B1EA8FEF7E4F8B7EEC08BB5EEC08A2E
:10B36000F1EE10FA4CDBF5EEC08AF1EE10FA47DB95
:10B3700018EE900AB0F17E5F02DC9FED330A21E007
:10B3800018EE900A6FF07E510844B0F5000F02D21B
:10B390009FED2E0A16E018EE900A6FF080414FF4F0
:10B3A00080020844904202D29FED290A0AE018EE7A
:10B3B000900A28490844904202D29FED270A01E0F2
:10B3C000B7EE080A18220321042038EE000AF7F726
:10B3D00077FF0A2000F0FAF9042118220846B0EE9F
:10B3E000480AF7F76DFFB7EEE80A1CA102A88DED39
:10B3F000000BB7EEC80A53EC102BF5F7D9F803E0B1
:10B4000020A102A8F5F7D4F8012C09D0022C03D111
:10B4100002A92BA0F5F7C0F822B0BDEC028B10BD3D
:10B4200002A927A0FDF7C6F9F6E70000252A5B5E12
:10B430003D5D3D255B5E2C5D252A5B5E3D5D3D25CA
:10B440005B5E295D00000000CDCC8C3F9A99993F4E
:10B450006666A63FFFFFBFBF3333B33F7365745FBC
:10B460007465635F72616E676528766F6C743D25E5
:10B470002E33662C637572723D252E3366292C4F50
:10B480004B0D0A0041434B28706172612027766F93
:10B490006C7420616E642063757272206E756D62CB
:10B4A000657227206572726F722E69742073686FDF
:10B4B000756C64206265203E3D302E290D0A000027
:10B4C0002573000070B52DED028BA2B00E461EABA9
:10B4D0001BAA1AA1F5F71CFA1BA8F5F7A7FAC4B224
:10B4E0001EA864F30705FEF71BF8B7EEC08B641EB9
:10B4F000032C0ED8284618EE101A02F0FDFBB7EE0A
:10B50000C80A15A102A8EAB28DED000BF5F750F8B4
:10B5100003E01BA102A8F5F74BF8012E09D0022E7B
:10B5200003D102A923A0F5F737F822B0BDEC028BB6
:10B5300070BD02A91FA0FDF73DF9F6E7252A5B5E65
:10B540003D5D3D255B5E2C5D252A5B5E3D5D3D25B9
:10B550005B5E295D000000007365745F7465635F66
:10B5600074656D702863683D25642C74656D703D4D
:10B57000252E3166A1E6292C4F4B0D0A0000000054
:10B5800041434B287061726120276368206E756D9E
:10B5900062657227206572726F722E6974207368FB
:10B5A0006F756C6420626520312C322C332C342E64
:10B5B000290D0A0025730000012905D0022907D1B1
:10B5C000044905A0F4F7E8BF024903A0FDF7F2B86B
:10B5D000704700000A00002425730D0A00000000D7
:10B5E00070B59AB0044664216846F5F721FB204601
:10B5F000F5F766FA204410F8020C0D2807D1204612
:10B60000F5F75EFA204410F8010C0A2806D05FA076
:10B61000FDF7D0F85DA0F4F7BFFF6EE0644D204663
:10B620006978F5F717FA0028204669D0F5F748FA47
:10B63000697806462046F5F70DFAF5F741FA321A11
:10B6400021466846F5F71BFB594C694620342068B3
:10B65000F5F740FB002877D060686946F5F73AFBBC
:10B66000002873D0A0686946F5F734FB00286FD036
:10B67000E0686946F5F72EFB00286BD02069694623
:10B68000F5F728FB002867D060696946F5F722FBCB
:10B69000002864D0A0696946F5F71CFB002860D03B
:10B6A000E0696946F5F716FBC8B3206A6946F5F705
:10B6B00011FBA8B3606A6946F5F70CFB88B3A06A72
:10B6C0006946F5F707FB68B3E06A6946F5F702FBE0
:10B6D00048B3206B6946F5F7FDFA80B3606B6946A5
:10B6E000F5F7F8FA68B3A06B6946F5F7F3FA48B3D3
:10B6F000E06B6946F5F7EEFA80B300201AB070BD32
:10B70000F5F7DEF9024621466846F5F7B8FA29A1B1
:10B710006846F5F799F9002405466E4609E022E0EF
:10B7200023E024E025E026E00EE0285D3055641C8F
:10B73000A4B22846F5F7C4F9A042F6D884E71CE085
:10B7400004E01CE01DE003E00120D7E70220D5E77C
:10B750000320D3E70420D1E70520CFE713E006203C
:10B76000CCE70720CAE70820C8E70920C6E70A2077
:10B77000C4E70B20C2E70C20C0E70D20BEE70E2077
:10B78000BCE70F20BAE71020B8E700005468652036
:10B79000636F6D6D616E64206D6179206265206DEF
:10B7A000697373696E675C725C6E2E0D0A0000002F
:10B7B000080000240D00000010B504460420FAF72C
:10B7C000B5FF0148046010BDC000002470B500241E
:10B7D00005464FF47A7603E0304600F005F8641C25
:10B7E000AC42F9D370BD000070B54FF0E0250021E8
:10B7F0006C69094AAB6912685043AA699A42FCD045
:10B8000002D2A3EB020302E0A4EB02063344194484
:10B8100013468142F1D370BDC00000242DE9F341ED
:10B820004FF400641B4D1C4F019966109DF80000F9
:10B83000B1F17E5F15D0B1F1804F1BD0012827D127
:10B8400000220521F7F76CFF002221462846F9F770
:10B85000FAF90022314602B03846BDE8F041F9F766
:10B86000F2B9012814D1012205211046F7F758FF3B
:10B870000122EAE701280BD1012205211046F7F742
:10B880004FFF002221462846F9F7DDF90122E1E7C2
:10B89000BDE8FC81001C02580004025801219FED04
:10B8A000040A61F3070010EE101A02F0FFB900005D
:10B8B000000000002DE9F84F05009046894657D05A
:10B8C000B8F80A002A2850D3D8F804604FF4807AD8
:10B8D000344634F80E0F504547D12079062844D11C
:10B8E0006079042841D1608808283ED1D4F80E0040
:10B8F0000090281DA16905D0686818B1814201D166
:10B90000012700E000270FB1012300E00223694670
:10B9100004F10802284600F067FAE088504524D177
:10B920001FB3022001F020FCE080D4F80E00A061DB
:10B930006868C4F80E00A068C4F81200A089E0820C
:10B94000A0683060A089B080D9F80010A160B9F873
:10B950000400A081D9F80010C6F806104146B9F8D5
:10B96000040070812846AA699047404601F0F4FF20
:10B97000BDE8F88F2DE9F35F00214FF00A0B044674
:10B98000DA46584688468C46D9460F46344B01EB7A
:10B99000810E0A2803EB8E02937C08D0ABB154B120
:10B9A00025685668B54206D148B2BDE8FC9F002B19
:10B9B000F5D148B209E0012B15D0022B05D3D27C7A
:10B9C000624502D394464FFA81FA491CC9B20A294A
:10B9D000DCD301994FF0FF3289073ED40A2814D0F6
:10B9E00016DAC5B228E01E4B53F82E3033B1D67CA0
:10B9F000BE42EAD337464FFA81F9E6E7D57C4545A2
:10BA0000E3D3A8464FFA81FBDFE70198C00724D0B3
:10BA1000BAF10A0F02DA0AF0FF050AE0BBF10A0FD9
:10BA200002DA0BF0FF0504E0B9F10A0F15DA09F0AC
:10BA3000FF05284600F016F834B1094805EB8502E9
:10BA4000216800EB8200416005EB8502044800217B
:10BA500000EB8200C17468B2A7E71046A5E70000BA
:10BA600010B2022470B5074D00EB8004002655F893
:10BA7000240018B101F070FF45F8246005EB840044
:10BA8000867470BD10B202242DE9FC410E461546A5
:10BA90000E210446304601F091FF18B16FF001000D
:10BAA000BDE8FC812868214600F038FD08B1334B21
:10BAB0003CE02868C0F303110E2922D0A168636816
:10BAC00000EA01020B409A420BD080B2A0F57E4101
:10BAD000A93906D014F10C0F2FD0E06868B304F137
:10BAE0000C05274B274A187800EB800102EB8101F7
:10BAF0008F7C022F24D32F6849688F4220D10246C1
:10BB00002CE001208DF8000000208DF801005E205F
:10BB10008DF8020068786B4600F07F008DF8030016
:10BB2000A8788DF80400E8788DF8050004F1230268
:10BB30003146204600F024F9B2E76FF00300AFE78A
:10BB4000002000EB800102EB81018F7C022F0AD3E1
:10BB50002F6849688F4206D1C2B21A70314620461A
:10BB600000F012F89CE7401C40B20A28E9DB32469C
:10BB70002946204600F02AF892E700003C1501080B
:10BB80005C02002410B2022470B50E4605460E4831
:10BB900002EB820100EB8104A07C022809D1E07C49
:10BBA000E42806D3211D284600F0D8F808B9032060
:10BBB000A07404F10C03314605F123022846BDE8C8
:10BBC000704000F0DDB8000010B202242DE9F74FFC
:10BBD00082B04FF0FF3B154688465F4602982330FF
:10BBE00000900868029900F099FCD8B9D8F80000D4
:10BBF000C0F303110E2915D0B8F1000F12D088B18F
:10BC000001214046FFF7B6FE04000DD4DFF8A4A0E2
:10BC100004EB84090AEB8906B07C40B1012808D006
:10BC20003DB10DE06FF00D0005B0BDE8F08F0120D3
:10BC3000B0740298414600F091F8002D0746F3D009
:10BC4000B07CD04602280AD31B4806F10C032946D3
:10BC50000470009A029800F093F8074628E0012843
:10BC600026D100222846017B012903D10068002843
:10BC7000F9D172B101890022032001F01BFD0400FB
:10BC800015D0294601F0E7FD40B1204601F064FEE1
:10BC90000DE02C46284601F0E8FE44B158F8290092
:10BCA00008B101F059FE002748F8294000E05F463E
:10BCB0003846B9E710B202245C0200242DE9F05F97
:10BCC0001F46904600228946DDF82CB02A21824684
:10BCD000032001F0EFFC06003DD075680D9805F1DA
:10BCE0000E0401F041FAE0803868A060B888A081B5
:10BCF000DBF80010C4F81210BBF80400E082D8F89A
:10BD000000102960B8F80400A880D9F80010C5F820
:10BD100006103146B9F8040068810A980068C4F832
:10BD20000E000C980068A0614FF4807020800820FD
:10BD3000608006202071042060714FF4C160A881EA
:10BD40005046DAF8182090470446304601F004FEC9
:10BD50002046BDE8F09F4FF0FF30FAE71FB5074CD3
:10BD60000123021DCDE90213CDE9002400F12303D4
:10BD7000A21F1946FFF7A2FF04B010BD421501082B
:10BD800030B44C681D6825609B88A3801368C4F894
:10BD90000630928862810822A281826930BC1047F5
:10BDA00070B5104D002404EB840005EB8000827C0C
:10BDB00092B1C17C491CC9B2C174F02906D2012AD2
:10BDC00002D0032A06D007E0022905D32046FFF758
:10BDD00049FE01E002218174641CE4B20A2CE2D322
:10BDE00070BD000010B202242DE9F0410E001F4684
:10BDF0001546044630D0306870B3214600F08EFB03
:10BE000050BB3078C0F303100E2825D03946304699
:10BE1000FFF7B0FD00281DDB114A00EB8001022373
:10BE200002EB8100837484602B68C360AB8803825B
:10BE30000023C37452F821605EB142F8213004F14E
:10BE400023022B4631462046FFF79AFF304601F089
:10BE500083FD0020BDE8F0816FF00D00FAE70000DF
:10BE600010B2022470B5044640890D460E283AD916
:10BE7000606801788689CA0714D0012905D01C4959
:10BE80000622F4F7F1FD48B10CE0417851B9807811
:10BE90005E2807D1607B40F0100002E0607B40F03C
:10BEA00008006073082E03D0B6F5C16F1BD10EE0F9
:10BEB00095F82900800616D56FF00D01204601F097
:10BEC0007DFD80B92946204600F0F6FB09E095F893
:10BED0002900800607D505F1230122462846FFF7F1
:10BEE000E9FC002070BD204601F036FDF9E70000B6
:10BEF0003C15010810B5652180F82A106E2180F8E4
:10BF00002B10044941610449816100F005FF0020C4
:10BF100010BD000089BA000889CE000870B505463A
:10BF200000F080FF04000CD02A69294690470500E4
:10BF300002D0204601F010FD0348F8F795F8284696
:10BF400070BD4FF0FF3070BD1408002482B0CDE901
:10BF5000000121F0004001909DED000B02B051EC7A
:10BF6000100B70470349CA695206FCD5C2B20A8554
:10BF7000704700000010014082B04FF0000CCDE986
:10BF80000001009BC2F800C0DFF864C021F000404F
:10BF9000604529DA034327D0B0F5801FA8BF136896
:10BFA0000EDA9DED000B9FED141B6FF0350320EEB4
:10BFB000010B10EE901A8DED000B136021F0004084
:10BFC000DFF83CC06FF31E510CEB2050184410609A
:10BFD00041F0FF5040F0005001909DED000B00BF7C
:10BFE00051EC100B02B070479DED000BF8E700001C
:10BFF0000000F07F0000000000000000000050433F
:10C0000002FCFFFF70B504462DED0A8BF7F722FC0A
:10C01000DFED390A394A9FED3ABA20EE200A10EED8
:10C02000101A91425CD8B2EE042B9FED361A3D4DAA
:10C03000012C3D4EC0EE010A9FED330A9FED331BEC
:10C040009FED369BB7EE008B30EE800AB7EEC00A4C
:10C0500000EE421B81EE002B9FED2E0B22EE00AB7B
:10C060000BD0022C0FD0032C3FD0042C3AD1B0EED1
:10C070004A0BFDF771FA2D4C0AE0B0EE4A0BFDF7C2
:10C080006BFA2B4C04E0B0EE4A0BFDF765FA294C35
:10C0900094ED0C1AB7EEC1CA94ED0D1AB7EEC11AA1
:10C0A00001EE00CBB0EE4A0BFDF756FAB0EE081BDE
:10C0B000FDF772FB94ED0E1AB7EEC11A01EE00CB3C
:10C0C00088EE0C0B30EE490BB7EEC00B10EE100AE9
:10C0D00084ED0F0AA84203DC10EE100AB04201D32F
:10C0E000B0EE4B0ABDEC0A8B70BDB0EE4A0BFDF70B
:10C0F00033FA114CCCE70000FD878C3F0000C6C22C
:10C100000000C6C22FDDE8406DE71B3F00000000C5
:10C11000295C28400000000000408F40666666668B
:10C120006612714000001643000020C290040024F3
:10C130001003002490030024100400240A46032165
:10C1400000F07EB82DE9FE4F456804468A462878FF
:10C1500000074FEA90682046C8F100010F4601F041
:10C160002DFC002862D1208904285FD36068007804
:10C1700000285BD0082859D12F4901260868C0F350
:10C1800003120E2A00D100268946514600F0C6F956
:10C19000E8BBE6B32089082848D3204600F08CF895
:10C1A000A8BB2221204601F009FCD0B1414620461F
:10C1B00001F004FC58BB21890022022001F07AFA28
:10C1C000060033D0214601F046FB00BB75683946B6
:10C1D000304601F0F3FBD0B9204601F0BDFB3446F8
:10C1E00005E06FF02101204601F0E8FB78B96068B6
:10C1F0000026D9F80010E960104909682961414614
:10C2000006704680FF20287220466E8100E00DE017
:10C2100001F0D4FB50B901212046FF23CDF808A03E
:10C220000022CDE90061044900F008FB2046BDE88A
:10C23000FE4F01F091BB0000740200247002002444
:10C240002DE9FE4391460E46002207462421012097
:10C2500001F030FA050023D06C681C22D7F8048066
:10C260002670002684F80190A680E68068687968C8
:10C270000830F4F744FC66802046698900F016F81F
:10C280006080FF23D8F80C0000210290012002AA50
:10C29000CDE90060284600F0B7FA284601F05CFBC3
:10C2A000BDE8FE830A460B21FFF7CABF10B500F0B8
:10C2B00077FFC04380B210BD70B500240546264606
:10C2C00013E06989686800F06BFF2044010C11FAE3
:10C2D00080F4A87AC00707D0C6F10100C6B2E0B268
:10C2E000C4F3072141EA00242D68002DE9D126B1CD
:10C2F000E0B2C4F3072141EA0024E04380B270BDFC
:10C300002DE9FF47FF2240210320F7F7E4F8744DA1
:10C31000AB2805F5807405F1800804F180061ED075
:10C3200070A0F4F739F99FED740A85ED0C0A85EDDC
:10C330000D0A85ED0E0A88ED0C0A88ED0D0A88EDD0
:10C340000E0A84ED0C0A84ED0D0A84ED0E0A86EDCA
:10C350000C0A86ED0D0A86ED0E0ABDE8FF874FF048
:10C360000309012748464421FF22F7F79FF8286375
:10C370000120FFF72BFA4821FF220320F7F796F858
:10C3800068630120FFF722FA4C21FF220320F7F710
:10C390008DF800EE100AA86358A03946B7EEC00A1F
:10C3A0008DED020B95ED0D0AB7EEC00A8DED000B79
:10C3B00095ED0C0AB7EEC00A53EC102BF4F7ECF82D
:10C3C00002275021FF220320F7F770F84546C8F8EE
:10C3D00030000120FFF7FAF95421FF220320F7F77C
:10C3E00065F868630120FFF7F1F95821FF22032067
:10C3F000F7F75CF800EE100AA86340A03946B7EEE4
:10C40000C00A8DED020B95ED0D0AB7EEC00A8DED59
:10C41000000B95ED0C0AB7EEC00A53EC102BF4F7A5
:10C42000BBF85C21FF220320F7F740F820630120CE
:10C43000FFF7CCF96021FF220320F7F737F860639C
:10C440000120FFF7C3F96421FF220320F7F72EF83C
:10C4500000EE100AA06329A04946B7EEC00A8DED90
:10C46000020B94ED0D0AB7EEC00A8DED000B94EDB2
:10C470000C0AB7EEC00A53EC102BF4F78DF8042425
:10C480006821FF220320F7F711F830630120FFF73E
:10C490009DF96C21FF220320F7F708F87063012053
:10C4A000FFF794F97021FF220320F6F7FFFF00EE5B
:10C4B000100AB06311A02146B7EEC00A8DED020B41
:10C4C00096ED0D0AB7EEC00A8DED000B96ED0C0A45
:10C4D000B7EEC00A53EC102BF4F75EF83DE700000E
:10C4E000100300244E5443205061726D2045727237
:10C4F0006F722E0D0A0000000000000063683D25E9
:10C50000642C413D252E35652C423D252E35652C6C
:10C51000433D252E35650D0A00000000421C12D057
:10C5200088B191F8292092070BD54A68824208D039
:10C5300089680A4000EA0103934202D10143491C81
:10C5400001D0002070470120704700002DE9F74F0F
:10C550008AB00446142500260B98078C6068069064
:10C56000C08800F014FEC0F30C01039100F40050E9
:10C57000089020891438143F07971FFA80F9F8179C
:10C5800007EB5070C0F3CF00049081E00799894514
:10C5900001DC012000E000200399089AC1F30C019E
:10C5A00011430591C8B148461FFA80FB00221421AF
:10C5B000022001F07FF80290A8B140681422069989
:10C5C000F4F79DFA0298D0F804A0606828446060EF
:10C5D0006089401B5D46608131E041F40050059068
:10C5E0000498C000E0E74FF0FF300DB0BDE8F08FD9
:10C5F0006689AE4200D92E4606B3062000F024FF1D
:10C6000007004BD060680222CDE9000603203B46BC
:10C61000314601F0D9F85FEA000843D0204601F026
:10C6200024FA22484146C7E90404029801F0F6F8CA
:10C63000A81B05042D0C04D02468D9E72468002D1C
:10C64000D6D10598354600F08FFDAAF806000BF10B
:10C65000140080B200F088FDAAF8020000215046C4
:10C66000AAF80A101421FFF721FEAAF80A000B9875
:10C670000C9A029943699847029801F06DF9A9EB69
:10C680000B001FFA80F9DDE90301084480B2039032
:10C69000B9F1000F7FF47AAF0020A6E7029801F00D
:10C6A0005BF9A0E7384600F003F8F7E701CD000892
:10C6B0000146062000F090BE2DE9F05F4568064671
:10C6C000884604212878B1EB101F0FD100F00F002D
:10C6D0004FF6FF7101EA8004688800F058FD0146BA
:10C6E0007089A04202D33089884203D2304601F0DB
:10C6F00033F94EE0304601F091F9414801272969AC
:10C700004446A0F1040ADFF8FCB081460160EA6803
:10C71000CAF8002094F82900C0070BD0201D09D0CA
:10C72000616839B1D9F8000088420ED02146FFF780
:10C73000F5FE50B91FB1DBF80040002700E0246887
:10C74000444500D12468002CE4D1DAF800005746B3
:10C750004146FFF7E3FE0028C8D13878BA46C0F357
:10C7600003100E28C2D0002CC0D0E88830F0C000E2
:10C7700005D0304600F0B6F806000AD0756841468C
:10C780001F4C3046103CC4E9018501F053FA18B142
:10C790002DE00020BDE8F09F687A012815D006281A
:10C7A0000ED0112807D0D9F800004F464146FFF7B8
:10C7B000B5FE78B118E04146304603F07FFD16E043
:10C7C0004146304601F054FE11E041463046FFF745
:10C7D000B9FC0CE03878C0F303100E2804D0022115
:10C7E00030467560FFF7AAFC304601F0B5F800202E
:10C7F0006060A060CAF80000C9F80000C9E7000046
:10C8000074020024900200242DE9FE431F461646C0
:10C8100088468146DDE90A54104600F051FA50B1CD
:10C8200000953B46CDE9014032464146484600F07E
:10C8300005F8BDE8FE836FF00300FAE72DE9F84F35
:10C840001700984689460546DDE90BA6DDF828B0B5
:10C8500031D0142101F0B2F818B16FF00100BDE839
:10C86000F88F6C6884F8088084F809A03868206123
:10C870004520207084F801B0288900F075FCDFF8AD
:10C8800060804FF0000A6080A4F806A0B8F80000AD
:10C8900000F06AFCA080B8F80000401CA8F8000076
:10C8A000B9F1000F02D0D9F8000000B97068E0605B
:10C8B000A4F80AA003E068686F4600690090308C15
:10C8C00040B12989814205D93A4631462846FFF7C9
:10C8D0003DFEC4E773693A46294630469847BEE7AD
:10C8E000640200242DE9F14F002700984468207865
:10C8F00000F00F0005287CD1E08800F048FCC0045F
:10C900004FEA104A608800F042FC217801F00F01E4
:10C91000494200EB81001FFA80F9009800F092FF75
:10C92000584D0646288830440A2809D93146204601
:10C9300000F068F900285CD0288830440A2858D8CC
:10C94000A8466D684FF0000B0DE06869E168884209
:10C9500007D1A8692169884203D1A889A1888842A2
:10C9600004D02F462D68002DEFD106E02DB1E088D0
:10C9700000F00DFCC00424D02EE0052000F064FD82
:10C9800005000AD13146204600F03CF9B04216DBE2
:10C99000052000F059FD050011D02021F4F748F9D9
:10C9A0000320E877D8F804101422296005F1080064
:10C9B0002146C8F80450F4F7A2F8D5B10CE05D4662
:10C9C000FBE7E88900F0E3FBC00405D01422214610
:10C9D00005F10800F4F793F8B8F800103144A8F80E
:10C9E0000010A079800608D4A87F40F00100A87745
:10C9F00000E041E00AEB0900A8830099284600F016
:10CA000043F8002836D0A88B142205F10801143011
:10CA1000A8836868466830463468F4F770F8A88BD5
:10CA200000F0A2FB70801421A6F806B03046A6F8EC
:10CA30000AB0FFF73BFC70816FF0130AD5F8049041
:10CA400009E066685146204600F0B8FF2146484696
:10CA500000F0E4FE3468002CF3D13946284600F09B
:10CA600087F8484600F0EEFEB8F80020101AA8F843
:10CA700000004846BDE8F88F009800F06DFF0020E8
:10CA8000F8E70000780200242DE9F047D1F804808F
:10CA9000002401250E460746B8F8020000F077FB97
:10CAA000014698F8000000F00F00404201EB8009B9
:10CAB000B8F8060000F06BFB7268C004030C00209D
:10CAC000106003EB090093801FFA80F8A2F806803B
:10CAD00079681DE04868B0F804C063450DD2116064
:10CAE00044B1B4F806C0634532D3808880452FD85E
:10CAF000266000E07E6069B115E029D0C1888B42D4
:10CB000026D31CB1E188614500D0002501680446A8
:10CB10000029DFD134B12660E0889188884202D0B4
:10CB2000002500E07E60B87FC0070DD05DB1786859
:10CB30004068808830B9116829B14868D1888288F6
:10CB4000914203D000252846BDE8F0870246F2E76F
:10CB5000304600F077FE014604480288511A0180F1
:10CB6000304600F0F9FE0020EEE7000078020024D5
:10CB7000074A0B4630B401685468844201D15160C1
:10CB800000E01960014630BC052000F025BC000023
:10CB9000780200242DE9F0414468064688460025C5
:10CBA0006068818891B900681422706006F10801FC
:10CBB0006068F3F7A4FF01212046FFF773FB2046CE
:10CBC00000F040FE0546204600F0C6FE74680AE00C
:10CBD000606827460468384600F034FE284485B271
:10CBE000384600F0B9FE002CF2D141463046FFF73E
:10CBF000BFFF03480188491B01802846BDE8F0813A
:10CC0000780200242DE9F041DFF8688000260F4605
:10CC10000546002213461446D8F804001AE041697C
:10CC2000D5F80CC0614509D18169D5F810C06145BE
:10CC300004D18189B5F804C0614507D0641C22B1D4
:10CC4000C17F92F81FC0614500D80246016801B15A
:10CC5000034608460028E2D122B119461046FFF7E4
:10CC600099FF0644BE4201DA012CD2DC3046BDE811
:10CC7000F08100007802002410B500F00BF8BDE848
:10CC80001040034900224FF47A7001F0A3B800006D
:10CC900079CC0008094870B5002544680BE0E07FB6
:10CCA00020B1401EE0772546246804E02046246831
:10CCB0002946FFF76FFF002CF1D170BD78020024E8
:10CCC00010B504460C480AE090F82910C90706D0B0
:10CCD0008168226843680A400B409A420AD0006883
:10CCE0000028F1D10548006818B190F82910C9074B
:10CCF00000D1002010BD0000900200249402002406
:10CD000010B50446406908B100F026FE2046BDE893
:10CD10001040FFF7CDBC00002DE9F0470546DFF8D5
:10CD2000F4800024DFF8F0900620DFF8F0A09AB03D
:10CD300085F82200364827462646017885F82310D4
:10CD4000417885F82410817885F82510C17885F818
:10CD50002610017985F82710407985F8280040F2DF
:10CD6000DC50288495F8290040F0320085F829002D
:10CD7000C4EB841000EBC4112948002308EBC10266
:10CD80002146F7F7ACF904EB8402641C0AEB82013C
:10CD9000042CC1F81090EBD3204834213438F3F739
:10CDA00047FF1E482121343801604FF44031416172
:10CDB00000210161FAF70AFF4FF4005251000228E6
:10CDC00006D0032806D0042807D0052809D106E09C
:10CDD000164600E000260F4603E0164600E0002657
:10CDE00000270F486946F7F798F90D486946CDE9DD
:10CDF0000576F7F7F0FC0A48F7F736FD284600F00D
:10CE000049FC284600F032FC1AB0BDE8F08700006B
:10CE100000B1022400020430A9D900080CB3022496
:10CE20001408002430B587B0144800250595F7F79D
:10CE3000CBFB00281ED0FBF791FB104802A9F7F7A7
:10CE400052FA0E4805A9F7F7A0FA05980C4C81B2E2
:10CE500002980C4ACDE90001206800EB800002EB4B
:10CE600080030322104600F0AFFC2168032903D29F
:10CE7000491C216007B030BD2560FBE71408002481
:10CE8000600200240CB30224F0B500228DB01046DD
:10CE900014466D46164618E0042A03D36FF00E00C0
:10CEA0000DB0F0BD02EB42034F6845F8237005EB6F
:10CEB00083034F895F604F8938440AB143F8043CCB
:10CEC0000F6807B99E60521C09680029E4D1064921
:10CED000C1E90105FBF742FB034900220348F7F7CC
:10CEE0001EFD2046DCE70000D8B20224140800240E
:10CEF0002DE9F047044633484FF000090568FF224A
:10CF000030210320F6F7E7FAFF22064631210320FD
:10CF1000F6F7E1FAFF22804632210320F6F7DBFA2A
:10CF2000FF22074633210320F6F7D5FAFF214FF001
:10CF3000010C02224323C02E22D0C026A671A827AE
:10CF4000E77122721E2063722B0CA672E7722273A5
:10CF50006073227084F8019084F80290E3702B0AC9
:10CF600023716571A173E173217484F81190A67423
:10CF7000E774227584F815C084F81690BDE8F08730
:10CF8000A67184F80780277263722B0C22704A46C0
:10CF900084F8019084F80290E3702B0A2371657184
:10CFA000A67284F80B8027736073A173E1732174F8
:10CFB00084F81190A67484F81380277584F815C03E
:10CFC000A275DBE700E8F11F10B53148002486B0F8
:10CFD000FFF78EFF06E0641CE4B2052C02D90320A3
:10CFE00006B010BDFAF72CFE0028F4D100F0BEF810
:10CFF000274CD4F80B10A07A40EA01200390D4F813
:10D000000F10A07B40EA01200490D4F81310A07CFC
:10D0100040EA0120059062792179E0788DE80700E7
:10D02000A3781CA062782178F3F7B6FA607B0090B1
:10D0300026A0237BE27AA17AF3F7AEFA607C009017
:10D040002EA0237CE27BA17BF3F7A6FA607D009003
:10D0500036A0237DE27CA17CF3F79EFA3F4A0020B4
:10D060003F4905AB8DE8070004AA03A904F11800A5
:10D0700000F088FA48B104F1180000F0B9FA04F1A0
:10D08000180000F007FB0020AAE70420A8E7000032
:10D0900000B10224CDF8BFA8656EB5C44D4143B5BB
:10D0A000D8D6B7CEAA3A2E2E2E2E2E2E2E2E2E2E9D
:10D0B0002E2E2E2E2E2E25642E25642E25642E2512
:10D0C000642E25642E25640D0A000000BEB2CCAC8F
:10D0D0004950B5D8D6B72E2E2E2E2E2E2E2E2E2ED1
:10D0E0002E2E2E2E2E2E2E2E2E2E2E2E2E2E256433
:10D0F0002E25642E25642E25640D0A00D7D3CDF885
:10D10000D1DAC2EB2E2E2E2E2E2E2E2E2E2E2E2E9F
:10D110002E2E2E2E2E2E2E2E2E2E2E2E2E2E256402
:10D120002E25642E25642E25640D0A00C4ACC8CFBC
:10D13000CDF8B9D82E2E2E2E2E2E2E2E2E2E2E2E71
:10D140002E2E2E2E2E2E2E2E2E2E2E2E2E2E2564D2
:10D150002E25642E25642E25640D0A0065BE000868
:10D16000F5BE000800BA704740BA704710B500F02D
:10D170005DF800F03DF900F029FA03F09DF801F0A8
:10D1800075F9BDE8104000F053BE00BA704740BAD0
:10D19000704700000148FEF7C1BE000018B102242C
:10D1A00018B5002210F00103ADF800200BD00029C3
:10D1B00009DD10F8014B491E8DF8014003E030F8FD
:10D1C000024B891E22440129F9DC002902DD007886
:10D1D0008DF80000BDF800001044010C11FA80F039
:10D1E000010C11FA80F023B1C1B2C0F3072040EA6C
:10D1F000012080B218BDFDF73DF800F031FEFCE7DC
:10D20000002810D008490A6890420CD34A6890421E
:10D2100009D2002200F8042C8A680838904200D213
:10D22000886000F04FBC7047800200240A484FF429
:10D2300080430A4A20F0030110B50024116001F573
:10D2400080400B804C800C7101245060047103807D
:10D250004380916010BD00005FB30224800200246F
:10D26000F0B5002847D0C01C4FF6FC7100EA01035E
:10D270000C2B4FF4804C01D20C2301E063453ED8C7
:10D28000DFF880E0C3F58044DEF80850DEF80020C7
:10D29000A81A81B231E0501806796EBB0688761A5A
:10D2A000083E9E4228D30488012703F11406641A1D
:10D2B000083CB44210D30B4408339CB21319002627
:10D2C0001E7106881E805980048007711988614587
:10D2D00003D0931CCC5200E00771A84202D009E0B1
:10D2E00029888D18297919B1DEF804108D42F7D1FB
:10D2F000CEF808500830F0BD515A8C42CBDC0020EB
:10D30000F0BD0000800200242DE9F047C91C4FF653
:10D31000FC7211400C294FF4804501D20C2101E030
:10D32000A94213D8DFF8ACC0DCF80040A0420FD30C
:10D33000DCF8042090420BD2A0F10802131B9BB230
:10D340001688F71A083FBFB2B94203D94FF0000060
:10D35000BDE8F087FCD0E1464FF0000A06EB040C74
:10D360001C4E9CF804803668B8F1000F06F10206E6
:10D3700018D001F1140CBC45EAD8194408318FB219
:10D38000E119D9F80840A14201D2C9F8081081F882
:10D3900004A014880C804B8017800988A942D7D03C
:10D3A0008F53D5E71944D9F808800831BCF80070CC
:10D3B00089B2E04503D104EB0108C9F808800C44A8
:10D3C00084F804A02780638011802288AA42BFD0FD
:10D3D0009153BDE780020024002905D0034A52F88A
:10D3E00020300B6042F820107047000070F30224D8
:10D3F000F0B50020401C80B20A28FBD31048104C26
:10D4000020F003010F4E00202B3C074606F11405C7
:10D41000002244F8207009E054F82030521C0B60C0
:10D4200092B244F8201036F81030194435F8103014
:10D430009342F1D8401C80B20A28E9D3F0BD000025
:10D440009BF302244C1501080A28014601D3002051
:10D450007047044A52F821000028F9D0036842F8C6
:10D460002130704770F3022430B504460748084D58
:10D47000002150F82400820005EB8400406900F090
:10D480007BF80120291981F8200030BD181501080A
:10D49000F40000242DE9F0411E4E002405460F46FD
:10D4A000701990F8200010B93168284688474FF06D
:10D4B000FF326FB3184B53F82510B7FBF1FCB7FBE5
:10D4C000F1F001FB1C7101B1401C13490C3951F8FA
:10D4D0002510491E1CD406EB8506776957F821C034
:10D4E000BCF1000F04D0002484420FD1002206E0DA
:10D4F000641CF9E774698F18521C44F827008242B3
:10D50000F8D353F825004843BDE8F081491EE5D51E
:10D510001046F9E7F4000024241501080C4B002202
:10D5200010B50C4C114653F8203004EB800005E098
:10D53000446954F8214004B1521C491C8B42F7D86D
:10D540004FF47A704243B2FBF3F080B210BD00009A
:10D5500018150108F400002410B50446FFF79AFFDF
:10D56000411C05D0034901EB84018968084410BDC2
:10D57000002010BDF400002401E000F8011B521E41
:10D58000FBD270472DE9F041044606A890E8E00080
:10D5900000206060A060E06084F82900E5610A4D29
:10D5A000287884F82C00401C28702046276100F061
:10D5B0000EF82046B04710B10020BDE8F081686841
:10D5C000206020466C60F8E78C020024704770B53C
:10D5D0001D461646044600F015F83146204600F078
:10D5E00055F829462046BDE8704000F007B8000015
:10D5F00001498860704700008C02002401B109686D
:10D60000C160704770B50C00054628D02068696875
:10D6100088421ED01348006809E001686A68914298
:10D6200004D1C66800F0D6FC304600E0C06800288F
:10D63000F3D10D48006809E007D0016829B16A6894
:10D64000914202D144B121680160C0680028F3D141
:10D650002CB12068686070BD4FF00001F4E74FF016
:10D660000000F7E7B4020024B002002490F829106B
:10D67000CA060AD441F0100180F82910CA0704D064
:10D68000890602D5011DFEF769BB704701B1096823
:10D690008160704790F82910CA070AD141F0010152
:10D6A00080F82910CA0604D5890602D5011DFEF7A7
:10D6B00055BB70472DE9F04717460D4630B101289C
:10D6C00006D0022806D0032850D105E0362604E013
:10D6D000222602E00E2600E000264FF001094FF05E
:10D6E0000008EFB3012F5DD0022F5BD0032F3DD197
:10D6F0000920FFF7A9FE041E39D0A01927731330A3
:10D70000414620F00300F61CC4E9008026F0030027
:10D710002581C0F5BF60A84200DD284660812D1A32
:10D7200026464FF4BF6A8846A4F80E9016E00920FA
:10D73000FFF78AFEB8B10773A9B280F80D80514592
:10D74000C0F800803060018100D35146418100F172
:10D75000100242606D1A0646A0F80E90002D00E0FF
:10D7600007E0E4DC2AE0204600F0F6F80020BDE8FF
:10D77000F08706F1130020F00301E81C20F00300FD
:10D78000084480B2FFF76CFD041EF0D0A0191330DE
:10D7900020F00300606025816581C4F8008084F872
:10D7A0000C800BE00820FFF74FFE041EDFD0C4F80A
:10D7B000048025816581C4F8008027732046A4F881
:10D7C0000E9084F80D80D2E770B5DDE9044530B1E4
:10D7D000012806D0022806D003280DD105E0362006
:10D7E00004E0222002E00E2000E00020C01C20F017
:10D7F00003004618AE4201D9002070BD00251D600F
:10D8000014B12044586000E05D600220587301208C
:10D81000198159811A73D881184670BD002810B536
:10D820000FD000290DD004E003890C892344038123
:10D8300010460268002AF7D102890B891A44028136
:10D84000016010BD002102E00068491CC9B2002837
:10D85000FAD1084670472DE9F0474FF000070C4613
:10D8600005003E466FF00D0932D07CB3288921892E
:10D8700088422DD36FF0050A68896189C01B891B16
:10D88000884201DB88B200E080B280466068424690
:10D89000811968683844F3F732F907EB080087B25A
:10D8A00006EB080086B26089B04201D824680026E1
:10D8B0006889B84202D12D68002745B15CB1608902
:10D8C0002189884207D1206860B904E000E06CB18A
:10D8D0004846BDE8F0873DB168892989884203D16F
:10D8E000286808B15046F4E7002CC5D10020F0E7C5
:10D8F0002DE9F0470028164689464FF0000806D06B
:10D90000B9F1000F02D00027044620E00020BDE856
:10D91000F0872BB16089984202D8181A83B215E0BB
:10D920006089C01A85B2B54200D9354660682A467A
:10D93000C11809EB0700F3F7E2F808EB05001FFA3E
:10D9400080F8781987B2701B86B2002324680EB164
:10D95000002CDED14046DAE770B500281BD0002449
:10D96000C189491E0904090CC18113D1427B017B85
:10D970000568920702D50169884707E003290BD0A3
:10D9800001290CD002290AD0FFF73AFC641C2800B8
:10D99000E4B2E5D1204670BD0146092001E0014610
:10D9A0000820FFF719FDF1E7002806D00021417398
:10D9B000016001814181C1814160704710B541B171
:10D9C00038B1002907DA4A4293B242899A4223D3F6
:10D9D00002E0002010BD8BB2027B446832B1032A02
:10D9E00004D0022A0AD0012A08D015E0621A426047
:10D9F00000F110039A4208D244600DE000290BDACE
:10DA000042899A4208D3621A426042890A4442819A
:10DA1000028911440181DCE7012010BD70B5028943
:10DA20008A4221D98A1A0D46044605E0281A85B291
:10DA300020891044208124686089A842F6D3207B85
:10DA400050B96089A84207D0A088001B284481B241
:10DA50002046FFF759FC044665812581206808B1FE
:10DA6000FFF77AFF0020206070BD002802D0C18936
:10DA7000491CC18170472DE9F041002788460028E4
:10DA8000154607D0B8F1000F1AD00189A94203D278
:10DA90006FF00D00BDE8F08106460FE070892C465E
:10DAA000A04200D20446706808EB07012246F3F753
:10DAB00026F8281B366885B2381987B2002DEDD1BB
:10DAC0000020E7E730B5134C01882268931C11440D
:10DAD00088420DD00D795DB96568A94208D0A56866
:10DAE0008D4200D1A0600D880580851A0988CD522D
:10DAF0004188114481420BD00D79002D08D1A568D1
:10DB0000854200D1A16004880C80891A0088C15226
:10DB100030BD00008002002470B50C460546FDF7BC
:10DB20005FFD112868D2DFE800F067090F151B219F
:10DB3000272D33393F55454B4F5B61002146284621
:10DB4000BDE87040FCF728BE21462846BDE870407D
:10DB5000FDF732BD21462846BDE87040FCF760BFA6
:10DB600021462846BDE87040FDF706B92146284603
:10DB7000BDE87040FCF71CBC21462846BDE870405B
:10DB8000FCF7CABC21462846BDE87040FDF79ABCA8
:10DB900021462846BDE87040FDF722BB21462846B5
:10DBA000BDE87040FDF7C6BB21462846BDE8704081
:10DBB000FDF7F2B921462846BDE87040FCF748BEA3
:10DBC00021462846FCF7ECFF21462846BDE8704078
:10DBD000FDF79AB821462846BDE87040FCF700BD25
:10DBE00021462846BDE87040FDF7BABA21462846CE
:10DBF000BDE87040FCF796BF012C06D0022C09D17D
:10DC0000BDE8704004A0F2F7C7BCBDE8704002A0B8
:10DC1000FAF7D0BD70BD0000496E76616C69642072
:10DC20005573657220436F6D6D616E642121210D06
:10DC30000A0000002DE9F047DFF8609007464068D1
:10DC400000263546D9F8004090F8098021E0217C73
:10DC500041451BD12CB1206818B11149096888428F
:10DC600014D1D4F814C0BCF1000F0FD00D4B3A46BC
:10DC7000A0692146E04748B10027012635B1E06898
:10DC8000E860D9F80010E160C9F800402546E46872
:10DC90000EB9002CDBD13046BDE8F0879802002495
:10DCA00074020024700200240068704713B5114903
:10DCB0009DED010A9DF80000B5EEC00AF1EE10FAE4
:10DCC0000BD1012807D1002081F83500009810EE13
:10DCD000101AFDF7A3FD002204E0012801D181F80C
:10DCE0003500012202B004210120BDE81040F5F703
:10DCF00017BD0000043C032403B59DF80000012873
:10DD000004D103489DED010A80ED030A0CBD00001B
:10DD1000043C0324104A91ED000A82ED000A121D12
:10DD200091ED010A82ED000A121D91ED020A82EDC9
:10DD3000000A121D91ED030A82ED000A121D91EDF9
:10DD4000040A82ED000A91ED050A111D81ED000A19
:10DD50000121FAF785B90000F402002400B541EC76
:10DD6000100B2DED028B83B0B1EEC08B18EE100AB4
:10DD700018EE901A8DED008B002818BF0120084383
:10DD800020F00040C0F17F6000F1E040C00F14D0EF
:10DD900010EE101A10EE900A8DED000B002918BF3E
:10DDA0000121084320F00040C0F17F6000F1E04015
:10DDB000C00F04BF0120F2F7CEFF51EC180B03B0E7
:10DDC000BDEC028B00BD00000148006870470000F8
:10DDD0004802002470B515460E4604460720FFF79A
:10DDE00033FB00280DD0114B0021C56080E85200A4
:10DDF000196829B14A68A24210D9121B4A60016011
:10DE0000186070BD54689C4207D9536844681B1B56
:10DE100053600A680260086070BD114642684B6832
:10DE2000D31A43600A68002AF3D0EBE7DC0200242F
:10DE3000084900224FF47A7010B5FFF7CBFF06496E
:10DE4000002241F28830FFF7C5FFFFF7BDFF03490D
:10DE5000486010BD79CC000859A20008DC020024FB
:10DE600070B5084D0024264615F8340028B105EB9E
:10DE7000C4004068804705F83460641CE4B2032C99
:10DE8000F2D370BDA800002410B5114C20784006D4
:10DE900007D510480121FFF73FFE207820F0400011
:10DEA000207020784FF0000481060B48017803D5DC
:10DEB00021B90121017001E001B104700220FDF7D8
:10DEC00085FC06480168642900D3046010BD000089
:10DED0004C02002448B10224080000244802002417
:10DEE000012010B5FEF78EF80A4910EE100A0A4A12
:10DEF00081ED040A904204DC10EE100A074A9042B9
:10DF000002D9002081F83500BDE810400149012008
:10DF1000FAF7A4BC043C03240000C842000070C10E
:10DF200010B5074C2078012809D106480221FFF7D7
:10DF3000F3FD0448C821F2F759FE0020207010BDFF
:10DF4000C4000024100500242DE9FC470446007E8F
:10DF50000F460A282FD01E482146D4F85090D4F8F6
:10DF600028802669D4F8885000F0EEFE1849012078
:10DF700018390870206F08B101F0DAFBE06E08B1C3
:10DF800001F0D6FB4FB1A18B231D608B2246CDE95A
:10DF900000014146484601F082FB02202146FFF77E
:10DFA0001BFA002D12D002B03046AC466FF00901CA
:10DFB000BDE8F047604706482146001D00F0C4FE5A
:10DFC0002146BDE8FC470220FFF706BABDE8FC8702
:10DFD000B40200240121FFF7B7BF416170476FF021
:10DFE000090070472DE9F04104460220FFF72CFAA2
:10DFF0003A4D060036D10023EE681A46E86906E07D
:10E00000416A711A994201D30B460246C068002842
:10E01000F6D112B11046FFF7DDFF0220FFF714FA28
:10E0200006001FD17F26D5F80CC00027A8693B4603
:10E030000DE0417EA14209D8B14207D8426AACEB5B
:10E040000202BA4202D3174603460E46C0680028B1
:10E05000EFD113B11846FFF7BDFF0220FFF7F4F927
:10E06000060037D09C21F2F7E3FD747641F2D060D0
:10E07000A6F866000023A6F86830B085F085FF207A
:10E080007372B0724FF40670F0860620A6F8440052
:10E09000A6F84030A6F84200C01FB0860120A6F8BE
:10E0A0004C00183600F06EFC3064B063306370646E
:10E0B000E868F060A87870720948F371706641F200
:10E0C000883070674FF47A70B0670320F06786F885
:10E0D0008230183E3046BDE8F08100009C020024EA
:10E0E0006BF50008016170472DE9F0410546007E9F
:10E0F00004260C4618B16FF00500BDE8F0811AB98E
:10E1000000F012FC020006D0DFF854C000215CF8D9
:10E110002100006811E06FF00100EEE7438B9342AD
:10E120000AD130B1036823B11CB127680FB1BB42DB
:10E1300002D16FF00700E0E7C0680028EED1491C6B
:10E14000B142E4DB14B1206800B1286005486A835D
:10E150000169E960056101F029FE0020CDE70000BA
:10E16000B81501089C020024017E012903D0817F9B
:10E1700041F0100181770121AFF300802DE9FC47C8
:10E18000474E0446007E01274FF0000991B3042852
:10E1900001D0072837D1616F21B9A18DA1F5B05207
:10E1A000D03A30D0A18B231D608B2246CDE90001EF
:10E1B000A16A206D01F073FA204600F0A8FDB06955
:10E1C000A04202D1C068B06107E0306228B1C068E7
:10E1D000A042FAD1316AE068C860C4F80C90377088
:10E1E000207E042807D002202146FFF7F5F8002002
:10E1F000BDE8FC8707E00A202076F069E060F46162
:10E2000001F0D4FDF3E708284FF0050840D2DFE81D
:10E2100000F0041C252D2D3F3F35608B002578B183
:10E220003069A04202D1C068306107E0306228B195
:10E23000C068A042FAD1316AE068C860C4F80C90A6
:10E2400002202146FFF7C8F827E01548002521469F
:10E25000143000F079FD03202146F3E71048002533
:10E260002146183000F070FD3770E9E7204601F0D4
:10E270008CFA050009D184F8188006E0204601F0E8
:10E2800084FA050001D10920207634B115B104E0EB
:10E29000002502E0204600F07DFB2846A8E70000AC
:10E2A0009C0200242DE9F0479A4691460F4680468D
:10E2B000089EF00700D00420B10701D50C2100E032
:10E2C000002145180420FFF7BFF8040011D0A67202
:10E2D0000026C4E9006738891421401B2081384694
:10E2E000FFF76CFB48B1204601F014FA0020BDE8AE
:10E2F000F0873846FFF730FBF8E760684068E06079
:10E30000B8F81A00FEF730FFE1680880B8F81C0082
:10E31000FEF72AFFE16848805046FEF723FFE168D8
:10E320004860A808000300F5A04040EA0900FEF795
:10E330001BFFE1688881E06846822046D7E710B578
:10E3400004460846FEF7BCFC38B1008C28B12838DA
:10E3500080B2844200D220460446204610BDF8B563
:10E3600000260446B0F86800771E0D46082804D33E
:10E37000A07F40F08000A07720E0A80700D501260C
:10E38000F00700D00420B10701D50C2100E00021E6
:10E390000144B4F8660088B100221046FFF78AF9FC
:10E3A0000028E5D000962A46E36D01462046FFF797
:10E3B00079FF0200DCD0E06E10B104E03846F8BD11
:10E3C000E26604E0084601680029FBD102600020F3
:10E3D000A4F86A00A80707D0E06D401CE065B4F817
:10E3E0006600401EA4F86600E80703D0A07F40F056
:10E3F0002000A0775068FFF725FAB4F868100844A9
:10E40000A4F868000020F8BDC0F88810704700002C
:10E410002DE9F041144EB078401CB070B46900276B
:10E420001EE094F82110B078814219D084F82100C0
:10E43000A07FC10709D040F00200A077204600F07D
:10E44000A9FAA07F20F00300A077E568606F30B1E3
:10E450002046377000F04CFE30780028DED12C4684
:10E46000002CDED1BDE8F0819C0200247047000042
:10E470002DE9FC47B94E054640680C46B06001786E
:10E4800001F00F0100EB81007060880041422846D6
:10E49000FFF794FA002873D12889142870D3B04F5D
:10E4A00021463868FEF73AF80028F4D13878C0F3EE
:10E4B00003100E2864D070688089FEF768FE000B98
:10E4C000800041422846FFF779FA0028E3D17068BE
:10E4D0000088FEF75CFE0146706801804088FEF708
:10E4E00056FE0146706841804068FEF74EFE0146C8
:10E4F00070684160F1608068FEF747FE716888606F
:10E500003061C889FEF743FE01467068C181808989
:10E51000FEF73DFE00F03F0C86F800C029895FEA57
:10E520008C7000D00120DFF83CA2084470808E4837
:10E5300000237168DAF800403A680068A1461AE0E2
:10E54000A78BB1F80080474513D1678BB1F80280E3
:10E5500047450ED1676887420BD12768974208D19B
:10E560002BB1E768DF60C4F80C90CAF8004024B112
:10E570003FE02346E468002CE2D17C4B1C6813E0AA
:10E58000E7E0A38B0F88BB420DD1638B4F88BB4262
:10E5900009D16368834206D12368934203D12046A0
:10E5A00001F01EFCD5E0E468002CEAD1DFF8C0A140
:10E5B0000027DAF8000081460BE0438BB1F80280B7
:10E5C000434504D10368934206D080B12BB107467E
:10E5D000C0680028F1D10AE048B12FB1C168F960E4
:10E5E000C0F80C90CAF8000000F0E4F8B1E0002C8C
:10E5F0007AD0DFF8808100275FEA0C70C8F80070DD
:10E600002A89A8F80820C8F80450C8F80C107761C7
:10E61000777003D5687B40F001006873606F40B18C
:10E62000204600F065FD0A3075D0606F08B1708833
:10E6300018BB2046B46100F0B9FB0A306BD070788B
:10E64000010706D5D4F888207AB120696FF00A0155
:10E650000AE0C00612D5A07FC00606D4D4F88820F0
:10E660001AB16FF00B01206990473E48214600F037
:10E670006BFB02202146FEF7AFFE4CE0B4F86420AD
:10E68000002032B1A36F13B12069214698470A30A8
:10E6900041D07069F0B1A17FC90605D5FFF75CF9DB
:10E6A0002046FFF797FC36E0E56F3DB1D4F810C087
:10E6B0000023024621466046A84705E000230246A3
:10E6C0002146184600F051FF10F10A0F23D008B17F
:10E6D000706960677078800619D5606F28B1417BDA
:10E6E00041F02001417312E021E0A08DA0F5B0516E
:10E6F000D03901D0401CA085E56F2DB100232069E1
:10E700001A462146A84700E000200A3003D02046E0
:10E71000B76100F03FF9B76144467761D8F804006B
:10E72000002802D0FFF718F96760BDE8FC878889E8
:10E73000FEF72DFD40070CD470680B4B084A01888A
:10E740004088CDE900017188F0680144306900F02B
:10E75000A6FF2846BDE8FC47FFF7FEB8C00200242C
:10E7600074020024B402002470020024B8020024C1
:10E77000B0020024F43B03247CB50446006D401E27
:10E78000FEF7F0FC002203461146204600F0CAF9CD
:10E7900005000ED006210020221DCDE90001A37A3C
:10E7A00021462846FEF730F82846BDE87C40FFF7B2
:10E7B000D3B87CBD7CB5334E0546307841075FD475
:10E7C000C1060DD57068304B304A01884088CDE9CC
:10E7D00000017188F0680144306900F060FF4FE08B
:10E7E00080074DD5687EFFF7FDFB040040D0274829
:10E7F00000682060688B60832348006860607068F0
:10E800000188A18303212176F1680A46491CA1628F
:10E810002163521EC189A4F86010C089A4F8620067
:10E82000A4F84E1062652869206168696061287AE1
:10E8300000F08C00207216480168E160046001F06D
:10E84000B5FA144901200870204600F0F9F9E08E6D
:10E85000211DFFF774FD1221E0862046FFF77FFDA2
:10E86000050008D000212046FFF76EFB28467CBD3E
:10E870004FF0FF307CBD2046BDE87C4000F08AB8F8
:10E8800000207CBDC0020024700200247402002419
:10E89000B40200249C02002470B50446007E08B136
:10E8A000002070BD0320FEF7CFFD051EF9D02069C2
:10E8B0002861608B688301202876607E6876207AE4
:10E8C00040F002002872A07AA872607A687220680C
:10E8D0002860608B80B110490869A04202D1C068ED
:10E8E000086107E0086228B1C068A042FAD1096A4D
:10E8F000E068C8600020E06002202146FEF76CFD61
:10E9000006486861044814300168E960056001F058
:10E910004DFA284670BD00009C020024DFDF00088D
:10E920004020FFF75FBB0000F0B5144D0024144EEB
:10E930004FF4404C4FF4804E4FF6FF77B088411CA7
:10E94000B180B84201D1A6F804C00021B28855F8C0
:10E950002100006809E0438B934205D1641CA4B2F6
:10E960007445EBD30020F0BDC0680028F3D1491CEA
:10E97000C9B20429EBD390B2F0BD0000B81501086C
:10E980009C0200240249D1E90202104488607047C9
:10E990009C0200242DE9F047044661480068A0422B
:10E9A00002D10020BDE8F087B4F86010B4F84C0044
:10E9B000814200D20846E56E8146A07F80070FD5D0
:10E9C0004DB1E8684068FEF7E0FBA16C401A298968
:10E9D0000144494504D92046BDE8F04700F0B1BEE6
:10E9E000D4F870804FF0000A5FEA080001D182E09D
:10E9F0008046D8F800000028FAD17CE0E8688089D9
:10EA0000FEF7C5FB206FA8B1A17F11F0440F11D113
:10EA1000E06E28B102686AB90089E28E904209D29C
:10EA2000B4F8660030B1B4F86800082802D211F0DA
:10EA3000A00F6CD02868E066207E02280BD0102042
:10EA4000FEF792FB0146E868828911438181A07F2D
:10EA500020F00300A0772146284600F099F8E868E6
:10EA60004068FEF792FB0646E8688089FEF78FFB58
:10EA7000800700D00120298930440844216D091AFB
:10EA800000D52065E8688089FEF781FB800700D00B
:10EA900001202989C8422AD0C5F800A0206F70B192
:10EAA000E8684068FEF771FB0646D8F80C0040683D
:10EAB000FEF76BFB301A16D504F1700602E02567ED
:10EAC00013E03668306850B1C0684068FEF75DFBFF
:10EAD0000746E8684068FEF758FB381AF1D43068FA
:10EAE0002860356006E0C8F80050A84602E02846D5
:10EAF00000F010FEE56E55B1E8684068FEF745FB92
:10EB0000A16C401A2989014449457FF677AFE06E30
:10EB100008B9A4F86AA0A07F20F08000A07740E7A1
:10EB2000D80200242DE9F04105460F468818984682
:10EB3000143081B200220120FEF7BCFD060023D074
:10EB4000688B7468FEF710FB2080A88BFEF70CFB27
:10EB50006080C4F80480A86AFEF704FBA060B808CF
:10EB6000000300F5A04080B240F01000FEF7FCFA70
:10EB7000A081E88DFEF7F8FAE08100202082608213
:10EB8000E98DA86A084428633046BDE8F08100009A
:10EB90007CB50C460546886AFEF7E4FAE9688860A9
:10EBA000E08DFEF7E1FAE968C881E18DA06A0844CA
:10EBB0002063A87AEE681436C00709D0211D40F200
:10EBC000B450FFF7BCFB40F00170FEF7CBFA3060A9
:10EBD0000026B4F93400401C00D1A6860CB1206890
:10EBE00030B9201DFEF76CF8002825D04068206061
:10EBF000A06B38B911480068A063E8684068FEF768
:10EC0000C4FAE0636968A8898A88801A4A89121A56
:10EC10004A8169680A89101A08816968221DE868B2
:10EC200048600621E8680682607ACDE90001A37A8F
:10EC300021466868FDF7E8FD7CBD0000A8020024BD
:10EC400070B51E4E0546706800F114048089FEF709
:10EC50009EFA0521B1EB103F1ED270688089FEF745
:10EC600096FA6FF0040140F2B45601EB1030090C33
:10EC700001EA800300210DE0605C00280CD001282F
:10EC80000BD0022804EB010009D04078002803D003
:10EC9000084481B29942EFD370BD491C0CE0427820
:10ECA000042AF9D1091D9942F6D8408842BAB242E5
:10ECB00000D802B93246EA8689B2EBE7C0020024E6
:10ECC0002DE9F0411D460C469142DDE90637089ECC
:10ECD00011D2BF0707D49F7F7F060CD41EB1DE6E12
:10ECE0000EB91B6F3BB104F2B75121F00301914201
:10ECF00000D80A4691B20022FEF7DCFC002804D0BE
:10ED00004189091B298004814481BDE8F08170B5E7
:10ED10000446007E002816D00A2814D0012812D0FC
:10ED2000606F002510B1FEF717FE65674FF0FF30EA
:10ED3000A086E06E00F0FCFC206F00F0F9FCE566B8
:10ED40002567A4F86A5070BD70B50C46014600688E
:10ED5000A04202D1C06808600BE0104906E0C0681C
:10ED6000A04203D1096AE068C86002E00028086296
:10ED7000F5D100252046E560FFF7C9FF207E0A286F
:10ED80000AD0012808D0A07FC10705D040F00200BA
:10ED9000A0772046FFF7FEFD257670BD9C0200247B
:10EDA000C0F8841080F82020704700002DE9FC5F37
:10EDB000C74E044600200090307841071CD5207EC5
:10EDC000022814D0A06AF1680A1A14D4A28D104443
:10EDD000081A00280FDC707840F008007070A07FDF
:10EDE00020F00100A0776FF00A00BDE8FC9F206DC5
:10EDF00031698842EFD069E1800709D5207E022879
:10EE000006D0032804D0A07F40F00200A0775DE187
:10EE1000A07FC00602D4AF4800686062002084F87A
:10EE20009A002046FFF70CFF207E4FF00109DFF823
:10EE3000A8A24FF00A0BDFF8A482801EA84F082872
:10EE4000A84DD8D2DFE800F0046EC0C4FBC0F0EFDC
:10EE50003078C106CFD5800758D5206FC06840688C
:10EE6000FEF793F93169401C88424CD1B4F8660032
:10EE7000401CA4F86600F0680246401CA062A16431
:10EE8000521E20637068C189A4F86010211DC089DA
:10EE9000A4F86200042062652076E08EFFF74FFA46
:10EEA00000EB80014FF6FF72E08602EA4101A4F810
:10EEB0004E10B4F84C10012900D14000A4F84C00C9
:10EEC000B4F86800401EA4F86800206F016821674C
:10EED0004C3400F01FFC606A4C3C70B10020A086EE
:10EEE00084F84600D4F880305BB1002220692146C6
:10EEF000984700900A3032D085E74FF0FF30A08667
:10EF0000F0E70098F6E73078C006A3D57068764B36
:10EF1000764A01884088CDE900017188F068014493
:10EF2000306943E03078C10643D5A16C3069411A9D
:10EF3000012931D4216D411A00292DDC04202076CD
:10EF400063692BB1002220692146984710B909E076
:10EF50006FF00D000A3002D02046FFF73BF86FF04B
:10EF6000090042E7B4F84C50204600F0F3F8B4F83A
:10EF7000640010B1401EA4F86400E08E012D00D1A1
:10EF80004000A4F84C007078800611D5A07F40F0B6
:10EF90000200A077072050E07168534B0A88498827
:10EFA000CDE900127288F1681144504A00F077FBF5
:10EFB0008CE0800707D5A06AF168401E884202D124
:10EFC000204600F000FB81E0204600F0C3F8DAE7BD
:10EFD000204600F0BFF87078800630784FEAC060B5
:10EFE00024D5002819DA206D3169884215D1A07F17
:10EFF00040F00200A0772046FFF789FE3868A04263
:10F0000002D1C068386047E0286070B3C068A04291
:10F01000FAD12968E068C8603EE0A07F40F00200B5
:10F02000A077082009E043E020E008E000284DDA5E
:10F03000206D3169884249D10620207646E020467D
:10F0400000F088F87078800640D5A07F40F002007C
:10F05000A0772046FFF75BFE3868A042D1D0286039
:10F0600018B1C068A042FAD1D3E715E0204600F0FD
:10F0700071F83078C00629D5206D3169884225D1D4
:10F080002046FFF744FE3868A042BAD0286018B185
:10F09000C068A042FAD1BCE78AF8009084F818B0A2
:10F0A000D8F80010E160C8F8004000F07FFE0DE0E5
:10F0B000204600F04FF83078C00607D5206D316942
:10F0C000884203D1707840F01000707000208CE608
:10F0D000C0020024A80200249C020024B8020024DC
:10F0E000B4020024BC020024700200247402002434
:10F0F0002DE9F041456F044600206E7B6067E76FA5
:10F100002FB1002320692A462146B84705E0002395
:10F110002A462146184600F028FA6FF0090728B160
:10F120000A3015D065670020BDE8F081B106FAD538
:10F13000A18DA1F5B052D03A01D0491CA185E56F4F
:10F1400025B1002320691A462146A8470A30EAD192
:10F150003846E9E72DE9F041FE4F04464FF000063E
:10F160003878C0067DD5B4F86050A16D626DF8683E
:10F170006B18B2EB000C0BD4824202D13A698A1AA6
:10F1800006D43A69914217D17968C989A94213D93D
:10F190007968CA89A4F86020B4F86250C9898D42A0
:10F1A00001D2A4F8621060653869A06594F89900EE
:10F1B00062B108B184F89960A26C3869811A00299B
:10F1C00036DCA4F86460798841B12EE00028F3D1E0
:10F1D00084F89860012084F89900EDE7B4F8605055
:10F1E000A16D2944994220D1B4F9341000291CDBC7
:10F1F00082421AD194F84700411CC9B2814201D918
:10F2000084F8471094F84700032809D9B4F84C0053
:10F21000E18E014489B2814201D9A4F84C10A8E0E2
:10F2200002D1204600F0F8F9A3E084F84760A0E09E
:10F2300001297AD4226D821A002A76DCA27F530734
:10F2400006D522F00402A277B4F84E20A4F84C2090
:10F2500084F84660B4F94030B4F8422002EBE3028F
:10F2600000E0C2E0A4F84420A4F86410B4F86620DA
:10F270001144A4F8661084F84760A064207E042836
:10F2800033D3B4F84C00B4F84E108842E18E04D267
:10F29000014489B2814207D827E0494391FBF0F14C
:10F2A000014489B2884220D2A4F84C101DE028689D
:10F2B00020676868FEF7C6FAB4F8640050B1E868E1
:10F2C0008089FDF764FFC00704D0B4F86400401ED5
:10F2D000A4F864006868FEF7B5FAB4F86810081A74
:10F2E000A4F86800284600F015FA206FC8B1C0687D
:10F2F0004068FDF74AFF0546206FC0688089FDF72A
:10F3000046FF800700D001202844256F2989084442
:10F310003969401A0028CADD1DB1A686E67728E0C3
:10F3200003E04FF0FF30A086F8E7A4F8646020E027
:10F330002868E06608B9A4F86A606868FEF782FA8F
:10F34000B4F8640050B1E8688089FDF720FFC00779
:10F3500004D0B4F86400401EA4F864006868FEF7A6
:10F3600071FAB4F86810081AA4F86800284600F08A
:10F37000D1F9E06EB8B1C0684068FDF706FF0546F8
:10F38000E06EC0688089FDF702FF800700D0012091
:10F390002844E56E298901443869411A03D4216D56
:10F3A000401A0028C4DDA06BF8B1E16B3A69891AF4
:10F3B0001BD569490988081AB4F94010A0EBE1008F
:10F3C00000B201440AB2A4F84020002801DA404209
:10F3D00000B2B4F94210A0EBA1000844A4F8420026
:10F3E00000EBE200A4F84400A6637B88002B7DD0EC
:10F3F000207E07287AD2A06AFA68584D811A01291E
:10F4000024D41344C31A5B1C002B1FDC6868428998
:10F410008A420ADA0289521A93B203E00381891AF6
:10F420004681006842898A42F8DB494209B2FEF708
:10F43000C5FABA89A06A2989821A891A2981F860CD
:10F44000E9684860A16A401A07D572E0101A04D52D
:10F45000A07F40F00200A0776BE0A18DA06A421867
:10F46000F9688A1A521C002A63DC884261D1E86874
:10F470008089FDF78CFE800700D00120298908448F
:10F4800080B27880A18D81422DD2E8688089FDF715
:10F490007EFEC0070ED0E8688089FDF778FE00F098
:10F4A0003E00FDF761FE0146E868828922F47C5245
:10F4B00011438181A08D2881E8688089FDF767FE6E
:10F4C000800702D52889401E288129896868FEF7AF
:10F4D000A5FAE8688089FDF75AFE800700D0012070
:10F4E00029890844788080B2F96800E026E0014468
:10F4F000A162A18D081AA085204600F0B7FC6868BB
:10F50000018909B178616E60E8688089FDF73FFE86
:10F51000C00703D0787840F020007870A07FC10742
:10F5200002D020F0010014E040F00100A077BDE817
:10F53000F0812046BDE8F04100F003B9A06AF96807
:10F540000A1A05D4A28D1044081A401C0028EEDDCA
:10F55000A07F05E0C0020024A8020024F43B03249D
:10F5600040F00200E2E7C167704710B5140008469A
:10F5700006D0218900F00BF82046FEF7EDF900E0F7
:10F580000BB1002010BDBDE81040FEF7EDBD10B579
:10F590000446808D084441F2D06180B2A085884243
:10F5A00000D9A185204600F061FC40F2B4518842A8
:10F5B00008DBA07F40F00200A0772046BDE81040A5
:10F5C000FFF7E8B910BD2DE9F041066F0546002EA2
:10F5D00020D0306805F16C04286700E024682068BA
:10F5E00050B1C0684068FDF7D0FD0746F06840683C
:10F5F000FDF7CBFD381AF1D420683060002026607A
:10F60000316809B9A5F86A0095F84610491C85F8D3
:10F610004610A863BDE8F08110B50446006F0028CD
:10F6200025D0A07F400722D42046FFF7CCFFB4F8B6
:10F630004C00B4F86010884201D9480800E0400846
:10F64000A4F84E0081B2E08EB1EB400F05D24FF628
:10F65000FF7101EA4001A4F84E1089B200EB4000AE
:10F660000844A4F84C00A07F40F00400A07710BD2F
:10F67000016F002912D000E011460A68002AFBD170
:10F68000C26E0A60016FC1660021016790F84620D2
:10F69000521C80F846208163FFF77CB970472DE942
:10F6A000FC5F1E461746002288461421834601202F
:10F6B000DDE90C9AFDF7FEFF050029D06C6848468D
:10F6C000FDF752FD20805046FDF74EFD6080584604
:10F6D000FDF748FD60604046FDF744FDA06045F23F
:10F6E0001400FDF741FDA08106214DF21600E081D6
:10F6F000002020826082FF23CDE900013246394696
:10F700002846FDF781F82846BDE8FC5FFEF724B9DE
:10F71000BDE8FC9F10B5040009D0606808B1FEF791
:10F720001BF92146BDE810400420FDF755BE10BD71
:10F7300010B503E00468FFF7EDFF20460028F9D17B
:10F7400010BD7CB500250446006DFDF70BFD0022C1
:10F75000034629462046FFF7E5F9050012D0A07FB1
:10F760000621221D20F00300A077607ACDE9000178
:10F77000A37A21462846FDF747F82846FEF7ECF81D
:10F7800000207CBD6FF001007CBD70B5C46E0546E5
:10F790000CB909E00C4621680029FBD1E06880899A
:10F7A000FDF7F5FC400705D02846BDE87040012173
:10F7B000FEF7D5BD0120FDF7D7FC0146E068828940
:10F7C00011438181A87F40F02000A877002070BD00
:10F7D0008167704770B5254D0C464FF000062878BC
:10F7E000800601D56878A0B36E700121204600F034
:10F7F000AFF90C20FDF734FD010033D00120087073
:10F80000C1E901462046FEF76DFC19492046FFF785
:10F81000AAFE18492046FEF7F7FD174901222046A7
:10F82000FFF7BEFA15492046FFF7D2FF287840F0CF
:10F8300020002870124821798171A188090AC171BC
:10F840006168090C01726168090E41720020EC6068
:10F8500070BDFFE7E868002100F014F8E868FEF7E3
:10F86000B9FBC2E74FF0FF30F2E700004C02002482
:10F870001DF90008D1F8000805F9000897FA0008FA
:10F8800000B1022470B50C460546FEF76DFC002160
:10F890002846FEF727FC00212846FFF799FF0021A4
:10F8A0002846FFF760FE00212846FEF7ADFD002246
:10F8B00028461146FFF774FA14B12046FDF7A0FC64
:10F8C0000248017821F02001017070BD4C02002433
:10F8D00010B50446FBF7E2FF05A02146F0F75CFEF9
:10F8E00014B12046FDF78CFC05490120487010BD7D
:10F8F000746370206572726F723A25780D0A000089
:10F900004C0200240A46014610B50078022802D1B4
:10F910001046FFF7B7FF002010BD00002DE9F047AB
:10F92000DFF8DC90160098460F4604464FF00005BD
:10F93000C9F80C100CD0B8F1000F17D0FBF7AEFFD0
:10F9400030A0F0F729FE3046FEF706F8444653E0B3
:10F9500002202070A260002421463846FFF792FF63
:10F96000FBF79CFF2AA0F0F717FE45E0207801285E
:10F970000BD0FBF793FF2BA0F0F70EFE3189384632
:10F98000FFF705FE0020A06032E02A48C821F1F709
:10F990002DF9DFF8A0803446C5F1C802608961689E
:10F9A000904202D908EB050003E008EB050302468C
:10F9B0001846F1F7A4F860890544C82D02D82468D8
:10F9C000002CE9D199F800101B4841F0400189F85A
:10F9D000001039798171B988090AC1717968090CF7
:10F9E00001727968090E417231893846FFF7CFFDFF
:10F9F0003046FDF7B1FF00242046BDE8F087000047
:10FA00004C020024746370206572720D0A000000BD
:10FA100074637020646973636F6E6E6563740D0A3E
:10FA20000000000074637020756E6B6E6F776E0D52
:10FA30000A00000048B1022400B102242DE9F0417F
:10FA40000E4680461DE061680123404600F028FA1A
:10FA5000050002D0681C0ED00EE067892068B060F7
:10FA600008B1FEF702F82046FDF776FF394640461A
:10FA7000FFF78DFD00E0B4604046FEF78BFF002DE0
:10FA800007D1B468002C04D06289B8F866008242BD
:10FA9000D9D9BDE8F0810A46014610B5806810B199
:10FAA0001046FFF7CBFF002010BD000070B500240A
:10FAB000C8212046FDF750FD68B1FEF731FF0B4D20
:10FAC000686028B10A4941F6B052FEF70DFB20B13B
:10FAD0000124204670BD012070BD6868FF21FEF73B
:10FAE000DBFE0449A860FEF778FAF2E74C02002436
:10FAF00048150108D5F7000870B504690E4605469B
:10FB0000FCB10846F0F7DCFF81B203220020FDF7CC
:10FB1000D1FDA0603046F0F7D3FF82B2A068314635
:10FB2000FDF7A9FF21462846FFF788FF074801781F
:10FB300021F080010170A06808B1FDF70DFF0020E1
:10FB400070BDFEF747FA6FF0090070BD4C0200244B
:10FB5000417670472DE9FC5F914F4FF4FA7B4FF0EF
:10FB6000000AF868401CF860B878401CB870BC699E
:10FB70000026F6E094F82110B878814201D1E468BB
:10FB8000EFE084F821000025227EA946022A03D155
:10FB900094F8460006281BD094F846100C2919D07A
:10FBA00094F89900C0B194F898107E4A491CC9B2E3
:10FBB00084F89810825C914244D3072884F898A076
:10FBC00002D2401C84F89900204600F0D8FA39E0AF
:10FBD000012543E0012535E0B4F93400002801DBBC
:10FBE000401CA086206F68B3B4F93400B4F94430E7
:10FBF000984227DB022A0AD0B4F94020B4F8420028
:10FC000000EBE200684A515C8840A4F84400A4F884
:10FC100034A0B4F84C00B4F86010884200D3084611
:10FC20004108A4F84E10E08EB1EB400F05D24FF61C
:10FC3000FF7101EA4001A4F84E10A4F84C002046E0
:10FC4000FFF716FD207E062808D1A07FC00605D547
:10FC5000606AF968081A282800D96D1C207A000704
:10FC600027D5207E042801D0072822D1D4E92310EB
:10FC7000D4F89420636AD7F80CC002FB0012ACEBF6
:10FC80000303B2FBFBF29A4203D26D1C4FF0010951
:10FC90000FE094F89A2002FB0010B0FBFBF09842B2
:10FCA00007D22046FEF768FD94F89A00401C84F8BD
:10FCB0009A00207E032802D0092807D00BE0606A52
:10FCC000F968081A282806D96D1C04E0606AF968EA
:10FCD000081AF028F8D84DB32046FFF718F8E06866
:10FCE0000EB1F06000E0B861B9F1000F09D0A18B4E
:10FCF000231D608B2246CDE90001A16A206DFFF72C
:10FD0000CEFCD4F810800220D4F888502146E46854
:10FD1000FDF762FB87F800A01DB36FF009014046B4
:10FD2000A847387800287FF422AF1AE02646E46816
:10FD3000F07F401CC0B2F07796F82010884210D3B4
:10FD400086F81FA087F800A0D6F8842032B1306969
:10FD50003146904739780029E5D110B93046FEF791
:10FD600019FE002C7FF406AFFC69002514E0606AE0
:10FD7000F968081AF0280DD92046FEF7C8FFE06898
:10FD80000DB1E86000E0F86102202146E468FDF76B
:10FD900023FB01E02546E468002CE8D1BDE8FC9F88
:10FDA0009C02002473150108A81501080848816801
:10FDB00000290CD10749084A09681268114306D086
:10FDC0000121816000220549FA20FEF703B870473F
:10FDD000DC020024B4020024B8020024110201084D
:10FDE0001CB5164C21784A0726D48A0715D5826A95
:10FDF000E1688B1A16D4838D1A448A1A002A11DC02
:10FE000060680F4B02884088CDE9000260880D4A87
:10FE100001442069FFF743FC0EE0C90702D00A49FC
:10FE200009684162618839B1817F41F002018177BF
:10FE3000BDE81C40FEF7AEBD00201CBDC002002482
:10FE40007002002474020024A802002410B5FEF7FA
:10FE5000DFFA05494878401C4870C00703D0BDE868
:10FE60001040FFF777BE10BD9C02002470B5858D51
:10FE700040F66836826AC48E016B5319B44200D9C9
:10FE800034460C441C1B02D4C585581A70BD531A45
:10FE9000002B01DD002100E0891AC185002070BD22
:10FEA0002DE9FF4F8BB005460020904606460746D9
:10FEB0000390824607900446059081460990ADF86C
:10FEC0002000B5F86210E88EB0EB510F00D348085F
:10FED00006900C9860B1287E114604280DD00728A2
:10FEE0000BD0022809D0032807D06FF00C0015E0D2
:10FEF0006FF00D000FB0BDE8F08F71B1B5F866007E
:10FF0000904203D3B5F86800082806D3A87F40F0D4
:10FF100080014FF0FF30A97700E000200028E9D1F0
:10FF2000E86EB5F868B0002862D006460068002880
:10FF3000FBD1B07AC10700D00421800701D50C2085
:10FF400000E000203389084419180698401A82B24C
:10FF5000B5F86A00ADF8200078B140453746414613
:10FF600000D201468946A0EB0900ADF8200004EB61
:10FF70000901A2EB09008CB282B2444538D2002AB2
:10FF800036D0002B34D0A8EB0400904200DD1046A0
:10FF9000374680B204900E98C00714D001210E9805
:10FFA000009508ABCDE9010104990320FEF788FE16
:10FFB000002803906AD00C98049A011903984068AD
:10FFC000F0F79DFD0BE0049901220320FDF772FB81
:10FFD000002803905AD00C980119039841600498A6
:10FFE000204484B20398FDF72DFC58441FFA80FB8F
:10FFF00063E0A8EB040081B2DDE90520801A80B23D
:020000040801F1
:10000000814200D8084604900E98C0071ED0BAF16D
:10001000000F19D000200E99009508ABCDE9011012
:1000200004981044069A81B20020FEF749FE002889
:1000300001902BD00C980119019842680598104442
:10004000049AF0F75CFD15E00120E4E70499012231
:100050000020FDF72FFB070018D00C980022204449
:10006000786005991046FDF725FB019078B1394677
:10007000FDF7D4FB0198FDF7E5FB58441FFA80FB20
:10008000BBF1080F05D90198FDF766FC67E038461B
:10009000FAE7099800220090E86D019903192846B3
:1000A000FEF700F907005AD0BAF1000F0CD00798FC
:1000B000076004980797204484B2444599D3B9F166
:1000C000000F1BD0746813E0BA46F2E7218901EBF8
:1000D00009002081206850B961894A466068084457
:1000E0000C99F0F70CFD618901EB0900608124682F
:1000F000002CEBD1318901EB09003081BDF82000E3
:10010000A5F86A00039840B170680399FDF786FB73
:1001100003983189008908443081EEB1C6F800A007
:10012000E96D01EB0800E865B5F86610A1EB080081
:10013000A5F86600A5F868B067B1F86850B10E98E8
:10014000800707D40820FDF70FF80146F868828978
:10015000114381810020CDE6C5F86CA0E0E7A87FBF
:1001600040F08000A877039808B1FDF7F5FBBAF1DD
:10017000000001D0FFF7DCFA4FF0FF30BAE62DE9BE
:10018000FC41046F054614B9EC6E002C3ED0E068CB
:100190008089FCF7FCFFC00701D02089C8B100208E
:1001A0005FEA000817D00022E06800214368284673
:1001B000FEF7B8FC070029D07E68B8F1000F0CD01C
:1001C0001120FCF7D1FFB18921F47C510843B081A3
:1001D0000DE00120E4E70122E6E7606806F1140182
:1001E00023890289D21A93B20122FDF781FB0621ED
:1001F00000202A1DCDE90001AB7A29463846FCF7DC
:1002000003FB3846BDE8FC41FDF7A6BBBDE8FC8119
:1002100010B5FFF71BFE0848084900680968084345
:1002200006D000220649BDE81040FA20FDF7D2BDF5
:1002300004490020886010BDB4020024B8020024E4
:1002400011020108DC0200240B490A4A10B5C1E979
:10025000002000208860C860086188610C20486127
:100260000846F6F775FCBDE8104004490122024833
:10027000F6F71ABD00100140A0060024C6000024B5
:100280000B490A4A10B5C1E9002000208860C86007
:10029000086188610C2048610846F6F759FCBDE802
:1002A0001040044901220248F6F7FEBC0048004015
:1002B00020070024C7000024704700002DE9F84FF4
:1002C000D0F804B0074602898A4608219BF800004E
:1002D00000F00F0001EB80018A427BD38000414295
:1002E0003846FDF76BFB002874D13D4E51467C68C3
:1002F0003068FCF713F905462088FCF748FF804674
:100300006088FCF744FF37490023814618464C6853
:10031000A64630E0628A4A452BD115B984B12168DE
:1003200071B12168D6F800C0614509D00DB33CB168
:1003300031B1DAF8082011400CEA020C614518D1FD
:1003400018B9217C490700D42046A28A424510D121
:10035000211D05D0616819B1234A1268914208D164
:100360002BB1E168D9601F49C4F80CE04C6024B19E
:100370000AE02346E468002CCCD1040004D1DAF86A
:1003800004003168884225D16FF007013846FDF737
:1003900015FBF8B954B1A569E5B1CDF800803A462E
:1003A000114B2146E069A847BDE8F88F95B9307830
:1003B000C0F303100E280DD09BF8000000F00F01D1
:1003C000082000EB81013846FDF7F8FA0321384692
:1003D000FBF7B4FE3846BDE8F84FFDF7BDBA0000A4
:1003E00074020024E8020024700200240FB4652186
:1003F00000B599B01BAB68461A9AF0F7B3F8684697
:10040000F8F79AFB19B05DF814FB000070B594B0D2
:10041000064613AB694611AA00F0DCF9002824D186
:100420001E4C04258DF8400014E0206805EBC10146
:1004300013AB12AA405808A900F0CCF9002814D137
:1004400008A8694600F001FC88B19DF84000401CF6
:100450008DF84000207D9DF840108842E5D8207D31
:100460009DF8401088420ED1042014B070BD9DF854
:1004700048009DF84410884201D90220F5E79DF814
:100480004000A075EBE710A9304600F057FA0028AD
:10049000EBD19DF8400060750020E6E75401002490
:1004A0002DE9F0417E4E9AB0B57D307DA8427CD9D1
:1004B0003068042101EBC50119AB18AA405810A9F6
:1004C00000F088F910A977A0F0F766F800240DF184
:1004D000180832E00121308BA140084217D02221B8
:1004E00072A0F0F759F8204600F090FA81192431F3
:1004F0006FA0F0F751F822216CA0F0F74DF82046DC
:1005000000F084FA3044243048F824000BE0204600
:1005100000F07CFA3044416A48F82410F07D00B3C2
:1005200064A0F0F739F89DF86000401E844202D0C4
:1005300062A0F0F731F8641CE4B29DF860008442D8
:10054000C8D35FA0F0F728F800F0A6FA707D0B285A
:1005500014D2DFE800F0080D31384048525E6B7865
:10056000890058A0DDE7306850F83500804704E086
:10057000306850F8351006988847074600F058FA5A
:100580009DF8640001286ED04FA0F0F705F896F8AA
:10059000EC0000280DD0D6F8F0000A21B0FBF1F2F3
:1005A00001FB1202B0FBF1F100E002E047A0EFF71F
:1005B000F3FF1AB0BDE8F081306850F83520DDE96E
:1005C00006019047D9E7306806AC50F8353094E81A
:1005D00007009847D1E7306806AF50F8354097E8F4
:1005E0000F00A047C9E70A9806AF0090306850F89E
:1005F000354097E80F00A047BFE7DDE90A0106AFE5
:10060000CDE90001306850F8354097E80F00A04769
:10061000B3E70AAB06AF93E807008DE80700306840
:1006200050F8354097E80F00A047A6E70AAC06AFA0
:1006300094E80F008DE80F00306850F8354097E8D7
:100640000F00A04799E70BAC06AF94E80F0001AC90
:1006500084E80F000A980090306850F8354097E819
:100660000F00A04789E711E00CAC06AF94E80F003B
:1006700002AC84E80F00DDE90A01CDE90001306831
:1006800050F8354097E80F00A04776E7F07D3946EF
:1006900018B116A0EFF780FF79E717A0FAE700007E
:1006A000540100240D0A2573280000002563000072
:1006B0002573000030582558000000002C00000071
:1006C00029000000256C64003B0D0A0046756E632E
:1006D00074696F6E2052756E2054696D653A256499
:1006E0002E2531646D730D0A000000003D30582541
:1006F000583B0D0A000000003D256C753B0D0A00BB
:10070000F0B500252E462F462C4603782C2B03D01F
:10071000292B04D01BB103E014B9012600E00CB36F
:1007200017B1222B2AD02AE0A3F1300CBCF1090F1B
:1007300019D92D2B17D02B2B15D0A3F1610CBCF19F
:10074000050F10D9A3F1410CBCF1050F0BD9582BA3
:1007500009D0782B07D0222B0CD0202B1ED02C2B8D
:100760001CD0FF270CE05EB9612B00D3203B01F8C1
:10077000013B13E026B901273C460FE0002426B1D7
:100780000020087028461770F0BD3CB15C2B02D1E8
:100790006D1C401CEDB2037801F8013B6D1C401C40
:1007A000EDB2B2E730B5002515700AE001F8014B53
:1007B0001478401C641CE4B214709C4201D30120E4
:1007C00030BD0478202C01D0002CEFD100200D701A
:1007D00030BD00002DE9FF4F0024984682B08946C5
:1007E0000125A2462746264602992246EB4615E0F9
:1007F000202810D002F07F03052B0CD202B98022F2
:1008000002F07F03042B01D12A280AD1521C0BF8D5
:100810000300D2B201E0852A04D0491C08780028E0
:10082000E6D16AB102F07F02002042A10BF802007B
:10083000584600F00AFA38B1012188F80010002269
:10084000029B4FF0000815E0002088F80000F6E752
:1008500008F1010000F0FF0813F8010F202801D073
:100860002A2807D1184600F07DF9282802D02A2826
:1008700000D0C2461878282801D00028E8D1029973
:10088000BAF1000F01D05144491C4FF00008434613
:10089000087888B1282804D0292806D0222810D02A
:1008A00011E083B9641CE4B20DE063B924B1641EA5
:1008B00014F0FF0402D00DE04FF00108012F27D003
:1008C0002FE04BB100234CB12C280CD0202816D09F
:1008D000282814D05AB110E00123F4E7202815D0BD
:1008E00009F8010B12E00125521CD2B207E0052ED7
:1008F00003D20BF80600761CF6B26D1CEDB2012C8B
:1009000004D1022D02D103257F1CFFB2491CBFE791
:1009100000200BF8060007A1684600F096F900B920
:10092000002704980770002089F8000006B04046B0
:10093000BDE8F08F766F6964000000002DE9F04398
:10094000314D0024B5B08946214622466B18491C1A
:10095000C9B20A299A76F9D302E010F8011F99B1B9
:1009600001782829F9D1461C4FF0010833AA6946BD
:100970003046FFF7C5FE06449DF8CC0040B1012883
:1009800024D0FF2836D10BE0012035B0BDE8F0833C
:100990009DF8000070B334A9684600F0EBF808B188
:1009A0000220F2E7204600F031F8284434994162F1
:1009B000298B08FA04F081432983042029198876B9
:1009C000641CE4B20A2C15D90320DEE7684600F067
:1009D00051F9471C204600F019F8411968462431A6
:1009E00000F03FF9298B08FA04F001432983281904
:1009F0008776E5E73078292801D00028B6D1002095
:100A000089F80040C1E70000540100240246074B6A
:100A10000020014610B505E05C18491CC9B2A47E4F
:100A20002044C0B29142F7D310BD0000540100240D
:100A3000094800680169C943CA070849D1F8F0208C
:100A400004D14FF6FF731A44C1F8F020406A1044F5
:100A5000C1F8F00070470000C0B002245401002427
:100A600000EBC00101EB00104FF0FF3110B501EBBE
:100A7000800081B24FF47A70F8F734F80149012010
:100A8000C87510BD540100240346012000E05843FE
:100A9000491EC9B2FBD2704707486FF001010268D6
:100AA0001161090C0268D162C160002100684162D5
:100AB0000248C0F8F0107047C0B00224540100246E
:100AC0002DE9F041164E3088010426D51549C0B2F3
:100AD000154F00250D54B9681248884704000FD0FF
:100AE000104800F0D1F8012801D0040014D0012CE6
:100AF00009D0022C09D0032C09D0042C0CD108E019
:100B0000F868804708E009A004E00BA002E00DA00F
:100B100000E00FA0EFF740FD3580BDE8F081000058
:100B2000C80000241005002454010024BAAFCAFDF7
:100B3000B4EDCEF3210D0A00B2CECAFDB4EDCEF372
:100B4000210D0A00B2CECAFDCCABB6E0210D0A00E1
:100B5000CEB4D5D2B5BDC6A5C5E4B5C4BAAFCAFD3D
:100B6000210D0A0010F8011F202901D10028F9D118
:100B7000C8B270472DE9F0430E464FF00A08002432
:100B80000146254634600A78A2F13003092B14D9B6
:100B900003782D2B01D02B2B00D174B1A2F141038E
:100BA000052B0AD9582A05D012F0FF0F17D00120C3
:100BB000BDE8F083012C02D0F9E7412A01D34FF0C0
:100BC000100802782D2A04D02B2A04D0641CE4B229
:100BD00003E0022500E00125401C491CD3E7B8F1E1
:100BE000100F074601D084B112E0032C01D202207D
:100BF000DEE73878302802D17878582801D00320F1
:100C0000D6E7A41EBF1CE4B201E00420D0E70CB17B
:100C1000641EE4B2387801463038092801D881468C
:100C200001E0A1F1370921464046FFF72DFF326868
:100C300009FB0020306017F8011F0029E7D1022DC1
:100C400001D1404230600020B2E702780B789A422E
:100C500001D00120704712B1401C491CF5E700206B
:100C6000704702780A700278002A02D0401C491CA2
:100C7000F7E77047002102781AB1491C401CC9B23D
:100C8000F9E7084670470000F0B58DB004461E2312
:100C9000694608AAFFF786FD0028099072D19DF8E1
:100CA000200027183E4C00258DF820509DF820008C
:100CB00054F820106846FFF7C8FF38B19DF82000AF
:100CC000401CC0B28DF820000728EFD39DF820000B
:100CD0000426344C072855D2DFE800F00404395AC2
:100CE000605F5E0030A0EFF757FC30A0EFF754FCD8
:100CF0003EA0EFF751FC4DA0EFF74EFC5BA0EFF7E5
:100D00004BFC6AA0EFF748FC78A0EFF745FC86A003
:100D1000EFF742FC8BA0EFF73FFC93A0EFF73CFC12
:100D200097A0EFF739FC9CA0EFF736FCA1A0EFF7F6
:100D300033FCA7A0EFF730FCB3A0EFF72DFCC0A069
:100D4000EFF72AFCCBA0EFF727FCD7A01BE016A0FB
:100D5000EFF722FCE4A0EFF71FFC8DF820500BE02A
:100D6000216806EBC0000958EFA0EFF715FC9DF8CD
:100D70002000401C8DF82000217D9DF8200081423C
:100D8000EED856E257E2EFF707FC00200DB0F0BDB9
:100D900005A0EFF701FCCBE12CE20CE2EBE1000057
:100DA00018010024540100240D0A00002D2D2D2DC2
:100DB0002D2D2D2D2D2D2D2D2D2D2D2D2D2D2D2D63
:100DC0002D2D2D2D55534D4152542056332E332D5C
:100DD0002D2D2D2D2D2D2D2D2D2D2D2D2D2D2D2D43
:100DE0002D2D2D2D2D2D2D200D0A00002020202011
:100DF00055534D415254CAC7D3C9414C49454E542D
:100E0000454BBFAAB7A2B5C4D2BBB8F6C1E9C7C9A2
:100E1000B5C4B4AEBFDAB5F7CAD4BBA5BDBBD7E97C
:100E2000BCFE2CCDA8B9FD200D0A0000CBFC2CC4C3
:100E3000E3BFC9D2D4CDA8B9FDB4AEBFDAD6FACAE1
:100E4000D6B5F7D3C3B3CCD0F2C0EFC3E6B5C4C8B0
:100E5000CEBACEBAAFCAFD2CB2A2D6B4D0D02ED262
:100E6000F2B4CB2CC4E3BFC90D0A0000D2D4CBE648
:100E7000D2E2B8FCB8C4BAAFCAFDB5C4CAE4C8EB84
:100E8000B2CECAFD28D6A7B3D6CAFDD7D6283130F0
:100E90002F3136BDF8D6C62CD6A7B3D6B8BACAFD00
:100EA00029A1A2D7D6B7FBB4AE0D0A00A1A2BAAF52
:100EB000CAFDC8EBBFDAB5D8D6B7B5C8D7F7CEAA42
:100EC000B2CECAFD292CB5A5B8F6BAAFCAFDD7EE89
:100ED000B6E0D6A7B3D63130B8F6CAE4C8EBB2CE86
:100EE000CAFD2CB2A2D6A7B3D60D0A00BAAFCAFD6E
:100EF000B7B5BBD8D6B5CFD4CABE2ED6A7B3D6B257
:100F0000CECAFDCFD4CABEBDF8D6C6C9E8D6C3B9CD
:100F1000A6C4DC2CD6A7B3D6BDF8D6C6D7AABBBB11
:100F2000B9A6C4DC2E0D0A00BCBCCAF5D6A7B3D640
:100F30003A7777772E6F70656E6564762E636F6D86
:100F40000D0A000055534D415254D3D037B8F6CF57
:100F5000B5CDB3C3FCC1EE28B1D8D0EBD0A1D0B48D
:100F6000293A0D0A000000003F3A202020202020CE
:100F7000BBF1C8A1B0EFD6FAD0C5CFA20D0A0000D0
:100F800068656C703A202020BBF1C8A1B0EFD6FA9A
:100F9000D0C5CFA20D0A00006C6973743A202020DE
:100FA000BFC9D3C3B5C4BAAFCAFDC1D0B1ED0D0A34
:100FB0000A00000069643A2020202020BFC9D3C362
:100FC000BAAFCAFDB5C44944C1D0B1ED0D0A0A009B
:100FD0006865783A20202020B2CECAFD3136BDF8AF
:100FE000D6C6CFD4CABE2CBAF3B8FABFD5B8F12B47
:100FF000CAFDD7D6BCB4D6B4D0D0BDF8D6C6D7AA11
:10100000BBBB0D0A0A0000006465633A2020202063
:10101000B2CECAFD3130BDF8D6C6CFD4CABE2CBAC6
:10102000F3B8FABFD5B8F12BCAFDD7D6BCB4D6B445
:10103000D0D0BDF8D6C6D7AABBBB0D0A0A000000A7
:1010400072756E74696D653A312CBFAAC6F4BAAF79
:10105000CAFDD4CBD0D0BCC6CAB13B302CB9D8B1B4
:10106000D5BAAFCAFDD4CBD0D0BCC6CAB13B0D0AED
:101070000A000000C7EBB0B4D5D5B3CCD0F2B1E0D4
:10108000D0B4B8F1CABDCAE4C8EBBAAFCAFDC3FB5D
:10109000BCB0B2CECAFDB2A2D2D4BBD8B3B5BCFCF0
:1010A000BDE1CAF82E0D0A002D2D2D2D2D2D2D2D33
:1010B0002D2D2D2D2D2D2D2D2D2D2D2D2D2D2D2D60
:1010C0002D2D414C49454E54454B2D2D2D2D2D2D6B
:1010D0002D2D2D2D2D2D2D2D2D2D2D2D2D2D2D2D40
:1010E0002D2D2D200D0A00002D2D2D2D2D2D2D2DDA
:1010F0002D2D2D2D2D2D2D2D2D2D2D2D2D2D2D2D20
:101100002DBAAFCAFDC7E5B5A52D2D2D2D2D2D2D41
:101110002D2D2D2D2D2D2D2D2D2D2D2D2D2D2D2DFF
:101120002D2D2D2D200D0A0025730D0A0000000025
:1011300042A0EFF731FA8DF8205016E0216806EB57
:10114000C0000BAB0AAA08586946FFF743FB9DF89D
:101150002010206850F8312048A06946EFF71CFAAB
:101160009DF82000401C8DF82000217D9DF8200076
:101170008142E3D85DE0AFF2D030EFF70DFA08AA74
:1011800069463846FFF7BCFA9DF82000002843D195
:1011900009A96846FFF7EEFC8DF8200010B104287D
:1011A0003AD102E009993AA01CE03CA0EFF7F4F92B
:1011B0000120E0753DE038A0EFF7EEF908AA694696
:1011C0003846FFF79DFA9DF8200028BB09A968461C
:1011D000FFF7D0FC8DF8200010B104281CD104E0EA
:1011E000099933A0EFF7D8F923E034A0EFF7D4F949
:1011F000E5751EE028A0EFF7CFF908AA6946384642
:10120000FFF77EFA9DF8200030B909A96846FFF77C
:10121000B1FC8DF8200008B10220B7E5099810F064
:10122000FF0084F8EC0001D029A000E02FA0EFF728
:10123000B3F919A0A7E50120A8E500002D2D2D2D5B
:101240002D2D2D2D2D2D2D2D2D2D2D2D2D2D2D2DCE
:101250002D2D2D2D2DBAAFCAFD204944202D2D2D29
:101260002D2D2D2D2D2D2D2D2D2D2D2D2D2D2D2DAE
:101270002D2D2D2D2D2D2D2D200D0A0025732069AE
:10128000642069733A0D0A3058253038580D0A0029
:101290004845583A305825580D0A00003136BDF8F7
:1012A000D6C6B2CECAFDCFD4CABE210D0A000000F8
:1012B0004445433A256C750D0A0000003130BDF8F5
:1012C000D6C6B2CECAFDCFD4CABE210D0A000000D8
:1012D00052756E2054696D652043616C63756C6155
:1012E00074696F6E204F4E0D0A00000052756E201B
:1012F00054696D652043616C63756C6174696F6ED0
:10130000204F46460D0A0000016070472DE9F0416C
:101310001F461646FF230D46AB22044640210320FC
:10132000F2F727F90520FAF751FA04EB44042A46AC
:10133000382000EB8401FF230320F2F706F9052093
:10134000FAF744FA3C20324600EB8401FF230320E5
:10135000F2F7FBF80520FAF739FA40203A4600EB9D
:101360008401FF230320F2F7F0F8BDE8F0410520E7
:10137000FAF72CBA10B500290AD00878002807D04F
:1013800005487844EFF7A6FC002801D0002010BDE6
:101390000248784410BD0000BE090000B6090000F4
:1013A00010B500290AD00878002807D005487844ED
:1013B000EFF790FC002801D0002010BD02487844CF
:1013C00010BD0000AE090000A609000002494FF060
:1013D000000000F00FB800BF0000F87F4FF0407031
:1013E000E1EE100A70474FF000007047EFF711BEB2
:1013F000F0F7A8B90CF00F03092B08BF082000F084
:101400005F800A2B0BD0082B18BF704708BF1CF059
:10141000400F0AD04FF000004FF0000170471CF061
:10142000400F18BF4FF0004070471CF0100F08D05D
:1014300020F0704300F07F4242EAD3014FEA43704C
:10144000704700F0604021F07F4242EA000201F064
:101450007F4040EA727070474FF0FF0C4CF4E06C34
:101460001CEA11531CBF9CEA030C9445C2BFDA422C
:1014700001EB02517047002B0DD0BCF1000F0FD0D3
:10148000002A01F00041A4BF41F0E04141F07F613A
:101490004FF00000704701F000414FF0000070472E
:1014A00050EA01334FF09B0C18BF4CF0806C7FF476
:1014B0008DAF7047F0F732BFF1F790B8F1F71EBA71
:1014C0001CF4801F11D01CF4E02F03D06FEACC3144
:1014D000490070474FF04050EFF3008222F0704215
:1014E00042EA000282F3008870474FF00000704724
:1014F00000000000010203040102030406070809BA
:10150000010002000400060008000A000C001000A0
:101510002000400080000001000A0000000F0700CA
:10152000C003000040000000400000004000000038
:101530000080020000C0C30100F00000FFFFFFFFB9
:10154000FFFF000000000000000000001C00200061
:101550009C001C001000200018001000100008065D
:10156000040006000A0006000F0005000F00080036
:101570000A000A0003060C1830607800BC1C010841
:10158000E41C0108041D0108C41C0108B01C01086A
:10159000981C0108A41C0108F81C0108D01C0108B3
:1015A000D81C0108EC1C010801020304050607070A
:1015B0000707070707000000B0020024AC02002460
:1015C000B4020024B80200243031323334353637C7
:1015D0003839414243444546403058003031323377
:1015E0003435363738396162636465664030780077
:1015F00004000008000000000000000200010000DC
:10160000100000000000000004FA97999999D93F52
:10161000AF788E1DC571CC3F9FC678D0099AC33F65
:10162000935555555555E53F599322942449D23F3A
:10163000DE03CB966446C73F44523EDF12F1C23F01
:10164000000000000000F03F000000000000F83F34
:1016500000000000000000000000004003B8E23F6E
:10166000000000000000000006D0CF43EBFD4C3E20
:10167000033333333333E33FFFAB6FDBB66DDB3F15
:101680004D268F515555D53F01411DA96074D13F5D
:1016900065DBC9934A86CD3FEF4E454A287ECA3F57
:1016A0003E5555555555C53F93BDBE166CC166BFD9
:1016B0002CDE25AF6A56113FF16BD2C541BDBBBED2
:1016C000D0A4BE726937663E000000000000000032
:1016D000000000000000000030313233343536376E
:1016E0003839616263646566787000303132333452
:1016F000353637383941424344454658500000009A
:1017000002400000000000A00000000005400000B2
:10171000000000C8000000000C4000000000409CD9
:1017200000000000194000000020BCBE00000000C6
:1017300034400000BFC91B8E00000004B54000000B
:10174000504BCFD06607E2CF010000006C41000093
:101750003E8251AADFEEA73401000000D94200000A
:10176000DCB5A0E23A301F97FFFFFFFFB445000051
:10177000FD25A0C8E9A3C14FFFFFFFFFFF3F000009
:101780000000008000000000FF3F0000000000801B
:10179000000000007365745F6E74635F7061726D4A
:1017A0002863683D25642C54313D252E32662C5427
:1017B000323D252E32662C54333D252E32662C5276
:1017C000313D252E32662C52323D252E32662C526A
:1017D000333D252E3266292C204F4B210D0A000067
:1017E0007365745F6E74635F7061726D2863683DCA
:1017F000782C54313D782C54323D782C54333D783C
:101800002C52313D782C52323D782C52333D782980
:101810000D0A00007365745F69705F61646472280B
:1018200070313D782C70323D782C70333D782C70BF
:10183000343D78290D0A00007365745F66616E5F40
:101840006F7574707574287374613D78290D0A0082
:101850007365745F70756D705F6F757470757428E3
:101860007374613D78290D0A000000007365745F90
:101870007465635F6F75747075742863683D782C48
:101880007374613D78290D0A000000006765745F7C
:101890006E74635F7061726D2863683D78290D0A0C
:1018A000000000006765745F6E74635F74656D703F
:1018B0002863683D78290D0A000000007361766591
:1018C0005F7069645F7061726D286B703D782C6B1E
:1018D000693D782C6B643D782C7054656D703D7853
:1018E0002C704F75744D61783D782C704F75744D28
:1018F000696E3D78290D0A007365745F7069645FD5
:101900007061726D286B703D782C6B693D782C6B23
:10191000643D782C7054656D703D782C704F7574F3
:101920004D61783D782C704F75744D696E3D782906
:101930000D0A00007365745F7465635F74656D7094
:101940002863683D782C74656D703D78290D0A0018
:101950007365745F7465635F72616E676528766F27
:101960006C743D782C637572723D78290D0A000005
:101970007365745F6461635F766F6C742863683D40
:10198000782C766F6C743D78290D0A00736176654A
:101990005F7069645F7061726D286B703D252E35D4
:1019A000662C6B693D252E35662C6B643D252E35E6
:1019B000662C7054656D703D252E33662C704F7506
:1019C000744D61783D252E33662C704F75744D69CA
:1019D0006E3D252E3366292C4F4B0D0A000000006A
:1019E0007365745F7069645F7061726D286B703DC0
:1019F000252E35662C6B693D252E35662C6B643D96
:101A0000252E35662C7054656D703D252E33662C61
:101A1000704F75744D61783D252E33662C704F756F
:101A2000744D696E3D252E3366292C4F4B0D0A00EF
:101A30006765745F7069645F7061726D0D0A0000A4
:101A400076657273696F6E0D0A00000068656C70D0
:101A50000D0A00007365745F6D63755F656E746574
:101A6000725F626F6F746C6F616465720D0A000063
:101A7000252A5B5E3D5D3D255B5E2C5D252A5B5E18
:101A80003D5D3D255B5E2C5D252A5B5E3D5D3D2514
:101A90005B5E2C5D252A5B5E3D5D3D255B5E2C5DBE
:101AA000252A5B5E3D5D3D255B5E2C5D252A5B5EE8
:101AB0003D5D3D255B5E295D00000000252A5B5EE3
:101AC0003D5D3D255B5E2C5D252A5B5E3D5D3D25D4
:101AD0005B5E2C5D252A5B5E3D5D3D255B5E2C5D7E
:101AE000252A5B5E3D5D3D255B5E2C5D252A5B5EA8
:101AF0003D5D3D255B5E2C5D252A5B5E3D5D3D25A4
:101B00005B5E2C5D252A5B5E3D5D3D255B5E2C5D4D
:101B1000000000007365745F7465635F72616E67D7
:101B2000650000006765745F6E74635F7061726D5D
:101B3000000000007365745F6E74635F7061726DA6
:101B400000000000736176655F7069645F706172A8
:101B50006D0000006765745F7069645F7061726D2D
:101B6000000000007365745F7069645F7061726D7E
:101B70000000000076657273696F6E0068656C70B6
:101B8000000000007365745F7465635F74656D7059
:101B9000000000006765745F6E74635F74656D704C
:101BA000000000007365745F69705F6164647200B7
:101BB0007365745F6D63755F656E7465725F626F88
:101BC0006F746C6F61646572000000007365745F10
:101BD0006461635F766F6C74000000007365745F0E
:101BE0007465635F6F757470757400007365745FFE
:101BF00066616E5F6F757470757400007365745FF5
