:020000040800F2
:1000000090070020CD0100089D120008131200087F
:100010009912000899020008251500080000000048
:10002000000000000000000000000000C9120008ED
:100030009D020008000000009F1200082113000824
:10004000E7010008E7010008E7010008E7010008F0
:10005000E7010008E7010008E7010008E7010008E0
:10006000E7010008E7010008E7010008E7010008D0
:10007000E7010008E7010008E7010008E7010008C0
:10008000E7010008E7010008E7010008E7010008B0
:10009000E7010008E7010008E7010008E7010008A0
:1000A000E7010008E7010008E7010008E701000890
:1000B000E7010008E7010008E7010008E701000880
:1000C000E7010008E7010008E7010008E701000870
:1000D000E7010008E5140008E7010008E70100084F
:1000E000E7010008E7010008E7010008E701000850
:1000F000E7010008E7010008E7010008E701000840
:10010000E7010008E7010008E7010008E70100082F
:10011000E7010008E7010008E7010008E70100081F
:10012000E7010008E7010008E7010008E70100080F
:1001300000F002F800F03AF80AA090E8000C8244BF
:100140008344AAF10107DA4501D100F02FF8AFF29C
:10015000090EBAE80F0013F0010F18BFFB1A43F0A5
:10016000010318474427000064270000103A24BF09
:1001700078C878C1FAD8520724BF30C830C144BF0C
:1001800004680C607047000000230024002500264E
:10019000103A28BF78C1FBD8520728BF30C148BFEA
:1001A0000B6070471FB51FBD10B510BD00F046F8BD
:1001B0001146FFF7F7FF01F043FD00F064F803B4C8
:1001C000FFF7F2FF03BC01F0FFFC00000948804785
:1001D00009480047FEE7FEE7FEE7FEE7FEE7FEE729
:1001E000FEE7FEE7FEE7FEE704480549054A064B41
:1001F0007047000029130008310100089001002019
:100200009007002090030020900300207047704763
:1002100070477047704710B500F008F8006810BDCF
:1002200010B5044600F002F8046010BD00487047A5
:100230002C010020004870472C0100207546FFF774
:10024000F9FFAE4605006946534620F00700854693
:1002500018B020B5FFF7C8FFBDE820404FF00006FA
:100260004FF000074FF000084FF0000B21F007019E
:10027000AC46ACE8C009ACE8C009ACE8C009ACE8E1
:10028000C0098D46704710B50446AFF30080204684
:10029000BDE81040FFF793BF00BFFEE770470000C6
:1002A00070B50446002594F82100022803D00420EC
:1002B000A0630125C1E02068006820F00E002168DD
:1002C00008602068006820F00100216808605C492F
:1002D0002068884252D95A4978392068884201D129
:1002E000012047E0564964392068884201D1102036
:1002F00040E0534950392068884201D1801539E0E7
:100300004F493C392068884201D1801432E04C4981
:1003100028392068884202D14FF480302AE04849C9
:1003200014392068884202D14FF4801022E04449F9
:100330002068884201D140041CE04249206888427C
:1003400001D1012016E03F4914312068884201D1D3
:1003500010200FE03B4928312068884201D18015E8
:1003600008E038493C312068884201D1801401E01E
:100370004FF480303349091F086051E03049783923
:100380002068884201D1012047E02D496439206866
:10039000884201D1102040E0294950392068884224
:1003A00001D1801539E026493C392068884201D1C5
:1003B000801432E0224928392068884202D14FF463
:1003C00080302AE01E4914392068884202D14FF457
:1003D000801022E01A492068884201D140041CE0C4
:1003E00018492068884201D1012016E015491431CE
:1003F0002068884201D110200FE01249283120687E
:10040000884201D1801508E00E493C3120688842BD
:1004100001D1801401E04FF48030094980394860EF
:10042000012084F8210000BF002084F8200000BFD4
:10043000606B10B12046616B8847284670BD000094
:1004400080000240080402402DE9F84702460023DC
:100450009C467BE14FF0010808FA03F4D1F80080D4
:1004600008EA0400A0427DD1DFF8F4A2D1F80480AC
:10047000A8EB0A09D0453AD014DCB8F1030F50D0EC
:1004800009DCB8F1000F31D0B8F1010F1CD0B8F180
:10049000020F49D120E0B8F1110F18D0B8F1120FB6
:1004A00042D11EE0B9F5881F25D006DCB9F5803FA2
:1004B00020D0B9F5801F37D11AE0B9F5001F18D048
:1004C000B9F5041F30D117E0D1F80CC02DE0D1F8F8
:1004D0000C8008F1040C28E0D1F80C8008F1080C1D
:1004E00023E0D1F80C8008F10C0C1EE000BF00BF27
:1004F00000BF00BF00BF00BFD1F80880B8F1000FF7
:1005000002D14FF0040C0BE0D1F80880B8F1010FD4
:1005100003D14FF0080C146102E04FF0080C546155
:1005200003E04FF0000C00E000BF00BFFF2801D83F
:10053000904601E002F104084646FF2802D84FEA3F
:10054000830803E0A3F108084FEA88084746D6F875
:1005500000804FF00F0909FA07F928EA09080CFA98
:1005600007F900E07AE048EA0908C6F80080D1F807
:10057000048008F08058B8F1805F6FD100BFDFF8C9
:10058000E481D8F8188048F00108DFF8D891C9F85C
:100590001880C846D8F8188008F00108CDF8008007
:1005A00000BF00BF4FEAB9384FEA930958F8295005
:1005B0004FEA83784FEA18794FF00F0808FA09F8E4
:1005C00025EA0805DFF8A081424502D14FF0000876
:1005D00024E0DFF89881424502D14FF001081DE088
:1005E000DFF88C81424502D14FF0020816E0DFF8B7
:1005F0008481424502D14FF003080FE0DFF8788193
:10060000424502D14FF0040808E0DFF8708142450E
:1006100002D14FF0050801E04FF006084FEA837958
:100620004FEA197908FA09F848EA0505DFF8508118
:100630004FEA930948F82950D1F8048008F480382B
:10064000B8F5803F0BD1DFF83C81D8F8008048EA4C
:100650000008DFF83091C9F800800AE075E0DFF8A3
:100660002481D8F8008028EA0008DFF81891C9F83A
:100670000080D1F8048008F40038B8F5003F0ED1AE
:10068000DFF8008108F10408D8F8008048EA000883
:10069000DFF8F09009F10409C9F800800DE0DFF8F7
:1006A000E48008F10408D8F8008028EA0008DFF8A0
:1006B000D49009F10409C9F80080D1F8048008F445
:1006C0008018B8F5801F0ED1DFF8B88008F108084F
:1006D000D8F8008048EA0008DFF8A89009F1080976
:1006E000C9F800800DE0DFF89C8008F10808D8F810
:1006F000008028EA0008DFF88C9009F10809C9F8A1
:100700000080D1F8048008F40018B8F5001F0ED15D
:10071000DFF8708008F10C08D8F8008048EA00087B
:10072000DFF8609009F10C09C9F800800DE0DFF8EE
:10073000548008F10C08D8F8008028EA0008DFF897
:10074000449009F10C09C9F800805B1CD1F80080C5
:1007500028FA03F8B8F1000F7FF47CAEBDE8F88703
:10076000000011100010024000080140000C014080
:10077000001001400014014000180140001C01401D
:1007800008000140000401400AB1016101E00B04CE
:1007900003617047014800687047000004000020B2
:1007A0000348006803490978084401490860704714
:1007B000040000200C00002010B50848006840F03C
:1007C000100006490860052000F070F80F2000F0C6
:1007D00007F800F02BF8002010BD000000200240B8
:1007E00070B504460E4800784FF47A71B1FBF0F012
:1007F0000C490968B1FBF0F5284600F0C1FB08B1CF
:10080000012070BD102C07D200222146501E00F09E
:100810000EF80548046001E00120F2E70020F0E74F
:100820000C000020000000200800002070472DE987
:10083000F05F80460D461646002700F089FE074609
:1008400039462A46334601F00700C0F1070ABAF1DB
:10085000040F02D94FF0040A01E0C0F1070AD146A3
:1008600000F1040ABAF1070F02D24FF0000A01E0CA
:10087000A0F1030AD4464FF0010A0AFA09FAAAF1D4
:10088000010A0AEA020A0AFA0CFA4FF0010B0BFA03
:100890000CFBABF1010B0BEA030B4AEA0B042146FC
:1008A000404600F05DFEBDE8F09F000000BF00F094
:1008B0000702064B19684FF6FF031940044B0B4320
:1008C00043EA0221014B196000BF70470CED00E0C4
:1008D0000000FA0570B504460D460CB9012070BD44
:1008E0005A48006800F00700A8420ED25748006836
:1008F00020F007002843554908600846006800F0CA
:100900000700A84201D00120E9E7207800F00200AA
:1009100002281DD1207800F00400042805D14C489D
:10092000406840F4E0604A494860207800F00800E0
:10093000082805D14648406840F460504449486062
:100940004348406820F0F000A168084340494860EF
:10095000207800F0010078B36068012806D13C4897
:10096000006800F4003090B90120B8E76068022800
:1009700006D13748006800F0007040B90120AEE7AA
:100980003348006800F0020008B90120A7E73048AA
:10099000406820F00300616808432D494860FFF774
:1009A000F9FE064609E0FFF7F5FE801B41F28831AB
:1009B000884202D9032092E707E02548406800F00A
:1009C0000C006168B0EB810FEDD12048006800F0A9
:1009D0000700A8420ED91D48006820F007002843F0
:1009E0001A4908600846006800F00700A84201D0D4
:1009F000012074E7207800F00400042807D114488F
:100A0000406820F4E060E1680843114948602078BC
:100A100000F00800082808D10D48406820F4605014
:100A2000216940EAC1000A49486000F019F8084904
:100A30004968C1F30311074A515CC8400649086080
:100A400006480068FFF7CCFE002048E7002002407F
:100A5000001002406E27000800000020080000205F
:100A6000F0B585B00FF26C0C9CE8E01001A8A0E88E
:100A7000E0101CA52D680095002100220023002411
:100A80000020194D696801F00C05F5B1042D02D064
:100A9000082D19D101E0154819E001ADC1F38346D5
:100AA000AC5D01F4803555B10F4D6D68C5F340451F
:100AB0001DF805200D4D6543B5FBF2F302E00C4D2A
:100AC00004FB05F3184602E000BF084800BF00BF62
:100AD00005B0F0BD02030405060708090A0B0C0D5A
:100AE0000E0F1010010200000010024000127A00E8
:100AF00000093D00F8B504460CB90120F8BD207886
:100B000000F00100002878D0F848406800F00C00A0
:100B100004280CD0F548406800F00C00082811D1DA
:100B2000F248406800F48030B0F5803F0AD1EF48C9
:100B3000006800F4003000285FD0606800285CD1B5
:100B40000120DBE700BF6068B0F5803F06D1E748D1
:100B5000006840F48030E549086028E0606858B9D2
:100B6000E248006820F48030E049086008460068E8
:100B700020F4802008601AE06068B0F5A02F0BD147
:100B8000DA48006840F48020D849086008460068C8
:100B900040F4803008600AE0D448006820F48030D7
:100BA000D24908600846006820F48020086000BF31
:100BB000606888B1FFF7EEFD054606E0FFF7EAFD45
:100BC000401B642801D9032098E7C848006800F456
:100BD00000300028F2D010E0FFF7DCFD054606E00B
:100BE000FFF7D8FD401B642801D9032086E7BF48E2
:100BF000006800F400300028F2D1207800F00200F4
:100C0000022857D1B948406800F00C0050B1B748ED
:100C1000406800F00C00082818D1B448406800F47F
:100C2000803098B9B148006800F0020020B1206916
:100C3000012801D0012061E7AC48006820F0F800ED
:100C4000616940EAC100A949086033E02069E8B160
:100C50000120A7490860FFF79DFD054606E0FFF764
:100C600099FD401B022801D9032047E79F480068EF
:100C700000F002000028F2D09C48006820F0F80044
:100C8000616940EAC1009949086013E00020984971
:100C90000860FFF77FFD054606E0FFF77BFD401B80
:100CA000022801D9032029E79048006800F00200DB
:100CB0000028F2D1207800F0080008282DD1A06982
:100CC000B8B101208B490860FFF764FD054606E0D6
:100CD000FFF760FD401B022801D903200EE783487F
:100CE000406A00F002000028F2D0012000F0D8FA9B
:100CF00013E000207F490860FFF74CFD054606E041
:100D0000FFF748FD401B022801D90320F6E677488B
:100D1000406A00F002000028F2D1207800F00400C0
:100D2000042873D100277148C06900F0805070B961
:100D300000BF6E48C06940F080506C49C8610846E9
:100D4000C06900F08050009000BF00BF01276A48D2
:100D5000006800F48070B0B96748006840F48070A3
:100D600065490860FFF716FD054606E0FFF712FD2E
:100D7000401B642801D90320C0E65F48006800F4E6
:100D800080700028F2D000BFE068012806D15748E3
:100D9000006A40F001005549086227E0E06858B950
:100DA0005248006A20F00100504908620846006A73
:100DB00020F00400086219E0E06805280BD14B48D8
:100DC000006A40F00400494908620846006A40F0A1
:100DD000010008620AE04548006A20F0010043492A
:100DE00008620846006A20F00400086200BFE0685C
:100DF000A0B1FFF7CFFC054609E0FFF7CBFC401B95
:100E000041F28831884202D9032077E622E0374850
:100E1000006A00F002000028EFD012E0FFF7BAFCF1
:100E2000054608E0FFF7B6FC401B41F288318842D6
:100E300001D9032062E62D48006A00F00200002874
:100E4000F0D1012F05D12948C06920F080502749F1
:100E5000C86100BFE069C8B32448406800F00C00D6
:100E6000082860D0E069022848D10020204908669F
:100E7000FFF790FC054606E0FFF78CFC401B0228BC
:100E800001D903203AE61948006800F000700028F4
:100E9000F2D1206AB0F5803F07D11448406820F4B1
:100EA0000030A168084311494860D4E908010843AB
:100EB0000E49496821F4741108430C494860012027
:100EC0000B490866FFF766FC054607E03DE0FFF7C3
:100ED00061FC401B022801D903200FE6034800688B
:100EE00000F000700028F2D02FE000000010024057
:100EF0000000424280044242007000400020144939
:100F00000866FFF747FC054606E0FFF743FC401B79
:100F1000022801D90320F1E50E48006800F00070B6
:100F20000028F2D111E0E069012800D1E6E5094886
:100F3000466806F48031206A814204D106F47011BB
:100F4000606A814201D00120D8E50020D6E500008A
:100F50000000424200100240042808D14FF0E02176
:100F6000096941F004014FF0E022116107E04FF000
:100F7000E021096921F004014FF0E022116170477E
:100F800070B504462546681EB0F1807F01D301206C
:100F90000FE0681E4FF0E02148610F214FF0FF3055
:100FA00000F0DEFA00204FF0E021886107200861A0
:100FB000002070BD704701460022002391F83920BF
:100FC00091F83A3042EA0300704700002DE9F047FB
:100FD0000446206805682068C668206847694FF0A5
:100FE0000008C14605F00F08B8F1000F0AD105F05E
:100FF000200038B106F0200020B1204600F0EAF9C8
:10100000BDE8F087B8F1000F6DD007F0010018B906
:1010100006F49070002866D005F0010030B106F4A7
:10102000807018B1E06B40F00100E06305F004004F
:1010300030B107F0010018B1E06B40F00200E0634E
:1010400005F0020030B107F0010018B1E06B40F08C
:101050000400E06305F0080030B107F0010018B1AA
:10106000E06B40F00800E063E06B68B305F020003F
:1010700028B106F0200010B1204600F0ABF920683E
:101080004069C0F38019E06B00F0080010B9B9F1B5
:10109000000F22D0204600F07DF92068406900F062
:1010A0004000B0B12068406920F0400021684861EC
:1010B000606B50B11748616B4863606BFFF7F0F8E5
:1010C00010B1606B416B88470CE02046FFF772FF60
:1010D00008E02046FFF76EFF04E02046FFF76AFFB6
:1010E0000020E0638CE705F0800030B106F080005E
:1010F00018B1204600F0C1F982E705F0400030B198
:1011000006F0400018B1204600F054F978E700BF1F
:1011100076E700008113000810B5034693F83A0003
:1011200020282FD101B10AB9012010BD00BF93F8CA
:101130003800012801D10220F7E7012083F83800A8
:1011400000BF99629A85DA850020D863222083F84F
:101150003A0000BF002083F8380000BF1868C0685C
:1011600040F480701C68E0601868406940F001003D
:101170001C6860611868C06840F020001C68E0606E
:101180000020D2E70220D0E71D4A0168914236D103
:101190001C49098801F4004189BB1A49098801F4F6
:1011A000804171B1184909780A2903D00021154AF4
:1011B000118024E01349098841F40041114A11804B
:1011C0001DE0114909780D2906D10E49098841F41D
:1011D00080410C4A118012E00B490978094A1288B3
:1011E000C2F30D02094B995406490988491C054A66
:1011F000118011460988C72901DD0021118070473F
:1012000000380140180000201A00002024000020AF
:10121000704700BFFEE7000000B585B000BF1B4867
:10122000806940F00800194988610846806900F02B
:101230000800009000BF00BF00BF0846806940F072
:10124000400088610846806900F04000009000BFBF
:1012500000BF202001900120029003900320049001
:1012600001A90B48FFF7F0F82020019001A90948D7
:10127000FFF7EAF8012220210548FFF785FA01224D
:1012800020210448FFF780FA05B000BD001002409D
:10129000000C01400018014000BFFEE77047704796
:1012A00008B508490968C9084FF47A72B1FBF2F130
:1012B0004143009100BF00BF00994A1E00920029DF
:1012C000F9D108BD00000020704730B58FB0054649
:1012D00000240120059000040690002007900220C1
:1012E0000C90C1030D910E9505A8FFF703FC044671
:1012F0000CB100BFFEE70F200090022001900020FB
:1013000002904FF480600390002004900221684610
:10131000FFF7E0FA04460CB100BFFEE70FB030BDA6
:1013200010B5FFF73DFA10BD1148006840F001000C
:101330000F490860084640680E4908400C4948605B
:10134000084600680C4908400949086008460068DA
:1013500020F4802008600846406820F4FE004860C1
:101360004FF41F008860C8030449086070470000FC
:10137000001002400000FFF8FFFFF6FE08ED00E05D
:1013800070B505466C6A0020E085E0842046FFF7D2
:1013900011FE70BD0168C96821F490710268D160C6
:1013A0000168496921F0010102685161202180F83A
:1013B0003A10704710B504462068C06820F040001D
:1013C0002168C860202084F839002046FFF720FFFC
:1013D000002010BD70B5044694F83A0022284AD186
:1013E000A068B0F5805F13D1A56A206940B9206874
:1013F0004068C0F308002880A06A801CA06219E041
:1014000020684068C0B22880A06A401CA06211E039
:10141000206938B920684068C1B2A26A501CA06235
:10142000117007E02068406800F07F01A26A501C3C
:10143000A0621170E08D401E80B2E085C8B92068BE
:10144000C06820F020002168C8602068C06820F4CF
:1014500080702168C8602068406920F00100216820
:101460004861202084F83A002046FFF78DFE0020D6
:1014700070BD0020FCE70220FAE7014691F8390030
:1014800021282CD18868B0F5805F0FD10A6A1088B6
:10149000C0F308000B685860086918B9086A801C16
:1014A000086209E0086A401C086205E00B6A581CE3
:1014B000086218780B685860C88C401E80B2C884D7
:1014C00058B90868C06820F080000B68D8600868C8
:1014D000C06840F040000B68D860002070470220D0
:1014E000FCE7000010B500240C48FFF76FFD00BFBB
:1014F00001E0641C00BF0948FFF75DFD2028F8D11A
:1015000000BF002401E0641C00BF0122044903481D
:10151000FFF702FE0028F6D100BF10BDEC0000204E
:101520001A00002000BFFEE7490050EAC12018BFA2
:1015300004204A0D18BF40F0010040F2FF72B2EBE8
:10154000515F08BF40F00200012808BF0520704726
:1015500002480068C0F30220704700000CED00E074
:1015600010B5002804DB0A07130E054A135406E0E1
:101570000A07140E034A00F00F031B1FD45410BDBA
:1015800000E400E018ED00E02DE9F74F144694B0B8
:101590000021C4E902111599079121F00045C949BC
:1015A0008D4206DC1599C4E9000117B00020BDE8A2
:1015B000F08FC549DFF814A3A9423CDD0799C44E5A
:1015C0000029C44FC44A1599534619DD00F068FF3D
:1015D000554506D0C14AC24B00F062FFC4E9000184
:1015E0000AE04FF0D352BE4B00F05AFF32463B4662
:1015F00000F056FFC4E9000117B00120BDE8F08FEC
:1016000000F0E2FB554506D0B44AB54B00F0DCFBD8
:10161000C4E900010AE04FF0D352B14B00F0D4FB13
:1016200032463B4600F0D0FBC4E9000117B04FF052
:10163000FF30BDE8F08FAB49A942159978DB21F066
:10164000004183468846A84AA84B00F01FFE0022AE
:10165000A74B00F0B9FB00F0BFFD099000F0EBFDD7
:1016600006460F469C4A534600F010FE43465A4633
:1016700000F00AFF80468A46984A994B3046394620
:1016800000F004FE2A0D01250B924246534600F05D
:10169000FBFE032DC4E9000139D00B98C1F30A51B8
:1016A000401A05EB45111139814230DA9148C346A1
:1016B000784400EB0510CDF80CA00C90D0E9002385
:1016C0003046394600F0E2FD02460B460491069092
:1016D0005846039900F0E4FE80468A4602460B46CF
:1016E0005846039900F0DCFE049B069A00F0D8FEF1
:1016F00083460C9803913946D0E90223304600F026
:10170000C5FD5A46039B00F0CBFE6D1CBDE7079854
:101710000028A2BF099817B0BDE8F08F616881F07A
:1017200000416160099817B04042BDE8F08FFFE7C3
:1017300084461598C1F31301C0F30A50A0F2F530A6
:101740004FEA601800F01F06C6F120001390002039
:101750000690079041F4801E05206D4676B1664ADA
:1017600008EB00017A4452F8213002EB8101B340CA
:101770004A68139922FA01F1194305E05F4908EB21
:101780000002794451F82210A1FB0E27A1FB0C1393
:101790001A449A4234BF0123002303EB070A05EBE6
:1017A0008003D3E901B70F448F4234BF01210021E8
:1017B00093448B4411B1934502D903E0934501D280
:1017C000012100E00021C3E901B7514445F8201090
:1017D000011EA0F10100C1DC0298059F00F100503C
:1017E000800F12900298DDE90356800000F023FD7F
:1017F000834628460D9100F035FD6FF01D0200F084
:1018000070FFCDE90E01304600F02CFD6FF03D0277
:1018100000F067FF80468A46384600F023FD6FF0EF
:101820005D0200F05EFF074642465346119100F00C
:10183000CBFADDE90E2300F0C7FA5A460D9B00F003
:10184000C3FA00250E465A4628460D9B00F028FE96
:10185000DDE90E2300F024FE4246534600F020FE50
:101860003A46119B00F010FEDFF898A0244A534638
:1018700000F00CFD07468846234A244B3146284693
:1018800000F004FD3A46434600F09EFA07468846BB
:101890004FF0A84253463146284600F0F7FC3A463E
:1018A000434600F091FA159A12F0004F04D0129AB4
:1018B00081F0004152421292C4E90001129817B01F
:1018C000BDE8F08FFB21E93F7CD90240FB21F93FC5
:1018D0007370032E8A19A33B000040543163621ACF
:1018E00061B4D03DFB21394183C8C96D305FE43F0D
:1018F0000000E03F041100008010000062100000B2
:10190000182D4454FB21F93D3326A611460B113CFA
:101910002DE9FF4D21F0004807460C46B8F1795FEC
:1019200008DA00F059FC002801BF0020324904B059
:10193000BDE8F08D3A4623461046194600F0A6FC55
:10194000054602462D480E460B460621784400F017
:101950005DF82A46334600F099FCDDE90223824611
:101960008B463846214600F091FC04460F4652460D
:101970005B462846314600F089FC22463B4600F093
:101980008FFD07468A464FF0FF322846314600F069
:10199000A8FE1B4A90450ADA3A46534600F080FDFD
:1019A00004B00022BDE8F04D134B00F06DBD154AA8
:1019B0004245A8BFA8F500154FF00004B8BF124D6E
:1019C00022462B4600F06CFD0646884622462B46F2
:1019D0000020094900F064FD04460D463A4653468E
:1019E0003046414600F05CFD04B022462B46BDE87F
:1019F000F04D00F049BD00000000F03F380E00003F
:101A00003333D33F0000E93F0000D23F2DE9F041DE
:101A10004F1E00EBC7010446D1E9000115461E46E2
:101A200037F006020DD02A46334600F02FFC7F1E09
:101A300004EBC703D3E9002300F0C6F937F0060230
:101A4000F1D1022F25D0042F13D0062F18BFBDE8E7
:101A5000F0812A46334600F019FCD4E90A2300F04D
:101A6000B3F92A46334600F011FCD4E9082300F00C
:101A7000ABF92A46334600F009FCD4E9062300F00E
:101A8000A3F92A46334600F001FCD4E9042300F010
:101A90009BF92A46334600F0F9FBD4E9022300F013
:101AA00093F92A46334600F0F1FBD4E90023BDE860
:101AB000F04100F089B900002DE9FF4D054621F005
:101AC000004084B00C46B0F1795F0BDA2846FFF78E
:101AD0002BFD042808BF00F06FF8284608B0214607
:101AE000BDE8F08D2A460B46104600F0CFFB0646B7
:101AF0000F462A46234600F0C9FB804626488A4600
:101B000032463B4605217844FFF780FF8346109814
:101B1000029160B3214A224B4046514600F0B6FB89
:101B2000CDE900015A4640465146029B00F0AEFB0B
:101B300082468846DDE906014FF0FF3200F0D1FD14
:101B40005246434600F0ACFC32463B4600F09EFB5A
:101B5000DDE9062300F0A4FCDDE9002300F0A0FC91
:101B600008B02A462346BDE8F04D00F08DBC0B4678
:101B70005A463046394600F089FB084A084B00F0C7
:101B800023F94246534600F081FB08B02A4623461B
:101B9000BDE8F04D00F018B9760D000049555555D7
:101BA0005555C5BF012200F09CBD002213461046CA
:101BB000114600F0B9B90000024A0020110700F0F8
:101BC00090BD000001FDFFFF00BF704710B5044647
:101BD0000420FFF7C1F90148046010BD1000002087
:101BE00030B50446002504E04FF47A7000F004F8A4
:101BF0006D1CA542F8D330BD70B5034600224FF0EE
:101C0000E02675690D4E366803FB06F44FF0E026BA
:101C1000B16910E04FF0E026B06988420BD08842ED
:101C200002D20E1A324402E02E1A0E443244014609
:101C3000A24200D300E0EDE700BF70BD100000201D
:101C4000FEF7BAFD4FF4E010FFF73FFB4820FFF727
:101C5000BDFFFFF7E1FA01E000F052F8FCE70000F9
:101C600000B5254B21F0004287B09A4203DC0022E8
:101C7000134600922BE0214B9A4208D140B94FF015
:101C80000100FEF7CDFAFFF790FF07B000BD03DBC0
:101C9000FFF788FF07B000BD02AAFFF775FC10F040
:101CA00003014FF001000DD0012914D002291AD0F0
:101CB0000DF1080C9CE80F00FFF72AFE07B081F039
:101CC000004100BD0DF1080C00909CE80F00FFF7EB
:101CD000F3FE07B000BD0DF1080C9CE80F00FFF704
:101CE00017FE07B000BD0DF1080C00909CE80F0036
:101CF000FFF7E2FEE2E70000FB21E93F0000F07F92
:101D00001CB500BF114908680968491C0F4B1960D0
:101D100000F0A8FA804600220D4B00F005F90646B7
:101D20000C4A0D4B00F0B2FA0446FFF799FF8246C9
:101D300000220A4B00F0AAFACDE9000100F012F8E7
:101D4000074908601420FFF74BFFDBE72000002065
:101D500000C062406F1283C0CA2109400000594090
:101D60001C00002021F00042A2F16052B2F5801F59
:101D700001F0004328BFD2F17F6C0BD95FEA001C51
:101D800043EAC20242EB507018BF704728BF20F0F0
:101D900001007047B2F5801FBCBF184670474FEA7C
:101DA000410C1CF5001F02D2084600F063BC70B560
:101DB00000F016FB00000089FFF7F6BF4FF000406F
:101DC000A0F580007047000010B591EA030F48BFEE
:101DD00083F0004300F16C83841A71EB030C05D28D
:101DE000121943EB0C03001B61EB0C01DFF824E13B
:101DF0004FEA1154A4EB135C1EEA430F18BF9EEA8E
:101E0000445F73D023EA0E03DCF1200E21EA045173
:101E100043F4801332D322FA0CFE10EB0E0023FAA7
:101E20000CFE41EB0E01CCF1200E03FA0EFE10EB7E
:101E30000E0051F10001B1F5801FCCF1200E32D21D
:101E400001EB045112FA0EF2BDE8104058BF704782
:101E5000401C38BF5FEA420218BF7047002814BF19
:101E600020F0010041F100014FEA410313F5001F8A
:101E700038BF7047A1F1C04100F000BB012A43EB1D
:101E80000302ACF1200CDCF11F0E32BF4FF0000E4C
:101E900023FA0CF310EB030041EB0451B4EB115F98
:101EA000D0D0A1EB045101F5801149085FEA300060
:101EB00001EB04510ED350F1000038BF12FA0EFEB0
:101EC00008D1BDE81040C9E7401C38BF5FEA4202B4
:101ED000CAD1C3E7BDE810404FEA410313F5001F24
:101EE00038BF7047A1F1C04100F0C8BA9EEA445F14
:101EF00008D011EA5E0FBDE8104004BF01F00041B8
:101F000000207047BDE8104070B500F069FA00BFCE
:101F100064FBBE3E0000E0FF02494FF0000000F00D
:101F2000AEBB00BF0000F87F2DE9C04130B4DFF840
:101F3000A0C23CEA111418BF3CEA131400F0EC8074
:101F400081EA03051CEA111444EAD57418BF1CEA9F
:101F5000131500F0C780A4EB05044FF0004545EAD7
:101F6000C12145EAC32341EA505143EA525304F1E7
:101F70007F74994204F500344FEAC0204FEAC22230
:101F800008BF904200F09C804FEA13650FF24016A4
:101F9000765D4FEA134506FB05F7C7F1807706FB30
:101FA00007F74FEAD737A7FB03687642C8F58038B2
:101FB000A7FB06CE38BFA8F1010807FB08E64FF0E3
:101FC000000EA6FB028CE6FB03CEDCF1000CCEF18A
:101FD000004E38BFAEF1010EA6FB0C584FF00007C3
:101FE0004FF00005E6FB0E87A1FB08C6A0FB07CE5D
:101FF00016EB0E0645F10005E1FB076515F1E04E15
:102000007EBFA4F580345FEA46066D4116F1800775
:1020100045F100054FEA17274FEA066647EA0567CC
:10202000A6F1DE46B6F1805F4FEA15251FD9384686
:1020300024F0010C05EBC471BCF1FE6F01EB0C1137
:1020400002D8F0BCBDE8008124425CBF01F5801ECF
:102050009EEAC47F02D4F0BCBDE80081244238D49B
:10206000F0BCA1F1C041BDE8004100F007BA4FEA61
:10207000D22242EA43524FEAD323A7FB02864FEA19
:10208000D02040EA415007FB03661EEA0E0F4FEADC
:10209000D12105FB026658BFA6EB0056B6EB0056F1
:1020A0004FEA520E4EEAC37E18EB0E0E56EB530E5D
:1020B000BDD518EB02085E417F1C55F10005B6E75F
:1020C0004FF480154FF000074FF000064FF0000866
:1020D000ADE7F0BC4FF0000001F1C04101F000415C
:1020E000BDE8008111EA0C1F0CEA131500D00CE0CA
:1020F00013EA0C1F00F025804FF00000F0BC81EACD
:10210000030101F00041BDE80081F0BCBDE80041E1
:1021100081EA030100F0B2B9F0BCBDE8004170B53E
:1021200000F05EF9097EFC3E00F007B881EA030189
:102130004FF0000001F00041704781EA030100F018
:102140009DB9F0BCBDE800414FF000002149704747
:10215000FFFDFBF9F7F5F4F2F0EEEDEBE9E8E6E46C
:10216000E3E1E0DEDDDBDAD8D7D5D4D3D1D0CFCDF3
:10217000CCCBCAC8C7C6C5C4C2C1C0BFBEBDBCBB2C
:10218000BAB9B8B7B6B5B4B3B2B1B0AFAEADACAB27
:10219000AAA9A8A8A7A6A5A4A3A3A2A1A09F9F9E01
:1021A0009D9C9C9B9A9999989797969595949393B3
:1021B000929191908F8F8E8E8D8C8C8B8B8A89894A
:1021C00088888787868585848483838282818180CD
:1021D0000000FF070000F87F4FEA41034FEA535326
:1021E000A3F58063D3F11E03C8BFD3F1210C0CDD2E
:1021F0004FF0004242EAC12242EA505232FA03FC56
:102200008CEAE17CACEBE1707047102BC4BF00207E
:10221000704703F5787CBCF1FF3F04D06FF00042BB
:1022200082EA2100704770B500F0DAF84992248004
:1022300000207047F2E710F0004248BF4042B0FA79
:1022400080F310FA03F10AD0C3F11D0303F5806394
:102250004FEA415002EB035202EBD12170474FF09D
:1022600000007047B0FA80F310FA03F10AD0C3F10E
:102270001D0303F580634FEA41504FEA035202EB1E
:10228000D12170474FF0000070470000DFF848C1CF
:1022900070B51CEA111E1EBF1CEA13159EEA0C0F36
:1022A00095EA0C0F00F06F8081EA030423EA4C13D7
:1022B0004EEAD47E21EA4C1141F4801143F480139C
:1022C000AE44A1FB024CA0FB0365AEF17F7E361944
:1022D00055EB0C05A1FB034C4CF10003A0FB021CC9
:1022E00016EB0C06654153F10003094218BF46F096
:1022F000010613F4007F0BD14FEA03314FEA05309A
:10230000340341EA155140EA16506FF003020AE027
:102310004FEAC3214FEAC520F40241EA555140EA91
:1023200056506FF0020202EB2E4201EB025585EA95
:10233000CE710AD05FEA440C18BF24F0004450F17B
:10234000000041F1000120EAD47040F2FE7C6245B9
:1023500000D270BDA84214BF4FF080444FF04044FB
:10236000002E08BF0024BEF1806FA8BFA1F1C041BC
:10237000BDE8704080F282804FF0000001F1C04162
:1023800001F0004170479EEA0C0F0CEA131518BFCC
:1023900095EA0C0F06D04FF0000081EA030E0EF014
:1023A000004170BD00F01CF88900013E00F007B844
:1023B00000F009B84FEA430C5FEA5C5C08D081EAA0
:1023C000030100F05BB84FEA410C5FEA5C5CF6D1B8
:1023D0004FF00000014970470000FF070000F87F40
:1023E0000EF1020E2EF0030E5EF8046B364205D499
:1023F000012A43EB030515F5001F12D8012841EB14
:10240000010C1CF5001F0CD80ED14FEAD17C15F53C
:10241000001F0CEB4C0C0CF1020C08BF4CEBD37CF6
:1024200004E04FF0080C01E04FEAD37C0CEB4C05C4
:1024300026FA05F606F00706B6F1040C06D20EEBF6
:10244000860CBDE870404CF0010C6047DFE80CF0F2
:10245000090B02024FF000414FF00000A1F50021EE
:1024600070BD19461046012851EB010418BFD4F580
:10247000001484BF002001F0004170BD0808A0F5E1
:1024800000114FEA3101704791EA030F10B581F056
:1024900000413FF5A1AC83F0004300F009B8000013
:1024A00010B591EA030F48BF83F000433FF594ACA9
:1024B000841A71EB030C07D212198CF0004C43EB19
:1024C0000C03001B61EB0C01DFF8A4E14FEA11548F
:1024D000A4EB135C1EEA430F18BF9EEA445F00F0B2
:1024E000B08023EA6E03524221EA0451C3EB6E032B
:1024F00038BF5B1EDCF1200E25D322FA0CFE10EB58
:102500000E0043FA0CFE41EB0E01CCF1200E03FA53
:102510000EFE10EB0E0051F10001CCF1200E29D47B
:1025200012FA0EF201EB0451BDE8104058BF70479B
:10253000401C1CBFB2F1004F704700280CBF491C63
:1025400020F00100704712EB020E43EB030218BFAC
:102550004FF0010E4EEA4202ACF1200CDCF11E0EEF
:1025600054D943FA0CFE10EB0E0051F1FF31CCF1BF
:102570001E0ED5D50EF1010E12FA0EFE404141EBB2
:10258000010101EB445C5FEA5C5C10D910EBDE708A
:1025900001EB045138BFBEF1004FBDE8104018BF39
:1025A000704700280CBF491C20F00100704730D252
:1025B0004FEAD42C11F5001124F400641BD0B1FAB9
:1025C00081F20B3AA41AA41ED2F12003914030FAF2
:1025D00003F31943904001EBCC71002C01EB045143
:1025E000BDE81040A8BF704701F1C0414FF00000A6
:1025F00001F000417047B0FA80F310FA03F100D106
:1026000010BDE41A173C4805C90AE4E701EB045180
:1026100010BD491001EB0451BDE810404FEA3000F5
:1026200002E04FF0000170474A0008BF0042F8D0B6
:10263000B2F5001F28BF704701F000414FF00000C5
:1026400070479EEA445F07D011EA5E0FBDE8104074
:1026500004BF002100207047BDE8104070B5FFF7AF
:10266000BFFE00BF40DFF63E83F0004110467047DA
:102670000000E0FFFF2141EAD050C00570470CF098
:102680000F03092B08BF082000F059800A2B0BD03C
:10269000082B18BF704708BF1CF0400F0AD04FF03E
:1026A00000004FF0000170471CF0400F18BF4FF0C2
:1026B000004070471CF0100F08D020F0704300F06D
:1026C0007F4242EAD3014FEA4370704700F0604016
:1026D00021F07F4242EA000201F07F4040EA72703E
:1026E00070474FF0FF0C4CF4E06C1CEA11531CBF18
:1026F0009CEA030C9445C2BFDA4201EB02517047D9
:10270000002B0DD0BCF1000F0FD0002A01F00041CA
:10271000A4BF41F0E04141F07F614FF000007047FD
:1027200001F000414FF00000704750EA01334FF0D4
:102730009B0C18BF4CF0806C7FF4EEAB70471CF420
:10274000801F11D01CF4E02F03D06FEACC31490078
:1027500070474FF04050EFF3008222F0704242EA9F
:10276000000282F3008870474FF0000070470000BD
:102770000000000000000102030406070809000031
:1027800000000102030400004C5555555555A53F66
:102790007751C1166CC156BF9015CB19A001FA3EF6
:1027A000AD529C804F7E92BEC4B1B4BD9EEE213E20
:1027B000D43888BEE9FAA8BD00004054FB21F93F97
:1027C0003163621A61B4D03D0000601A61B4D03D3B
:1027D0007370032E8A19A33B0000002E8A19A33BB5
:1027E000C14920259A837B390000000000000000C9
:1027F0006E83F9A22915444ED15727FCC0DD34F56C
:10280000999562DB4190433CAB6351FE61C5BBDEF1
:102810003A6E24B7E0D24D42EA2E49061C92D10905
:102820001CEB1DFE3EA729B1F53582E88444BB2E82
:1028300026709CE9417E5FB439D69139F4395383CF
:102840008B5F849C3B28F9BDFF97F81F0F9805DE2E
:102850008B112FEF1F6D0A5ACF7E366DB709CB272C
:10286000663F464F2DEA5F9EC7BA27757BF1E5EBC1
:10287000F739073DEA92528AB15FFB6B085D8D1F05
:10288000A6F810111111813FD561C119A0012ABF0D
:102890007DFEB157E31DC73EEB9C2B8AE6E55ABE91
:1028A0007CD5CF5A3AD9E53DC82800080000002061
:1028B000240000006C010008EC280008240000201F
:1028C0006C070000880100080024F40000000000EC
:1028D00010000000010000000000000000000000E7
:0C28E000000000000000000000000000EC
:0400000508000131BD
:00000001FF
